:100000000C94D4000C94FC000C94FC000C94FC00A8
:100010000C94FC000C94FC000C94FC000C94FC0070
:100020000C94FC000C94FC000C94A70B0C94240C76
:100030000C94FC000C94FC000C94FC000C94FC0050
:100040000C94FC000C94560E0C94FC000C94FC00D8
:100050000C94FC000C94FC000C94FC000C945D0BC4
:100060000C94FC000C94FC000C94FC000C94FC0020
:100070000C94FC000C94FC000C94FC000C94FC0010
:100080000C94FC000C94FC000C94FC000C94FC0000
:100090000C94FC000C94FC000C94FC000C94FC00F0
:1000A0000C94FC000C94FC000C94FC00080B000267
:1000B0000202000009040000010202000005240001
:1000C0001001052401010104240206052406000193
:1000D0000705810310004009040100020A00000026
:1000E00007050202400000070583024000000403E8
:1000F000090412010002EF0201404F1B06920001A9
:1001000001020301537061726B46756E005370619A
:10011000726B46756E2050726F204D6963726F006E
:10012000070605040100080A0B0C0D090000000277
:1001300000090F0000030401000C00000000000093
:10014000000000000000000000000000000025008A
:1001500028002B002E0031000000000024002700A2
:100160002A002D00300004040404040304050202E4
:100170000202040302020202060606060606040440
:1001800002020204040408020110408040102040D2
:10019000804080080204018040201002011080107D
:1001A000204040202D0FE81911241FBECFEFDAE0C8
:1001B000DEBFCDBF17E0A0E0B1E0E0E1FEE302C0AA
:1001C00005900D92AE32B107D9F727E0AEE2B7E065
:1001D00001C01D92AD3EB207E1F710E0C3EDD0E0E3
:1001E00004C02197FE010E94A31CC23DD107C9F79C
:1001F0000E94530F0C94FB1E0C94000090E0FC0135
:10020000EB57FE4F24918A599E4FFC01849188231D
:1002100099F090E0880F991FFC01E85AFE4FA591D4
:10022000B491FC01E65BFE4F859194918FB7F894F1
:10023000EC91E22BEC938FBF0895CF93DF93FC01F9
:10024000389623E030E0EC01A991CE012A0F311D50
:10025000EC17FD07C1F7FB01CB0108966191260F52
:10026000311D8E179F07D1F7FA01CA0109964191F6
:10027000240F311D8E179F07D1F7822FDF91CF9169
:10028000089583E08093E9008091F200882319F0BB
:100290008AE38093E8000895FC0180917807882321
:1002A00011F13FB7F89482E08093E9002091F200C9
:1002B000822F90E01816190614F481E090E088234C
:1002C00039F0289844E6409377074091F100408345
:1002D000222339F02091F200211103C02BE6209354
:1002E000E8003FBF08958FEF9FEF08952FB7F89470
:1002F00083E08093E9009091E800892F807295FF58
:1003000004C09091F20080E4891B2FBF0895809172
:100310006F0781110DC082E080936B0784E08093AA
:100320006C0710926E0710926D0781E080936F0743
:100330008BE697E00895282F30E0F901E45DFE4F49
:100340009491F901EB57FE4F84912A593E4FF901E0
:100350002491222309F430C09923E9F091509F3071
:10036000D0F4E92FF0E0E954FE4F0C94A31CE50112
:10037000E901C601DD01E101CB01CB01CB01EC01BB
:10038000F201F601FA010002CB0104029091800013
:100390009F7790938000E22FF0E0EE0FFF1FE65B67
:1003A000FE4FA591B4919FB7F894EC91611132C0C2
:1003B00080958E238C939FBF0895909180009F7DA0
:1003C000E8CF90918000977FE4CF94B59F7794BD5C
:1003D000E2CF94B59F7DFBCF909190009F77909353
:1003E0009000D9CF909190009F7DF9CF909190008F
:1003F000977FF5CF9091C0009F779093C000CBCFAF
:100400009091C0009F7DF9CF9091C200977F90930B
:10041000C200C1CF8E2BCECFCF93DF93EC0189E00A
:100420000E94FE00209731F460E089E0DF91CF91D7
:100430000C949B01CF3FD10511F461E0F6CFE5E3C9
:10044000F1E0E491E150EF3008F07EC0F0E0E55DCE
:10045000FD4F0C94A31C3A024102460250025A027C
:10046000A402A402A40264026E02780282028F0235
:10047000A402970284B5806884BDC7BDDF91CF9187
:10048000089584B5806284BDC8BDF8CF8091800096
:10049000806880938000D0938900C0938800EECF5D
:1004A00080918000806280938000D0938B00C09305
:1004B0008A00E4CF80918000886080938000D09390
:1004C0008D00C0938C00DACF80919000806880937B
:1004D0009000D0939900C0939800D0CF8091900065
:1004E000806280939000D0939B00C0939A00C6CF07
:1004F00080919000886080939000D0939D00C0937D
:100500009C00BCCF8091C00080688093C000809127
:10051000C0008F7B8093C000C093CF00AFCF80918D
:10052000C00080628093C000C093D000A7CF8091AC
:10053000C20088608093C2008091C2008B7F80934C
:10054000C200C093D2009ACFC038D1050CF075CF4D
:100550006BCF3FB7F8948091670790916807A0919F
:100560006907B0916A0726B5A89B05C02F3F19F00F
:100570000196A11DB11D3FBFBA2FA92F982F882723
:10058000BC01CD01620F711D811D911D42E0660FFE
:10059000771F881F991F4A95D1F708958F929F92D0
:1005A000AF92BF92CF92DF92EF92FF926B017C01EC
:1005B0000E94A9024B015C01C114D104E104F104C1
:1005C000B9F00E94A902681979098A099B09683E55
:1005D00073408105910580F321E0C21AD108E1083A
:1005E000F10888EE880E83E0981EA11CB11CE4CFB0
:1005F000FF90EF90DF90CF90BF90AF909F908F9043
:100600000895089540915607509157072091540737
:100610003091550742175307B4F49091E800957054
:10062000E1F39091E80092FD19C08093F100809170
:1006300056079091570701968F739927892B19F4C4
:100640008EEF8093E80080915607909157070196AE
:10065000909357078093560781E0089580E00895AE
:10066000EF92FF920F931F93CF93DF93F82E192FE2
:10067000E62E042F81E0860F880F0E94020383E09C
:100680000E940203CF2DD12FEC0EFD2EF11CCE15B2
:10069000DF05B9F007FF13C0FE0184910E94020339
:1006A000182F80E00E940203812321968111EFCF51
:1006B000DF91CF911F910F91FF90EF900895888166
:1006C000EDCF81E0F5CFDF92EF92FF920F931F9372
:1006D000CF93DF93D82E8A01EB017B01E40EF51E48
:1006E000CE15DF0559F0D7FE12C0FE0184910E949D
:1006F000020321968111F4CF0FEF1FEFC801DF91A4
:10070000CF911F910F91FF90EF90DF900895888116
:10071000EECF0F931F93CF93DF931F92CDB7DEB72A
:1007200082E0898342E450E06CEA70E080E80E9455
:1007300063030E948701DC0112960D911C91011543
:10074000110589F0D801ED91FC910280F381E02D33
:10075000BE016F5F7F4FC801099597FD04C0F80186
:1007600000851185ECCF89810F90DF91CF911F918A
:100770000F910895615030F02091F100FC01208329
:100780000196F8CF289884E68093770708958F9292
:100790009F92AF92BF92CF92DF92EF92FF920F9310
:1007A0001F93CF93DF936C017B018A0180910B0132
:1007B000882309F45CC080917807882309F457C026
:1007C00080915A0780FF05C08091E000826080938D
:1007D000E000E801B12C8AEFA82E93E0892E2AE3ED
:1007E000922E209711F4BB20D9F10E94760181113D
:1007F0000AC0AA94AA20D9F161E070E080E090E0FC
:100800000E94CE02EECF8C171D0611F00CF08C2F3B
:100810009FB7F8948092E9002091E80025FD02C07E
:100820009FBFDFCF282F30E0C21BD30BF7018150D1
:1008300020F041914093F100FACFE20EF31EBB206D
:1008400021F09092E800B12CEBCF8091E80085FD7B
:10085000E7CF9092E800BB24B394209709F3F3CF3D
:100860005D9884E680935907101611063CF081E0EC
:1008700090E0F6019383828310E000E0C801DF91ED
:10088000CF911F910F91FF90EF90DF90CF90BF908D
:10089000AF909F908F900895FC01448155816081B5
:1008A000718188E897E00C94C703CF93DF931F9280
:1008B000CDB7DEB76983DC01ED91FC910280F38155
:1008C000E02D41E050E0BE016F5F7F4F09950F9032
:1008D000DF91CF9108950C9441010E94760190E040
:1008E0000895CF93DF931F92CDB7DEB7FC018485C7
:1008F000958597FD08C02FEF3FEF358724870F9030
:10090000DF91CF910895CE0101960E944C0101978D
:1009100019F4898190E0F3CF8FEF9FEFF0CF0F9321
:100920001F93CF93DF931F92CDB7DEB78C01FC01ED
:100930008485958597FF0BC0CE0101960E944C01DE
:10094000019771F4898190E0F80195878487F80117
:10095000848595850F90DF91CF911F910F91089518
:100960008FEF9FEFF1CFFC018485958597FD0BC03C
:100970009FB7F89482E08093E9008091F2009FBFD6
:1009800090E0019608959FB7F89482E08093E90083
:100990008091F2009FBF90E008958F929F92AF9256
:1009A000BF92CF92DF92EF92FF92FC01828158E5D5
:1009B000C52E52E0D52EC81AD10887FDD394CC0C91
:1009C000DD1CCC0CDD1C0D2C000CEE08FF08818119
:1009D00078E8872E912C881A910887FD9394880CCB
:1009E000991C880C991C092C000CAA08BB08808152
:1009F0008F3FD1F190E0FC01EE0FFF1FE80FF91FD0
:100A0000E05DF84F8181928133E0880F991F3A951C
:100A1000E1F7B0E0A0E044E0B595A79597958795FC
:100A20004A95D1F702969C012F5F3F4F032E000C91
:100A3000440B550B281939094A095B09A4EBB0E0AE
:100A40000E942A1CA7019601281939094A095B0945
:100A50000E940B1CC901FF90EF90DF90CF90BF90D8
:100A6000AF909F908F90089590E080E0DCCFCF9280
:100A7000DF92EF92FF92CF93DF93EC01603282E03E
:100A80007807CCF5653B710514F064EB70E0898163
:100A900028E830E0281B310987FD3395220F331FEA
:100AA000220F331F6901330FEE08FF088A8128E502
:100AB00032E0281B310987FD3395220F331F220FA7
:100AC000331F032E000C440B550B2C193D094E0906
:100AD0005F09DB0177FF02C0B0E0A0E00E94351C97
:100AE00024EB30E040E050E00E940B1CC20ED31E0D
:100AF000E41EF51EB601E881EC3070F5298188E826
:100B000090E0821B910927FD9395880F991F880F0C
:100B1000991F681779077CF02A8188E592E0821B8B
:100B2000910927FD9395880F991F880F991F6817C2
:100B300079070CF4CB010297880F991F4FB7F894EF
:100B40002E2F30E0F901EE0FFF1FE20FF31FE05DE3
:100B5000F84F928381834FBFDF91CF91FF90EF9049
:100B6000DF90CF900895CF92DF92EF92FF920F9394
:100B70001F93CF93DF936C018B01653B710514F0DC
:100B800004EB10E017FF02C010E000E057FD3AC090
:100B9000EA01453B510514F0C4EBD0E0C017D10782
:100BA00041F1EE24E394F12C0C171D071CF0EE2408
:100BB000EA94FE2C0E0D1F1D81E0E816F10429F4C5
:100BC000C017D1074CF48E0107C08FEFE816F80666
:100BD00019F40C171D07BCF3B801C6010E943705B4
:100BE00068E070E080E090E00E94CE020C171D07E4
:100BF00009F7DF91CF911F910F91FF90EF90DF9058
:100C0000CF90089516161706A4F7D0E0C0E0CFCF16
:100C10001F93CF93DF93EC01162F88818C3008F05F
:100C20004DC0862F0E94FE008881282F30E0F901F8
:100C3000EE0FFF1FE20FF31FE05DF84F1F7360819F
:100C4000607C612B608319821A822CE0622F0E94E3
:100C5000831C829FB001112430E020E0AB01420FE1
:100C6000531FFA01EE0FFF1FE40FF51FE05DF84F71
:100C7000908196FD16C02F5F3F4F2C30310571F7E4
:100C800081110FC01092800082E080938100109249
:100C9000850010928400B19A80916F0082608093E9
:100CA0006F00E8818E2F90E0FC01EE0FFF1FE80F30
:100CB000F91FE05DF84F8081806480838881DF9137
:100CC000CF911F910895860F971F853B910514F0D2
:100CD00084EB90E097FF02C090E080E00895CF920F
:100CE000DF92EF92FF921F93CF93DF93182F60E074
:100CF0008EE00E949B01C7E0D0E0C12ED12C83E0A2
:100D0000E82EF12CB6010C2E02C0759567950A9459
:100D1000E2F7617080E10E949B0161E08FE00E9438
:100D20009B01C7010197F1F760E08FE00E949B01F2
:100D3000C7010197F1F7219728F761E08EE00E9443
:100D40009B018BE090E00197F1F760E08EE00E945C
:100D50009B0110936107DF91CF911F91FF90EF905E
:100D6000DF90CF900895FC0101900020E9F73197C2
:100D7000AF01481B590BBC0188E897E00C94C703EE
:100D80008F929F92AF92BF920F931F93CF93DF9357
:100D9000CDB7DEB7A1970FB6F894DEBF0FBECDBFBB
:100DA00019A2423008F44AE08E010F5D1F4F842ED5
:100DB000912CB12CA12CA50194010E94E91BE62FD6
:100DC000B901CA01EA30F4F4E05DD801EE938D0177
:100DD000232B242B252B79F790E080E0109719F036
:100DE000CD010E94B306A1960FB6F894DEBF0FBEE8
:100DF000CDBFDF91CF911F910F91BF90AF909F908A
:100E00008F900895E95CE1CFCF92DF92EF92FF924D
:100E1000CF93DF936B017C016DE288E897E00E943D
:100E20005504EC0166277727CB016C197D098E09E3
:100E30009F094AE00E94C0068C0F9D1FDF91CF9151
:100E4000FF90EF90DF90CF900895BC01990F880B31
:100E5000990B97FD0C9404074AE00C94C006CF93BD
:100E6000DF93462F682F70E090E080E00E94C0067C
:100E7000EC018BE691E00E94B3068C0F9D1FDF9181
:100E8000CF9108950C94B306CF93C82F8093830716
:100E9000809509F481E090E00E940C028EE691E0DA
:100EA0000E9442076AE070E08C2FCF910C942F07CC
:100EB000CF93C82F0E946F0681EA91E00E944207FB
:100EC00060E170E08C2FCF910C942F07CF93DF93CC
:100ED0000E94B306EC018BE691E00E94B3068C0FF2
:100EE0009D1FDF91CF9108958BEB91E00E946607E3
:100EF0000E94410162E370E080E090E00E94CE0237
:100F000088E198E00FB6F894A895809360000FBE32
:100F100090936000FFCF66E070E084EE97E00E945F
:100F2000080663E070E081EE97E00E94080665E045
:100F300070E08EED97E00E9408068BED91E00E9434
:100F4000660768E070E080E090E00C94CE0280EFED
:100F500091E00E946607E091E4078E2F90E0FC018B
:100F6000EE0FFF1FE80FF91FE05DF84F80818F7BC8
:100F70008083E091E1078E2F90E0FC01EE0FFF1FD0
:100F8000E80FF91FE05DF84F80818F7B8083E0914F
:100F9000DE078E2F90E0FC01EE0FFF1FE80FF91F18
:100FA000E05DF84F80818F7B808308959F92AF92A0
:100FB000BF92CF92DF92EF92FF920F931F93CF9346
:100FC000DF93962EE82EF12CC62FD0E0CE19DF0944
:100FD0008E01D7FF04C0002711270C1B1D0B0E31FB
:100FE000110514F00EE110E00E94A70766E070E022
:100FF00080E090E00E94CE026E01AA24A394B12C5E
:101000000A151B05FCF0C601B8010E948F1CCB011C
:101010008E0D9F1D97FD14C08F3F910519F014F0A0
:101020008FEF90E00E9444076CE070E080E090E079
:101030000E94CE028FEFA81AB80ACC0EDD1EE0CFB8
:1010400080E0F0CF892D0E94440768E070E080E0E6
:1010500090E00E94CE020E948B0766E070E080E084
:1010600090E0DF91CF911F910F91FF90EF90DF9073
:10107000CF90BF90AF909F900C94CE02CF93DF9310
:10108000BC01990F880B990B97FF0CC00E940407B5
:10109000EC018BE691E00E94B3068C0F9D1FDF915F
:1010A000CF9108954AE00E94C006F2CFCF92DF921E
:1010B000EF92FF920F931F93CF93DF93CDB7DEB7DD
:1010C00061970FB6F894DEBF0FBECDBFE0E2F1E04E
:1010D000E49190917B008E2F880F880F80729F7D06
:1010E000892B80937B00E770E064E0937C00809123
:1010F0007A00806480937A0080917A0086FDFCCF2C
:1011000000917800109179000E94A902012E000C34
:10111000220B330B600F711F821F931F6115710526
:101120008105910511F00E94871A81E1EAE2F2E05F
:10113000DE01119601900D928A95E1F709E717E01B
:1011400080E1C82ED12CE12CF12C0E94381AA70185
:1011500096010E940B1C21E030E02C0F3D1F620F16
:10116000731FFB018081F80181938F01F7E0013843
:101170001F0759F71092810761960FB6F894DEBFEA
:101180000FBECDBFDF91CF911F910F91FF90EF90D8
:10119000DF90CF900895CF93DF93FC0124813581B8
:1011A000232B71F0C081D18160E270E0CE010E94FA
:1011B000B81E009729F08C1B9D0BDF91CF910895ED
:1011C0008FEF9FEFFACFFC0180819181009711F0A2
:1011D0000C94591D0895FC0180819181009711F0B4
:1011E0000C947B1B60E070E0CB010895AF92BF923E
:1011F000CF92DF92EF92FF920F931F93CF93DF93E3
:10120000DC01CD90DC901197C114D10439F0149613
:10121000CD91DC918C017601209761F4DF91CF9123
:101220001F910F91FF90EF90DF90CF90BF90AF9004
:10123000089575015701BFEFAB1ABB0AF701808112
:10124000082E000C990B0E94A21B892B91F7219765
:10125000CC0DDD1D8881082E000C990B0E94A21B6D
:10126000892B29F0CE15DF0510F02197F3CFAE01C1
:101270004F5F5F4F4E195F09D80115965C934E93EF
:101280001497CE14DF0420F4B701C6010E94AF1EEC
:10129000D801ED91FC91119714968D919C91E80FD6
:1012A000F91F1082BBCFCF93DF93FC01C081D181A6
:1012B000209761F08991882349F0082E000C990B42
:1012C0000E94A71EFE0131978083F4CFDF91CF915A
:1012D0000895FB0144815581FC0124813581241747
:1012E000350778F080819181009759F0FB0160818A
:1012F00071816115710529F00E94D31E21E0892BAF
:1013000009F020E0822F0895FC0124813581232BF0
:1013100039F421E0FB018081882349F020E007C0F7
:10132000808191810E94C31E21E0892BB9F7822F11
:1013300008950F931F93CF93DF93EC0188819981D8
:10134000009759F02A813B812617370730F081E05A
:10135000DF91CF911F910F9108958B016F5F7F4FA8
:101360000E94E21D009759F0998388831B830A83AA
:101370002C813D81232B59F7FC011082E8CF80E0BE
:10138000E7CFEF92FF920F931F93CF93DF93EC0180
:101390007B018A01BA010E94990928813981811152
:1013A00014C02115310519F0C9010E94591D198277
:1013B00018821D821C821B821A82CE01DF91CF917E
:1013C0001F910F91FF90EF9008951D830C83B7013B
:1013D000C9010E94CC1EF1CFFC0111821082138240
:1013E000128215821482FB0101900020E9F73197E7
:1013F000AF01461B570B0C94C109AF92BF92CF921D
:10140000DF92EF92FF920F931F93CF93DF93EC0144
:101410006B015A0179012417350720F48B2D5901EE
:10142000E42EF82E6DE671E0CE010E94EC09D601A3
:1014300014960D911C91A016B10628F5E016F10640
:1014400008F48701D601ED91FC911197E00FF11F8F
:10145000F08010826D917C916A0D7B1D6115710584
:10146000F1F0FB0101900020E9F73197AF01461B35
:10147000570BCE010E94C109F60180819181080FAE
:10148000191FD801FC92CE01DF91CF911F910F91CE
:10149000FF90EF90DF90CF90BF90AF90089588813C
:1014A0009981009711F00E94591D198218821D829E
:1014B0001C821B821A82E0CFCF93DF93EC01FB01E9
:1014C000248135810E94FD09CE01DF91CF910895DD
:1014D0000C94C31BFF920F931F93CF93DF93EC01E8
:1014E000F62E08811981C8010E94C31BF81621F04D
:1014F0006F2DC8010E94CB1BCE01DF91CF911F91B0
:101500000F91FF9008954F925F926F927F928F920A
:101510009F92AF92BF92CF92DF92EF92FF920F9382
:101520001F93CF93DF93CDB7DEB76B970FB6F894C9
:10153000DEBF0FBECDBF25E131E0F90101900020F3
:10154000E9F79F01265131405E01FAE0AF0EB11C70
:10155000F50190E080E0450140E28217930724F412
:10156000DC01AB5EBE4F4C914193019688309105F2
:1015700099F72CE031E0F90101900020E9F79F0193
:101580002D5031406E01F2E1CF0ED11CF60190E0FA
:1015900080E0360140E28217930724F4DC01A45F67
:1015A000BE4F4C91419301968830910599F729E7F8
:1015B00037E0F90101900020E9F79F012A573740F1
:1015C000CE0101967C01FC0190E080E0270140E221
:1015D0008217930724F4DC01A758B84F4C9141932C
:1015E00001968830910599F719861B8E1A8E6AE547
:1015F000CE014A960E946A0A81E090E09B8F8A8F12
:1016000065EACE014A960E946A0A82E090E09B8FCA
:101610008A8F63E0CE014A960E946A0A03E010E0D6
:10162000F50161915F011B8F0A8FCE014A960E94DE
:101630006A0A0F5F1F4F0B30110591F7F601619198
:101640006F011B8F0A8FCE014A960E946A0A0F5FB4
:101650001F4F0331110591F7F70161917F011B8F36
:101660000A8FCE014A960E946A0A0F5F1F4F0C3103
:10167000110591F7A201B301C4010E941D011B8F46
:101680000A8F682FCE014A960E946A0A6B960FB69F
:10169000F894DEBF0FBECDBFDF91CF911F910F91A8
:1016A000FF90EF90DF90CF90BF90AF909F908F9082
:1016B0007F906F905F904F9008951F920F920FB69A
:1016C0000F9211242F933F938F939F93AF93BF93C8
:1016D0008091630790916407A0916507B0916607B8
:1016E0003091620723E0230F2D3758F50196A11D95
:1016F000B11D209362078093630790936407A093C2
:101700006507B09366078091670790916807A0917D
:101710006907B0916A070196A11DB11D8093670703
:1017200090936807A0936907B0936A07BF91AF9140
:101730009F918F913F912F910F900FBE0F901F900F
:10174000189526E8230F0296A11DB11DD2CF1F9236
:101750000F920FB60F9211242F933F934F935F93E5
:101760006F937F938F939F93AF93BF93CF93EF9399
:10177000FF93C091E1008091E100837F8093E100BD
:10178000C3FF0FC01092E90081E08093EB0010923C
:10179000EC0082E38093ED001092780788E080935C
:1017A000F000C2FF1AC00E944101809159078823AE
:1017B00041F080915907815080935907811101C0F0
:1017C0005D9A80917707882341F080917707815057
:1017D00080937707811101C0289AC4FF23C08091AC
:1017E000E2008E7E81608093E2008091E1008F7E36
:1017F0008093E10080915A078E7E806180935A0722
:10180000FF91EF91CF91BF91AF919F918F917F9178
:101810006F915F914F913F912F910F900FBE0F905D
:101820001F901895C0FFECCF8091E2008E7E806102
:101830008093E2008091E1008E7E8093E1008091B0
:101840005A078E7E8160DACF1F920F920FB60F92E9
:101850001124CF92DF92EF92FF920F931F932F9359
:101860003F934F935F936F937F938F939F93AF9328
:10187000BF93EF93FF93CF93DF93CDB7DEB76C9712
:10188000DEBFCDBF1092E9008091E80083FF25C044
:1018900068E0CE0145960E94BA0382EF8093E8008B
:1018A0008D8987FF39C09091E80090FFFCCF982F79
:1018B000907609F034C19E894F89588D2F89F88C14
:1018C000911131C0803861F580915B078093F10000
:1018D0001092F1008EEF8093E8006C960FB6F894AA
:1018E000DEBF0FBECDBFDF91CF91FF91EF91BF91D2
:1018F000AF919F918F917F916F915F914F913F91A8
:101900002F911F910F91FF90EF90DF90CF900F904C
:101910000FBE0F901F9018959EEF9093E800C7CFD1
:101920001092F100D5CF913059F48111D3CF4130CD
:10193000510581F680915B078D7F80935B07CACF4D
:10194000933049F48111C6CF4130510519F6809189
:101950005B078260F2CF953041F48091E80080FF10
:10196000FCCF20682093E300B5CF963009F0A9C0E2
:101970000B8D1C8D22E01092E900109257071092F7
:101980005607F2122EC010925507109254070E946B
:1019900089031F8299E09983FA8291E09E8390EAFD
:1019A00098879AEF99872091560730915707275FBC
:1019B0003F4F3C832B838D831092E9001092570791
:1019C00010925607109355070093540749E050E0D2
:1019D000BE016F5F7F4F80E00E9463030E94890316
:1019E00079CF10935507009354070E948701DC01BB
:1019F00012960D911C910115110509F451C1D801E0
:101A0000ED91FC910480F581E02DBE016B5E7F4F6E
:101A1000C8010995009709F03EC1F80100851185BC
:101A2000EACFF3E0FF120EC08F89882309F440C08B
:101A3000823061F440E862E18DE091E00E94300381
:101A4000811148CF81E28093EB0047CF813029F4A8
:101A500040E868E084E091E0F1CF833099F70E949C
:101A60008701DC011296ED90FC908E010F5F1F4FF5
:101A70006801E114F10479F0D701ED91FC91068041
:101A8000F781E02DB801C7010995080F111DF70175
:101A9000E084F184EECFD8011C92F6010190002081
:101AA000E9F73197BF016C197D0940E0C601C6CF47
:101AB0006EEE70E0FB01449150E080E80E94630309
:101AC00009CF973009F4BECF983021F481E080939C
:101AD000F10000CF993009F0FDCE837009F0B2CF4C
:101AE000E9E2F1E081E031E096E32191222371F017
:101AF0008093E9003093EB00DF0111972C91209344
:101B0000EC009093ED008F5F873079F78EE780933C
:101B1000EA001092EA008F8980937807DBCE8B8DE4
:101B20009C8D1092E90010925707109256079093DF
:101B3000550780935407898D811192C08E899D89A4
:101B4000913A49F4813209F07DCF47E050E064E0FA
:101B500071E080E0B3CF913209F074CF833269F441
:101B60008F89988DB0E0A0E08093000190930101EF
:101B7000A0930201B0930301ADCE803269F480914D
:101B8000E80082FFFCCF67E084E091E00E94BA03A6
:101B90008BEF8093E8009ECE823209F09BCE8F8936
:101BA00080930B01EEEFFFE7859194918B3F9C4D65
:101BB00051F1E0E0F8E08091040190910501A091DD
:101BC0000601B0910701803B9440A105B105F1F4F5
:101BD00080910B0180FD1AC0EE3F8AE0F80789F57D
:101BE00087E797E79183808380916000809358070F
:101BF00088E19BE00FB6F894A895809360000FBE33
:101C00009093600067CEEEEFFAE0D5CF80819181AE
:101C10008737974709F05ECEA8958091600088616C
:101C2000809360008091580780936000EE3F2AE027
:101C3000F20789F08091FE0A9091FF0A91838083D8
:101C400049CE808191818737980751F29093FF0A9E
:101C50008093FE0AC5CF1092FF0A1092FE0A3ACE78
:101C60000E948701DC0112960D911C91011511054E
:101C700009F4E8CED801ED91FC910190F081E02DBE
:101C8000BE016B5E7F4FC8010995811123CEF8011B
:101C900000851185EBCF181619060CF41BCED2CE99
:101CA000F1E0FF12BECE62EF70E004CF1F920F9200
:101CB0000FB60F9211242F933F934F935F936F931F
:101CC0007F938F939F93AF93BF93CF93DF93EF93C4
:101CD000FF9380912E07C0912F07D0E087FF24C08B
:101CE000109285001092840080912E078F5F809360
:101CF0002E0780912E07082E000C990B8C179D073C
:101D000024F480912E078C30C4F18091840090914E
:101D10008500049680349C4908F47AC08091840040
:101D200090918500049676C080912E07082E000CB5
:101D3000990B8C179D07C4F6E0912E078E2FEE0F9E
:101D4000990BFC01EE0FFF1FE80FF91FE05DF84F44
:101D5000808186FFC9CFE0912E078E2FEE0F990B61
:101D6000FC01EE0FFF1FE80FF91FE05DF84F8081C7
:101D700060E08F730E949B01B7CF20918400309167
:101D80008500E0912E078E2FEE0F990BFC01EE0FD0
:101D9000FF1FE80FF91FE05DF84F81819281820FEC
:101DA000931F9093890080938800E0912E078E2FD7
:101DB000EE0F990BFC01EE0FFF1FE80FF91FE05D1E
:101DC000F84F808186FF11C0E0912E078E2FEE0F15
:101DD000990BFC01EE0FFF1FE80FF91FE05DF84FB4
:101DE000808161E08F730E949B01FF91EF91DF91F1
:101DF000CF91BF91AF919F918F917F916F915F91A3
:101E00004F913F912F910F900FBE0F901F901895FB
:101E100080E49CE990938900809388008FEF809301
:101E20002E07E3CFFC0190912F079C3098F481E0BE
:101E3000890F80932F079083892F90E0FC01EE0F8C
:101E4000FF1FE80FF91FE05DF84F88EB9BE09283DE
:101E5000818308958FEF80830895E8E8F7E0138287
:101E6000128288EE93E0A0E0B0E084839583A6839D
:101E7000B7838DE591E0918380838FEF9FEF958706
:101E8000848784EE97E00E94120F81EE97E00E9413
:101E9000120F8EED97E00E94120F6DE671E088ED53
:101EA00097E00C94EC09CF93DF93CDB7DEB7CA541B
:101EB000D1090FB6F894DEBF0FBECDBF789484B5BC
:101EC000826084BD84B5816084BD85B5826085BD36
:101ED00085B5816085BD80916E00816080936E00C4
:101EE00010928100809181008260809381008091B6
:101EF0008100816080938100809180008160809367
:101F00008000809191008260809391008091910087
:101F10008160809391008091900081608093900017
:101F20008091C10084608093C1008091C100826073
:101F30008093C1008091C10081608093C100809135
:101F4000C30081608093C3008091C0008260809351
:101F5000C0008091C20081608093C20080917A00AD
:101F6000846080937A0080917A00826080937A0006
:101F700080917A00816080937A0080917A008068F5
:101F800080937A001092780710925B0710925A079C
:101F90008091D70081608093D70080EA8093D80039
:101FA00089B5806189BD89B5826089BD89B5282FD1
:101FB00021702BAF80FFFACF61E070E080E090E00D
:101FC0000E94CE028091D8008F7C80618093D800DF
:101FD0008091E000807F8093E0008091E1008E7E20
:101FE0008093E1008DE08093E200559A209A8FEF74
:101FF0009FEF909395078093940710910B016AE0EF
:1020000070E080E090E00E94CE02111107C062E013
:1020100070E080E090E00E94CE02EFCF90E080E0A0
:102020000E94680A182F81E090E00E94680A982FA9
:10203000812F8A35954A09F4D5C20E9456080E941C
:10204000830A8BE691E00E94B3068EE392E00E9441
:1020500066078EE00E94FE008FE00E94FE0080E195
:102060000E94FE0060E08EE00E949B0160E08FE035
:102070000E949B0160E080E10E949B0189E00E9438
:10208000FE001092830780E00E94440766E070E043
:1020900084EE97E00E94080663E070E081EE97E02E
:1020A0000E94080665E070E08EED97E00E94080649
:1020B00070E060E090E080E00E9463068C01BC016B
:1020C00084EE97E00E943705B80181EE97E00E9408
:1020D0003705B8018EED97E00E94370566E970E09C
:1020E00080E090E00E94CE0280E00E9458078BE6DC
:1020F00092E00E94660781E892E00E9442076AE04F
:1021000070E089E00E942F0782E992E00E94420776
:102110004AE06EE070E080E090E00E94C00689EA4C
:1021200092E00E9442074AE060E170E080E090E0C7
:102130000E94C00689EA92E00E9442076AE070E0CD
:102140008FE00E942F0760E971E080E090E00E943C
:10215000CE028BEA92E00E946607B0916107BEAFA3
:10216000E0918307E9AB20915C0730915D074091D6
:102170005E0750915F0723962CAF3DAF4EAF5FAF28
:1021800023978091840790918507A0918607B0914D
:10219000870727968CAF9DAFAEAFBFAF279770E094
:1021A00060E088E790E00E9463069EAB8DAB70E034
:1021B00060E08AE590E00E9463064C0184EE97E0BF
:1021C0000E94CD043C0181EE97E00E94CD042C01D9
:1021D0008EED97E00E94CD041C0189A9893708F093
:1021E00088E7805B0E944407809161078F600E94AE
:1021F0005807ADA9BEA9A619B709B8AFAFABF4018E
:10220000E419F509FAAFE9AF9401221933093DAF9A
:102210002CAF79016F01B8ABAFA73FE0A32EB12C73
:102220000CE010E0C601B8010E948F1CAB01440D08
:10223000551D29965FAF4EAF2997C701B8010E947F
:102240008F1CCB01820D931D2B969FAF8EAF2B97CA
:102250008FA598A9B8010E948F1C660D771D84EE8A
:1022600097E00E94370529966EAD7FAD299781EEE4
:1022700097E00E9437052B966EAD7FAD2B978EEDC4
:1022800097E00E94370520916107207FC501B801C2
:102290000E948F1C822F862B0E94580760E470E0FA
:1022A00080E090E00E94CE02AFA5B8A9EFA9F8ADFA
:1022B000AE0FBF1FB8ABAFA729AD3AADC20ED31E4C
:1022C0004CAD5DADE40EF51E5FE0A50EB11C83ECD8
:1022D000A816B10409F0A6CF6CED70E080E090E0A4
:1022E0000E94CE02D301EDA9FEA9AE1BBF0BB8AB75
:1022F000AFA75201A818B9086101C818D90816017A
:1023000025013D0105EA10E02CE0E22EF12CC2018E
:10231000B7010E948F1C9B01280D391D38AF2FABD0
:10232000C101B7010E948F1CAB01480D591D5AAF66
:1023300049AFC301B7010E948F1C8DA99EA9680FE8
:10234000791F84EE97E00E9437056FA978AD81EE82
:1023500097E00E94370569AD7AAD8EED97E00E9457
:10236000370520916107207FC801B7010E948F1CAB
:10237000822F862B0E94580760E470E080E090E096
:102380000E94CE02AFA5B8A96A0E7B1E4A0C5B1C48
:102390002C0C3D1C0F501109013FBFEF1B0709F02A
:1023A000B6CF809183078F3F19F06FEF0E94D60759
:1023B00068E770E080E090E00E94CE0260918307C1
:1023C0006F3F19F08FEF0E94D6076AE070E080E05F
:1023D00090E00E94CE0280915C0790915D07A091F1
:1023E0005E07B0915F0723962CAD3DAD4EAD5FAD5E
:1023F0002397281739074A075B0709F088C18EAD74
:102400000E9458078AEE92E00E9466078091840736
:1024100090918507A0918607B091870727962CADEC
:102420003DAD4EAD5FAD2797281739074A075B07CB
:1024300009F070C189A90E94440786E593E00E94D3
:10244000660786EC93E00E94660789ED93E00E94A0
:102450006607AA24A39488E897E00E94B304892B16
:1024600009F4DBC688E897E00E9471048D3099F387
:102470008A3009F064C61AA619A61CA61BA61EA6B9
:102480001DA66091D8077091D9076115710541F0BB
:102490004091DC075091DD07CE0189960E94C10969
:1024A000CE0189960E94F608EDA4FEA4E114F10481
:1024B00009F415C2CE0189960E94CB088C018F3F8A
:1024C000980709F02AC11CA21BA21EA21DA218A6D1
:1024D0001FA269A57AA56115710529F0A701CE0192
:1024E00083960E94C109CE0183960E9453096CE332
:1024F00074E0CE0183960E948409811155C060E486
:1025000074E0CE0183960E94840981114DC06CE372
:1025100074E0CE0101960E94EC09BE016F5F7F4F0F
:10252000CE0183960E946909FF24F394811135C07E
:1025300060E474E0CE010B960E94EC09BE01655F79
:102540007F4FCE0183960E946909FF24F394811185
:1025500020C064E474E0CE0144960E94EC098DA58D
:102560009EA5892B09F467C6E9A4FAA46C897D8924
:10257000C7010E94E11E009709F45DC68E199F09EC
:10258000F92EF094FF1CFF24FF1CCE0144960E94FC
:10259000E308CE010B960E94E308CE0101960E944B
:1025A000E308FF2009F4C4C08CE391E00E944207D5
:1025B00080917907882361F08CE494E00E944207BF
:1025C00084E391E00E94420789E797E00E94420776
:1025D0006BE388E897E00E9455048BE691E00E9447
:1025E000B30679C182E090E00E94680A782E6E01FD
:1025F00044E1C40ED11C7E015BE0E50EF11C8701B5
:10260000560153E0852E912CC4010E94680AD50121
:102610008D935D01C40108960E94680AF8018193B8
:102620008F01FFEF8F1A9F0A2BE08216910461F74A
:102630001C8E1B8A33E0731200CD8E010F5F1F4F7B
:10264000580143E1842E912CC4010E94680AD501EF
:102650008D935D01BFEF8B1A9B0AECE18E169104FE
:1026600099F71A868CE190E00E94680AB82EA801BA
:10267000B701C6010E941D01B812DFCCA601485F58
:102680005F4F90E080E0D6012D916D01322F3F7DAC
:1026900029F0FC01EB5EFE4F20830196C416D5069F
:1026A00091F78B5E9E4FFC011082A701485F5F4F40
:1026B00090E080E0D7012D917D01322F3F7D29F000
:1026C000FC01E45FFE4F208301964E155F0591F7F4
:1026D000845F9E4FFC011082A801485F5F4F90E02D
:1026E00080E0D8012D918D01322F3F7D29F0FC0132
:1026F000E758F84F208301960417150791F7FC015E
:10270000E758F84F1082892B09F09BCC96CC8EE0CD
:1027100093E07ACE8CE793E092CE9C0150E040E0CB
:10272000BE01675D7F4FCE0183960E94FD09DBCE1F
:1027300082E594E00E944207CE0183960E944C04F9
:102740008BE691E00E94B3066DE574E0CE018396BE
:102750000E948409882309F4D5C082E694E00E948F
:102760006607309061072090830740905C07509087
:102770005D0760905E0770905F078091840790917D
:102780008507A0918607B091870789AB9AABABAB61
:10279000BCAB832D8F600E945807809183078937D7
:1027A00008F088E7805B0E94440760E570E080E005
:1027B00090E00E94CE0284EE97E00E94CD046C016E
:1027C00081EE97E00E94CD047C018EED97E00E949F
:1027D000CD048C014DA95EA9B60184EE97E00E945C
:1027E000B305A401B70181EE97E00E94B305A401EF
:1027F000B8018EED97E00E94B30568EC70E080E0D0
:1028000090E00E94CE0284EE97E00E94CD04A601E3
:10281000BC0184EE97E00E94B30581EE97E00E9430
:10282000CD04A701BC0181EE97E00E94B3058EEDB7
:1028300097E00E94CD04A801BC018EED97E00E94B4
:10284000B305809183078F3F19F06FEF0E94D60781
:1028500068E770E080E090E00E94CE02609183071C
:102860006F3F19F08FEF0E94D6076AE070E080E0BA
:1028700090E00E94CE0280915C0790915D07A0914C
:102880005E07B0915F07481659066A067B06A1F5F8
:10289000832D0E94580786E994E00E946607809184
:1028A000840790918507A0918607B091870729A991
:1028B0003AA94BA95CA9281739074A075B07F9F41D
:1028C000822D0E94440789EF94E00E94660780E60B
:1028D00095E00E946607CE0183960E94E308CE0130
:1028E00089960E94E30850E040E06DE671E088EDD3
:1028F00097E00E94C109AFCD87EB94E0CECF8CE189
:1029000095E0E3CF6FE675E0CE0183960E948409DF
:1029100081110E94740765E775E0CE0183960E94DD
:102920008409882309F44CC00F3F1007F1F56DE6C8
:1029300071E0CE0101960E94EC09CE0101960E9441
:10294000EB08F12CE12C97FD09C07B016530710586
:10295000810591051CF094E0E92EF12C70E060E017
:102960008EE1482F4E9DC0014F9D900D11240E9475
:1029700063068C018AE795E00E944207C7010E9426
:10298000250783E891E00E944207C8010E943E08A3
:1029900084EE97E00E94CD04A801BC0184EE97E08C
:1029A0000E94B305CE010196D5C0A8014F5F5F4FCD
:1029B000BE01675D7F4FCE0101960E945C0ABDCFCC
:1029C00066E875E0CE0183960E948409811109C0F2
:1029D0006BE875E0CE0183960E948409882309F490
:1029E0004BC00F3F100709F0B8C06DE671E0CE0193
:1029F00001960E94EC09CE0101960E94EB08F12C91
:102A0000E12C97FD09C07B016430710581059105BA
:102A10001CF083E0E82EF12C70E060E08EE1A82F3E
:102A2000AE9DC001AF9D900D11240E9463068C01E4
:102A3000CE0183960E944C048EE795E00E944207E7
:102A4000C7010E94250783E891E00E944207C80160
:102A50000E943E0866E875E0CE0183960E948409D4
:102A6000882309F485C081EE97E00E94CD04A80177
:102A7000BC0181EE97E094CF60E975E0CE018396CA
:102A80000E94840981117DC063E975E0CE018396BF
:102A90000E948409811175C066E975E0CE018396B4
:102AA0000E94840981116DC069E975E0CE018396A9
:102AB0000E9484098111DEC060EB75E0CE0183962F
:102AC0000E948409882309F460C10F3F100709F0B0
:102AD000FBC06DE671E0CE010B960E94EC09CE01C1
:102AE0000B960E94CB088C0186EB95E00F3F1007F8
:102AF00069F1980150E040E0BE01655F7F4FCE0173
:102B000001960E94FD09CE0101960E94EB086B011F
:102B1000CE0101960E94E308A8014F5F5F4FBE01FE
:102B2000655F7F4FCE0101960E945C0ACE0101963F
:102B30000E94EB088B01CE0101960E94E30838E069
:102B4000C316D10408F4CBC085EE95E00E94660759
:102B5000CE010B960E94E308BECEA8014F5F5F4FE7
:102B6000BE01675D7F4FCE0101960E945C0A43CF94
:102B70008EED97E00E94CD04A801BC018EED97E098
:102B80000FCF0F3F100709F06AC06DE671E0CE016C
:102B900001960E94EC09CE0101960E94EB0810E01C
:102BA00000E097FD08C08B01653B7105810591052B
:102BB00014F004EB10E060E975E0CE0183960E940A
:102BC0008409882381F070E060E0C8010E946306F8
:102BD0007C0184EE97E00E94CD04A701BC0184EE45
:102BE00097E00E94B30563E975E0CE0183960E94E9
:102BF0008409882381F070E060E0C8010E946306C8
:102C00007C0181EE97E00E94CD04A701BC0181EE1A
:102C100097E00E94B30566E975E0CE0183960E94B5
:102C20008409882381F070E060E0C8010E94630697
:102C30007C018EED97E00E94CD04A701BC018EEDD2
:102C400097E00E94B305CE0183960E944C0483E86E
:102C500091E00E944207C8010E943E08A3CEA8014D
:102C60004F5F5F4FBE01675D7F4FCE0101960E94AF
:102C70005C0A91CF0F3F1007E1F46DE671E0CE01E1
:102C800001960E94EC0950E040E070E060E089812C
:102C90009A810E94901A162F862F0E941D198DE985
:102CA00095E00E94420760E170E0812F0E942F07AB
:102CB00079CEA8014F5F5F4FBE01675D7F4FCE01A8
:102CC00001960E945C0ADFCFA8014F5F5F4FBE01F3
:102CD000675D7F4FCE010B960E945C0A00CF81E0BA
:102CE00090E00C2C01C0880F0A94EAF7209161074C
:102CF0000115110509F441C0822B80936107809171
:102D000061070E941D1901151105D1F180918307FA
:102D1000811136C04CE050E068EC0E943E194CE056
:102D200050E060E088EC0E943E198FEF95E00E9431
:102D30004207C6010E94250783E891E00E944207EE
:102D40008BE392E0012B11F488E394E00E94660784
:102D500086E096E00E94420760E170E080916107A2
:102D60000E942F0786E196E00E9442076AE070E029
:102D7000809183070E942F07EBCE80958223BDCFE1
:102D8000809183070E944407D0CF6EE276E0CE01A7
:102D900083960E948409882399F10F3F100709F553
:102DA0006DE671E0CE0101960E94EC09CE0101961C
:102DB0000E94EB0897FD20C06F3F710581059105CA
:102DC00009F0E4F444E150E0809183070E943E1949
:102DD00081E396E00E9442076AE070E080918307F9
:102DE00065CFA8014F5F5F4FBE01675D7F4FCE018A
:102DF00001960E945C0ADACF60E0E4CF6FEFE2CF89
:102E000064E476E0CE0183960E9484098823C9F1A8
:102E100089E496E00E94660710E000E084EE97E007
:102E20000E94CD04A801BC0184EE97E00E94B30586
:102E3000065F1F4F0238110589F710E000E081E0BE
:102E4000002E01C0880F0A94EAF70E94580760E537
:102E500070E080E090E00E94CE020F5F1F4F0830CC
:102E6000110569F78FEF0E94580768EC70E080E069
:102E700090E00E94CE0280E00E9458078FE696E024
:102E800028CD68E374E0CE0183960E9484098823EC
:102E900031F080E00E941D1989E796E01ACD61E7C4
:102EA00075E0CE0183960E948409882309F43EC10F
:102EB0000F3F100731F56DE671E0CE014D960E948F
:102EC000EC09CE014D960E94CB088C010F3F1007F4
:102ED00019F51D8A1C8A1F8A1E8A198E188E6D8DFF
:102EE0007E8D6115710531F049A15AA1CE0144963C
:102EF0000E94C1096DE671E0CE010B960E94EC09BB
:102F00001FC0A8014F5F5F4FBE01675D7F4FCE01BD
:102F10004D960E945C0AD5CF980150E040E0BE017A
:102F2000635E7F4FCE0144960E94FD09A8014F5F6A
:102F30005F4FBE01635E7F4FCE010B960E945C0A1D
:102F4000CE0144960E945309CE010B960E94F608CA
:102F500067E876E0CE0144960E948409882391F0C8
:102F60006FE271E0CE010B960E948409882339F04C
:102F7000A09260078BE896E00E9466072CC086E965
:102F800096E0FACF65EA76E0CE0144960E94840985
:102F9000882321F060916007611128C068EA76E01B
:102FA000CE0144960E948409B82E81116FC066ED4F
:102FB00076E0CE0144960E948409882321F0809116
:102FC0006007811168C06AED76E0CE0144960E94E8
:102FD000840981119DC0CE010B960E94E308CE01A9
:102FE00044960E94E308CE014D96B4CD8F85988912
:102FF000089709F044C02B853C85F901A901495F78
:103000005F4F80E02115310509F0808190ED980F28
:103010009A30C0F18F7D815491E0863008F090E0C5
:103020004E175F0749F5992351F1CE010B960E9487
:1030300053094F8558892B853C85A9E7B7E0F901ED
:1030400090E080E084179507F8F421153105E1F050
:1030500060816D93019631968830910599F71092B1
:1030600081078DEA96E00E94420784E391E00E9486
:10307000420789E797E080CF31969111C2CF88EB64
:1030800096E07ACF962FCCCF60E0E3CF1092600726
:1030900088EC96E071CF60EE76E0CE0101960E945A
:1030A000EC098F8598892D813E8182179307E1F481
:1030B000892B49F1EB84FC8409811A81D7018D9118
:1030C0007D01882301F1082E000C990B0E949F1EA0
:1030D0006C01F80181918F01082E000C990B0E9460
:1030E0009F1EC816D90651F3CE0101960E94E3082F
:1030F000BB2059F00E94830A1092600784EE96E08C
:103100000E94660706CCBBACEFCF81EF96E034CFD0
:1031100080916007882339F00E94830A109260072B
:1031200082E097E029CF8DE097E026CF8CE197E011
:103130000E944207CE0189960E944C044ECA8983A0
:103140001A820091DC071091DD070F5F1F4FB80155
:1031500088ED97E00E949909882399F02091D8077B
:103160003091D9078091DC079091DD07BE016F5F38
:103170007F4F820F931F0E94CC1E1093DD07009398
:10318000DC074091DC075091DD07493C510508F40C
:1031900062C9485C510968ED77E0CE0101960E9452
:1031A0005C0A8091D8079091D9070097F9F069815E
:1031B0007A8161157105C1F04091DA075091DB0702
:1031C0002D813E814217530778F00E94CC1E8D81DD
:1031D0009E819093DD078093DC071E821D82CE01C5
:1031E00001960E94E30837C90E94591D89819A817E
:1031F0009093D9078093D8078B819C819093DB07AC
:103200008093DA078D819E819093DD078093DC07A0
:103210001A8219821C821B82E0CF62E070E080E09B
:1032200090E00E94CE0280E090E0892B09F411C961
:103230000E9400000EC9F12CA8C9CF93C82F0E948C
:103240006F0680915C0790915D07A0915E07B09139
:103250005F070196A11DB11D80935C0790935D07E8
:10326000A0935E07B0935F0788E891E00E94420751
:1032700060E170E08C2FCF910C942F079F92AF925A
:10328000BF92CF92DF92EF92FF920F931F93CF9353
:10329000DF9386131FC08091840790918507A091CA
:1032A0008607B09187070196A11DB11D8093840701
:1032B00090938507A0938607B0938707DF91CF91FE
:1032C0001F910F91FF90EF90DF90CF90BF90AF9044
:1032D0009F900895E82EF12CC62FD0E0CE19DF097B
:1032E0008E01D7FF04C0002711270C1B1D0B4017B0
:1032F00051070CF48A01962E0E94A70766E070E041
:1033000080E090E00E94CE026E01AA24A394B12C2A
:103310000A151B05FCF0C601B8010E948F1CCB01E9
:103320008E0D9F1D97FD14C08F3F910519F014F06D
:103330008FEF90E00E9444076CE070E080E090E046
:103340000E94CE028FEFA81AB80ACC0EDD1EE0CF85
:1033500080E0F0CF90928307809184079091850759
:10336000A0918607B09187070196A11DB11D80939A
:10337000840790938507A0938607B0938707892DCC
:10338000809509F481E090E00E940C0284E192E0D3
:103390000E9442076AE070E0892D0E942F0768E0D2
:1033A00070E080E090E00E94CE020E948B0766E011
:1033B00070E080E090E0DF91CF911F910F91FF903E
:1033C000EF90DF90CF90BF90AF909F900C94CE0283
:1033D00088ED97E00C94E3088F929F92AF92BF9292
:1033E000CF92DF92EF92FF92CF93DF93EC0168814F
:1033F00079818A819B81611571058105910521F48F
:1034000064E279ED8BE597E02DE133EF41E050E0A8
:103410000E940B1C49015A019B01AC01A7EAB1E4CF
:103420000E942A1C6B017C01ACEEB4EFA501940153
:103430000E94381CC60ED71EE81EF91EF7FE06C0F5
:1034400081E0C81AD108E10880E8F80AC882D98268
:10345000EA82FB82C701B6019F77DF91CF91FF908F
:10346000EF90DF90CF90BF90AF909F908F90089596
:103470008F929F92AF92BF92CF92DF92EF92FF9284
:1034800060911E0170911F01809120019091210196
:10349000611571058105910521F464E279ED8BE5F3
:1034A00097E02DE133EF41E050E00E940B1C490111
:1034B0005A019B01AC01A7EAB1E40E942A1C6B01EE
:1034C0007C01ACEEB4EFA50194010E94381CC60E3D
:1034D000D71EE81EF91EF7FE06C081E0C81AD10803
:1034E000E10880E8F80AC0921E01D0921F01E09224
:1034F0002001F0922101C701B6019F77FF90EF9064
:10350000DF90CF90BF90AF909F908F900895609381
:103510001E0170931F018093200190932101089553
:10352000B0E0A0E0E6E9FAE10C943E1C5C016B011E
:103530007A016115710519F0FB0191838083E11413
:10354000F10449F0C7010297839728F060E070E02A
:10355000CB019CC05E01E5012196F5011081812F10
:1035600090E00E94A21B892BA9F71D3209F056C0DA
:103570002196F501118101E0E114F10409F4AEC0D6
:10358000F0E1EF16F10409F08EC0103341F48881A8
:103590008F7D883509F083C0198122960260E0E1B1
:1035A000EE2EF12C88248A94982CA82CFFE0BF2EB4
:1035B00020E060E070E0CB0127010F2C000C6608D2
:1035C0007708FE0150ED352E310E39E0331538F411
:1035D0003FEB310F3A31A0F549EC342E310E3E1459
:1035E0001F04BCF52F3FB9F086169706A806B9064A
:1035F00070F1A30192010E94D91B232D30E050E00D
:1036000040E0620F731F841F951F621773078407C2
:103610009507E8F021E021961081D3CF1B3221F4E9
:10362000E5012296F501118100E0A6CF78E0E72EB2
:10363000F12C88248A94982CA82C6FE1B62EB8CF50
:103640003FE9310F3A3128F439EA332EC7CF2FEF53
:10365000E2CFC114D10431F02223E9F02197F60121
:10366000D183C08300FF07C09095809570956195C8
:103670007F4F8F4F9F4F2F3F49F482E290E090930E
:10368000E8078093E7076FEF7FEFCB01CDB7DEB799
:10369000E1E10C945A1C01FFE5CF2297E0CF10E343
:1036A000E114F10419F23AE0E316F104E9F080E1E3
:1036B000E816F10409F473CFE8E0EE16F10409F41A
:1036C000B8CF6FEF7FEFCB0197010F2C000C440BAD
:1036D000550B0E94E91B49015A016ACF103309F4C6
:1036E00056CF9AE0E92EF12C89E9882E982CA82C47
:1036F00089E1B82E5DCF1F93FC0199278827BC0173
:10370000E89411911032E9F3193010F01E30C8F32B
:103710001B3251F01D3249F4689406C00E94AB1B65
:10372000610F711D811D911D119110531A30B0F35D
:103730003EF490958095709561957F4F8F4F9F4F88
:103740001F91089591110C94C01B803219F089507B
:103750008550C8F70895592F482F372F262F660F09
:10376000771F881F991F660F771F881F991F620F89
:10377000731F841F951F660F771F881F991F089559
:10378000992788270895F999FECF92BD81BDF89AAF
:10379000992780B50895262FF999FECF1FBA92BDBB
:1037A00081BD20BD0FB6F894FA9AF99A0FBE019622
:1037B0000895DB018F939F930E942A1CBF91AF91C4
:1037C000A29F800D911DA39F900DB29F900D11247B
:1037D0000895A1E21A2EAA1BBB1BFD010DC0AA1F52
:1037E000BB1FEE1FFF1FA217B307E407F50720F06A
:1037F000A21BB30BE40BF50B661F771F881F991FE5
:103800001A9469F760957095809590959B01AC012D
:10381000BD01CF010895052E97FB1EF400940E9470
:10382000221C57FD07D00E94E91B07FC03D04EF471
:103830000C94221C50954095309521953F4F4F4F49
:103840005F4F089590958095709561957F4F8F4F4C
:103850009F4F08950E94741CA59F900DB49F900DDA
:10386000A49F800D911D11240895B7FF0C942A1C6C
:103870000E942A1C821B930B08952F923F924F9215
:103880005F926F927F928F929F92AF92BF92CF92F0
:10389000DF92EF92FF920F931F93CF93DF93CDB7F9
:1038A000DEB7CA1BDB0B0FB6F894DEBF0FBECDBF71
:1038B00009942A88398848885F846E847D848C8442
:1038C0009B84AA84B984C884DF80EE80FD800C814B
:1038D0001B81AA81B981CE0FD11D0FB6F894DEBF2E
:1038E0000FBECDBFED010895A29FB001B39FC001EF
:1038F000A39F700D811D1124911DB29F700D811D1C
:103900001124911D0895991B79E004C0991F961701
:1039100008F0961B881F7A95C9F78095089597FB44
:10392000072E16F4009407D077FD09D00E94A91C39
:1039300007FC05D03EF4909581959F4F08957095B2
:1039400061957F4F0895EE0FFF1F0590F491E02DD4
:103950000994AA1BBB1B51E107C0AA1FBB1FA617D6
:10396000B70710F0A61BB70B881F991F5A95A9F728
:1039700080959095BC01CD0108950F931F93CF932F
:10398000DF938230910510F482E090E0E091EB0744
:10399000F091EC0730E020E0B0E0A0E0309799F43F
:1039A0002115310509F44AC0281B390B2430310593
:1039B000D8F58A819B816115710589F1FB0193839B
:1039C0008283FE0111C04081518102811381481719
:1039D0005907E0F04817590799F4109761F01296CB
:1039E0000C93129713961C933296CF01DF91CF91CF
:1039F0001F910F9108950093EB071093EC07F4CFFC
:103A00002115310551F04217530738F0A901DB01A8
:103A10009A01BD01DF01F801C1CFEF01F9CF909309
:103A2000EC078093EB07CDCFFE01E20FF31F8193EC
:103A300091932250310939832883D7CF2091E90708
:103A40003091EA07232B41F4209124013091250184
:103A50003093EA072093E907209122013091230156
:103A60002115310541F42DB73EB740912601509103
:103A70002701241B350BE091E907F091EA07E217D3
:103A8000F307A0F42E1B3F0B2817390778F0AC0181
:103A90004E5F5F4F2417350748F04E0F5F1F50935E
:103AA000EA074093E907819391939FCFF0E0E0E02C
:103AB0009CCFCF93DF930097E9F0FC0132971382FC
:103AC0001282A091EB07B091EC07ED0130E020E00D
:103AD0001097A1F420813181820F931F2091E90773
:103AE0003091EA072817390709F061C0F093EA0717
:103AF000E093E907DF91CF910895EA01CE17DF0740
:103B0000E8F54A815B819E0141155105B1F7E90154
:103B1000FB83EA8349915991C40FD51FEC17FD0728
:103B200061F4808191810296840F951FE901998348
:103B30008883828193819B838A83F0E0E0E0129600
:103B40008D919C9113970097B9F52D913C91119708
:103B5000CD010296820F931F2091E9073091EA0769
:103B60002817390739F6309751F51092EC07109263
:103B7000EB07B093EA07A093E907BCCFD383C283D6
:103B800040815181840F951FC817D90761F44E5F9A
:103B90005F4F88819981480F591F518340838A81E3
:103BA0009B81938382832115310509F0B0CFF09377
:103BB000EC07E093EB079ECFFD01DC01C0CF138241
:103BC0001282D7CFB0E0A0E0E8EEFDE10C943F1CFC
:103BD0008C01009751F4CB010E94BD1C8C01C801DF
:103BE000CDB7DEB7E0E10C945B1CFC01E60FF71FDC
:103BF0009C0122503109E217F30708F49DC0D90156
:103C0000CD91DC911197C617D70798F0C530D10533
:103C100030F3CE0104978617970708F3C61BD70B1E
:103C20002297C193D1936D937C93CF010E94591D2C
:103C3000D6CF5B01AC1ABD0A4C018C0E9D1EA09123
:103C4000EB07B091EC07512C412CF12CE12C109793
:103C500031F58091E9079091EA078815990509F0F7
:103C60005CC04616570608F058C08091220190911A
:103C70002301009741F48DB79EB7409126015091E2
:103C80002701841B950BE817F90708F055C0F0933E
:103C9000EA07E093E907F90171836083A0CF8D9172
:103CA0009C91119712966C90129713967C90139793
:103CB000A815B90559F56C0142E0C40ED11CCA140F
:103CC000DB0420F1AC014A195B09DA011296159761
:103CD00080F06282738251834083D9016D937C931B
:103CE000E114F10471F0D7011396FC93EE9312974F
:103CF00076CF22968C0F9D1FF90191838083F3016B
:103D0000EFCFF093EC07E093EB0769CF4816590625
:103D100008F42C017D01D3019ACFCB010E94BD1C78
:103D20007C01009749F0AE01B8010E94AF1EC801A6
:103D30000E94591D870153CF10E000E050CF911130
:103D4000089581548A5108F4805E855A089591112E
:103D5000089581568A5108F4805285580895FB01D0
:103D6000DC0102C001900D9241505040D8F70895F7
:103D7000FC018191861721F08823D9F799270895AE
:103D80003197CF010895FB01DC018D9101908019DD
:103D90000110D9F3990B0895FB01DC0101900D92FC
:103DA0000020E1F70895FB01DC014150504030F064
:103DB0008D910190801919F40020B9F7881B990B97
:103DC0000895FB0151915523A9F0BF01DC014D91EC
:103DD00045174111E1F759F4CD010190002049F058
:103DE0004D9140154111C9F3FB014111EFCF81E025
:103DF00090E00197089510E0C3EDD0E004C0FE010B
:103E00000E94A31C2196C43DD107C9F7F894FFCFA7
:103E1000FFFFFFFF00E100000000000050434220D0
:103E2000312E300000442D413332300000000100BB
:103E300000000000ED07800000C18081000000301C
:103E4000383135004859445052532D004944454EAD
:103E5000543A204D4950204859442D5052532C205B
:103E600076312E31204D415100000000005504C72D
:103E7000036D046B04B30471048F040D0A007365B1
:103E8000744272696768746E657373496E746572A3
:103E90006E616C202D3E20007365744C65644D612D
:103EA000736B382063616C6C6564202D3E20307824
:103EB000007365744C65644D61736B38496E74654D
:103EC000726E616C202D3E2030780052455345546F
:103ED0003A20706572666F726D696E6720736F66E7
:103EE000742072657365742E2E2E00536572766F82
:103EF000733A2072652D61747461636865642E0085
:103F0000536572766F733A20646574616368696E95
:103F10006720616C6C20666F72207361666520504B
:103F2000574D2E007365744272696768746E6573CD
:103F30007355736572202D3E200030313233343595
:103F400036373839414243444546004F4E004143DD
:103F50004355205072657373204D6F64756C202833
:103F6000526163652D736166652920696E697469A4
:103F7000616C6973696E672E2E2E004861726477DA
:103F800061726520696E697469616C697365642E1C
:103F9000004272696768746E6573732070696E3A67
:103FA00020004C45442070696E73204C434B2F44D5
:103FB00041542F434C4B3A20002F005374617274CC
:103FC000757020746573743A20736572766F732010
:103FD0006F75742B6261636B207468656E2073610A
:103FE000666520666164652028726163652D707264
:103FF0006F746563746564292E00537461727475FF
:10400000703A20726573746F7265642070726576A1
:10401000696F7573204C4544206D61736B00537458
:1040200061727475703A204C4544206D61736B2049
:104030006368616E67656420647572696E6720539A
:104040007461727475703B206C656176696E67206F
:1040500075736572206368616E67657320696E2091
:10406000706C61636500537461727475703A20728C
:104070006573746F7265642070726576696F7573AD
:10408000206272696768746E65737300537461723D
:104090007475703A206272696768746E6573732014
:1040A0006368616E67656420647572696E6720532A
:1040B0007461727475703B206C656176696E6720FF
:1040C00075736572206368616E67657320696E2021
:1040D000706C616365005374617274757020636FF6
:1040E0006D706C657465642E0052656164792E2074
:1040F000436F6D6D616E64733A205645522044499A
:1041000041472052455345542041434355203C30BC
:104110002E2E343E2042524B4C203C302E2E333E2D
:104120002042524B52203C302E2E333E2053312F12
:1041300053322F5333204C4544204C4544434820B0
:1041400042522054455354204F4646005645520093
:10415000524551002270726F626522002C20534E2E
:104160003A00434D4420726563763A200044494149
:104170004700444941473A205374617274696E673D
:1041800020646961676E6F7374696320726F757400
:10419000696E652028726163652D70726F74656346
:1041A000746564292E00444941473A20726573744E
:1041B0006F7265642070726576696F7573204C4507
:1041C00044206D61736B00444941473A204C45449B
:1041D000206D61736B206368616E67656420647530
:1041E00072696E6720444941473B206C656176697E
:1041F0006E672075736572206368616E67657320F2
:10420000696E20706C61636500444941473A2072D1
:104210006573746F7265642070726576696F75730B
:10422000206272696768746E657373004449414720
:104230003A206272696768746E657373206368619F
:104240006E67656420647572696E672044494147F2
:104250003B206C656176696E6720757365722063BB
:1042600068616E67657320696E20706C61636500BC
:10427000444941472066696E69736865642E00523F
:104280004553455400414343550041434355207332
:1042900074616765200042524B4C0042524B520001
:1042A0005331005332005333004C4544004C4544D5
:1042B000206D61736B2073657420746F20307800FB
:1042C0004C45444348004C45444348207265717551
:1042D000697265732074776F20617267733A204C3E
:1042E00045444348203C6368616E6E656C3E203CEB
:1042F000307C313E004368616E6E656C206F757472
:10430000206F662072616E676520302E2E37004C5C
:10431000454443482000202D3E206D61736B206E84
:104320006F7720307800202D3E20627269676874B4
:104330006E657373206C6F676963616C2000425215
:104340000042522073657420746F206C6F6769633C
:10435000616C2000544553540052756E6E696E674F
:1043600020544553543A20736572766F20737765F5
:104370006570202B204C45442063686173650054B0
:1043800045535420646F6E6500416C6C204C45446D
:1043900073206F66662E00454E41005345542045FC
:1043A0004E413E203B0053455420454E413A464144
:1043B000494C203B00534E00455849540053455446
:1043C00020534E3A4F4B3A0053455420534E3A46F1
:1043D0004F524D4154203B005345542045584954B9
:1043E0003A4F4B203B005752490057524954450021
:1043F00059455300534554205752493A4F4B203B9F
:1044000000534554205752493A464F524D4154208B
:104410003B0057524954453A4F4B203B00575249B5
:1044200054453A4C4F434B4544203B00556E6B6E10
:0E4430006F776E20636F6D6D616E643A2000D1
:00000001FF
