:100000000C94DD000C9405010C9405010C94050181
:100010000C9405010C9405010C9405010C94050148
:100020000C9405010C9405010C94850B0C94F40BB5
:100030000C9405010C9405010C9405010C94050128
:100040000C9405010C9405010C9405010C94050118
:100050000C9405010C9405010C9405010C943B0BC8
:100060000C9405010C9405010C9405010C940501F8
:100070000C9405010C9405010C9405010C940501E8
:100080000C9405010C9405010C9405010C940501D8
:100090000C9405010C9405010C9405010C940501C8
:1000A0000C9405010C9405010C9405012C20534E71
:1000B0003A00080B000202020000090400000102DD
:1000C000020000052400100105240101010424029E
:1000D00006052406000107058103100040090401FC
:1000E00000020A0000000705020240000007058325
:1000F000024000000403090412010002EF02014063
:100100004F1B0692000101020301537061726B469E
:10011000756E00537061726B46756E2050726F2061
:100120004D6963726F000000000023002600290063
:100130002C002F00070605040100080A0B0C0D090E
:1001400000000000240027002A002D0030000000DD
:100150000000250028002B002E00310004040404B8
:10016000040304050202020204030202020206065C
:100170000606060604040202020404040802011032
:1001800040804010204080408008020401804020D0
:1001900010020110801020404020000000020009E1
:1001A0000F0000030401000C00000000000000002C
:1001B0000000000000000000260E11241FBECFEF3B
:1001C000DAE0DEBFCDBF16E0A0E0B1E0EAECFAE392
:1001D00002C005900D92A834B107D9F727E0A8E432
:1001E000B6E001C01D92AB3DB207E1F710E0CDEDE6
:1001F000D0E004C02197FE010E942F18CC3DD1070A
:10020000C9F70E94AD0E0C94631D0C940000CF93AF
:10021000DF93FC01389623E030E0EC01A991CE0198
:100220002A0F311DEC17FD07C1F7FB01CB01089622
:100230006191260F311D8E179F07D1F7FA01CA0170
:1002400009964191240F311D8E179F07D1F7822FF8
:10025000DF91CF910895FC0180912407882311F14B
:100260003FB7F89482E08093E9002091F200822F5A
:1002700090E01816190614F481E090E0882339F014
:10028000289844E6409323074091F10040832223BD
:1002900039F02091F200211103C02BE62093E800F1
:1002A0003FBF08958FEF9FEF08952FB7F89483E035
:1002B0008093E9009091E800892F807295FF04C037
:1002C0009091F20080E4891B2FBF089580911B0755
:1002D00081110DC082E08093170784E08093180796
:1002E00010921A071092190781E080931B0787E18B
:1002F00097E0089581508F3008F047C0E82FF0E074
:10030000EC57FE4F0C942F18A101A5019301990100
:100310009D01C501C501C501A801AE01B201B6012B
:10032000BC01C501C001809180008F77809380005F
:100330000895809180008F7DF9CF80918000877F24
:10034000F5CF84B58F7784BD089584B58F7DFBCFBD
:10035000809190008F778093900008958091900015
:100360008F7DF9CF80919000877FF5CF8091C0007D
:100370008F778093C00008958091C0008F7DF9CF62
:100380008091C200877F8093C20008951F93CF930E
:10039000DF93282F30E0F901E656FE4F8491F901F2
:1003A000E558FE4FD491F901E45AFE4FC491CC2395
:1003B000A9F0162F81110E947A01EC2FF0E0EE0FC8
:1003C000FF1FE25BFE4FA591B4918FB7F894EC91BB
:1003D000111108C0D095DE23DC938FBFDF91CF9140
:1003E0001F910895DE2BF8CFCF93DF9390E0FC01AF
:1003F000E558FE4F2491845A9E4FFC018491882336
:10040000D1F090E0880F991FFC01E05CFE4FA591B0
:10041000B491FC01E25BFE4FC591D491623071F45E
:100420009FB7F8943C91822F809583238C93E88129
:100430002E2B28839FBFDF91CF9108958FB7F8941B
:10044000EC912E2B2C938FBFF6CF1F93CF93DF937E
:10045000182FEB0161E00E94F401CF3FD10539F480
:1004600061E0812FDF91CF911F910C94C601E12FA4
:10047000F0E0E656FE4FE491E150EF3008F07FC027
:10048000F0E0EB5BFD4F0C942F1854025C0261020C
:100490006B027502BF02BF02BF027F028902930294
:1004A0009D02AA02BF02B20284B5806884BDC7BDA6
:1004B000DF91CF911F91089584B5806284BDC8BD3E
:1004C000F7CF80918000806880938000D09389006E
:1004D000C0938800EDCF809180008062809380007F
:1004E000D0938B00C0938A00E3CF80918000886016
:1004F00080938000D0938D00C0938C00D9CF8091E1
:100500009000806880939000D0939900C0939800E9
:10051000CFCF80919000806280939000D0939B0019
:10052000C0939A00C5CF809190008860809390001E
:10053000D0939D00C0939C00BBCF8091C000806889
:100540008093C0008091C0008F7B8093C000C093D7
:10055000CF00AECF8091C00080628093C000C09376
:10056000D000A6CF8091C20088608093C2008091A5
:10057000C2008B7F8093C200C093D20099CFC03855
:10058000D1050CF06DCF60E06CCF8251E82FF0E028
:10059000EC5CFE4FE49190917B008E2F880F880FCA
:1005A00080729F7D892B80937B00E770E064E093ED
:1005B0007C0080917A00806480937A0080917A0038
:1005C00086FDFCCF809178009091790008953FB727
:1005D000F8948091130790911407A0911507B0919A
:1005E000160726B5A89B05C02F3F19F00196A11D3F
:1005F000B11D3FBFBA2FA92F982F8827BC01CD016D
:10060000620F711D811D911D42E0660F771F881FCB
:10061000991F4A95D1F708958F929F92AF92BF92FA
:10062000CF92DF92EF92FF926B017C010E94E70272
:100630004B015C01C114D104E104F104B9F00E9442
:10064000E702681979098A099B09683E73408105A8
:10065000910580F321E0C21AD108E108F10888EE83
:10066000880E83E0981EA11CB11CE4CFFF90EF9090
:10067000DF90CF90BF90AF909F908F900895409162
:100680004E0650914F0620914C0630914D06421770
:100690005307B4F49091E8009570E1F39091E8006D
:1006A00092FD19C08093F10080914E0690914F0603
:1006B00001968F739927892B19F48EEF8093E800A8
:1006C00080914E0690914F06019690934F0680932D
:1006D0004E0681E0089580E00895EF92FF920F9317
:1006E0001F93CF93DF93F82E192FE62E042F81E06E
:1006F000860F880F0E943F0383E00E943F03CF2DA7
:10070000D12FEC0EFD2EF11CCE15DF05B9F007FF41
:1007100013C0FE0184910E943F03182F80E00E94C5
:100720003F03812321968111EFCFDF91CF911F915C
:100730000F91FF90EF9008958881EDCF81E0F5CF84
:10074000DF92EF92FF920F931F93CF93DF93D82EF8
:100750008A01EB017B01E40EF51ECE15DF0559F091
:10076000D7FE12C0FE0184910E943F0321968111A1
:10077000F4CF0FEF1FEFC801DF91CF911F910F91C1
:10078000FF90EF90DF9008958881EECF0F931F9335
:10079000CF93DF931F92CDB7DEB782E0898342E427
:1007A00050E062EB70E080E80E94A0030E946601C6
:1007B000DC0112960D911C910115110589F0D801EB
:1007C000ED91FC910280F381E02DBE016F5F7F4FC0
:1007D000C801099597FD04C0F80100851185ECCF8B
:1007E00089810F90DF91CF911F910F9108956150F2
:1007F00030F02091F100FC0120830196F8CF289879
:1008000084E68093230708958F929F92AF92BF92C0
:10081000CF92DF92EF92FF920F931F93CF93DF93CC
:100820006C017B018A0180910B01882309F45CC073
:1008300080912407882309F457C08091520680FFD5
:1008400005C08091E00082608093E000E801B12C57
:100850008AEFA82E93E0892E2AE3922E209711F496
:10086000BB20D9F10E94550181110AC0AA94AA2087
:10087000D9F161E070E080E090E00E940C03EECFDF
:100880008C171D0611F00CF08C2F9FB7F8948092F6
:10089000E9002091E80025FD02C09FBFDFCF282F8F
:1008A00030E0C21BD30BF701815020F041914093FF
:1008B000F100FACFE20EF31EBB2021F09092E80087
:1008C000B12CEBCF8091E80085FDE7CF9092E80056
:1008D000BB24B394209709F3F3CF5D9884E680930B
:1008E0005106101611063CF081E090E0F60193836A
:1008F000828310E000E0C801DF91CF911F910F913A
:10090000FF90EF90DF90CF90BF90AF909F908F902F
:100910000895FC0144815581608171818FE297E0E7
:100920000C940404CF93DF931F92CDB7DEB7698395
:10093000DC01ED91FC910280F381E02D41E050E07B
:10094000BE016F5F7F4F09950F90DF91CF910895A2
:1009500083E08093E9008091F200882319F08AE314
:100960008093E80008950E94550190E00895CF9388
:10097000DF931F92CDB7DEB7FC018485958597FD87
:1009800008C02FEF3FEF358724870F90DF91CF917D
:100990000895CE0101960E942B01019719F48981D7
:1009A00090E0F3CF8FEF9FEFF0CF0F931F93CF9394
:1009B000DF931F92CDB7DEB78C01FC01848595854E
:1009C00097FF0BC0CE0101960E942B01019771F495
:1009D000898190E0F80195878487F8018485958561
:1009E0000F90DF91CF911F910F9108958FEF9FEF9F
:1009F000F1CFFC018485958597FD0BC09FB7F894D6
:100A000082E08093E9008091F2009FBF90E0019620
:100A100008959FB7F89482E08093E9008091F200F6
:100A20009FBF90E0089561E085E00E94F40161E0DD
:100A300085E00C94C60161E08AE00E94F40161E067
:100A40008AE00C94C6010F931F93CF93DF93082F76
:100A5000162FD42FC8E06D2F661F6627661F802FC4
:100A60000E94C601DD0F61E0812F0E94C60160E097
:100A7000812F0E94C601C15071F7DF91CF911F9164
:100A80000F9108950F931F93CF93DF9300D0CDB7AD
:100A9000DEB769834A83880F991F0091D5071091AB
:100AA000D607000F111FEFE7F7E09F012F573740E0
:100AB0002017310714F41192F8CF2981FC01E15875
:100AC000F84F21838A81808360E08091D3070E9460
:100AD000C601101611066CF401501109F801E15815
:100AE000F84F40816091D1078091CF070E94230584
:100AF000F0CF61E08091D3070F900F90DF91CF91FD
:100B00001F910F910C94C60197FD0EC02091D5073F
:100B10003091D607821793073CF440E0611101C081
:100B200041E06CE00C9442050895EF92FF920F9320
:100B30001F93CF937C018C0183E0000F111F8A95D6
:100B4000E1F70157184FC1E0F80111928F0140E021
:100B50006C2FC7010E944205CF5FC930A9F7CF9122
:100B60001F910F91FF90EF9008952091D50730913C
:100B7000D607821793073CF46031710524F4462FA1
:100B80006AE00C94420508951F93CF93DF93182FCA
:100B9000D62F60E085E10E94C601C3E0412F64E1E9
:100BA00083E10E9423054D2F64E183E10E94230528
:100BB000C150A1F761E085E1DF91CF911F910C94C5
:100BC000C601CF93DF93D0E0C0E08091D50790912C
:100BD000D607C817D9072CF447E06BE0CE010E9476
:100BE000420560E0CE010E9484052196C330D10504
:100BF00061F760E08FE00E94C40561E08CE00E9434
:100C0000C40560E089E00E94C40567E08BE00E94B3
:100C1000C405DF91CF910895FF920F931F93CF9357
:100C2000DF93C82FD62F142FF22E60E082E00E94AF
:100C3000C601402F63E084E00E9423054F2D63E04E
:100C400084E00E942305412F63E084E00E94230595
:100C50004D2F63E084E00E9423054C2F63E084E085
:100C60000E94230561E082E0DF91CF911F910F91F7
:100C7000FF900C94C601CF9361E08AE00E94F401DA
:100C8000C0915406C11112C060E08AE00E94C60102
:100C900060E082E10E94C6014C2F6FE08EE00E946E
:100CA000230561E082E1CF910C94C601CE3F30F084
:100CB00061E08AE00E94C601C0EFEACF6C2F70E0CD
:100CC0008AE00E942502F8CFFC0101900020E9F79C
:100CD0003197AF01481B590BBC018FE297E00C9490
:100CE00004048F929F92AF92BF920F931F93CF9362
:100CF000DF93CDB7DEB7A1970FB6F894DEBF0FBE76
:100D0000CDBF19A2423008F44AE08E010F5D1F4F9B
:100D1000842E912CB12CA12CA50194010E94EA17DC
:100D2000E62FB901CA01EA30F4F4E05DD801EE9390
:100D30008D01232B242B252B79F790E080E0109751
:100D400019F0CD010E946406A1960FB6F894DEBF9B
:100D50000FBECDBFDF91CF911F910F91BF90AF908C
:100D60009F908F900895E95CE1CFCF92DF92EF9250
:100D7000FF92CF93DF936B017C016DE28FE297E0EE
:100D80000E949204EC0166277727CB016C197D093C
:100D90008E099F094AE00E9471068C0F9D1FDF910A
:100DA000CF91FF90EF90DF90CF900895CF93DF9396
:100DB000D0E0C0E0009719F00E946406EC018EE8D4
:100DC00091E00E9464068C0F9D1FDF91CF910895E2
:100DD0000F93CF93DF93D62FC42F0E94D6060FEF29
:100DE0002FE04FEF60E080E00E940C0661E085E0BC
:100DF0000E94F40161E08AE00E94F4016D2F85E019
:100E00000E94C6016C2FC23060F48AE00E94C601C5
:100E100060E47FE180E090E0DF91CF910F910C944E
:100E20000C0370E08AE00E942502F2CF1F93CF935B
:100E3000DF9381E991E00E94D606CCE1D0E018EC86
:100E4000109354060E943B0662E370E080E090E05D
:100E50000E940C032197A1F78FEF809354060E9404
:100E60003B066CE271E080E090E00E940C030E947F
:100E70003B068CE991E0DF91CF911F910C94D6064F
:100E8000009711F00C94640690E080E00895CF93F1
:100E9000DF9385EA91E00E9440078CEA91E00E948E
:100EA0004007809125078823A9F0CCEAD0E0FE0115
:100EB0006491662339F08FE297E00E9492042196B4
:100EC000892BA9F787E791E00E94400785E297E028
:100ED0000E94400784EC91E00E94400784ED91E07D
:100EE0000E94400760910C0170E090E080E04AE0D1
:100EF0000E94710682ED91E00E9440078EE891E029
:100F0000DF91CF910C946406CF92DF92EF92FF9223
:100F10000F931F93CF93DF93CDB7DEB761970FB6D3
:100F2000F894DEBF0FBECDBF82E10E94C5028C01E6
:100F300083E10E94C5027C010E94E70298012E0D08
:100F40003F1D8901330F220B330B600F711F821F6E
:100F5000931F611571058105910511F00E943C17E1
:100F600081E1EBEDF1E0DE01119601900D928A95A1
:100F7000E1F705E217E080E1C82ED12CE12CF12C3D
:100F80000E94ED16A70196010E94811721E030E032
:100F90002C0F3D1F620F731FFB018081F8018193AD
:100FA0008F01F7E00D321F0759F710922D07619658
:100FB0000FB6F894DEBF0FBECDBFDF91CF911F916A
:100FC0000F91FF90EF90DF90CF9008950F931F93B4
:100FD000CF93DF93EC0188819981009759F02A81A2
:100FE0003B812617370730F081E0DF91CF911F91C9
:100FF0000F9108958B016F5F7F4F0E946E190097CC
:1010000059F0998388831B830A832C813D81232B8C
:1010100059F7FC011082E8CF80E0E7CFFC01808126
:101020009181009711F00C94E51808951F93CF93C8
:10103000DF93EC01162F0E946B17181739F0612F00
:10104000CE01DF91CF911F910C947317DF91CF9157
:101050001F9108956F927F928F929F92AF92BF924D
:10106000CF92DF92EF92FF920F931F93CF93DF9374
:10107000CDB7DEB769970FB6F894DEBF0FBECDBF10
:1010800088E0EAE2F1E0DE01529601900D928A9545
:10109000E1F788E0EAE2F1E0DE011A9601900D92B4
:1010A0008A95E1F725E237E0F90101900020E9F7A0
:1010B0009F0126523740CE0101967C01FC0190E051
:1010C00080E0570140E28217930724F4DC01AB5D16
:1010D000B84F4C91419301968830910599F7198644
:1010E0006AE58AE090E00E94160865EA8BE090E0ED
:1010F0000E94160863E08CE090E00E9416086E01E2
:1011000092E1C90ED11C0DE010E04601F60161919B
:101110006F01C8010E9416080F5F1F4F05311105AE
:10112000A9F76E01FAE0CF0ED11C3601F6016191EC
:101130006F01C8010E9416080F5F1F4F0D31110586
:10114000A9F7F70161917F01C8010E9416080F5F9E
:101150001F4F06321105A9F7A501B301C4010E9472
:101160000701682F86E290E00E94160869960FB684
:10117000F894DEBF0FBECDBFDF91CF911F910F91CD
:10118000FF90EF90DF90CF90BF90AF909F908F90A7
:101190007F906F9008950C946B178F929F92AF92EF
:1011A000BF92CF92DF92FF920F931F93CF93DF9363
:1011B00000D000D000D0CDB7DEB7833008F09EC09D
:1011C0006115710509F49AC06B01082F10E060E009
:1011D000C8010E94840519821A821B821C821D820A
:1011E0001E82F12CF60181916F018823B1F1F5E0A7
:1011F000FF1598F18E3281F4FF20A1F38F2D8150DD
:10120000990BFC0181E090E08C0F9D1FE80FF91F06
:10121000808180688083E6CFAF2CB12CF39480323C
:1012200041F4E1E0F0E0EC0FFD1FEA0DFB1D108240
:10123000D9CF90E00E942B1A80528A3160F4E82FB7
:10124000F0E0E25BFE4F8081E1E0F0E0EC0FFD1F9B
:10125000EA0DFB1DDFCF80E0F7CF580183E0AA0C39
:10126000BB1C8A95E1F7CC24C394D12C8091D5077F
:101270009091D607081719075CF4F501EC0DFD1DD8
:10128000E158F84F178640E06C2DC8010E944205D6
:101290009FEFC91AD90AE9E0CE16D10439F7D12C4B
:1012A000C12C8F2D90E04C01F1E08F1A9108A80E0F
:1012B000B91ECF1418F52091D5073091D607021723
:1012C0001307C4F494012C193D092830310590F41A
:1012D000E1E0F0E0EC0FFD1FEC0DFD1D4081F5019C
:1012E000EC19FD09E158F84F47876F2D6C19C801BB
:1012F0000E9442052FEFC21AD20ADBCF26960FB604
:10130000F894DEBF0FBECDBFDF91CF911F910F913B
:10131000FF90DF90CF90BF90AF909F908F900895F7
:10132000AF92BF92CF92DF92EF92FF920F931F93F3
:10133000CF93DF9300D0CDB7DEB78C01A62EFC0192
:1013400011821082138212821582148270E060E092
:101350000E94E607F8012081318181114AC02115E0
:10136000310519F0C9010E94E518F80111821082B7
:10137000158214821382128287E0E82EF12CB12CA0
:10138000C5010E2C02C0959587950A94E2F780FD61
:1013900038C080E389831A82F801C480D580FFEFCA
:1013A000CF1ADF0AB601C8010E94E607882379F048
:1013B000F8012081318184819581BE016F5F7F4F6B
:1013C000820F931F0E946C1AF801D582C482F1E04B
:1013D000EF1AF108A8F6C8010F900F90DF91CF9196
:1013E0001F910F91FF90EF90DF90CF90BF90AF9043
:1013F00008951582148260E971E0C9010E946C1A97
:10140000BBCF81E3C7CFCF92DF92EF92FF920F93D2
:101410001F93CF93DF93CDB7DEB728970FB6F8941D
:10142000DEBF0FBECDBF8C01611584E0780714F0DC
:101430006FEF73E077FF02C070E060E07F936F931F
:101440008CEE91E09F938F93FE0131966F01FF9395
:10145000EF930E94C21AF801118210821382128245
:1014600015821482F60101900020E9F731977F017F
:10147000EC18FD08B701C8010E94E6070F900F9015
:101480000F900F900F900F90F80120813181811102
:101490001DC02115310519F0C9010E94E518F80198
:1014A000118210821582148213821282C80128963A
:1014B0000FB6F894DEBF0FBECDBFDF91CF911F9165
:1014C0000F91FF90EF90DF90CF900895F582E48226
:1014D000B601C9010E946C1AE9CFCF92DF92EF9258
:1014E000FF92CF93DF9300D000D000D0CDB7DEB70E
:1014F0008FB7F894C0900F07D0901007E0901107B5
:10150000F09012078FBF8091DD06811115C0809188
:10151000480690914906A0914A06B0914B06A70152
:101520009601281B390B4A0B5B0BDA01C9010A979C
:10153000A105B10508F492C081EF91E00E94400737
:101540006091F6067091F706CE0101960E94030A9B
:10155000CE0101960E948904CE0101960E940E08D8
:1015600082ED91E00E94400787EF91E00E944007E2
:101570006091E2067091E306CE0101960E94030A93
:10158000CE0101960E948904CE0101960E940E08A8
:1015900082ED91E00E9440078DEF91E00E944007AC
:1015A00060911D01CE0101960E949009CE01019625
:1015B0000E948904CE0101960E940E0882ED91E0FE
:1015C0000E94400782E092E00E94400760911C0167
:1015D000CE0101960E949009CE0101960E948904D5
:1015E000CE0101960E940E0882ED91E00E94400714
:1015F00087E092E00E94400760911B01CE010196B6
:101600000E949009CE0101960E948904CE010196A4
:101610000E940E0882ED91E00E9440078CE092E06B
:101620000E94400760911A01CE0101960E94900924
:10163000CE0101960E9489048EE891E00E94640622
:10164000CE0101960E940E08C0924806D09249062B
:10165000E0924A06F0924B061092DD0626960FB6EF
:10166000F894DEBF0FBECDBFDF91CF91FF90EF901A
:10167000DF90CF9008951F920F920FB60F92112412
:101680002F933F938F939F93AF93BF9380910F07B7
:1016900090911007A0911107B091120730910E0799
:1016A00023E0230F2D3758F50196A11DB11D20937E
:1016B0000E0780930F0790931007A0931107B09324
:1016C00012078091130790911407A0911507B0910C
:1016D00016070196A11DB11D80931307909314075F
:1016E000A0931507B0931607BF91AF919F918F916B
:1016F0003F912F910F900FBE0F901F90189526E8E5
:10170000230F0296A11DB11DD2CF1F920F920FB6CB
:101710000F9211248F939F938091E1009091E100AB
:10172000937F9093E10083FF0FC01092E90091E056
:101730009093EB001092EC0092E39093ED001092E6
:10174000240798E09093F00082FF22C093E09093EA
:10175000E9009091F200992319F09AE39093E80040
:1017600090915106992341F0909151069150909398
:101770005106911101C05D9A90912307992341F080
:1017800090912307915090932307911101C0289ABB
:1017900084FF18C08091E2008E7E81608093E20019
:1017A0008091E1008F7E8093E100809152068E7ED1
:1017B0008061809352069F918F910F900FBE0F9082
:1017C0001F90189580FFF7CF8091E2008E7E806198
:1017D0008093E2008091E1008E7E8093E100809111
:1017E00052068E7E8160E5CF1F920F920FB60F9248
:1017F0001124CF92DF92EF92FF920F931F932F93BA
:101800003F934F935F936F937F938F939F93AF9388
:10181000BF93EF93FF93CF93DF93CDB7DEB76C9772
:10182000DEBFCDBF1092E9008091E80083FF25C0A4
:1018300068E0CE0145960E94F70382EF8093E800AE
:101840008D8987FF39C09091E80090FFFCCF982FD9
:10185000907609F034C19E894F89588D2F89F88C74
:10186000911131C0803861F5809153068093F10069
:101870001092F1008EEF8093E8006C960FB6F8940A
:10188000DEBF0FBECDBFDF91CF91FF91EF91BF9132
:10189000AF919F918F917F916F915F914F913F9108
:1018A0002F911F910F91FF90EF90DF90CF900F90AD
:1018B0000FBE0F901F9018959EEF9093E800C7CF32
:1018C0001092F100D5CF913059F48111D3CF41302E
:1018D000510581F6809153068D7F80935306CACFC0
:1018E000933049F48111C6CF4130510519F68091EA
:1018F00053068260F2CF953041F48091E80080FF7A
:10190000FCCF20682093E300B5CF963009F0A9C042
:101910000B8D1C8D22E01092E90010924F06109260
:101920004E06F2122EC010924D0610924C060E94E6
:10193000C6031F8299E09983FA8291E09E8390EA20
:1019400098879AEF998720914E0630914F06275F2E
:101950003F4F3C832B838D831092E90010924F06FA
:1019600010924E0610934D0600934C0649E050E04D
:10197000BE016F5F7F4F80E00E94A0030E94C603FC
:1019800079CF10934D0600934C060E946601DC014E
:1019900012960D911C910115110509F451C1D80140
:1019A000ED91FC910480F581E02DBE016B5E7F4FCF
:1019B000C8010995009709F03EC1F801008511851D
:1019C000EACFF3E0FF120EC08F89882309F440C0EC
:1019D000823061F440E862E183E191E00E946D03AE
:1019E000811148CF81E28093EB0047CF813029F409
:1019F00040E868E08AE091E0F1CF833099F70E94F7
:101A00006601DC011296ED90FC908E010F5F1F4F76
:101A10006801E114F10479F0D701ED91FC910680A1
:101A2000F781E02DB801C7010995080F111DF701D5
:101A3000E084F184EECFD8011C92F60101900020E1
:101A4000E9F73197BF016C197D0940E0C601C6CFA7
:101A500064EF70E0FB01449150E080E80E94A00335
:101A600009CF973009F4BECF983021F481E08093FC
:101A7000F10000CF993009F0FDCE837009F0B2CFAC
:101A8000E9E6F1E081E031E096E32191222371F073
:101A90008093E9003093EB00DF0111972C912093A4
:101AA000EC009093ED008F5F873079F78EE780939D
:101AB000EA001092EA008F8980932407DBCE8B8D99
:101AC0009C8D1092E90010924F0610924E06909352
:101AD0004D0680934C06898D811192C08E899D8917
:101AE000913A49F4813209F07DCF47E050E064E05B
:101AF00071E080E0B3CF913209F074CF833269F4A2
:101B00008F89988DB0E0A0E080930001909301014F
:101B1000A0930201B0930301ADCE803269F48091AD
:101B2000E80082FFFCCF67E084E091E00E94F703C9
:101B30008BEF8093E8009ECE823209F09BCE8F8996
:101B400080930B01EEEFFFE7859194918B3F9C4DC5
:101B500051F1E0E0F8E08091040190910501A0913D
:101B60000601B0910701803B9440A105B105F1F455
:101B700080910B0180FD1AC0EE3F8AE0F80789F5DD
:101B800087E797E791838083809160008093500678
:101B900088E19BE00FB6F894A895809360000FBE93
:101BA0009093600067CEEEEFFAE0D5CF808191810F
:101BB0008737974709F05ECEA895809160008861CD
:101BC000809360008091500680936000EE3F2AE091
:101BD000F20789F08091FE0A9091FF0A9183808339
:101BE00049CE808191818737980751F29093FF0AFF
:101BF0008093FE0AC5CF1092FF0A1092FE0A3ACED9
:101C00000E946601DC0112960D911C9101151105CF
:101C100009F4E8CED801ED91FC910190F081E02D1E
:101C2000BE016B5E7F4FC8010995811123CEF8017B
:101C300000851185EBCF181619060CF41BCED2CEF9
:101C4000F1E0FF12BECE68EF70E004CFCF93DF93D8
:101C5000109232071092310788EE93E0A0E0B0E0D6
:101C60008093330790933407A0933507B0933607DA
:101C700080E891E09093300780932F078FEF9FEFDC
:101C800090933C0780933B07C3E1D0E0D093D0070B
:101C9000C093CF0784E190E09093D2078093D1075F
:101CA00085E190E09093D4078093D30783E090E0A0
:101CB0009093D6078093D50761E083E10E94F401F9
:101CC00061E08091D1070E94F40161E08091D30727
:101CD0000E94F40161E08091D3070E94C601D09375
:101CE000D007C093CF07EFE8F7E08FEC97E01192B1
:101CF0008E179F07E1F7D0E0C0E08091D507909163
:101D0000D607C817D90734F540E06FE0CE010E942E
:101D100042058091D5079091D607C817D9072CF4B2
:101D200047E06BE0CE010E94420540E069E0CE0151
:101D30000E9442058091D5079091D607C817D90710
:101D40001CF4CE010E94950561E0CE010E9484053D
:101D50002196D3CFDF91CF910895CF93DF93CDB765
:101D6000DEB7CB59D1090FB6F894DEBF0FBECDBF99
:101D7000789484B5826084BD84B5816084BD85B566
:101D8000826085BD85B5816085BD80916E00816072
:101D900080936E0010928100809181008260809318
:101DA000810080918100816080938100809180001A
:101DB0008160809380008091910082608093910087
:101DC000809191008160809391008091900081606A
:101DD000809390008091C10084608093C1008091C5
:101DE000C10082608093C1008091C10081608093B6
:101DF000C1008091C30081608093C3008091C000C6
:101E000082608093C0008091C20081608093C20094
:101E100080917A00846080937A0080917A00826059
:101E200080937A0080917A00816080937A0080911B
:101E30007A00806880937A001092240710925306EB
:101E4000109252068091D70081608093D70080EA7B
:101E50008093D80089B5806189BD89B5826089BDCC
:101E600009B400FEFDCF61E070E080E090E00E94E8
:101E70000C038091D8008F7C80618093D800809182
:101E8000E000807F8093E0008091E1008E7E80936F
:101E9000E1008DE08093E200559A209A8FEF9FEF4A
:101EA00090933C0780933B0790E080E00E94CB0832
:101EB000082F0150110B0230110508F041C1809329
:101EC0000C01109225078AE090E00E94CB08182FA1
:101ED0008BE090E00E94CB08982F812F8A35954A9D
:101EE00009F437C10E9484070E942A0861E082E059
:101EF0000E94F40161E083E00E94F40161E084E06B
:101F00000E94F40161E08AE00E94F40161E085E052
:101F10000E94F401F7E7EF2EF1E0FF2E0FE611E04B
:101F200062E0F80181918F010E94F401E016F10650
:101F3000B9F761E082E10E94F40161E08FE00E9464
:101F4000F40161E08EE00E94F40161E082E10E9410
:101F5000C601A6EEB6E0EAEFF6E0119211921D92EC
:101F60001D9207E0EA30F007C1F761E083E10E94CB
:101F7000F40161E084E10E94F40161E085E10E94E6
:101F8000F40161E085E10E94C60160E090E080E03C
:101F90000E94840510E000E060E0C8010E94840512
:101FA00060910D0170E0C8010E94B5058091D507D0
:101FB0009091D607081719071CF4C8010E949505CF
:101FC0000F5F1F4F0330110539F70E94E10561E1F2
:101FD00072E080E00E94CD0861E172E081E00E9441
:101FE000CD0861E172E082E00E94CD0888E192E0D4
:101FF0000E94D6068DE392E00E94D6068FEF809372
:1020000054060E943B0660E273E080E090E00E948C
:102010000C03109254060E943B068BE492E00E944F
:10202000D6060E94470781E08093DD061092D6060F
:102030001092D506109255068FB7F89480900F072E
:1020400090901007A0901107B09012078FBF8FE2F9
:1020500097E00E94F9047C01892B09F4ADC48FE25A
:1020600097E00E94B7048D3091F38A3009F48BE336
:102070002091D5063091D6062F3731057CF4A90181
:102080004F5F5F4F5093D6064093D5062B5A394F7A
:10209000F90180834B5A594FFA0110826BE370E0CB
:1020A00085E596E00E94611A7C01009781F2FC01AF
:1020B00010824FE750E065E576E0CE0101960E9480
:1020C000991AC058DF4F1882C058D040C7018555B3
:1020D00096400091D5061091D606081B190B0150A9
:1020E0001109B7016F5F7F4FA80185E596E00E9457
:1020F0003C1AF801EB5AF94F10821093D606009360
:10210000D50689818E010F5F1F4F882339F2F801B0
:102110008191803209F483C0893009F480C0F801CC
:1021200001900020E9F73197E017F10709F4B6CFE5
:102130008291803219F0893009F0C7C51082F4CF3E
:1021400081E080930C0161E090E080E00E9416083D
:10215000B8CE8CE090E00E94CB08982E7E0123E957
:10216000E20EF11C0DE010E06701C8010E94CB08EF
:10217000F70181937F010F5F1F4F05311105A9F70B
:102180007E01F1E8EF0EF11C5701C8010E94CB0857
:10219000F70181937F010F5F1F4F0D311105A9F7E3
:1021A000F6011086F5011086F3E09F129BCE9E018A
:1021B0002F5F3F4F79014901C8010E94CB08F4010C
:1021C00081934F010F5F1F4F06321105A9F71A8641
:1021D00086E290E00E94CB08182FA701B501C60146
:1021E0000E94070118137ECEA701485F5F4F90E061
:1021F00080E0F70121917F01FC01EB5DF84F322F68
:102200003F7D11F001962083E416F50691F7FC015D
:10221000EB5DF84F1082892B09F068CE63CE8F01F9
:1022200076CF892B09F460C56AE370E0C8010E948B
:10223000611A009709F0D9C265E672E0C8010E94F0
:102240004E1A892B41F069E672E0C8010E944E1ACD
:10225000892B09F060C00E94470720CF67E572E034
:10226000C8010E94A81A6C016EE572E0C8010E94C4
:10227000A81A7C01C114D10409F44CC5892B09F4B6
:1022800049C56AE370E0C6010E94611A009709F42B
:1022900041C501960E9445173C016AE370E0C70101
:1022A0000E94611A009709F435C562E270E00E944D
:1022B000611A009709F42EC56C012FEFC21AD20AD9
:1022C00062E270E0C6010E94611A009709F422C51B
:1022D000C816D90608F01EC57C01EC18FD083BE0C5
:1022E000E316F1041CF07AE0E72EF12CA701B60109
:1022F000CE018F579F4F0E94331AE1E8F0E0EC0FB8
:10230000FD1FEE0DFF1D1082C30177FC80E0BE01B2
:102310006F577F4FFDC461E772E0C8010E944E1AFB
:10232000892B21F481E08093DD06B8CE65E772E069
:10233000C8010E944E1A892B19F40E941607AECECE
:102340006AE772E0C8010E944E1A892BC1F582E843
:1023500092E00E94D60680E992E00E94D60688EBC1
:1023600092E00E94D6061FEF109354060E943B068F
:1023700060EA7FE080E090E00E940C0381ED92E053
:102380000E94D606109254060E943B0660EA7FE047
:1023900080E090E00E940C0385EE92E00E94D60659
:1023A000109354060E943B0660EA7FE080E090E0D4
:1023B0000E940C038EEE92E00E94D6066FCE6AEF6A
:1023C00072E0C8010E944E1A892B09F0B3C081E067
:1023D00093E00E94D60661E085E00E94F40161E08E
:1023E0008AE00E94F4018EE093E00E94D6068FEF0F
:1023F000809354060E943B060E9413050E941B0511
:1024000060E777E180E090E00E940C0384E393E0D2
:102410000E94D60600E020E04FEF60E080E00E94DE
:102420000C060E94130560E08AE00E94C60160E786
:1024300077E180E090E00E940C038BE593E00E943E
:10244000D60620E04FEF60E080E00E940C0660E0DE
:1024500085E00E94C60161E08AE00E94C60160E753
:1024600077E180E090E00E940C0382E893E00E9414
:10247000D60660E1C62ED12CE12CF12C1FEF8DE9A0
:1024800093E00E9440074AE0C701B6010E9471062E
:102490008EE891E00E946406109354060E943B0669
:1024A0000E9413050E941B0560ED77E080E090E03C
:1024B0000E940C03FFEFCF1ADF0AEF0AFF0A08E1C0
:1024C000C016D104E104F104D1F684EA93E00E943D
:1024D000D6060E943B060E9413050E941B0560E77A
:1024E00077E180E090E00E940C038CEB93E00E9487
:1024F000D6060E943B060E9413050E941B0560E75A
:1025000077E180E090E00E940C0389ED93E00E9467
:10251000D6060E943B060E9413050E941B0560E739
:1025200077E180E090E00E940C030E943B068AEF76
:1025300093E042CF65E074E0C8010E944E1A892BF7
:10254000A1F58CE094E00E94D60641E061E08FE3C3
:1025500094E00E94E80640E061E087E694E00E9493
:10256000E80641E060E086E894E00E94E8064FEF6C
:1025700061E084EA94E00E94E8068AEB94E00E941D
:10258000D6068FEF809354060E943B060E941305E7
:102590000E941B0560E47FE180E090E00E940C0354
:1025A0000E943B068DED94E007CF68EE74E0C80111
:1025B0000E944E1A7C01892B09F098C08FEE94E09E
:1025C0000E94D6068AE0E2E3F1E0DE01AF57BF4F9A
:1025D00001900D928A95E1F79E012F573F4F6901B7
:1025E00085E295E00E944007F601819191916F018B
:1025F0000E94D606E114F10499F0F1E0EF16F1041F
:1026000009F466C002E0E016F10409F464C060E079
:1026100013E0E116F10409F05CC02FE040E05DC07A
:1026200060E08FEF01E024E0E216F10409F000E041
:10263000019520E040E00E940C0632E0E316F10430
:102640000CF04FC061E085E00E94F40160E085E09D
:102650000E94C60161E08AE00E94F40160E08AE025
:102660000E94C60168E873E180E090E00E940C03DC
:102670004FEFE41AF40A55E0E516F10409F0B0CF83
:102680008BE295E00E94D60660E082E00E94C601DF
:102690004FEF63E084E00E94230540E063E084E0C4
:1026A0000E94230540E063E084E00E94230561E08E
:1026B00082E00E94C6010E9413050E941B0568E883
:1026C00073E180E090E00E940C038BE495E074CE0F
:1026D0006FEF80E0A7CF20E04FEF60E080E000E008
:1026E000AACF0E9413050E941B05BCCF66E575E0CA
:1026F000C8010E944E1A892B09F0D0CC8EE595E0D6
:102700000E94D6068CE695E00E94D60660E082E044
:102710000E94C6014FEF63E084E00E9423054FE072
:1027200063E084E00E9423054FEF63E084E00E94B1
:10273000230540E063E084E00E94230540E063E07D
:1027400084E00E94230561E082E00E94C60182E1EC
:10275000ECE3F1E0DE01AF57BF4F01900D928A9597
:10276000E1F7CE018F579F4F7C016C0192E1C90EBA
:10277000D11CF701019111917F0188E995E00E9438
:102780004007B801110F880B990B97FF2AC00E94D0
:10279000B5068DE995E00E94D60661E0802F0E9483
:1027A000F40160E0802F0E94C60168EB7BE080E0CE
:1027B00090E00E940C0361E0802F0E94C6016CE251
:1027C00071E080E090E00E940C03CE14DF0489F6F3
:1027D00061E08AE00E94F4010E943B0687EC95E0EC
:1027E000EBCD4AE00E947106D4CFFC0111927F012B
:1027F00063ED75E0C8010E944E1A892B39F06BED2C
:1028000075E0C8010E944E1A892B11F5C7010E947C
:10281000451797FD19C080319105C4F480930D01CF
:10282000082F10E0B80190E080E00E94B505B801E3
:1028300081E090E00E94B505B80182E090E00E943E
:10284000B5050E94E1052ACC80E0E8CF8FE0E6CF15
:1028500044E050E062EE75E0C8010E94731A892BD3
:1028600049F4F80184818053833020F4B7010E9439
:10287000CD0814CC67EE75E0C8010E944E1A892B72
:1028800009F40CCC6CEE75E0C8010E944E1A892B3D
:1028900009F404CC61EF75E0C8010E944E1A892B3F
:1028A00009F4FCCB66EF75E0C8010E944E1A892B33
:1028B00009F4F4CB6BEF75E0C8010E944E1A892B26
:1028C00009F4ECCB69EB73E0C8010E944E1A892B26
:1028D00081F4C7010E9445178F3F910519F014F04C
:1028E0008FEF90E097FD80E0809354060E943B06B6
:1028F000D5CB6EEF72E0C8010E944E1A892B09F405
:10290000CDCB60E076E0C8010E944E1A892B91F48D
:10291000C7010E9445178536910514F084E690E0C2
:102920001816190614F081E090E090930F0180933F
:102930000E01B4CB68E076E0C8010E944E1A892BE4
:1029400091F4C7010E9445178930910514F088E081
:1029500090E01816190614F081E090E090931F01A2
:1029600080931E019BCB60E176E0C8010E944E1A65
:10297000892B09F493CB68E176E0C8010E944E1AD6
:10298000892B89F4C7010E944517893C910514F0F1
:1029900088EC90E097FF02C090E080E090931101F6
:1029A000809310017BCB65E772E0C8010E944E1A4C
:1029B000892B09F073CBC1CC80910A0790910B074A
:1029C000A0910C07B0910D0795018401081B190B0C
:1029D0002A0B3B0BD901C8010A97A105B10508F4E0
:1029E0006CC180920A0790920B07A0920C07B092DC
:1029F0000D078BE10E94C50200911E0110911F017D
:102A00002091F8063091F906F901EE0FFF1FE6500C
:102A1000F94F91838083C9010196B8010E941B1868
:102A20009093F9068093F806EAEFF6E030E020E0B4
:102A300060E070E0CB01201731076CF441905190B9
:102A4000052C000C66087708640D751D861D971D02
:102A50002F5F3F4FF0CF2801012E000C660877084A
:102A6000A30192010E9481173093F7062093F60686
:102A70008CE10E94C5022091E4063091E506F9013F
:102A8000EE0FFF1FEA51F94F91838083C901019630
:102A9000B8010E941B189093E5068093E406E6EEC9
:102AA000F6E060E070E0CB01E016F10674F42191ED
:102AB0003191032E000C440B550B620F731F841FC2
:102AC000951F2FEFE21AF20AEFCFA30192010E94A5
:102AD00081173093E3062093E2060FE611E0D12C34
:102AE000C12C712CEE24E394F12C5C2CF801219183
:102AF0008F0130E0F901E656FE4F8491F901E55867
:102B0000FE4F6490F901E45AFE4F44904110A5C075
:102B1000C70101C0880F5A94EAF7782AFFEFCF1A4D
:102B2000DF0A28E0C216D10401F72FB7F89480918C
:102B30000F0790911007A0911107B09112072FBFB6
:102B40002091DC06271509F498C07092DC0680936A
:102B5000D8069093D906A093DA06B093DB0680914D
:102B6000D70680931D0110921C0110921B01109238
:102B70001A019091190198130CC0909118019111AC
:102B800008C090911701911104C0909116019923EA
:102B900039F14091DE065091DF066091E0067091B8
:102BA000E10695018401041B150B260B370BB901B7
:102BB000A8014C3051056105710590F08092DE0648
:102BC0009092DF06A092E006B092E1068093190190
:102BD0001092180110921701109216010E946D0AAE
:102BE000E091F606F091F70680911401909115019D
:102BF0009F01281B390B37FF03C0319521953109FF
:102C00006091E2067091E3068091120190911301A8
:102C1000AB01481B590BCA0157FF03C09195819521
:102C200091094091100150911101241735070CF4BE
:102C300077C0A0910E01B0910F012A173B070CF449
:102C40006FC0F0931501E093140121E084179507FC
:102C50000CF06AC00E946D0A2BC081110E947A019B
:102C6000E42DF0E0EE0FFF1FEA5DFE4FA591B49159
:102C7000EC916E2209F44CCF51CF2091D706271545
:102C800009F46DCF4091D8065091D9066091DA06CB
:102C90007091DB06841B950BA60BB70B4997A1051A
:102CA000B10508F45CCF7092D70659CF2111D2CF6D
:102CB0008091DD0681110E946D0A80E090E0892BF1
:102CC00009F4BAC90E940000B7C944E050E062EEBE
:102CD00075E0C8010E948B1AF80120812B3709F09A
:102CE000A0CA892B09F0BACAF8018481E0EDFE2E52
:102CF000F80EF9E0FF1508F4B1CA6AE370E0C80104
:102D00000E94611A009731F0BC016F5F7F4F8F2DD9
:102D10000E94CD08F80180818B3709F085CABEC9B1
:102D200020E08417950724F240910E0150910F0185
:102D3000841795070CF4BACF7093130160931201B6
:102D400089CF8F929F92AF92BF92CF92DF92EF92F4
:102D5000FF92CF93DF93EC01688179818A819B8117
:102D6000611571058105910521F464E279ED8BE52A
:102D700097E02DE133EF41E050E00E9481174901D7
:102D80005A019B01AC01A7EAB1E40E94A0176B01B4
:102D90007C01ACEEB4EFA50194010E94AE17C60E03
:102DA000D71EE81EF91EF7FE06C081E0C81AD1083A
:102DB000E10880E8F80AC882D982EA82FB82C7016A
:102DC000B6019F77DF91CF91FF90EF90DF90CF908A
:102DD000BF90AF909F908F9008958F929F92AF92E7
:102DE000BF92CF92DF92EF92FF926091200170919B
:102DF00021018091220190912301611571058105C6
:102E0000910521F464E279ED8BE597E02DE133EF54
:102E100041E050E00E94811749015A019B01AC0139
:102E2000A7EAB1E40E94A0176B017C01ACEEB4EFFD
:102E3000A50194010E94AE17C60ED71EE81EF91E0A
:102E4000F7FE06C081E0C81AD108E10880E8F80A58
:102E5000C0922001D0922101E0922201F092230140
:102E6000C701B6019F77FF90EF90DF90CF90BF90A2
:102E7000AF909F908F9008956093200170932101EF
:102E800080932201909323010895FC0188279927BC
:102E9000E89421912032E9F3293010F02E30C8F364
:102EA0002B3241F02D3239F4689404C00E9463172C
:102EB000820F911D219120532A30C0F31EF490956A
:102EC00081959F4F08957AE0979F902D879F802D41
:102ED000910D11240895F999FECF92BD81BDF89A04
:102EE000992780B50895262FF999FECF1FBA92BD74
:102EF00081BD20BD0FB6F894FA9AF99A0FBE0196DB
:102F00000895052E97FB1EF400940E94981757FD14
:102F100007D00E94EA1707FC03D04EF40C949817D0
:102F200050954095309521953F4F4F4F5F4F0895F5
:102F300090958095709561957F4F8F4F9F4F089525
:102F40000E940C18A59F900DB49F900DA49F800D1A
:102F5000911D11240895B7FF0C94A0170E94A0178B
:102F6000821B930B08952F923F924F925F926F9224
:102F70007F928F929F92AF92BF92CF92DF92EF9209
:102F8000FF920F931F93CF93DF93CDB7DEB7CA1B8A
:102F9000DB0B0FB6F894DEBF0FBECDBF09942A88B5
:102FA000398848885F846E847D848C849B84AA845D
:102FB000B984C884DF80EE80FD800C811B81AA81EA
:102FC000B981CE0FD11D0FB6F894DEBF0FBECDBFB5
:102FD000ED010895A1E21A2EAA1BBB1BFD010DC035
:102FE000AA1FBB1FEE1FFF1FA217B307E407F507B9
:102FF00020F0A21BB30BE40BF50B661F771F881F95
:10300000991F1A9469F760957095809590959B012A
:10301000AC01BD01CF010895A29FB001B39FC001D3
:10302000A39F700D811D1124911DB29F700D811DF4
:103030001124911D089597FB072E16F4009407D0D4
:1030400077FD09D00E94351807FC05D03EF4909515
:1030500081959F4F0895709561957F4F0895EE0F6C
:10306000FF1F0590F491E02D0994AA1BBB1B51E1B1
:1030700007C0AA1FBB1FA617B70710F0A61BB70BE8
:10308000881F991F5A95A9F780959095BC01CD018D
:1030900008950F931F93CF93DF938230910510F41F
:1030A00082E090E0E091D907F091DA0730E020E08B
:1030B000B0E0A0E0309799F42115310509F44AC039
:1030C000281B390B24303105D8F58A819B81611585
:1030D000710589F1FB0193838283FE0111C0408158
:1030E00051810281138148175907E0F048175907A9
:1030F00099F4109761F012960C93129713961C9303
:103100003296CF01DF91CF911F910F9108950093D7
:10311000D9071093DA07F4CF2115310551F0421782
:10312000530738F0A901DB019A01BD01DF01F80165
:10313000C1CFEF01F9CF9093DA078093D907CDCFB4
:10314000FE01E20FF31F81939193225031093983DD
:103150002883D7CF2091D7073091D807232B41F46C
:1031600020912601309127013093D8072093D7076B
:1031700020912401309125012115310541F42DB70D
:103180003EB74091280150912901241B350BE09155
:10319000D707F091D807E217F307A0F42E1B3F0BD7
:1031A0002817390778F0AC014E5F5F4F24173507B9
:1031B00048F04E0F5F1F5093D8074093D707819375
:1031C00091939FCFF0E0E0E09CCFCF93DF93009707
:1031D000E9F0FC01329713821282A091D907B091D5
:1031E000DA07ED0130E020E01097A1F42081318171
:1031F000820F931F2091D7073091D80728173907DE
:1032000009F061C0F093D807E093D707DF91CF9121
:103210000895EA01CE17DF07E8F54A815B819E0138
:1032200041155105B1F7E901FB83EA8349915991B1
:10323000C40FD51FEC17FD0761F4808191810296C0
:10324000840F951FE90199838883828193819B83F1
:103250008A83F0E0E0E012968D919C91139700979D
:10326000B9F52D913C911197CD010296820F931FD4
:103270002091D7073091D8072817390739F63097AA
:1032800051F51092DA071092D907B093D807A0939E
:10329000D707BCCFD383C28340815181840F951F50
:1032A000C817D90761F44E5F5F4F88819981480F35
:1032B000591F518340838A819B8193838283211587
:1032C000310509F0B0CFF093DA07E093D9079ECF2C
:1032D000FD01DC01C0CF13821282D7CFB0E0A0E0A5
:1032E000E4E7F9E10C94B5178C01009751F4CB0198
:1032F0000E9449188C01C801CDB7DEB7E0E10C94FB
:10330000D117FC01E60FF71F9C0122503109E2178B
:10331000F30708F49DC0D901CD91DC911197C61730
:10332000D70798F0C530D10530F3CE010497861742
:10333000970708F3C61BD70B2297C193D1936D93C0
:103340007C93CF010E94E518D6CF5B01AC1ABD0A71
:103350004C018C0E9D1EA091D907B091DA07512C1B
:10336000412CF12CE12C109731F58091D7079091E9
:10337000D8078815990509F05CC04616570608F06D
:1033800058C08091240190912501009741F48DB798
:103390009EB74091280150912901841B950BE81795
:1033A000F90708F055C0F093D807E093D707F90163
:1033B00071836083A0CF8D919C91119712966C9030
:1033C000129713967C901397A815B90559F56C01BF
:1033D00042E0C40ED11CCA14DB0420F1AC014A192E
:1033E0005B09DA011296159780F06282738251832D
:1033F0004083D9016D937C93E114F10471F0D701FE
:103400001396FC93EE93129776CF22968C0F9D1F06
:10341000F90191838083F301EFCFF093DA07E09312
:10342000D90769CF4816590608F42C017D01D3014C
:103430009ACFCB010E9449187C01009749F0AE0158
:10344000B8010E94331AC8010E94E518870153CFC2
:1034500010E000E050CF9111089581568A5108F490
:10346000805285580895FB01DC0102C001900D9245
:1034700041505040D8F708956817790768F4FB0168
:10348000DC01E40FF51FA40FB51F02C002900E92DD
:1034900041505040D8F708950C94331AFB01DC01D9
:1034A0008D9181341CF08B350CF4805E6191613418
:1034B0001CF06B350CF4605E861B611189F3990B6F
:1034C0000895FC018191861721F08823D9F7992767
:1034D00008953197CF010895FB01DC0101900D9211
:1034E0000020E1F70895FB01DC014150504088F0D5
:1034F0008D9181341CF08B350CF4805E61916134C8
:103500001CF06B350CF4605E861B611171F3990B36
:103510000895881BFCCFFB01DC014150504030F086
:103520008D910190801919F40020B9F7881B990B2F
:103530000895FB01DC014150504048F001900D928C
:103540000020C9F701C01D9241505040E0F7089596
:10355000FB0151915523A9F0BF01DC014D914517A5
:103560004111E1F759F4CD010190002049F04D914E
:1035700040154111C9F3FB014111EFCF81E090E00B
:1035800001970895AEE0B0E0E8ECFAE10C94C117C1
:103590000D891E8986E08C831A8309838FEF9FE74C
:1035A0009E838D83AE01475E5F4F6F89788DCE011C
:1035B00001960E94E51A2F813885020F131FF8012A
:1035C00010822E96E4E00C94DD17ABE0B0E0EBEE59
:1035D000FAE10C94B3177C013B018A01FC011782CC
:1035E0001682838181FFC8C1CE0101965C01F7017B
:1035F0009381F30193FD859193FF81913F0188238E
:1036000009F453C1853239F493FD859193FF81917B
:103610003F01853229F4B70190E00E94D51CE7CF25
:10362000912C212C312CFFE1F31538F08B3211F164
:1036300090F4803209F1833229F137FC3CC020ED4F
:10364000280F2A3050F536FE20C08AE0989E200DC3
:103650001124922E06C08D3291F0803371F7689458
:1036600030F8F30193FD859193FF81913F01811122
:10367000DACF21C0689431F8689432F8F2CF6894B8
:1036800033F8EFCF689434F8ECCFEAE02E9E200DAB
:103690001124222E689435F8E4CF8E3229F436FCBA
:1036A00004C1689436F8DDCF8C3619F4689437F885
:1036B000D8CF8836B1F2982F9F7D95549330E0F0A3
:1036C0008336A1F18337C1F1833509F063C0280146
:1036D000F2E04F0E511CF801C080D180692D70E0DE
:1036E00036FC02C06FEF7FEFC6010E94BF1C4C0189
:1036F000689437F882010AC00C5F1F4FFFE3F9831B
:1037000088248394912C6501E89437F833FE2DC00A
:10371000522C8114910471F5552009F468CFB7013A
:1037200080E290E00E94D51C5A94F6CFF801808187
:1037300089830E5F1F4FE4CF2801F2E04F0E511C2A
:10374000F801C080D180692D70E036FC02C06FEFB7
:103750007FEFC6010E94CA1C4C018201D5CFB70180
:1037600080E290E00E94D51C2A942814190409F0E4
:10377000B0F7CECFF60137FC859137FE81916F010E
:10378000B70190E00E94D51C51105A94F1E08F1AB5
:103790009108BFCF843619F0893609F077C0F80157
:1037A00037FE6BC060817181828193810C5F1F4FF6
:1037B000F32DFF763F2E97FF09C090958095709569
:1037C00061957F4F8F4F9F4F689437F82AE030E024
:1037D000A5010E94051DC82ECA188C2C432C36FE4C
:1037E0000CC0E89440F8C91440F434FE05C032FC23
:1037F00003C0F32DFE7E4F2E892C44FE95C0FE01A2
:10380000EC0DF11D8081803309F087C0242D297EC5
:10381000422E842D8870582E43FC95C040FE8FC0E8
:103820009C2C821418F42C0C922C981844FE91C0F5
:10383000B70180E390E00E94D51C42FE09C088E7F2
:1038400090E041FE02C088E590E0B7010E94D51CDF
:10385000C91408F48AC0CA94D12C9FEFC91AD90A96
:10386000CA0CDB1CF60182916F01B70190E00E9447
:10387000D51CAC14BD04B1F74FCF60817181072E08
:10388000000C880B990B0E5F1F4F92CFD32CE8943E
:10389000D4F82AE030E0853739F1232D297FD22E64
:1038A0008F3601F148F48835A9F0F70186819781B8
:1038B0002B96E2E10C94CF17803749F08837A9F7AF
:1038C000D4FE02C06894D2F820E130E00DC06894C4
:1038D000D4F8F6CF34FE03C0822F8660D82E20E1C4
:1038E00032E002C028E030E0F801D7FE0FC060816E
:1038F0007181828193810C5F1F4FA5010E94051D7C
:10390000C82ECA183D2CE89437F867CF60817181C2
:1039100090E080E00E5F1F4FF0CF42FC02C0839426
:1039200078CF8394839475CF842D867809F471CFF2
:10393000F6CFB70180E290E00E94D51C83948214F8
:10394000C0F3512C73CF522C5818821408F46ECF48
:10395000F8CF842D867809F47BCF8BE241FE80E29C
:1039600047FC8DE2B70190E071CFB70180E390E0B2
:103970000E94D51C9A946CCF8FEF9FEF99CFFC01DA
:103980000590615070400110D8F7809590958E0F8A
:103990009F1F0895FC016150704001900110D8F7FD
:1039A000809590958E0F9F1F08950F931F93CF932F
:1039B000DF93182F092FEB018B8181FD09C01FEFC9
:1039C0000FEF812F902FDF91CF911F910F910895CD
:1039D00082FF14C02E813F818C819D812817390779
:1039E0003CF4E881F981CF010196998388831083A3
:1039F0008E819F8101969F838E83E3CFE885F98531
:103A0000812F0995892BA1F3DACFFA01AA27283053
:103A100051F1203181F1E8946F936E7F6E5F7F4F9B
:103A20008F4F9F4FAF4FB1E03ED0B4E03CD0670F17
:103A3000781F891F9A1FA11D680F791F8A1F911D6A
:103A4000A11D6A0F711D811D911DA11D20D009F4BA
:103A500068943F912AE0269F11243019305D3193FC
:103A6000DEF6CF010895462F4770405D4193B3E0E5
:103A70000FD0C9F7F6CF462F4F70405D4A3318F08C
:103A8000495D31FD4052419302D0A9F7EACFB4E03D
:103A9000A6959795879577956795BA95C9F70097F5
:103AA0006105710508959B01AC010A2E0694579596
:103AB000479537952795BA95C9F7620F731F841FED
:0A3AC000951FA01D0895F894FFCF94
:103ACA00FFFFFFFF00E1000000000000010C0A00F8
:103ADA000A00F1D8F1D8FFFFFFFFFFFFFFFF040044
:103AEA00010000000000DB078000202020202020A9
:103AFA0020201F0627062F0637063F060600070066
:103B0A00080009000A001200130014001500000042
:103B1A0000000000000000000000000100007E30EC
:103B2A006D79335B5F707F7B00C18081000000008C
:103B3A00010203040506074348522D000000000055
:103B4A0092040404B304A804F904B704D5040D0AC2
:103B5A000044494147205354415254004449414783
:103B6A0020454E44004944454E543A004368726F1A
:103B7A006E6F2C2076322E312046656C7479706116
:103B8A00656465003B53544154453A52554E4E497B
:103B9A004E473B0048575245563A0030313233348B
:103BAA003536373839414243444546002530346476
:103BBA0000504F54313A00504F54323A00494E3176
:103BCA003A00494E323A00494E333A00494E343AA5
:103BDA0000202020202020004348524F4E4F2D44E1
:103BEA0049535020726561647920284D4158373213
:103BFA00313920746573742D6F66662900424F4F00
:103C0A00542D424C20535441525400424F4F542D8C
:103C1A00424C20454E44002264697370220022748B
:103C2A0065787422005645520056455253494F4E04
:103C3A000052455100444941470050574D5445539D
:103C4A00540050574D544553542053544152540034
:103C5A00414E3A3520616B7469762D6C6F77204F2F
:103C6A0045202F20424C3A3620616B7469762D68C4
:103C7A006967682050574D004E7572204261636B28
:103C8A006C69676874205352202B20424C20616E65
:103C9A00004E757220416E6E75205352202B2041C2
:103CAA004E20616E00416C6C657320616E00505746
:103CBA004D5445535420454E4400424C5343414EC3
:103CCA0000424C5343414E20535441525400543104
:103CDA002050696E36204849474820616B746976DE
:103CEA002D686967682050574D202B204C45443376
:103CFA003D46460054322050696E36204C4F5720BC
:103D0A002866616C6C7320646F636820616B7469E8
:103D1A00762D6C6F77204F453F2900543320506928
:103D2A006E35204C4F57202B204C4544333D464698
:103D3A00202855342D4F4520616E2050696E353F3D
:103D4A0029005434204C454433204269747320318D
:103D5A00362D32332065696E7A656C6E00202062DA
:103D6A00697420005435204C4544343D3046205374
:103D7A007769746368696E672D424C005435622016
:103D8A004C4544353D4646205A757361747A2D4236
:103D9A0061636B6C696768740054362030784646F4
:103DAA0020696E204C45443220286E7572203220DC
:103DBA00536869667465723F2900424C5343414E09
:103DCA0020454E4400424C5445535400424C5445FD
:103DDA00535420535441525420E280942050616E2F
:103DEA00656C2D4261636B6C6967687420756E74CB
:103DFA00656E2062656F6261636874656E2100504A
:103E0A00312050696E362048494748202B205352AA
:103E1A0020285374616E64617264204D6F62694632
:103E2A006C69676874290050322050696E36204CDC
:103E3A004F5720616B7469762D6C6F77204F453F21
:103E4A00202B2053520050332050696E35204C4F9E
:103E5A0057202B2053522028736861726564204FC3
:103E6A00453F29005034206E757220424C3A323553
:103E7A0035206F686E65205352005035204C4544FA
:103E8A00323D4646207374617474204C4544332095
:103E9A0028332D536869667465723F2900424C5471
:103EAA0045535420454E440048575343414E004819
:103EBA00575343414E20535441525420E280942098
:103ECA006A6520427974652035732C2050696E35F5
:103EDA003D416E6E752050696E363D4261636B6C72
:103EEA006967687400425954452000332D53484984
:103EFA00465445523A206E7572206C332C6C322C23
:103F0A006C31206F686E652055370048575343411E
:103F1A004E20454E440050494E5343414E005049AD
:103F2A004E5343414E205354415254004C4544335E
:103F3A002B4C454434282B4C45443529206C61646C
:103F4A00656E20284261636B6C69676874205352FE
:103F5A0020446174656E290050494E3A00204C4F46
:103F6A00572028337329202D3E20736368617520FA
:103F7A006F62204261636B6C69676874206C657557
:103F8A006368746574210050494E5343414E20457D
:103F9A004E4400444953505F424C004449535042F6
:103FAA004C0044495350004C454431004C4544327E
:103FBA00004C454433004C454434004C45443500DC
:103FCA00534D4F5F54485200534D4F5F53414D007C
:103FDA00534D4F5F444C5900504F545F4442004C7C
:103FEA004544312F5532004C4544322F5533004C4D
:103FFA004544332F5534004C4544342F5537004C33
:08400A004544352F5538000034
:00000001FF
