:100000000C94DB000C9403010C9403010C94030189
:100010000C9403010C9403010C9403010C94030150
:100020000C9403010C9403010C94810B0C94FE0BB3
:100030000C9403010C9403010C9403010C94030130
:100040000C9403010C9403010C9403010C94030120
:100050000C9403010C9403010C9403010C94370BD2
:100060000C9403010C9403010C9403010C94030100
:100070000C9403010C9403010C9403010C940301F0
:100080000C9403010C9403010C9403010C940301E0
:100090000C9403010C9403010C9403010C940301D0
:1000A0000C9403010C9403010C940301080B00024F
:1000B0000202000009040000010202000005240001
:1000C0001001052401010104240206052406000193
:1000D0000705810310004009040100020A00000026
:1000E00007050202400000070583024000000403E8
:1000F000090412010002EF0201404F1B06920001A9
:1001000001020301537061726B46756E005370619A
:10011000726B46756E2050726F204D6963726F006E
:10012000070605040100080A0B0C0D090000000079
:10013000240027002A002D003000000000002500C8
:1001400028002B002E0031000000000023002600B4
:1001500029002C002F0004040404040304050202F7
:100160000202040302020202060606060606040450
:1001700002020204040408020110408040102040E2
:10018000804080080204018040201002011080108D
:10019000204040200000000200090F00000304017D
:1001A000000C000000000000000000000000000043
:1001B0000000300ED01811241FBECFEFDAE0DEBFF2
:1001C000CDBF13E0A0E0B1E0E4E7FFE302C005909B
:1001D0000D92AC35B107D9F725E0ACE5B3E001C02D
:1001E0001D92AC35B207E1F710E0CAEDD0E004C0D3
:1001F0002197FE010E94841AC93DD107C9F70E94C8
:100200004A0E0C94AD1F0C940000CF93DF93FC01B9
:10021000389623E030E0EC01A991CE012A0F311D80
:10022000EC17FD07C1F7FB01CB0108966191260F82
:10023000311D8E179F07D1F7FA01CA010996419126
:10024000240F311D8E179F07D1F7822FDF91CF9199
:10025000089583E08093E9008091F200882319F0EB
:100260008AE38093E8000895FC018091F7048823D5
:1002700011F13FB7F89482E08093E9002091F200F9
:10028000822F90E01816190614F481E090E088237C
:1002900039F0289844E64093F6044091F1004083F9
:1002A000222339F02091F200211103C02BE6209384
:1002B000E8003FBF08958FEF9FEF08952FB7F894A0
:1002C00083E08093E9009091E800892F807295FF88
:1002D00004C09091F20080E4891B2FBF08958091A3
:1002E000EE0481110DC082E08093EA0484E08093E3
:1002F000EB041092ED041092EC0481E08093EE0484
:100300008AEE94E0089581508F3008F047C0E82FBE
:10031000F0E0E357FE4F0C94841AAA01AE019C0151
:10032000A201A601CE01CE01CE01B101B701BB01F0
:10033000BF01C501CE01C901809180008F778093F4
:1003400080000895809180008F7DF9CF809180009A
:10035000877FF5CF84B58F7784BD089584B58F7D71
:10036000FBCF809190008F778093900008958091CB
:1003700090008F7DF9CF80919000877FF5CF80919D
:10038000C0008F778093C00008958091C0008F7D5A
:10039000F9CF8091C200877F8093C20008951F9398
:1003A000CF93DF93282F30E0F901EC56FE4F849174
:1003B000F901EB58FE4FD491F901EA5AFE4FC4916E
:1003C000CC23A9F0162F81110E948301EC2FF0E0BD
:1003D000EE0FFF1FE65CFE4FA591B4918FB7F89426
:1003E000EC91111108C0D095DE23DC938FBFDF9113
:1003F000CF911F910895DE2BF8CFCF93DF9390E03C
:10040000FC01EB58FE4F24918A5A9E4FFC018491C7
:100410008823D1F090E0880F991FFC01E45DFE4F26
:10042000A591B491FC01E65CFE4FC591D491611198
:100430000EC09FB7F8948C91E22FE0958E238C9399
:100440002881E223E8839FBFDF91CF9108958FB782
:10045000F894EC91E22BEC938FBFF6CF1F93CF93E0
:10046000DF93182FEB0161E00E94FD01209739F422
:1004700060E0812FDF91CF911F910C94CF01CF3F8E
:10048000D10511F461E0F5CFE12FF0E0EC56FE4F1D
:10049000E491E150EF3008F07FC0F0E0EE5AFD4FFC
:1004A0000C94841A610269026E0278028202CC0204
:1004B000CC02CC028C029602A002AA02B702CC02A5
:1004C000BF0284B5806884BDC7BDDF91CF911F9105
:1004D000089584B5806284BDC8BDF7CF8091800047
:1004E000806880938000D0938900C0938800EDCF0E
:1004F00080918000806280938000D0938B00C093B5
:100500008A00E3CF80918000886080938000D09340
:100510008D00C0938C00D9CF80919000806880932B
:100520009000D0939900C0939800CFCF8091900015
:10053000806280939000D0939B00C0939A00C5CFB7
:1005400080919000886080939000D0939D00C0932C
:100550009C00BBCF8091C00080688093C0008091D8
:10056000C0008F7B8093C000C093CF00AECF80913E
:10057000C00080628093C000C093D000A6CF80915D
:10058000C20088608093C2008091C2008B7F8093FC
:10059000C200C093D20099CFC038D1050CF072CF01
:1005A00067CF8251E82FF0E0E05EFE4FE49190913A
:1005B0007B008E2F880F880F80729F7D892B809300
:1005C0007B00E770E064E0937C0080917A008064B7
:1005D00080937A0080917A0086FDFCCF809178002C
:1005E0009091790008953FB7F8948091E604909136
:1005F000E704A091E804B091E90426B5A89B05C0E2
:100600002F3F19F00196A11DB11D3FBFBA2FA92F91
:10061000982F8827BC01CD01620F711D811D911D8E
:1006200042E0660F771F881F991F4A95D1F70895FA
:100630008F929F92AF92BF92CF92DF92EF92FF92F2
:100640004B015C010E94F3026B017C010E94F302EA
:100650006C197D098E099F09683E734081059105DB
:10066000A8F321E0821A9108A108B10888EEC80E0B
:1006700083E0D81EE11CF11C81149104A104B10493
:1006800029F7FF90EF90DF90CF90BF90AF909F90B1
:100690008F9008950C942901FC0124813581621703
:1006A000730748F480819181009729F0860F971F86
:1006B000FC018081089580E00895089540916203CF
:1006C00050916303209160033091610342175307F7
:1006D000B4F49091E8009570E1F39091E80092FDF8
:1006E00019C08093F1008091620390916303019699
:1006F0008F739927892B19F48EEF8093E8008091EE
:100700006203909163030196909363038093620365
:1007100081E0089580E00895EF92FF920F931F9378
:10072000CF93DF93F82E192FE62E042F81E0860F4A
:10073000880F0E945E0383E00E945E03CF2DD12FBD
:10074000EC0EFD2EF11CCE15DF05B9F007FF13C02E
:10075000FE0184910E945E03182F80E00E945E03D8
:10076000812321968111EFCFDF91CF911F910F91BE
:10077000FF90EF9008958881EDCF81E0F5CFDF9273
:10078000EF92FF920F931F93CF93DF93D82E8A019E
:10079000EB017B01E40EF51ECE15DF0559F0D7FE07
:1007A00012C0FE0184910E945E0321968111F4CF54
:1007B0000FEF1FEFC801DF91CF911F910F91FF90B5
:1007C000EF90DF9008958881EECF0F931F93CF9322
:1007D000DF931F92CDB7DEB782E0898342E450E019
:1007E0006CEA70E080E80E94BF030E946F01DC01A8
:1007F00012960D911C910115110589F0D801ED910A
:10080000FC910280F381E02DBE016F5F7F4FC80134
:10081000099597FD04C0F80100851185ECCF898109
:100820000F90DF91CF911F910F910895615030F09B
:100830002091F100FC0120830196F8CF289884E6EE
:100840008093F60408958F929F92AF92BF92CF92B9
:10085000DF92EF92FF920F931F93CF93DF936C0180
:100860007B018A0180910B01882309F45CC080918F
:10087000F704882309F457C08091660380FF05C000
:100880008091E00082608093E000E801B12C8AEF63
:10089000A82E93E0892E2AE3922E209711F4BB20F4
:1008A000D9F10E945E0181110AC0AA94AA20D9F14F
:1008B00061E070E080E090E00E941803EECF8C17BA
:1008C0001D0611F00CF08C2F9FB7F8948092E90070
:1008D0002091E80025FD02C09FBFDFCF282F30E028
:1008E000C21BD30BF701815020F041914093F100DE
:1008F000FACFE20EF31EBB2021F09092E800B12C5B
:10090000EBCF8091E80085FDE7CF9092E800BB2413
:10091000B394209709F3F3CF5D9884E68093650341
:10092000101611063CF081E090E0F601938382837B
:1009300010E000E0C801DF91CF911F910F91FF906F
:10094000EF90DF90CF90BF90AF909F908F900895E1
:10095000FC01448155816081718182E095E00C94B5
:100960002304CF93DF931F92CDB7DEB76983DC01F9
:10097000ED91FC910280F381E02D41E050E0BE0159
:100980006F5F7F4F09950F90DF91CF9108950E947F
:100990005E0190E00895CF93DF931F92CDB7DEB74D
:1009A000FC018485958597FD08C02FEF3FEF3587C3
:1009B00024870F90DF91CF910895CE0101960E9478
:1009C0003401019719F4898190E0F3CF8FEF9FEF05
:1009D000F0CF0F931F93CF93DF931F92CDB7DEB766
:1009E0008C01FC018485958597FF0BC0CE01019693
:1009F0000E943401019771F4898190E0F801958794
:100A00008487F801848595850F90DF91CF911F91A0
:100A10000F9108958FEF9FEFF1CFFC0184859585AD
:100A200097FD0BC09FB7F89482E08093E900809116
:100A3000F2009FBF90E0019608959FB7F89482E07E
:100A40008093E9008091F2009FBF90E00895CF92DB
:100A5000DF92EF92FF920F931F93CF937C01FC01E3
:100A6000C480D58010E000E0C0E00C151D05A1F0A9
:100A7000B801C7010E944C0390ED980F923048F4E2
:100A80002C2F30E0220F331FC1E0813309F0C0E08A
:100A9000C22B0F5F1F4FE9CF8C2FCF911F910F916A
:100AA000FF90EF90DF90CF900895FC01019000201F
:100AB000E9F73197AF01481B590BBC0182E095E083
:100AC0000C9423048F929F92AF92BF920F931F9327
:100AD000CF93DF93CDB7DEB7A1970FB6F894DEBF03
:100AE0000FBECDBF19A2423008F44AE08E010F5D5F
:100AF0001F4F842E912CB12CA12CA50194010E9492
:100B00003F1AE62FB901CA01EA30F4F4E05DD801DA
:100B1000EE938D01232B242B252B79F790E080E099
:100B2000109719F0CD010E945505A1960FB6F894C3
:100B3000DEBF0FBECDBFDF91CF911F910F91BF9050
:100B4000AF909F908F900895E95CE1CFCF92DF92B4
:100B5000EF92FF92CF93DF936B017C016DE282E015
:100B600095E00E94B104EC0166277727CB016C1950
:100B70007D098E099F094AE00E9462058C0F9D1F26
:100B8000DF91CF91FF90EF90DF90CF900895CF93BA
:100B9000DF930E945505EC0186E791E00E94550520
:100BA0008C0F9D1FDF91CF910895009711F00C9449
:100BB000550590E080E00895CF93DF93D82FC8E0EB
:100BC0006D2F661F6627661F87E00E94CF01DD0F2D
:100BD00061E085E00E94CF0160E085E00E94CF01E6
:100BE000C15071F7DF91CF9108950F931F93CF9369
:100BF000DF93D0911E01C0916B03D23008F4C0E0A6
:100C000000916A031091690360E082E00E94CF01C5
:100C1000D23018F08C2F0E94DC05802F0E94DC055A
:100C2000812F0E94DC0561E082E00E94CF0160918B
:100C30006C0370E083E00E942E0260916D0370E00F
:100C400086E0DF91CF911F910F910C942E02EF92CD
:100C50000F93E0919304F0919404EF2B11F0EE20A8
:100C600071F08093690360936A0340936B03209350
:100C70006C0300936D030F91EF900C94F5050F91A9
:100C8000EF9008959F92AF92BF92CF92DF92EF9232
:100C9000FF920F931F93CF93DF93C7E0D0E0B12C67
:100CA00004EA11E095E8E92E91E0F92E26E6C22E3D
:100CB00021E0D22E61E08EE00E94CF01F801849104
:100CC000F701A490F6019490992051F181110E94AE
:100CD0008301E92DF0E0EE0FFF1FE85BFE4FA591C9
:100CE000B4918C91A82231E009F430E0832F0C2ECE
:100CF00001C0880F0A94EAF7B82A60E08EE00E94EB
:100D0000CF012197B8F68B2DDF91CF911F910F91D5
:100D1000FF90EF90DF90CF90BF90AF909F9008959D
:100D200080E0E5CF89E791E00E94D50580E891E079
:100D30000E94D5058091F804882361F084E991E050
:100D40000E94D50582E591E00E94D50588EF94E0E8
:100D50000E94D5058AE991E00E94D50585E492E0DC
:100D60000E94D50560911E0170E090E080E04AE0AD
:100D70000E9462058EE592E00E94D50586E791E02B
:100D80000C945505CF92DF92EF92FF920F931F9331
:100D9000CF93DF93CDB7DEB761970FB6F894DEBF80
:100DA0000FBECDBF82E10E94D1028C0183E10E947F
:100DB000D1027C010E94F30298012E0D3F1D890192
:100DC000330F220B330B600F711F821F931F6115AE
:100DD00071058105910511F00E946F1981E1EAEA20
:100DE000F1E0DE01119601900D928A95E1F708EF8E
:100DF00014E080E1C82ED12CE12CF12C0E942019A6
:100E0000A70196010E94D61921E030E02C0F3D1F6A
:100E1000620F731FFB018081F80181938F01F5E060
:100E200000301F0759F71092000561960FB6F8942D
:100E3000DEBF0FBECDBFDF91CF911F910F91FF900D
:100E4000EF90DF90CF900895CF93DF93FC01248142
:100E50003581232B79F0C081D181062E000C770BD0
:100E6000CE010E94A41C009729F08C1B9D0BDF91E2
:100E7000CF9108958FEF9FEFFACFFC018081918190
:100E8000009711F00C94781960E070E0CB010895A0
:100E9000AF92BF92CF92DF92EF92FF920F931F9388
:100EA000CF93DF93DC01CD90DC901197C114D10476
:100EB00039F01496CD91DC918C017601209761F484
:100EC000DF91CF911F910F91FF90EF90DF90CF9026
:100ED000BF90AF90089575015701BFEFAB1ABB0AE1
:100EE000F7018081082E000C990B0E94B419892B00
:100EF00091F72197CC0DDD1D8881082E000C990BF0
:100F00000E94B419892B29F0CE15DF0510F0219726
:100F1000F3CFAE014F5F5F4F4E195F09D8011596B1
:100F20005C934E931497CE14DF0420F4B701C601EE
:100F30000E949B1CD801ED91FC91119714968D9104
:100F40009C91E80FF91F1082BBCFCF93DF93FC0178
:100F5000C081D181209761F08991882349F0082EC2
:100F6000000C990B0E94931CFE0131978083F4CFF3
:100F7000DF91CF910895EF92FF920F931F93CF933C
:100F8000DF938617970769F1FC0124813581FB0106
:100F90004481558124173507E1F4232B11F1FC011D
:100FA00000811181FB01C081D181F80181918F0104
:100FB0008823B9F0082E000C990B0E948B1C7C0131
:100FC0008991082E000C990B0E948B1CE816F906DB
:100FD00061F380E0DF91CF911F910F91FF90EF902F
:100FE000089581E0F7CFFC0124813581232B31F472
:100FF00021E0FB01672B49F4822F089580819181C4
:101000006115710539F421E0FC0180818823A1F389
:1010100020E0F2CF0E94AF1C21E0892B69F3F8CFCA
:101020000F931F93CF93DF938C01EB01FC01808121
:1010300091810097E1F06881798161157105A9F0CE
:10104000428153812C813D814217530770F00E94E9
:10105000B81C8C819D81F801958384831D821C823C
:10106000DF91CF911F910F9108950E943A1B8881C3
:101070009981F801918380838A819B819383828304
:101080008C819D8195838483198218821B821A82A8
:10109000E5CFCF93DF93EC0188819981009711F020
:1010A0000E943A1B198218821D821C821B821A829E
:1010B000DF91CF910895FC0180819181009711F01B
:1010C0000C943A1B08950F931F93CF93DF93EC0179
:1010D00088819981009759F02A813B81261737072B
:1010E00030F081E0DF91CF911F910F9108958B0136
:1010F0006F5F7F4F0E94C31B009759F099838883CD
:101100001B830A832C813D81232B59F7FC0110821C
:10111000E8CF80E0E7CFEF92FF920F931F93CF933A
:10112000DF9341155105B1F07B01EC010C811D816C
:10113000040F151FB8010E946308882361F02881FD
:1011400039818C819D81B701820F931F0E94B81C49
:101150001D830C8381E0DF91CF911F910F91FF9050
:10116000EF900895EF92FF920F931F93CF93DF9329
:10117000EC017B018A01BA010E94630881110BC056
:10118000CE010E944908CE01DF91CF911F910F91AE
:10119000FF90EF9008951D830C83B701888199819A
:1011A0000E94B81CF0CFCF93DF93EC01FB018617B0
:1011B000970749F0608171816115710541F04481A3
:1011C00055810E94B208CE01DF91CF9108950E940F
:1011D0004908F9CFFC011182108213821282158214
:1011E0001482FB0101900020E9F73197AF01461B03
:1011F000570B0C94B208AF92BF92CF92DF92EF924E
:10120000FF920F931F93CF93DF937C016B015A01E1
:1012100089012417350720F48B2D5901042F182F2D
:1012200068E771E0C7010E94EA08D6011496CD91E3
:10123000DC91AC16BD0620F50C171D0708F4E8017B
:10124000D601ED91FC911197EC0FFD1F10811082DA
:101250006D917C916A0D7B1D61157105E9F0FB01B3
:1012600001900020E9F73197AF01461B570BC701EA
:101270000E94B208F60180819181C80FD91F18839E
:10128000C701DF91CF911F910F91FF90EF90DF90F9
:10129000CF90BF90AF900895C7010E944908EACF50
:1012A000CF92DF92EF92FF920F931F93CF93DF9332
:1012B00000D0CDB7DEB77C01C62E68E771E00E9492
:1012C000EA0807E010E0D12CC601002E02C0959577
:1012D00087950A94E2F780FD1AC080E389831A8219
:1012E00041E050E0BE016F5F7F4FC7010E948B0855
:1012F0000150110948F7C7010F900F90DF91CF916E
:101300001F910F91FF90EF90DF90CF90089581E3B0
:10131000E5CF1F93CF93DF93EC01162F0E94C019E6
:10132000181739F0612FCE01DF91CF911F910C94E6
:10133000C819DF91CF911F9108954F925F926F92DC
:101340007F928F929F92AF92BF92CF92DF92EF9255
:10135000FF920F931F93CF93DF93CDB7DEB76997BB
:101360000FB6F894DEBF0FBECDBF2CE031E0F9011F
:1013700001900020E9F79F012D5031405E01FAE015
:10138000AF0EB11CF50190E080E0450140E282170C
:10139000930724F4DC01A45FBE4F4C914193019666
:1013A0008830910599F725E131E0F901019000209D
:1013B000E9F79F01265131406E01F2E1CF0ED11CB9
:1013C000F60190E080E0360140E28217930724F4B2
:1013D000DC01AB5EBE4F4C91419301968830910584
:1013E00099F728EF34E0F90101900020E9F79F0117
:1013F000295F3440CE0101967C01FC0190E080E041
:10140000270140E28217930724F4DC01A850BB4F68
:101410004C91419301968830910599F719866AE5B8
:101420008AE090E00E94890965EA8BE090E00E94E2
:10143000890963E08CE090E00E9489090DE010E0EA
:10144000F50161915F01C8010E9489090F5F1F4F7B
:1014500005311105A9F7F60161916F01C8010E94DC
:1014600089090F5F1F4F0D311105A9F7F701619130
:101470007F01C8010E9489090F5F1F4F06321105C5
:10148000A9F7A201B301C4010E940501682F86E2F9
:1014900090E00E94890969960FB6F894DEBF0FBEEE
:1014A000CDBFDF91CF911F910F91FF90EF90DF9013
:1014B000CF90BF90AF909F908F907F906F905F90F4
:1014C0004F9008950C94C0194F925F926F927F9243
:1014D0008F929F92AF92BF92CF92DF92EF92FF9244
:1014E0000F931F93CF93DF93CDB7DEB72E970FB631
:1014F000F894DEBF0FBECDBF8FB7F8944090E204E2
:101500005090E3046090E4047090E5048FBF8091F4
:101510006E03811115C080915C0390915D03A091D1
:101520005E03B0915F03A3019201281B390B4A0BA4
:101530005B0BDA01C9010A97A105B10508F480C067
:1015400089EBC82E84E0D82E812C912C54019FEB7E
:10155000E92E91E0F92E8E010F5F1F4F8BEB91E08A
:101560000E94D5054AE0C501B4010E94620587ECDE
:1015700091E00E94D505F601819191916F0181154D
:10158000F4E09F0714F08FEF93E097FF02C090E024
:1015900080E09F938F93FF92EF921F930F930E948F
:1015A0000C1DB801CE0109960E94EA08CE010996E9
:1015B0000E94A804CE0109960E945B088EE592E085
:1015C0000E94D5052FEF821A920AA20AB20A0F9042
:1015D0000F900F900F900F900F9030E183169104B1
:1015E000A104B10409F0BACF84EC91E00E94D505C2
:1015F00060914001C8010E945009C8010E94A804DE
:10160000C8010E945B0889EC91E00E94D5056091B9
:101610003F01C8010E945009C8010E94A80486E742
:1016200091E00E945505C8010E945B0840925C034E
:1016300050925D0360925E0370925F0310926E039E
:101640002E960FB6F894DEBF0FBECDBFDF91CF91BF
:101650001F910F91FF90EF90DF90CF90BF90AF90D0
:101660009F908F907F906F905F904F9008951F9202
:101670000F920FB60F9211242F933F938F939F9346
:10168000AF93BF938091E2049091E304A091E404AE
:10169000B091E5043091E10423E0230F2D3758F594
:1016A0000196A11DB11D2093E1048093E204909363
:1016B000E304A093E404B093E5048091E6049091E0
:1016C000E704A091E804B091E9040196A11DB11DC1
:1016D0008093E6049093E704A093E804B093E904B0
:1016E000BF91AF919F918F913F912F910F900FBE1E
:1016F0000F901F90189526E8230F0296A11DB11D8B
:10170000D2CF1F920F920FB60F9211242F933F93B7
:101710004F935F936F937F938F939F93AF93BF93F9
:10172000CF93EF93FF93C091E1008091E100837F1D
:101730008093E100C3FF0FC01092E90081E0809325
:10174000EB001092EC0082E38093ED001092F7041E
:1017500088E08093F000C2FF1AC00E9429018091A6
:101760006503882341F08091650381508093650370
:10177000811101C05D9A8091F604882341F0809127
:10178000F60481508093F604811101C0289AC4FFA9
:1017900023C08091E2008E7E81608093E200809180
:1017A000E1008F7E8093E100809166038E7E8061F0
:1017B00080936603FF91EF91CF91BF91AF919F917D
:1017C0008F917F916F915F914F913F912F910F90EA
:1017D0000FBE0F901F901895C0FFECCF8091E200D4
:1017E0008E7E80618093E2008091E1008E7E809306
:1017F000E100809166038E7E8160DACF1F920F92A6
:101800000FB60F921124CF92DF92EF92FF920F93B7
:101810001F932F933F934F935F936F937F938F9378
:101820009F93AF93BF93EF93FF93CF93DF93CDB786
:10183000DEB76C97DEBFCDBF1092E9008091E80063
:1018400083FF25C068E0CE0145960E94160482EF12
:101850008093E8008D8987FF39C09091E80090FF60
:10186000FCCF982F907609F034C19E894F89588D0E
:101870002F89F88C911131C0803861F58091670310
:101880008093F1001092F1008EEF8093E8006C9647
:101890000FB6F894DEBF0FBECDBFDF91CF91FF91A1
:1018A000EF91BF91AF919F918F917F916F915F91D8
:1018B0004F913F912F911F910F91FF90EF90DF90EB
:1018C000CF900F900FBE0F901F9018959EEF9093A2
:1018D000E800C7CF1092F100D5CF913059F48111B3
:1018E000D3CF4130510581F6809167038D7F80937E
:1018F0006703CACF933049F48111C6CF41305105F7
:1019000019F6809167038260F2CF953041F480919F
:10191000E80080FFFCCF20682093E300B5CF96302D
:1019200009F0A9C00B8D1C8D22E01092E9001092E5
:10193000630310926203F2122EC0109261031092A0
:1019400060030E94E5031F8299E09983FA8291E087
:101950009E8390EA98879AEF99872091620330914D
:101960006303275F3F4F3C832B838D831092E900F5
:10197000109263031092620310936103009360035B
:1019800049E050E0BE016F5F7F4F80E00E94BF03DF
:101990000E94E50379CF10936103009360030E94D6
:1019A0006F01DC0112960D911C910115110509F4CE
:1019B00051C1D801ED91FC910480F581E02DBE016B
:1019C0006B5E7F4FC8010995009709F03EC1F80191
:1019D00000851185EACFF3E0FF120EC08F898823BE
:1019E00009F440C0823061F440E862E18DE091E0AA
:1019F0000E948C03811148CF81E28093EB0047CF96
:101A0000813029F440E868E084E091E0F1CF833050
:101A100099F70E946F01DC011296ED90FC908E0107
:101A20000F5F1F4F6801E114F10479F0D701ED91C8
:101A3000FC910680F781E02DB801C7010995080FD8
:101A4000111DF701E084F184EECFD8011C92F6015C
:101A500001900020E9F73197BF016C197D0940E042
:101A6000C601C6CF6EEE70E0FB01449150E080E805
:101A70000E94BF0309CF973009F4BECF983021F4FC
:101A800081E08093F10000CF993009F0FDCE8370A2
:101A900009F0B2CFECE4F1E081E031E096E321918E
:101AA000222371F08093E9003093EB00DF0111975E
:101AB0002C912093EC009093ED008F5F873079F7A5
:101AC0008EE78093EA001092EA008F898093F704F2
:101AD000DBCE8B8D9C8D1092E900109263031092E7
:101AE00062039093610380936003898D811192C09A
:101AF0008E899D89913A49F4813209F07DCF47E082
:101B000050E064E071E080E0B3CF913209F074CF2F
:101B1000833269F48F89988DB0E0A0E08093000152
:101B200090930101A0930201B0930301ADCE8032E6
:101B300069F48091E80082FFFCCF67E084E091E0E7
:101B40000E9416048BEF8093E8009ECE823209F04B
:101B50009BCE8F8980930B01EEEFFFE785919491E7
:101B60008B3F9C4D51F1E0E0F8E0809104019091B1
:101B70000501A0910601B0910701803B9440A105A9
:101B8000B105F1F480910B0180FD1AC0EE3F8AE0AF
:101B9000F80789F587E797E7918380838091600054
:101BA0008093640388E19BE00FB6F894A895809336
:101BB00060000FBE9093600067CEEEEFFAE0D5CFE5
:101BC000808191818737974709F05ECEA8958091F3
:101BD000600088618093600080916403809360005E
:101BE000EE3F2AE0F20789F08091FE0A9091FF0A09
:101BF0009183808349CE808191818737980751F204
:101C00009093FF0A8093FE0AC5CF1092FF0A1092AC
:101C1000FE0A3ACE0E946F01DC0112960D911C91D2
:101C20000115110509F4E8CED801ED91FC91019060
:101C3000F081E02DBE016B5E7F4FC80109958111D7
:101C400023CEF80100851185EBCF181619060CF488
:101C50001BCED2CEF1E0FF12BECE62EF70E004CF19
:101C6000E2E0F5E01382128288EE93E0A0E0B0E0BB
:101C700084839583A683B78388E691E091838083EC
:101C80008FEF9FEF9587848768E771E082E595E0A5
:101C90000C94EA08CF93DF93CDB7DEB7CA54D109CD
:101CA0000FB6F894DEBF0FBECDBF789484B58260C6
:101CB00084BD84B5816084BD85B5826085BD85B5F0
:101CC000816085BD80916E00816080936E0010926E
:101CD00081008091810082608093810080918100E9
:101CE000816080938100809180008160809380007A
:101CF0008091910082608093910080919100816039
:101D000080939100809190008160809390008091F9
:101D1000C10084608093C1008091C1008260809383
:101D2000C1008091C10081608093C1008091C30097
:101D300081608093C3008091C00082608093C00066
:101D40008091C20081608093C20080917A0084609B
:101D500080937A0080917A00826080937A008091EB
:101D60007A00816080937A0080917A008068809305
:101D70007A001092F7041092670310926603809124
:101D8000D70081608093D70080EA8093D80089B51E
:101D9000806189BD89B5826089BD09B400FEFDCF2F
:101DA00061E070E080E090E00E9418038091D8002C
:101DB0008F7C80618093D8008091E000807F809349
:101DC000E0008091E1008E7E8093E1008DE08093C1
:101DD000E200559A209A8FEF9FEF90930F05809322
:101DE0000E0590E080E00E94620A082F0150110B5E
:101DF0000230110508F068C180931E018AE090E06E
:101E00000E94620A182F8BE090E00E94620A982FCD
:101E1000812F8A35954A09F460C10E94C2060E944A
:101E20009D0961E082E10E94FD0161E083E10E9481
:101E3000FD0161E084E10E94FD0161E085E10E9415
:101E4000FD0160E088E10E94FD0160E080E10E9408
:101E5000FD0161E08EE00E94FD0161E08FE00E94E3
:101E6000FD0161E082E00E94FD0161E085E00E94E9
:101E7000FD0161E087E00E94FD0161E083E00E94D6
:101E8000FD0161E086E00E94FD0170E060E083E01A
:101E90000E942E0270E060E086E00E942E0289ED32
:101EA00094E06FE674E0A5E9B4E009EB14E029964C
:101EB0001FAF0EAF299721EF38ED2996EEADFFAD9C
:101EC0002997119211922996FFAFEEAF29972D9382
:101ED0003D93FB0111921192BF0129960EAD1FADEA
:101EE00029978017910749F78FEF809326018093F8
:101EF0002501EE24E39408EC28EC4AEA6AEA8AEA2F
:101F00000E94270666E970E080E090E00E941803D6
:101F100028EC45E565E585E50E94270666E970E061
:101F200080E090E00E94180300E020E04FEF6FEFA8
:101F30008FEF0E94270666E970E080E090E00E9443
:101F4000180320E040E060E080E00E94270666E998
:101F500070E080E090E00E9418030E94920681E009
:101F600080936E038FB7F8948090E2049090E3041E
:101F7000A090E404B090E5048FBF8091DD049091BF
:101F8000DE04A091DF04B091E00488169906AA0649
:101F9000BB0610F40C94A41882E095E00E940D0595
:101FA000892B09F488C682E095E00E94CB048D302D
:101FB00099F38A3009F48BE389831A8241E050E077
:101FC000BE016F5F7F4F82E595E00E948B086BE357
:101FD00082E595E00E9424078C0197FDDDCF9C01EE
:101FE00050E040E062E575E0CE018F5B9F4F0E94BC
:101FF000FB08CE018F5B9F4F0E944807209156053A
:1020000030915705A8014F5F5F4F62E575E0CE0143
:1020100001960E94FB08BE016F5F7F4F82E595E04D
:102020000E941008CE0101960E945B0827968EAD93
:102030009FAD2797892B09F441C01CAE1BAE1EAE85
:102040001DAE21961FAE1EAE2197BE016F5B7F4F66
:10205000CE01CB960E94D308CE01CB960E94A50755
:102060006FEC71E0CE01CB960E94F307811109C09D
:1020700063ED71E0CE01CB960E94F307882309F44B
:10208000BEC00E9492062FB7F8948091E20490910E
:10209000E304A091E404B091E5042FBF88539F4F5F
:1020A000AF4FBF4F8093DD049093DE04A093DF0415
:1020B000B093E004CE01CB960E945B08CE018F5B0B
:1020C0009F4F0E945B0883CF81E080931E0161E0F7
:1020D00090E080E00E94890991CE8CE090E00E941F
:1020E000620A782E6E0124E1C20ED11C7E013BE013
:1020F000E30EF11C570146010DE010E0C8010E94FB
:10210000620AF40181934F01C80108960E94620A95
:10211000F50181935F010F5F1F4F0531110571F7C5
:102120001C8E1B8AF3E07F1278CE8E010F5F1F4F4B
:102130004801EDE1AE2EB12CC5010E94620AF40106
:1021400081934F01FFEFAF1ABF0A26E2A216B10436
:1021500099F71A8686E290E00E94620AB82EA801DA
:10216000B701C6010E940501B81257CEA601485F0B
:102170005F4F90E080E0F60121916F01322F3F7DAB
:1021800029F0FC01E45FFE4F208301964C155D05AC
:1021900091F7845F9E4FFC011082A701485F5F4F5B
:1021A00090E080E0F70121917F01322F3F7D29F0FF
:1021B000FC01EB5EFE4F208301964E155F0591F703
:1021C0008B5E9E4FFC011082A801485F5F4F90E03C
:1021D00080E0F80121918F01322F3F7D29F0FC0131
:1021E000E850FB4F208301964017510791F7FC01FF
:1021F000E850FB4F1082892B09F013CE0ECE6BED09
:1022000071E0CE01CB960E94F307882389F085E424
:1022100092E00E94D50560911E0170E090E080E0A0
:102220004AE00E9462058EE592E00E94C70542CF17
:1022300061EE71E0CE01CB960E94F307882319F07E
:102240000E94640A37CF6AE3CE018F5B9F4F0E94E2
:10225000240797FD2FCF1EAA1DAA18AE1FAA1AAEDB
:1022600019AEBE016F5B7F4FCE01C5960E94D308A9
:1022700041E050E06EE572E0CE01C5960E948B0809
:10228000811104C0CE01C5960E944908312C212C31
:1022900089AD9AAD2816390608F008C5EDA8FEA844
:1022A0006BE370E0C701820D931D0E94A41C009790
:1022B00009F4FCC48C010E191F0917FDF7C498011D
:1022C000A101BE016B5C7F4FCE018F960E94FB087F
:1022D00018012FEF221A320ACE018F960E9448076A
:1022E0008BA99CA9892BA9F16AE3CE018F960E9444
:1022F00024078C0197FF6FC06FEC71E0CE0101964F
:102300000E94EA08BE016F5F7F4FCE018F960E9448
:10231000BB0711E0811115C063ED71E0CE010B9692
:102320000E94EA08BE01655F7F4FCE018F960E9432
:10233000BB0711E0811101C010E0CE010B960E9495
:102340005B08CE0101960E945B08112339F00E94C0
:102350009206CE018F960E945B089ACF6BED71E0DA
:10236000CE0101960E94EA08BE016F5F7F4FCE0149
:102370008F960E94BB07182FCE0101960E945B0822
:10238000112389F085E492E00E94D50560911E0139
:1023900070E090E080E04AE00E9462058EE592E005
:1023A0000E94C705D6CF61EE71E0CE0101960E9472
:1023B000EA08BE016F5F7F4FCE018F960E94BB0778
:1023C000182FCE0101960E945B08112311F231E013
:1023D00030936E03BECF9C0150E040E0BE01615DD2
:1023E0007F4FCE0189960E94FB082BA93CA9A8012A
:1023F0004F5F5F4FBE01615D7F4FCE0183960E94AC
:10240000FB08CE0189960E944807CE0183960E9460
:10241000480765EE71E0CE0101960E94EA08BE0110
:102420006F5F7F4FCE0189960E94BB07182FCE01A8
:1024300001960E945B081123D9F000916D03109161
:102440006C03F0906B03D0906A03CE0183960E94D8
:102450002705E12C212F4F2D6D2D0E942706CE013F
:1024600083960E945B08CE0189960E945B0871CF1B
:102470006AEE71E0CE0101960E94EA08BE016F5F2C
:102480007F4FCE0189960E94BB07182FCE0101967F
:102490000E945B08112389F000916D0310916C0379
:1024A000F0906B03CE0183960E942705E12C212F2B
:1024B0004F2D682F80916903D0CF6FEE71E0CE0170
:1024C00001960E94EA08BE016F5F7F4FCE01899698
:1024D0000E94BB07182FCE0101960E945B081123B2
:1024E00071F000916D0310916C03CE0183960E94F0
:1024F0002705E12C212F482F60916A03DBCF6CEF79
:1025000071E0CE0101960E94EA08BE016F5F7F4F25
:10251000CE0189960E94BB07182FCE0101960E941A
:102520005B081123A9F0CE0183960E943D0720E0AD
:1025300097FD08C0262F6F3F71058105910511F0A9
:102540000CF02FEFE12C00916D0340916B03D4CF81
:1025500064EF71E0CE0101960E94EA08BE016F5F50
:102560007F4FCE0189960E94BB07182FCE0101969E
:102570000E945B08112399F0CE0183960E943D07CB
:1025800000E097FD08C0062F6F3F7105810591059A
:1025900011F00CF00FEFE12C20916C03D6CF67EF18
:1025A00071E0CE0101960E94EA08BE016F5F7F4F85
:1025B000CE0189960E94BB07182FCE0101960E947A
:1025C0005B0811114CCF6FEF71E0CE0101960E94B4
:1025D000EA08BE016F5F7F4FCE0189960E94BB075C
:1025E000182FCE0101960E945B081123C9F0CE017D
:1025F00083960E943D07161617061806190654F40E
:10260000653671058105910544F47093240160934A
:10261000230125CF61E070E0F8CF64E670E0F5CFEC
:1026200067E072E0CE0101960E94EA08BE016F5F8A
:102630007F4FCE0189960E94BB07182FCE010196CD
:102640000E945B081123C9F0CE0183960E943D07CA
:10265000161617061806190654F469307105810517
:10266000910544F47093220160932101F8CE61E05A
:1026700070E0F8CF68E070E0F5CF6FE072E0CE0177
:1026800001960E94EA08BE016F5F7F4FCE018996D6
:102690000E94BB07182FCE0101960E945B081123F0
:1026A000D1F0CE0183960E943D076233710581050A
:1026B00091055CF0693E43E074078105910544F49F
:1026C0007093200160931F01CACE62E370E0F8CFDF
:1026D00068EE73E0F5CF67E172E0CE0101960E94EB
:1026E000EA08BE016F5F7F4FCE0189960E94BB074B
:1026F000182FCE0101960E945B08112309F46BC0CC
:102700006CE2CE0183960E9424078C0118161906EC
:102710000CF05CC09C0150E040E0BE016D5D7F4F5D
:10272000CE010B960E94FB082FA138A5A8014F5F90
:102730005F4FBE016D5D7F4FCE0101960E94FB0889
:10274000CE010B960E944807CE0101960E944807D1
:10275000CE010B960E943D076B0160E272E0CE0154
:1027600001960E94F307882321F0C6010197029782
:1027700068F08BE292E00E94C705CE0101960E94AC
:102780005B08CE010B960E945B0869CE6C2D6150F0
:10279000770B6230710538F4C0921E016C2D90E009
:1027A00080E00E94890989E392E00E94D50560914A
:1027B0001E0170E090E080E04AE00E9462058EE534
:1027C00092E00E94C7050E94F505D7CF8BE292E008
:1027D0000E94C70544CE61EE71E0CE0101960E94D1
:1027E000EA08BE016F5F7F4FCE0189960E94BB074A
:1027F000182FCE0101960E945B08112321F071E091
:1028000070936E032CCE6FEC71E0CE0101960E94A6
:10281000EA08BE016F5F7F4FCE0189960E94BB0719
:10282000182FCE0101960E945B08112319F00E9417
:10283000920615CE67E272E0CE0101960E94EA0888
:10284000BE016F5F7F4FCE0189960E94BB0711E0EA
:10285000811120C06CE472E0CE010B960E94EA0860
:102860004F8558898DA59EA58417950770F089A579
:102870009AA5009751F06B857C856115710529F04B
:102880000E94BF1C11E0892B09F010E0CE010B96CD
:102890000E945B08CE0101960E945B08112309F497
:1028A000DECD68E771E0CE014D960E94EA0867E24E
:1028B00072E0CE0101960E94EA08BE016F5F7F4F71
:1028C000CE0189960E94BB07182FCE0101960E9467
:1028D0005B08112309F44AC0BE016D5D7F4FCE0134
:1028E0004D960E94D308CE014D960E9448076AE398
:1028F000CE014D960E9424078C0197FD54C09C0187
:1029000050E040E0BE01635E7F4FCE0144960E94DE
:10291000FB0829A13AA1A8014F5F5F4FBE01635E8A
:102920007F4FCE010B960E94FB08CE0144960E9479
:10293000A507CE010B960E94480761E572E0CE0123
:1029400044960E94F307882309F444C067E571E0C8
:10295000CE010B960E94F3078823C9F181E0809392
:10296000680385E592E00E94C705D5C060E2CE010C
:102970008F960E9424072BA93CA9AC014F5F5F4FA3
:10298000BE01615D7F4FCE0101960E94FB08BE0132
:102990006F5F7F4FCE014D960E941008CE010196C9
:1029A0000E945B08A0CF1D8A1C8A1F8A1E8A198E6E
:1029B000188EBE01635E7F4FCE0144960E94D308FD
:1029C00068E771E0CE010B960E94EA08AECF80E680
:1029D00092E0C9CF6FE672E0CE0144960E94F30701
:1029E000882321F080916803811139C062E772E089
:1029F000CE0144960E94F30781119BC06CEA72E0FD
:102A0000CE0144960E94F3078111CAC061EC72E0C6
:102A1000CE0144960E94F30781110EC16FEE72E061
:102A2000CE0144960E94F307882321F08091680329
:102A3000811107C163EF72E0CE0144960E94F30753
:102A4000882309F468C080916803882309F42BC1A6
:102A50000E949D09109268038BE193E084CF6EE29F
:102A6000CE010B960E9424078C011816190634F427
:102A70008F85988901970817190718F087E792E062
:102A800072CF980150E040E0BE01655F7F4FCE01FC
:102A900001960E94FB08CE0101960E943D076B0142
:102AA000CE0101960E945B082F853889A8014F5FEF
:102AB0005F4FBE01655F7F4FCE0101960E94FB080C
:102AC000CE0101960E943D072B01CE0101960E9486
:102AD0005B08C6010197099748F59AE04916510429
:102AE00028F55F924F92DF92CF92E7E8F2E0FF93F2
:102AF000EF931F9289E08F9325E131E03F932F936D
:102B00000E94DC1C81E992E00E94C7050FB6F89490
:102B1000DEBF0FBECDBFCE010B960E945B08CE017B
:102B200044960E945B08CE014D962DCE8DE992E031
:102B30001ACF80916803882309F460CFEF84F88866
:102B4000C70103970697B0F46DE2CE010B960E9481
:102B50002407019779F470E060E0CE010B960E94A3
:102B60004C03082E000C990B0E94831C02E010E01D
:102B7000892B19F48FEA92E0F6CE0E151F0509F4A1
:102B8000FDC2B801CE010B960E944C03082E000C2A
:102B9000990B0E94831C892B69F30F5F1F4FEDCFA8
:102BA000F0906803FF2009F431CF8F85988908974A
:102BB000F1F510E000E0B801CE010B960E944C0345
:102BC00090ED980F9A30B0F18F7D815491E086306E
:102BD00008F090E00F5F1F4F0830110531F5992381
:102BE00031F1CE010B960E94A50708EF14E0F12CFD
:102BF000E12CB701CE010B960E944C03F8018193A2
:102C00008F01FFEFEF1AFF0A28E0E216F10489F7BF
:102C10001092000586EC92E00E94D50582E591E0D5
:102C20000E94D50588EF94E09ECE9111C4CF81ED2E
:102C300092E099CE9F2DCECF1092680381EE92E064
:102C400092CE69EF72E0CE0101960E94EA08BE01C1
:102C50006F5F7F4FCE010B960E94BB07182FCE01EE
:102C600001960E945B081123D9F00E949D091092E1
:102C700068038DEF92E00E94C7050E94290162E37C
:102C800070E080E090E00E94180388E198E00FB6C1
:102C9000F894A895809360000FBE90936000FFCFDA
:102CA0008AE093E060CE86E293E05DCECE01C596E9
:102CB0000E945B08FFC98091D9049091DA04A09129
:102CC000DB04B091DC04B501A401481B590B6A0B6D
:102CD0007B0BDB01CA010A97A105B10508F434C2D8
:102CE0008092D9049092DA04A092DB04B092DC04C2
:102CF0005FE6E52E53E0F52E6FE6462E64E0562E95
:102D000079EB272E74E0372E10E000E04CE5642EBE
:102D100041E0742ED12CC12CF3018081F2E06F0EC2
:102D2000711CB8010C2C02C0759567950A94E2F7E6
:102D300061700E94CF012FEFC21AD20A34E0C3168D
:102D4000D10451F780911F019091200182309105AB
:102D500038F0880F991F880F991F05970197F1F791
:102D600088E10E94D10297FD3BC088E10E94D10218
:102D700081159440C4F588E10E94D102F20141918D
:102D800051912F01F801B3E0EE0FFF1FBA95E1F763
:102D9000E40FF51FEE0FFF1FE159FC4F9183808375
:102DA0002091210130912201F2013297CA0101964E
:102DB000B9010E94701A9183808350E040E090E056
:102DC00080E04217530794F4FA01EE0FFF1FEE0D57
:102DD000FF1D60817181860F971F4F5F5F4FF1CF9D
:102DE00090E080E0CBCF8FEF93E0C8CFB9010E9495
:102DF000701AF101619371931F010F5F1F4FF0E192
:102E0000EF0EF11C0031110509F080CF60E08FE07A
:102E10000E94CF010BE410E0C8010197F1F761E0D7
:102E20008FE00E94CF01C8010197F1F70E9442068E
:102E3000F82E0E944206F094F09240018095809313
:102E40003F0160E08FE00E94CF01C8010197F1F7D8
:102E500061E08FE00E94CF01C8010197F1F770E1B6
:102E6000E72EF12C0FE010E060E08EE00E94CF0131
:102E7000C8010197F1F761E08EE00E94CF01C8011F
:102E80000197F1F721E0E21AF10871F7E0903F01B4
:102E900080914001FE2CE82E57E2252E51E0352E80
:102EA0008101412C512C32014394F801808197011A
:102EB00002C0369527958A95E2F7322F31702A960F
:102EC0003FAF2A972B961FAE2B972B962EAD3FAD7B
:102ED0002B97220F331F8181A70102C0569547957A
:102EE0008A95E2F7CA018170822B928193708917CB
:102EF00009F44AC091110BC021E0813009F020E0B3
:102F0000C22ED92E823001F5F80182830DC0913096
:102F100079F421E090E0833009F020E0C22ED92E30
:102F2000811112C0F8011282CC24CA94DC2C11C089
:102F3000933009F013C121E090E0823009F020E0E5
:102F4000C22ED92E813001F3F8018283C114D1043D
:102F5000D9F085E393E00E94D5054AE0C301B201B0
:102F60000E94620587EC91E00E94D505FFEFCF1625
:102F7000DF0609F0FBC06FEF7FEFCB010E94A605D3
:102F80008EE592E00E94C7050D5F1F4F2FEF421A9A
:102F9000520A620A720A39E043165104610471044C
:102FA00009F083CF4FE351E021E030E0F10180816F
:102FB000890102C0000F111F8A95E2F7C8016181E3
:102FC000F90102C0EE0FFF1F6A95E2F7BF018E2BD9
:102FD000972B80959095E822F922F3E02F0E311C73
:102FE0004215530519F79E2DE09240018F2DF09266
:102FF0003F0120912601E21204C020912501F21622
:1030000019F14091B5045091B6046091B7047091E4
:10301000B80495018401041B150B260B370BB9016D
:10302000A8014C3051056105710570F08092B5041E
:103030009092B604A092B704B092B804909326017F
:10304000809325010E94640A40912301509124013C
:10305000A5E9B4E029EBE22E24E0F22E60E0F701CE
:10306000219131917F018D919D918901081B190B4F
:10307000C80117FF03C091958195910984179507A1
:1030800034F0CD010297FC013183208361E0299661
:103090000EAD1FAD29970E151F0509F761110E948E
:1030A000640A80914001813429F580913F01883084
:1030B00009F58091930490919404892BD9F481E0CF
:1030C00090E0909394048093930480928F04909264
:1030D0009004A0929104B092920489E393E00E943C
:1030E000C705EE24E39408EC28EC4FEF6FEF8FEF69
:1030F0000E9427068091930490919404019721F5F2
:1031000080918F0490919004A0919104B0919204C9
:10311000881A990AAA0ABB0A18E981161AE39106C5
:10312000A104B10488F0109294041092930484E4F2
:1031300093E00E94C705EE24E39400E020E040E025
:1031400060E080E00E94270680E090E0892B11F487
:103150000C94B20F0E9400000C94B20F8823D9F097
:10316000D12CC12C833009F4CFCEEECEB601DD0CCC
:10317000880B990B4AE00E94620502CF6B857C8523
:1031800048E050E08CE091E00E94CD1C10921401C8
:103190008DE493E0E8CB1282CC24C394D12CD9CE19
:1031A00082E595E00C945B088F929F92AF92BF925C
:1031B000CF92DF92EF92FF92CF93DF93EC01688181
:1031C00079818A819B81611571058105910521F4C1
:1031D00064E279ED8BE597E02DE133EF41E050E0DB
:1031E0000E94D61949015A019B01AC01A7EAB1E43A
:1031F0000E94F5196B017C01ACEEB4EFA5019401BE
:103200000E94031AC60ED71EE81EF91EF7FE06C05E
:1032100081E0C81AD108E10880E8F80AC882D9829A
:10322000EA82FB82C701B6019F77DF91CF91FF90C1
:10323000EF90DF90CF90BF90AF909F908F900895C8
:103240008F929F92AF92BF92CF92DF92EF92FF92B6
:10325000609141017091420180914301909144013C
:10326000611571058105910521F464E279ED8BE525
:1032700097E02DE133EF41E050E00E94D61949017B
:103280005A019B01AC01A7EAB1E40E94F5196B0158
:103290007C01ACEEB4EFA50194010E94031AC60EA6
:1032A000D71EE81EF91EF7FE06C081E0C81AD10835
:1032B000E10880E8F80AC0924101D0924201E09210
:1032C0004301F0924401C701B6019F77FF90EF9050
:1032D000DF90CF90BF90AF909F908F9008956093B4
:1032E00041017093420180934301909344010895FA
:1032F0001F93FC0199278827BC01E8941191103293
:10330000E9F3193010F01E30C8F31B3251F01D32B2
:1033100049F4689406C00E949F19610F711D811DB8
:10332000911D119110531A30B0F33EF49095809591
:10333000709561957F4F8F4F9F4F1F910895592F23
:10334000482F372F262F660F771F881F991F660F6C
:10335000771F881F991F620F731F841F951F660FA9
:10336000771F881F991F089591110C94BD19803201
:1033700019F089508550C8F708959927882708952E
:10338000F999FECF92BD81BDF89A992780B508952D
:10339000262FF999FECF1FBA92BD81BD20BD0FB671
:1033A000F894FA9AF99A0FBE01960895052E97FBA4
:1033B0001EF400940E94ED1957FD07D00E943F1A99
:1033C00007FC03D04EF40C94ED19509540953095C0
:1033D00021953F4F4F4F5F4F089590958095709581
:1033E00061957F4F8F4F9F4F08950E94611AA59F4F
:1033F000900DB49F900DA49F800D911D11240895F0
:10340000B7FF0C94F5190E94F519821B930B0895D0
:103410002F923F924F925F926F927F928F929F92E4
:10342000AF92BF92CF92DF92EF92FF920F931F93D2
:10343000CF93DF93CDB7DEB7CA1BDB0B0FB6F89483
:10344000DEBF0FBECDBF09942A88398848885F84C3
:103450006E847D848C849B84AA84B984C884DF8034
:10346000EE80FD800C811B81AA81B981CE0FD11D18
:103470000FB6F894DEBF0FBECDBFED010895A1E2F7
:103480001A2EAA1BBB1BFD010DC0AA1FBB1FEE1FDE
:10349000FF1FA217B307E407F50720F0A21BB30B29
:1034A000E40BF50B661F771F881F991F1A9469F7A5
:1034B00060957095809590959B01AC01BD01CF0101
:1034C0000895A29FB001B39FC001A39F700D811DFD
:1034D0001124911DB29F700D811D1124911D08951D
:1034E00097FB072E16F4009407D077FD09D00E94B1
:1034F0008A1A07FC05D03EF4909581959F4F089558
:10350000709561957F4F0895EE0FFF1F0590F49120
:10351000E02D0994AA1BBB1B51E107C0AA1FBB1FCA
:10352000A617B70710F0A61BB70B881F991F5A954F
:10353000A9F780959095BC01CD0108950F931F9335
:10354000CF93DF938230910510F482E090E0E09118
:103550005A05F0915B0530E020E0B0E0A0E0309744
:1035600099F42115310509F44AC0281B390B243080
:103570003105D8F58A819B816115710589F1FB01BF
:1035800093838283FE0111C04081518102811381A6
:1035900048175907E0F04817590799F4109761F058
:1035A00012960C93129713961C933296CF01DF91CB
:1035B000CF911F910F91089500935A0510935B05C9
:1035C000F4CF2115310551F04217530738F0A90106
:1035D000DB019A01BD01DF01F801C1CFEF01F9CF95
:1035E00090935B0580935A05CDCFFE01E20FF31F48
:1035F000819391932250310939832883D7CF209129
:10360000580530915905232B41F420914701309101
:103610004801309359052093580520914501309178
:1036200046012115310541F42DB73EB740914901BE
:1036300050914A01241B350BE0915805F091590532
:10364000E217F307A0F42E1B3F0B2817390778F079
:10365000AC014E5F5F4F2417350748F04E0F5F1FD8
:103660005093590540935805819391939FCFF0E073
:10367000E0E09CCFCF93DF930097E9F0FC01329715
:1036800013821282A0915A05B0915B05ED0130E0E2
:1036900020E01097A1F420813181820F931F2091A7
:1036A0005805309159052817390709F061C0F09382
:1036B0005905E0935805DF91CF910895EA01CE179F
:1036C000DF07E8F54A815B819E0141155105B1F79D
:1036D000E901FB83EA8349915991C40FD51FEC1787
:1036E000FD0761F4808191810296840F951FE901A5
:1036F00099838883828193819B838A83F0E0E0E0D1
:1037000012968D919C9113970097B9F52D913C914C
:103710001197CD010296820F931F20915805309189
:1037200059052817390739F6309751F510925B057E
:1037300010925A05B0935905A0935805BCCFD38376
:10374000C28340815181840F951FC817D90761F446
:103750004E5F5F4F88819981480F591F5183408385
:103760008A819B81938382832115310509F0B0CF33
:10377000F0935B05E0935A059ECFFD01DC01C0CFBD
:1037800013821282D7CFB0E0A0E0E9ECFBE10C9409
:103790000A1A8C01009751F4CB010E949E1A8C01E9
:1037A000C801CDB7DEB7E0E10C94261AFC01E60FA4
:1037B000F71F9C0122503109E217F30708F49DC05E
:1037C000D901CD91DC911197C617D70798F0C53074
:1037D000D10530F3CE0104978617970708F3C61B6F
:1037E000D70B2297C193D1936D937C93CF010E9405
:1037F0003A1BD6CF5B01AC1ABD0A4C018C0E9D1E44
:10380000A0915A05B0915B05512C412CF12CE12C73
:10381000109731F5809158059091590588159905B3
:1038200009F05CC04616570608F058C08091450163
:1038300090914601009741F48DB79EB740914901A0
:1038400050914A01841B950BE817F90708F055C001
:10385000F0935905E0935805F90171836083A0CF77
:103860008D919C91119712966C90129713967C9063
:103870001397A815B90559F56C0142E0C40ED11C87
:10388000CA14DB0420F1AC014A195B09DA01129673
:10389000159780F06282738251834083D9016D93C2
:1038A0007C93E114F10471F0D7011396FC93EE932D
:1038B000129776CF22968C0F9D1FF90191838083FA
:1038C000F301EFCFF0935B05E0935A0569CF4816FB
:1038D000590608F42C017D01D3019ACFCB010E9437
:1038E0009E1A7C01009749F0AE01B8010E949B1C12
:1038F000C8010E943A1B870153CF10E000E050CF6F
:1039000085FD0C94BD19806291110C94BD198156EE
:103910008A51D8F708959111089581548A5108F475
:10392000805E855A08959111089581568A5108F450
:10393000805285580895FB01DC0102C001900D9270
:1039400041505040D8F70895FC018191861721F02D
:103950008823D9F7992708953197CF010895FB015E
:10396000DC018D91019080190110D9F3990B089514
:10397000FB01DC0101900D920020E1F70895FB01AD
:10398000DC014150504030F08D910190801919F4C4
:103990000020B9F7881B990B0895FB01DC01415009
:1039A000504048F001900D920020C9F701C01D92CF
:1039B00041505040E0F70895AEE0B0E0E2EEFCE1A7
:1039C0000C94161A0D891E898F89988D26E02C83F8
:1039D0001A83098397FF02C080E090E801979E83D5
:1039E0008D83AE01455E5F4F698D7A8DCE01019664
:1039F0000E942F1D4D815E8157FD0AC02F813885A1
:103A0000421753070CF49A01020F131FF80110829A
:103A10002E96E4E00C94321AAEE0B0E0E2E1FDE173
:103A20000C94161A0D891E8986E08C831A830983EB
:103A30008FEF9FE79E838D83AE01475E5F4F6F8957
:103A4000788DCE0101960E942F1D2F813885020F9F
:103A5000131FF80110822E96E4E00C94321AABE0AA
:103A6000B0E0E5E3FDE10C94081A7C013B018A011A
:103A7000FC0117821682838181FFC8C1CE010196A5
:103A80005C01F7019381F30193FD859193FF81918F
:103A90003F01882309F453C1853239F493FD8591A0
:103AA00093FF81913F01853229F4B70190E00E9494
:103AB0001F1FE7CF912C212C312CFFE1F31538F09B
:103AC0008B3211F190F4803209F1833229F137FC05
:103AD0003CC020ED280F2A3050F536FE20C08AE089
:103AE000989E200D1124922E06C08D3291F08033C5
:103AF00071F7689430F8F30193FD859193FF8191FC
:103B00003F018111DACF21C0689431F8689432F80E
:103B1000F2CF689433F8EFCF689434F8ECCFEAE052
:103B20002E9E200D1124222E689435F8E4CF8E327B
:103B300029F436FC04C1689436F8DDCF8C3619F4CC
:103B4000689437F8D8CF8836B1F2982F9F7D955476
:103B50009330E0F08336A1F18337C1F1833509F06A
:103B600063C02801F2E04F0E511CF801C080D180E3
:103B7000692D70E036FC02C06FEF7FEFC6010E9436
:103B8000091F4C01689437F882010AC00C5F1F4F6F
:103B9000FFE3F98388248394912C6501E89437F836
:103BA00033FE2DC0522C8114910471F5552009F477
:103BB00068CFB70180E290E00E941F1F5A94F6CFB1
:103BC000F801808189830E5F1F4FE4CF2801F2E066
:103BD0004F0E511CF801C080D180692D70E036FC79
:103BE00002C06FEF7FEFC6010E94141F4C018201DB
:103BF000D5CFB70180E290E00E941F1F2A942814BD
:103C0000190409F0B0F7CECFF60137FC859137FEE5
:103C100081916F01B70190E00E941F1F51105A94CB
:103C2000F1E08F1A9108BFCF843619F0893609F078
:103C300077C0F80137FE6BC060817181828193810A
:103C40000C5F1F4FF32DFF763F2E97FF09C0909515
:103C50008095709561957F4F8F4F9F4F689437F88F
:103C60002AE030E0A5010E944F1FC82ECA188C2CF4
:103C7000432C36FE0CC0E89440F8C91440F434FEDE
:103C800005C032FC03C0F32DFE7E4F2E892C44FE6E
:103C900095C0FE01EC0DF11D8081803309F087C0D5
:103CA000242D297E422E842D8870582E43FC95C0E9
:103CB00040FE8FC09C2C821418F42C0C922C981867
:103CC00044FE91C0B70180E390E00E941F1F42FEB6
:103CD00009C088E790E041FE02C088E590E0B701A6
:103CE0000E941F1FC91408F48AC0CA94D12C9FEFE8
:103CF000C91AD90ACA0CDB1CF60182916F01B701FF
:103D000090E00E941F1FAC14BD04B1F74FCF60813B
:103D10007181072E000C880B990B0E5F1F4F92CFFD
:103D2000D32CE894D4F82AE030E0853739F1232DFC
:103D3000297FD22E8F3601F148F48835A9F0F7019A
:103D4000868197812B96E2E10C94241A803749F002
:103D50008837A9F7D4FE02C06894D2F820E130E099
:103D60000DC06894D4F8F6CF34FE03C0822F86606D
:103D7000D82E20E132E002C028E030E0F801D7FE82
:103D80000FC060817181828193810C5F1F4FA501FB
:103D90000E944F1FC82ECA183D2CE89437F867CFF1
:103DA0006081718190E080E00E5F1F4FF0CF42FC98
:103DB00002C0839478CF8394839475CF842D8678C2
:103DC00009F471CFF6CFB70180E290E00E941F1F87
:103DD00083948214C0F3512C73CF522C5818821440
:103DE00008F46ECFF8CF842D867809F47BCF8BE270
:103DF00041FE80E247FC8DE2B70190E071CFB70150
:103E000080E390E00E941F1F9A946CCF8FEF9FEF8A
:103E100099CFFC010590615070400110D8F7809552
:103E200090958E0F9F1F0895FC0161507040019086
:103E30000110D8F7809590958E0F9F1F08950F93CE
:103E40001F93CF93DF93182F092FEB018B8181FDF7
:103E500009C01FEF0FEF812F902FDF91CF911F919E
:103E60000F91089582FF14C02E813F818C819D8126
:103E7000281739073CF4E881F981CF01019699832D
:103E8000888310838E819F8101969F838E83E3CFE9
:103E9000E885F985812F0995892BA1F3DACFFA01FD
:103EA000AA27283051F1203181F1E8946F936E7F79
:103EB0006E5F7F4F8F4F9F4FAF4FB1E03ED0B4E06A
:103EC0003CD0670F781F891F9A1FA11D680F791FAB
:103ED0008A1F911DA11D6A0F711D811D911DA11DBC
:103EE00020D009F468943F912AE0269F11243019CC
:103EF000305D3193DEF6CF010895462F4770405D67
:103F00004193B3E00FD0C9F7F6CF462F4F70405D15
:103F10004A3318F0495D31FD4052419302D0A9F770
:103F2000EACFB4E0A6959795879577956795BA956A
:103F3000C9F700976105710508959B01AC010A2E30
:103F400006945795479537952795BA95C9F7620F07
:103F5000731F841F951FA01D089510E0CAEDD0E0C7
:103F600004C0FE010E94841A2196CB3DD107C9F7F7
:043F7000F894FFCFF3
:103F7400FFFFFFFF00E1000000000000442D41337B
:103F8400323000000050434220312E300000012C1A
:103F94000104000A00FFFF00010002030004050001
:103FA4000607000809000A0B000C0D000E0F00FFA5
:103FB400FF0100000000005C05800000C18081005A
:103FC40000004143502D00303831350012001300F9
:103FD4001400150000000000B1042304C7044A03C0
:103FE4000D05CB04E9040D0A004944454E543A003A
:103FF4004143502031204350542C2076322E31201E
:104004004D4151002C20534E3A003B5354415445EA
:104014003A52554E4E494E473B00303132333435D7
:1040240036373839414243444546004D55580025FA
:1040340030346400494E313A003B494E323A00561E
:1040440045520056455253494F4E00485752455623
:1040540000524551004C454431004C454432004C1B
:1040640045443300414E00444953505F424C005391
:104074004D4F5F54485200534D4F5F53414D0053D1
:104084004D4F5F444C5900485752455653455400D0
:104094004143502D48572D534554004857524556D7
:1040A4005345543A4552523B00485752455653459E
:1040B400543A4F4B3B48575245563A0053455420C7
:1040C40000454E410053455420454E413E203B009F
:1040D40053455420454E413A4641494C203B004605
:1040E400570041434944005345542046573A464FEC
:1040F400524D4154203B005043622025642E2564D8
:10410400005345542046573A4F4B203B00534554E7
:104114002046573A52414E4745203B00534E0053E8
:10412400455420414349443A464F524D4154203B63
:1041340000455849540053455420534E3A4F4B3A86
:104144000053455420534E3A464F524D4154203B60
:104154000053455420455849543A4F4B203B00578F
:104164005249005752495445005945530053455448
:10417400205752493A4F4B203B0053455420575245
:10418400493A464F524D4154203B005752495445F9
:104194003A4F4B203B0057524954453A4C4F434BFE
:1041A4004544203B00454E43004449414720535475
:1041B400415254004449414720454E44005345541C
:0C41C40020414349443A4F4B203B00008F
:00000001FF
