:100000000C94DB000C9403010C9403010C94030189
:100010000C9403010C9403010C9403010C94030150
:100020000C9403010C9403010C94D00B0C944D0C14
:100030000C9403010C9403010C9403010C94030130
:100040000C9403010C9403010C9403010C94030120
:100050000C9403010C9403010C9403010C94860B83
:100060000C9403010C9403010C9403010C94030100
:100070000C9403010C9403010C9403010C940301F0
:100080000C9403010C9403010C9403010C940301E0
:100090000C9403010C9403010C9403010C940301D0
:1000A0000C9403010C9403010C940301080B00024F
:1000B0000202000009040000010202000005240001
:1000C0001001052401010104240206052406000193
:1000D0000705810310004009040100020A00000026
:1000E00007050202400000070583024000000403E8
:1000F000090412010002EF0201404F1B06920001A9
:1001000001020301537061726B46756E005370619A
:10011000726B46756E2050726F204D6963726F006E
:10012000070605040100080A0B0C0D090000000079
:10013000240027002A002D003000000000002500C8
:1001400028002B002E0031000000000023002600B4
:1001500029002C002F0004040404040304050202F7
:100160000202040302020202060606060606040450
:1001700002020204040408020110408040102040E2
:10018000804080080204018040201002011080108D
:10019000204040200000000200090F00000304017D
:1001A000000C000000000000000000000000000043
:1001B00000007F0E191811241FBECFEFDAE0DEBF5A
:1001C000CDBF13E0A0E0B1E0E6E0FEE302C00590A1
:1001D0000D92A036B107D9F725E0A0E6B3E001C043
:1001E0001D92A034B207E1F710E0CAEDD0E004C0E0
:1001F0002197FE010E94CD19C93DD107C9F70E9480
:10020000990E0C94F61E0C940000CF93DF93FC0122
:10021000389623E030E0EC01A991CE012A0F311D80
:10022000EC17FD07C1F7FB01CB0108966191260F82
:10023000311D8E179F07D1F7FA01CA010996419126
:10024000240F311D8E179F07D1F7822FDF91CF9199
:10025000089583E08093E9008091F200882319F0EB
:100260008AE38093E8000895FC018091DB048823F1
:1002700011F13FB7F89482E08093E9002091F200F9
:10028000822F90E01816190614F481E090E088237C
:1002900039F0289844E64093DA044091F100408315
:1002A000222339F02091F200211103C02BE6209384
:1002B000E8003FBF08958FEF9FEF08952FB7F894A0
:1002C00083E08093E9009091E800892F807295FF88
:1002D00004C09091F20080E4891B2FBF08958091A3
:1002E000D20481110DC082E08093CE0484E080931B
:1002F000CF041092D1041092D00481E08093D204F4
:100300008EEC94E0089581508F3008F047C0E82FBC
:10031000F0E0E357FE4F0C94CD19AA01AE019C0109
:10032000A201A601CE01CE01CE01B101B701BB01F0
:10033000BF01C501CE01C901809180008F778093F4
:1003400080000895809180008F7DF9CF809180009A
:10035000877FF5CF84B58F7784BD089584B58F7D71
:10036000FBCF809190008F778093900008958091CB
:1003700090008F7DF9CF80919000877FF5CF80919D
:10038000C0008F778093C00008958091C0008F7D5A
:10039000F9CF8091C200877F8093C20008951F9398
:1003A000CF93DF93282F30E0F901EC56FE4F849174
:1003B000F901EB58FE4FD491F901EA5AFE4FC4916E
:1003C000CC23A9F0162F81110E948301EC2FF0E0BD
:1003D000EE0FFF1FE65CFE4FA591B4918FB7F89426
:1003E000EC91111108C0D095DE23DC938FBFDF9113
:1003F000CF911F910895DE2BF8CFCF93DF9390E03C
:10040000FC01EB58FE4F24918A5A9E4FFC018491C7
:100410008823D1F090E0880F991FFC01E45DFE4F26
:10042000A591B491FC01E65CFE4FC591D491611198
:100430000EC09FB7F8948C91E22FE0958E238C9399
:100440002881E223E8839FBFDF91CF9108958FB782
:10045000F894EC91E22BEC938FBFF6CF1F93CF93E0
:10046000DF93182FEB0161E00E94FD01209739F422
:1004700060E0812FDF91CF911F910C94CF01CF3F8E
:10048000D10511F461E0F5CFE12FF0E0EC56FE4F1D
:10049000E491E150EF3008F07FC0F0E0EE5AFD4FFC
:1004A0000C94CD19610269026E0278028202CC02BC
:1004B000CC02CC028C029602A002AA02B702CC02A5
:1004C000BF0284B5806884BDC7BDDF91CF911F9105
:1004D000089584B5806284BDC8BDF7CF8091800047
:1004E000806880938000D0938900C0938800EDCF0E
:1004F00080918000806280938000D0938B00C093B5
:100500008A00E3CF80918000886080938000D09340
:100510008D00C0938C00D9CF80919000806880932B
:100520009000D0939900C0939800CFCF8091900015
:10053000806280939000D0939B00C0939A00C5CFB7
:1005400080919000886080939000D0939D00C0932C
:100550009C00BBCF8091C00080688093C0008091D8
:10056000C0008F7B8093C000C093CF00AECF80913E
:10057000C00080628093C000C093D000A6CF80915D
:10058000C20088608093C2008091C2008B7F8093FC
:10059000C200C093D20099CFC038D1050CF072CF01
:1005A00067CF8251E82FF0E0E05EFE4FE49190913A
:1005B0007B008E2F880F880F80729F7D892B809300
:1005C0007B00E770E064E0937C0080917A008064B7
:1005D00080937A0080917A0086FDFCCF809178002C
:1005E0009091790008953FB7F8948091CA04909152
:1005F000CB04A091CC04B091CD0426B5A89B05C036
:100600002F3F19F00196A11DB11D3FBFBA2FA92F91
:10061000982F8827BC01CD01620F711D811D911D8E
:1006200042E0660F771F881F991F4A95D1F70895FA
:100630008F929F92AF92BF92CF92DF92EF92FF92F2
:100640004B015C010E94F3026B017C010E94F302EA
:100650006C197D098E099F09683E734081059105DB
:10066000A8F321E0821A9108A108B10888EEC80E0B
:1006700083E0D81EE11CF11C81149104A104B10493
:1006800029F7FF90EF90DF90CF90BF90AF909F90B1
:100690008F9008950C942901FC0124813581621703
:1006A000730748F480819181009729F0860F971F86
:1006B000FC018081089580E00895089540916603CB
:1006C00050916703209164033091650342175307EB
:1006D000B4F49091E8009570E1F39091E80092FDF8
:1006E00019C08093F1008091660390916703019691
:1006F0008F739927892B19F48EEF8093E8008091EE
:100700006603909167030196909367038093660355
:1007100081E0089580E00895EF92FF920F931F9378
:10072000CF93DF93F82E192FE62E042F81E0860F4A
:10073000880F0E945E0383E00E945E03CF2DD12FBD
:10074000EC0EFD2EF11CCE15DF05B9F007FF13C02E
:10075000FE0184910E945E03182F80E00E945E03D8
:10076000812321968111EFCFDF91CF911F910F91BE
:10077000FF90EF9008958881EDCF81E0F5CFDF9273
:10078000EF92FF920F931F93CF93DF93D82E8A019E
:10079000EB017B01E40EF51ECE15DF0559F0D7FE07
:1007A00012C0FE0184910E945E0321968111F4CF54
:1007B0000FEF1FEFC801DF91CF911F910F91FF90B5
:1007C000EF90DF9008958881EECF0F931F93CF9322
:1007D000DF931F92CDB7DEB782E0898342E450E019
:1007E0006CEA70E080E80E94BF030E946F01DC01A8
:1007F00012960D911C910115110589F0D801ED910A
:10080000FC910280F381E02DBE016F5F7F4FC80134
:10081000099597FD04C0F80100851185ECCF898109
:100820000F90DF91CF911F910F910895615030F09B
:100830002091F100FC0120830196F8CF289884E6EE
:100840008093DA0408958F929F92AF92BF92CF92D5
:10085000DF92EF92FF920F931F93CF93DF936C0180
:100860007B018A0180912D01882309F45CC080916D
:10087000DB04882309F457C080916A0380FF05C018
:100880008091E00082608093E000E801B12C8AEF63
:10089000A82E93E0892E2AE3922E209711F4BB20F4
:1008A000D9F10E945E0181110AC0AA94AA20D9F14F
:1008B00061E070E080E090E00E941803EECF8C17BA
:1008C0001D0611F00CF08C2F9FB7F8948092E90070
:1008D0002091E80025FD02C09FBFDFCF282F30E028
:1008E000C21BD30BF701815020F041914093F100DE
:1008F000FACFE20EF31EBB2021F09092E800B12C5B
:10090000EBCF8091E80085FDE7CF9092E800BB2413
:10091000B394209709F3F3CF5D9884E6809369033D
:10092000101611063CF081E090E0F601938382837B
:1009300010E000E0C801DF91CF911F910F91FF906F
:10094000EF90DF90CF90BF90AF909F908F900895E1
:10095000FC01448155816081718186EE94E00C94A4
:100960002304CF93DF931F92CDB7DEB76983DC01F9
:10097000ED91FC910280F381E02D41E050E0BE0159
:100980006F5F7F4F09950F90DF91CF9108950E947F
:100990005E0190E00895CF93DF931F92CDB7DEB74D
:1009A000FC018485958597FD08C02FEF3FEF3587C3
:1009B00024870F90DF91CF910895CE0101960E9478
:1009C0003401019719F4898190E0F3CF8FEF9FEF05
:1009D000F0CF0F931F93CF93DF931F92CDB7DEB766
:1009E0008C01FC018485958597FF0BC0CE01019693
:1009F0000E943401019771F4898190E0F801958794
:100A00008487F801848595850F90DF91CF911F91A0
:100A10000F9108958FEF9FEFF1CFFC0184859585AD
:100A200097FD0BC09FB7F89482E08093E900809116
:100A3000F2009FBF90E0019608959FB7F89482E07E
:100A40008093E9008091F2009FBF90E00895CF92DB
:100A5000DF92EF92FF920F931F93CF937C01FC01E3
:100A6000C480D58010E000E0C0E00C151D05A1F0A9
:100A7000B801C7010E944C0390ED980F923048F4E2
:100A80002C2F30E0220F331FC1E0813309F0C0E08A
:100A9000C22B0F5F1F4FE9CF8C2FCF911F910F916A
:100AA000FF90EF90DF90CF900895CF93DF93D82FF2
:100AB000C8E06D2F661F6627661F87E00E94CF0182
:100AC000DD0F61E085E00E94CF0160E085E00E94DB
:100AD000CF01C15071F7DF91CF9108950F931F930C
:100AE000CF93DF93D0914201C0916F03D23008F4CD
:100AF000C0E000916E0310916D0360E082E00E94FF
:100B0000CF01D23018F08C2F0E945505802F0E9403
:100B10005505812F0E94550561E082E00E94CF01BA
:100B20006091700370E083E00E942E026091710377
:100B300070E086E0DF91CF911F910F910C942E020F
:100B4000EF920F93E0919704F0919804EF2B11F03E
:100B5000EE2071F080936D0360936E0340936F03FA
:100B600020937003009371030F91EF900C946E0526
:100B70000F91EF9008959F92AF92BF92CF92DF9224
:100B8000EF92FF920F931F93CF93DF93C7E0D0E0D4
:100B9000B12C04EA11E095E8E92E91E0F92E26E661
:100BA000C22E21E0D22E61E08EE00E94CF01F8013A
:100BB0008491F701A490F6019490992051F181114C
:100BC0000E948301E92DF0E0EE0FFF1FE85BFE4F6E
:100BD000A591B4918C91A82231E009F430E0832FE3
:100BE0000C2E01C0880F0A94EAF7B82A60E08EE064
:100BF0000E94CF012197B8F68B2DDF91CF911F91E5
:100C00000F91FF90EF90DF90CF90BF90AF909F90AB
:100C1000089580E0E5CFCF92DF92EF92FF920F939D
:100C20001F93CF93DF93CDB7DEB761970FB6F894DC
:100C3000DEBF0FBECDBF82E10E94D1028C0183E1F5
:100C40000E94D1027C010E94F30298012E0D3F1DEB
:100C50008901330F220B330B600F711F821F931F0B
:100C6000611571058105910511F00E94B81881E1A7
:100C7000E0E8F1E0DE01119601900D928A95E1F72E
:100C80000CED14E080E1C82ED12CE12CF12C0E9457
:100C90006918A70196010E941F1921E030E02C0F6E
:100CA0003D1F620F731FFB018081F80181938F014B
:100CB000F4E0043E1F0759F71092E40461960FB662
:100CC000F894DEBF0FBECDBFDF91CF911F910F9182
:100CD000FF90EF90DF90CF900895FC0101900020ED
:100CE000E9F73197AF01481B590BBC0186EE94E040
:100CF0000C9423048F929F92AF92BF920F931F93F5
:100D0000CF93DF93CDB7DEB7A1970FB6F894DEBFD0
:100D10000FBECDBF19A2423008F44AE08E010F5D2C
:100D20001F4F842E912CB12CA12CA50194010E945F
:100D30008819E62FB901CA01EA30F4F4E05DD80160
:100D4000EE938D01232B242B252B79F790E080E067
:100D5000109719F0CD010E946D06A1960FB6F89478
:100D6000DEBF0FBECDBFDF91CF911F910F91BF901E
:100D7000AF909F908F900895E95CE1CF0C946D0641
:100D8000CF93DF930E946D06EC0181E991E00E9410
:100D90006D068C0F9D1FDF91CF91089584E991E03E
:100DA0000E94BE068BE991E00E94BE068091DC04A1
:100DB000882361F08EEA91E00E94BE068CE591E006
:100DC0000E94BE068CED94E00E94BE0684EB91E08A
:100DD0000E94BE068EE492E00E94BE06609142012F
:100DE00070E090E080E04AE00E947A0687E692E0B8
:100DF0000E94BE0681E991E00C946D06CF93DF93CB
:100E0000FC0124813581232B79F0C081D181062E0C
:100E1000000C770BCE010E94ED1B009729F08C1B74
:100E20009D0BDF91CF9108958FEF9FEFFACFFC01DB
:100E300080819181009711F00C94C11860E070E0FE
:100E4000CB010895AF92BF92CF92DF92EF92FF92C3
:100E50000F931F93CF93DF93DC01CD90DC9011971C
:100E6000C114D10439F01496CD91DC918C01760136
:100E7000209761F4DF91CF911F910F91FF90EF9038
:100E8000DF90CF90BF90AF90089575015701BFEFED
:100E9000AB1ABB0AF7018081082E000C990B0E9447
:100EA000FD18892B91F72197CC0DDD1D8881082E27
:100EB000000C990B0E94FD18892B29F0CE15DF0537
:100EC00010F02197F3CFAE014F5F5F4F4E195F09CE
:100ED000D80115965C934E931497CE14DF0420F43A
:100EE000B701C6010E94E41BD801ED91FC91119756
:100EF00014968D919C91E80FF91F1082BBCFCF9370
:100F0000DF93FC01C081D181209761F08991882312
:100F100049F0082E000C990B0E94DC1BFE01319752
:100F20008083F4CFDF91CF910895EF92FF920F93DA
:100F30001F93CF93DF938617970769F1FC012481F4
:100F40003581FB014481558124173507E1F4232BBA
:100F500011F1FC0100811181FB01C081D181F801F7
:100F600081918F018823B9F0082E000C990B0E9403
:100F7000D41B7C018991082E000C990B0E94D41B74
:100F8000E816F90661F380E0DF91CF911F910F9190
:100F9000FF90EF90089581E0F7CFFC012481358127
:100FA000232B31F421E0FB01672B49F4822F0895B4
:100FB000808191816115710539F421E0FC01808106
:100FC0008823A1F320E0F2CF0E94F81B21E0892BB7
:100FD00069F3F8CF0F931F93CF93DF938C01EB014D
:100FE000FC01808191810097E1F068817981611530
:100FF0007105A9F0428153812C813D81421753072D
:1010000070F00E94011C8C819D81F801958384837E
:101010001D821C82DF91CF911F910F9108950E9434
:10102000831A88819981F801918380838A819B81C9
:10103000938382838C819D81958384831982188216
:101040001B821A82E5CFCF93DF93EC0188819981CF
:10105000009711F00E94831A198218821D821C8247
:101060001B821A82DF91CF910895FC0180819181CA
:10107000009711F00C94831A08950F931F93CF9348
:10108000DF93EC0188819981009759F02A813B8197
:101090002617370730F081E0DF91CF911F910F9134
:1010A00008958B016F5F7F4F0E940C1B009759F0D2
:1010B000998388831B830A832C813D81232B59F7D5
:1010C000FC011082E8CF80E0E7CFEF92FF920F9310
:1010D0001F93CF93DF9341155105B1F07B01EC01D4
:1010E0000C811D81040F151FB8010E943D08882343
:1010F00061F0288139818C819D81B701820F931F16
:101100000E94011C1D830C8381E0DF91CF911F9110
:101110000F91FF90EF900895EF92FF920F931F931E
:10112000CF93DF93EC017B018A01BA010E943D0855
:1011300081110BC0CE010E942308CE01DF91CF9117
:101140001F910F91FF90EF9008951D830C83B701BD
:10115000888199810E94011CF0CFCF93DF93EC012D
:10116000FB018617970749F0608171816115710550
:1011700041F0448155810E948C08CE01DF91CF91CE
:1011800008950E942308F9CFFC0111821082138276
:10119000128215821482FB0101900020E9F7319739
:1011A000AF01461B570B0C948C08AF92BF92CF92A5
:1011B000DF92EF92FF920F931F93CF93DF937C0107
:1011C0006B015A0189012417350720F48B2D590131
:1011D000042F182F63E971E0C7010E94C408D601EB
:1011E0001496CD91DC91AC16BD0620F50C171D07A9
:1011F00008F4E801D601ED91FC911197EC0FFD1F69
:10120000108110826D917C916A0D7B1D61157105B5
:10121000E9F0FB0101900020E9F73197AF01461B8F
:10122000570BC7010E948C08F60180819181C80F7D
:10123000D91F1883C701DF91CF911F910F91FF90A4
:10124000EF90DF90CF90BF90AF900895C7010E94BC
:101250002308EACFCF92DF92EF92FF920F931F9372
:10126000CF93DF9300D0CDB7DEB77C01C62E63E904
:1012700071E00E94C40807E010E0D12CC601002EE6
:1012800002C0959587950A94E2F780FD1AC080E325
:1012900089831A8241E050E0BE016F5F7F4FC70132
:1012A0000E9465080150110948F7C7010F900F907F
:1012B000DF91CF911F910F91FF90EF90DF90CF9032
:1012C000089581E3E5CF1F93CF93DF93EC01162FB1
:1012D0000E940919181739F0612FCE01DF91CF91C3
:1012E0001F910C941119DF91CF911F9108954F9286
:1012F0005F926F927F928F929F92AF92BF92CF92A6
:10130000DF92EF92FF920F931F93CF93DF93CDB7AE
:10131000DEB769970FB6F894DEBF0FBECDBF2EE2E1
:1013200031E0F90101900020E9F79F012F5231408F
:101330005E01FAE0AF0EB11CF50190E080E04501DE
:1013400040E28217930724F4DC01A25DBE4F4C916A
:10135000419301968830910599F727E331E0F9012F
:1013600001900020E9F79F01285331406E01F2E11E
:10137000CF0ED11CF60190E080E0360140E28217EA
:10138000930724F4DC01A95CBE4F4C914193019674
:101390008830910599F72CED34E0F9010190002097
:1013A000E9F79F012D5D3440CE0101967C01FC01DF
:1013B00090E080E0270140E28217930724F4DC01EB
:1013C000A452BB4F4C91419301968830910599F7F7
:1013D00019866AE58AE090E00E94630965EA8BE07D
:1013E00090E00E94630963E08CE090E00E94630952
:1013F0000DE010E0F50161915F01C8010E946309F1
:101400000F5F1F4F05311105A9F7F60161916F01BB
:10141000C8010E9463090F5F1F4F0D311105A9F725
:10142000F70161917F01C8010E9463090F5F1F4F9F
:1014300006321105A9F7A201B301C4010E940501FA
:10144000682F86E290E00E94630969960FB6F894CF
:10145000DEBF0FBECDBFDF91CF911F910F91FF90E7
:10146000EF90DF90CF90BF90AF909F908F907F9044
:101470006F905F904F9008950C9409192F923F92AE
:101480004F925F926F927F928F929F92AF92BF9294
:10149000CF92DF92EF92FF920F931F93CF93DF9340
:1014A000CDB7DEB72E970FB6F894DEBF0FBECDBF17
:1014B0008FB7F8944090C6045090C7046090C80459
:1014C0007090C9048FBF10917203111115C08091E3
:1014D000600390916103A0916203B0916303A30143
:1014E0009201281B390B4A0B5B0BDA01C9010597E6
:1014F000A105B10508F4EFC090914A018091210146
:10150000981302C190914901809120019813FCC069
:1015100020914001309141018DE9282E84E0382E40
:1015200090E0E92E91E0F92E6DEB74E0D701F10126
:10153000819191914D915D91841B950B97FF03C013
:101540009195819591098217930734F46E177F075F
:1015500079F7112309F4BFC0812C912C5401AE01FD
:101560004F5F5F4F6A01F101019111911F0180915D
:101570007203811114C0F701808191819801281BA9
:10158000390BC90137FF03C09195819591092091CD
:10159000400130914101821793070CF43FC084EC65
:1015A00091E00E94BE064AE0C501B4010E947A069D
:1015B00080ED91E00E94BE06011534E0130714F09F
:1015C0000FEF13E017FF02C010E000E01F930F932E
:1015D00048EC51E05F934F93DF92CF920E94551CED
:1015E000B601CE0109960E94C408CE0109960E9458
:1015F000A804CE0109960E94350887E692E00E9471
:10160000BE06F101329780819181F7019183808339
:101610000F900F900F900F900F900F90F2E0EF0E41
:10162000F11C2FEF821A920AA20AB20A30E1831645
:101630009104A104B10409F096CF80917203811145
:101640000CC090914A0180912101981306C090919D
:10165000490180912001981781F18DEC91E00E9461
:10166000BE0660914A01CE0101960E942A09CE0170
:1016700001960E94A804CE0101960E94350882EDD1
:1016800091E00E94BE0660914901CE0101960E9440
:101690002A09CE0101960E94A804CE0101960E945B
:1016A000350887E692E00E94BE0680914A01809349
:1016B0002101809149018093200181E991E00E94FC
:1016C0006D064092600350926103609262037092D3
:1016D0006303109272032E960FB6F894DEBF0FBE0E
:1016E000CDBFDF91CF911F910F91FF90EF90DF90D1
:1016F000CF90BF90AF909F908F907F906F905F90B2
:101700004F903F902F90089511E002CF1F920F92BB
:101710000FB60F9211242F933F938F939F93AF9304
:10172000BF938091C6049091C704A091C804B09162
:10173000C9043091C50423E0230F2D3758F50196D5
:10174000A11DB11D2093C5048093C6049093C704C6
:10175000A093C804B093C9048091CA049091CB04AB
:10176000A091CC04B091CD040196A11DB11D809330
:10177000CA049093CB04A093CC04B093CD04BF9142
:10178000AF919F918F913F912F910F900FBE0F902E
:101790001F90189526E8230F0296A11DB11DD2CFE8
:1017A0001F920F920FB60F9211242F933F934F93D6
:1017B0005F936F937F938F939F93AF93BF93CF93D9
:1017C000EF93FF93C091E1008091E100837F8093CC
:1017D000E100C3FF0FC01092E90081E08093EB00AD
:1017E0001092EC0082E38093ED001092DB0488E01D
:1017F0008093F000C2FF1AC00E9429018091690302
:10180000882341F08091690381508093690381119D
:1018100001C05D9A8091DA04882341F08091DA0456
:1018200081508093DA04811101C0289AC4FF23C03B
:101830008091E2008E7E81608093E2008091E100E1
:101840008F7E8093E10080916A038E7E8061809319
:101850006A03FF91EF91CF91BF91AF919F918F91CB
:101860007F916F915F914F913F912F910F900FBE9C
:101870000F901F901895C0FFECCF8091E2008E7EF4
:1018800080618093E2008091E1008E7E8093E10090
:1018900080916A038E7E8160DACF1F920F920FB61D
:1018A0000F921124CF92DF92EF92FF920F931F932A
:1018B0002F933F934F935F936F937F938F939F9358
:1018C000AF93BF93EF93FF93CF93DF93CDB7DEB783
:1018D0006C97DEBFCDBF1092E9008091E80083FFD6
:1018E00025C068E0CE0145960E94160482EF8093E1
:1018F000E8008D8987FF39C09091E80090FFFCCF08
:10190000982F907609F034C19E894F89588D2F8980
:10191000F88C911131C0803861F580916B03809310
:10192000F1001092F1008EEF8093E8006C960FB6F4
:10193000F894DEBF0FBECDBFDF91CF91FF91EF9145
:10194000BF91AF919F918F917F916F915F914F91D7
:101950003F912F911F910F91FF90EF90DF90CF90CB
:101960000F900FBE0F901F9018959EEF9093E80078
:10197000C7CF1092F100D5CF913059F48111D3CF58
:101980004130510581F680916B038D7F80936B030D
:10199000CACF933049F48111C6CF4130510519F6B1
:1019A00080916B038260F2CF953041F48091E80022
:1019B00080FFFCCF20682093E300B5CF963009F07C
:1019C000A9C00B8D1C8D22E01092E90010926703D4
:1019D00010926603F2122EC01092650310926403F7
:1019E0000E94E5031F8299E09983FA8291E09E8329
:1019F00090EA98879AEF9987209166033091670360
:101A0000275F3F4F3C832B838D831092E900109218
:101A1000670310926603109365030093640349E023
:101A200050E0BE016F5F7F4F80E00E94BF030E94C5
:101A3000E50379CF10936503009364030E946F015F
:101A4000DC0112960D911C910115110509F451C18B
:101A5000D801ED91FC910480F581E02DBE016B5E13
:101A60007F4FC8010995009709F03EC1F801008534
:101A70001185EACFF3E0FF120EC08F89882309F4A5
:101A800040C0823061F440E862E18DE091E00E9464
:101A90008C03811148CF81E28093EB0047CF8130E6
:101AA00029F440E868E084E091E0F1CF833099F7D1
:101AB0000E946F01DC011296ED90FC908E010F5F89
:101AC0001F4F6801E114F10479F0D701ED91FC9109
:101AD0000680F781E02DB801C7010995080F111D97
:101AE000F701E084F184EECFD8011C92F601019059
:101AF0000020E9F73197BF016C197D0940E0C6016C
:101B0000C6CF6EEE70E0FB01449150E080E80E9489
:101B1000BF0309CF973009F4BECF983021F481E09C
:101B20008093F10000CF993009F0FDCE837009F069
:101B3000B2CFE6E5F1E081E031E096E321912223A6
:101B400071F08093E9003093EB00DF0111972C9145
:101B50002093EC009093ED008F5F873079F78EE74C
:101B60008093EA001092EA008F898093DB04DBCE39
:101B70008B8D9C8D1092E900109267031092660382
:101B80009093650380936403898D811192C08E893F
:101B90009D89913A49F4813209F07DCF47E050E0C8
:101BA00066E271E080E0B3CF913209F074CF833206
:101BB00069F48F89988DB0E0A0E080932201909322
:101BC0002301A0932401B0932501ADCE803269F4A6
:101BD0008091E80082FFFCCF67E086E291E00E94FE
:101BE00016048BEF8093E8009ECE823209F09BCEE4
:101BF0008F8980932D01EEEFFFE7859194918B3FC4
:101C00009C4D51F1E0E0F8E0809126019091270190
:101C1000A0912801B0912901803B9440A105B10514
:101C2000F1F480912D0180FD1AC0EE3F8AE0F807A3
:101C300089F587E797E7918380838091600080939F
:101C4000680388E19BE00FB6F894A8958093600044
:101C50000FBE9093600067CEEEEFFAE0D5CF8081A3
:101C600091818737974709F05ECEA89580916000F3
:101C70008861809360008091680380936000EE3FEC
:101C80002AE0F20789F08091FE0A9091FF0A918381
:101C9000808349CE808191818737980751F2909354
:101CA000FF0A8093FE0AC5CF1092FF0A1092FE0A27
:101CB0003ACE0E946F01DC0112960D911C91011524
:101CC000110509F4E8CED801ED91FC910190F08165
:101CD000E02DBE016B5E7F4FC8010995811123CEB7
:101CE000F80100851185EBCF181619060CF41BCEF0
:101CF000D2CEF1E0FF12BECE62EF70E004CFE6EE8E
:101D0000F4E01382128288EE93E0A0E0B0E08483D6
:101D10009583A683B78382E791E0918380838FEFD9
:101D20009FEF9587848763E971E086E395E00C94E3
:101D3000C408CF93DF93CDB7DEB7C654D1090FB631
:101D4000F894DEBF0FBECDBF789484B5826084BDA9
:101D500084B5816084BD85B5826085BD85B58160AF
:101D600085BD80916E00816080936E00109281002D
:101D700080918100826080938100809181008160E8
:101D800080938100809180008160809380008091A9
:101D90009100826080939100809191008160809396
:101DA0009100809190008160809390008091C100AB
:101DB00084608093C1008091C10082608093C100E3
:101DC0008091C10081608093C1008091C3008160D7
:101DD0008093C3008091C00082608093C000809196
:101DE000C20081608093C20080917A0084608093F9
:101DF0007A0080917A00826080937A0080917A00E4
:101E0000816080937A0080917A00806880937A0064
:101E10001092DB0410926B0310926A038091D7003A
:101E200081608093D70080EA8093D80089B5806173
:101E300089BD89B5826089BD09B400FEFDCF61E02E
:101E400070E080E090E00E9418038091D8008F7CC1
:101E500080618093D8008091E000807F8093E000D3
:101E60008091E1008E7E8093E1008DE08093E2001E
:101E7000559A209A8FEF9FEF9093F3048093F2048A
:101E800090E080E00E943C0A082F0150110B0230C4
:101E9000110508F050C1809342018AE090E00E9451
:101EA0003C0A182F8BE090E00E943C0A982F812F6B
:101EB0008A35954A09F448C10E940B060E947709A9
:101EC00061E082E10E94FD0161E083E10E94FD0189
:101ED00061E084E10E94FD0161E085E10E94FD0175
:101EE00060E088E10E94FD0160E080E10E94FD0168
:101EF00061E08EE00E94FD0161E08FE00E94FD0143
:101F000061E082E00E94FD0161E085E00E94FD0148
:101F100061E087E00E94FD0161E083E00E94FD0135
:101F200061E086E00E94FD0170E060E083E00E94D5
:101F30002E0270E060E086E00E942E028DEB94E0BD
:101F4000A3E7B4E0EDE9F4E0119211921D921D9225
:101F50008E179F07C9F78FEF809348018093470141
:101F6000EE24E39408EC28EC4AEA6AEA8AEA0E9442
:101F7000A00566E970E080E090E00E94180328EC7C
:101F800045E565E585E50E94A00566E970E080E02D
:101F900090E00E94180300E020E04FEF6FEF8FEF1A
:101FA0000E94A00566E970E080E090E00E941803BE
:101FB00020E040E060E080E00E94A00566E970E07B
:101FC00080E090E00E9418030E94CE0681E080939A
:101FD00072038FB7F8948090C6049090C704A090C5
:101FE000C804B090C9048FBF8091C1049091C2040D
:101FF000A091C304B091C40488169906AA06BB0632
:1020000010F40C94021886EE94E00E940D05892BC2
:1020100009F48AC686EE94E00E94CB048D3099F3D1
:102020008A3009F48BE389831A8241E050E0BE01D3
:102030006F5F7F4F86E395E00E9465086BE386E360
:1020400095E00E94FE068C0197FDDDCF9C0150E0DB
:1020500040E066E375E0CE018F5B9F4F0E94D5089C
:10206000CE018F5B9F4F0E94220720913A0530914D
:102070003B05A8014F5F5F4F66E375E0CE01019617
:102080000E94D508BE016F5F7F4F86E395E00E94F6
:10209000EA07CE0101960E94350827968EAD9FADC6
:1020A0002797892B09F441C01CAE1BAE1EAE1DAE96
:1020B00021961FAE1EAE2197BE016F5B7F4FCE01F2
:1020C000CB960E94AD08CE01CB960E947F0768EDAB
:1020D00071E0CE01CB960E94CD07811109C06CED55
:1020E00071E0CE01CB960E94CD07882309F4BEC0D3
:1020F0000E94CE062FB7F8948091C6049091C70431
:10210000A091C804B091C9042FBF88539F4FAF4F0F
:10211000BF4F8093C1049093C204A093C304B093B3
:10212000C404CE01CB960E943508CE018F5B9F4F31
:102130000E94350883CF81E08093420161E090E006
:1021400080E00E946309A9CE8CE090E00E943C0AE6
:10215000782E6E0124E1C20ED11C7E013BE0E30E1D
:10216000F11C570146010DE010E0C8010E943C0A35
:10217000F40181934F01C80108960E943C0AF501C1
:1021800081935F010F5F1F4F0531110571F71C8EA1
:102190001B8AF3E07F1290CE8E010F5F1F4F480124
:1021A0005DE1A52EB12CC5010E943C0AF40181938A
:1021B0004F01FFEFAF1ABF0A26E2A216B10499F74A
:1021C0001A8686E290E00E943C0AB82EA801B70168
:1021D000C6010E940501B8126FCEA601485F5F4F8D
:1021E00090E080E0F60121916F01322F3F7D29F0D0
:1021F000FC01E25DFE4F208301964C155D0591F7D1
:10220000825D9E4FFC011082A701485F5F4F90E006
:1022100080E0F70121917F01322F3F7D29F0FC0101
:10222000E95CFE4F208301964E155F0591F7895CAE
:102230009E4FFC011082A801485F5F4F90E080E054
:10224000F80121918F01322F3F7D29F0FC01E452EA
:10225000FB4F208301964017510791F7FC01E45290
:10226000FB4F1082892B09F02BCE26CE64EE71E055
:10227000CE01CB960E94CD07882389F08EE492E0B0
:102280000E94BE066091420170E090E080E04AE06A
:102290000E947A0687E692E00E94C00642CF6AEE6C
:1022A00071E0CE01CB960E94CD07882319F00E94E1
:1022B0003E0A37CF6AE3CE018F5B9F4F0E94FE0636
:1022C00097FD2FCF1EAA1DAA18AE1FAA1AAE19AECF
:1022D000BE016F5B7F4FCE01C5960E94AD0841E005
:1022E00050E067E672E0CE01C5960E946508811154
:1022F00004C0CE01C5960E942308312C212C89AD43
:102300009AAD2816390608F00AC5EDA8FEA86BE3B9
:1023100070E0C701820D931D0E94ED1B009709F428
:10232000FEC48C010E191F0917FDF9C49801A10103
:10233000BE016B5C7F4FCE018F960E94D5081801BD
:10234000FFEF2F1A3F0ACE018F960E9422078BA91A
:102350009CA9892BA9F16AE3CE018F960E94FE0603
:102360008C0197FF6FC068ED71E0CE0101960E946D
:10237000C408BE016F5F7F4FCE018F960E94950704
:1023800011E0811115C06CED71E0CE010B960E9439
:10239000C408BE01655F7F4FCE018F960E949507EE
:1023A00011E0811101C010E0CE010B960E943508AA
:1023B000CE0101960E943508112339F00E94CE0605
:1023C000CE018F960E9435089ACF64EE71E0CE015F
:1023D00001960E94C408BE016F5F7F4FCE018F96A9
:1023E0000E949507182FCE0101960E9435081123EF
:1023F00089F08EE492E00E94BE066091420170E096
:1024000090E080E04AE00E947A0687E692E00E942F
:10241000C006D6CF6AEE71E0CE0101960E94C408D4
:10242000BE016F5F7F4FCE018F960E949507182FD8
:10243000CE0101960E943508112311F201E00093AC
:102440007203BECF9C0150E040E0BE01615D7F4F52
:10245000CE0189960E94D5082BA93CA9A8014F5FFF
:102460005F4FBE01615D7F4FCE0183960E94D5080C
:10247000CE0189960E942207CE0183960E942207F0
:102480006EEE71E0CE0101960E94C408BE016F5F3E
:102490007F4FCE0189960E949507182FCE01019695
:1024A0000E9435081123D9F000917103D090700378
:1024B000F0906F0310916E03CE0183960E94270562
:1024C000E12C2D2D4F2D612F0E94A005CE0183966A
:1024D0000E943508CE0189960E94350871CF63EFBE
:1024E00071E0CE0101960E94C408BE016F5F7F4F6C
:1024F000CE0189960E949507182FCE0101960E9461
:102500003508112389F000917103F0907003109148
:102510006F03CE0183960E942705E12C2F2D412FBA
:10252000682F80916D03D0CF68EF71E0CE010196E6
:102530000E94C408BE016F5F7F4FCE0189960E9442
:102540009507182FCE0101960E943508112371F0CE
:102550000091710310917003CE0183960E942705AC
:10256000E12C212F482F60916E03DBCF65E072E0F4
:10257000CE0101960E94C408BE016F5F7F4FCE015D
:1025800089960E949507182FCE0101960E94350862
:102590001123A9F0CE0183960E94170720E097FD32
:1025A00008C0262F6F3F71058105910511F00CF0D1
:1025B0002FEFE12C0091710340916F03D4CF6DEFA9
:1025C00071E0CE0101960E94C408BE016F5F7F4F8B
:1025D000CE0189960E949507182FCE0101960E9480
:1025E0003508112399F0CE0183960E94170700E069
:1025F00097FD08C0062F6F3F71058105910511F009
:102600000CF00FEFE12C20917003D6CF60E072E068
:10261000CE0101960E94C408BE016F5F7F4FCE01BC
:1026200089960E949507182FCE0101960E943508C1
:1026300011114CCF68E072E0CE0101960E94C408EF
:10264000BE016F5F7F4FCE0189960E949507182FBC
:10265000CE0101960E9435081123C9F0CE01839660
:102660000E941707161617061806190654F4653641
:1026700071058105910544F4709341016093400117
:1026800025CF61E070E0F8CF64E670E0F5CF60E15F
:1026900072E0CE0101960E94C408BE016F5F7F4FB9
:1026A000CE0189960E949507182FCE0101960E94AF
:1026B00035081123C9F0CE0183960E94170716161C
:1026C00017061806190654F469307105810591053D
:1026D00044F47093460160934501F8CE61E070E0E8
:1026E000F8CF68E070E0F5CF68E172E0CE010196C6
:1026F0000E94C408BE016F5F7F4FCE0189960E9481
:102700009507182FCE0101960E9435081123D1F0AC
:10271000CE0183960E9417076233710581059105EA
:102720005CF0693E13E071078105910544F47093F4
:10273000440160934301CACE62E370E0F8CF68EED3
:1027400073E0F5CF60E272E0CE0101960E94C4080A
:10275000BE016F5F7F4FCE0189960E949507182FAB
:10276000CE0101960E943508112309F46BC06CE27A
:10277000CE0183960E94FE068C01181619060CF0F5
:102780005CC09C0150E040E0BE016D5D7F4FCE011A
:102790000B960E94D5082FA138A5A8014F5F5F4F67
:1027A000BE016D5D7F4FCE0101960E94D508CE011E
:1027B0000B960E942207CE0101960E942207CE01AD
:1027C0000B960E9417076B0169E272E0CE01019639
:1027D0000E94CD07882321F0C6010197029768F077
:1027E00084E392E00E94C006CE0101960E94350863
:1027F000CE010B960E94350869CE2C2D2150330B4B
:102800002230310538F4C09242016C2D90E080E016
:102810000E94630982E492E00E94BE066091420138
:1028200070E090E080E04AE00E947A0687E692E05D
:102830000E94C0060E946E05D7CF84E392E00E94FA
:10284000C00644CE6AEE71E0CE0101960E94C40833
:10285000BE016F5F7F4FCE0189960E949507182FAA
:10286000CE0101960E943508112321F031E030930A
:1028700072032CCE68ED71E0CE0101960E94C4086F
:10288000BE016F5F7F4FCE0189960E949507182F7A
:10289000CE0101960E943508112319F00E94CE0640
:1028A00015CE60E372E0CE0101960E94C408BE011D
:1028B0006F5F7F4FCE0189960E94950711E08111CD
:1028C00020C065E572E0CE010B960E94C4084F85DA
:1028D00058898DA59EA58417950770F089A59AA59E
:1028E000009751F06B857C856115710529F00E9478
:1028F000081C11E0892B09F010E0CE010B960E9414
:102900003508CE0101960E943508112309F4DECD69
:1029100063E971E0CE014D960E94C40860E372E065
:10292000CE0101960E94C408BE016F5F7F4FCE01A9
:1029300089960E949507182FCE0101960E943508AE
:10294000112309F44AC0BE016D5D7F4FCE014D9643
:102950000E94AD08CE014D960E9422076AE3CE0187
:102960004D960E94FE068C0197FD54C09C0150E0DC
:1029700040E0BE01635E7F4FCE0144960E94D508C1
:1029800029A13AA1A8014F5F5F4FBE01635E7F4F4F
:10299000CE010B960E94D508CE0144960E947F0777
:1029A000CE010B960E9422076AE572E0CE014496A2
:1029B0000E94CD07882309F444C061E671E0CE018E
:1029C0000B960E94CD078823C9F141E040936C0328
:1029D0008EE592E00E94C006D5C060E2CE018F96DF
:1029E0000E94FE062BA93CA9AC014F5F5F4FBE01C0
:1029F000615D7F4FCE0101960E94D508BE016F5FD9
:102A00007F4FCE014D960E94EA07CE0101960E94AB
:102A10003508A0CF1D8A1C8A1F8A1E8A198E188E1F
:102A2000BE01635E7F4FCE0144960E94AD0863E90C
:102A300071E0CE010B960E94C408AECF89E692E009
:102A4000C9CF68E772E0CE0144960E94CD07882383
:102A500021F080916C03811139C06BE772E0CE01E7
:102A600044960E94CD0781119BC065EB72E0CE01B8
:102A700044960E94CD078111CCC06AEC72E0CE0171
:102A800044960E94CD07811110C168EF72E0CE011B
:102A900044960E94CD07882321F080916C03811118
:102AA00009C16CEF72E0CE0144960E94CD078823E5
:102AB00009F468C080916C03882309F42DC10E9439
:102AC000770910926C0384E293E084CF6EE2CE012A
:102AD0000B960E94FE068C011816190634F48F8599
:102AE000988901970817190718F080E892E072CFCB
:102AF000980150E040E0BE01655F7F4FCE01019636
:102B00000E94D508CE0101960E9417076B01CE01E5
:102B100001960E9435082F853889A8014F5F5F4FC5
:102B2000BE01655F7F4FCE0101960E94D508CE01A0
:102B300001960E9417072B01CE0101960E943508CD
:102B4000C6010197099748F55AE04516510428F542
:102B50005F924F92DF92CF9280E992E09F938F93A2
:102B60001F9289E08F9307E311E01F930F930E9458
:102B7000251C8AE992E00E94C0060FB6F894DEBFD9
:102B80000FBECDBFCE010B960E943508CE014496F4
:102B90000E943508CE014D962DCE86EA92E01ACFDE
:102BA00080916C03882309F460CF0F851889C801D0
:102BB00003970697B8F46DE2CE010B960E94FE06CD
:102BC000019781F470E060E0CE010B960E944C0307
:102BD000082E000C990B0E94CC1B42E0E42EF12C35
:102BE000892B19F488EB92E0F5CEE016F10609F492
:102BF00013C2B701CE010B960E944C03082E000CA5
:102C0000990B0E94CC1B892B69F35FEFE51AF50A3B
:102C1000ECCFF0906C03FF2009F42FCF8F859889BB
:102C20000897F1F510E000E0B801CE010B960E9484
:102C30004C0390ED980F9A30B0F18F7D815491E064
:102C4000863008F090E00F5F1F4F0830110531F516
:102C5000992331F1CE010B960E947F070CED14E011
:102C6000F12CE12CB701CE010B960E944C03F80128
:102C700081938F01FFEFEF1AFF0A28E0E216F104BB
:102C800089F71092E4048FEC92E00E94BE068CE576
:102C900091E00E94BE068CED94E09CCE9111C4CFD1
:102CA0008AED92E097CE9F2DCECF10926C038AEEE4
:102CB00092E090CE62E073E0CE0101960E94C408DB
:102CC000BE016F5F7F4FCE010B960E949507182FB4
:102CD000CE0101960E9435081123D9F00E94770990
:102CE00010926C0386E093E00E94C0060E942901C6
:102CF00062E370E080E090E00E94180388E198E0D1
:102D00000FB6F894A895809360000FBE9093600072
:102D1000FFCF83E193E05ECE8FE293E05BCECE0106
:102D2000C5960E943508FDC98091BD049091BE04EE
:102D3000A091BF04B091C00495018401081B190B38
:102D40002A0B3B0BD901C8010597A105B10508F471
:102D500059C18092BD049092BE04A092BF04B0926B
:102D6000C00493E7E92E93E0F92E23E7422E24E0F6
:102D7000522E3DE9232E34E0332E10E000E086E6AB
:102D8000682E81E0782ED12CC12CF3018081F2E0F5
:102D90006F0E711CB8010C2C02C0759567950A94D2
:102DA000E2F761700E94CF012FEFC21AD20A34E01D
:102DB000C316D10451F780914301909144018230B0
:102DC000910538F0880F991F880F991F0597019773
:102DD000F1F788E10E94D10297FD3BC088E10E9493
:102DE000D10281159440C4F588E10E94D102F2011C
:102DF000419151912F01F80173E0EE0FFF1F7A9579
:102E0000E1F7E40FF51FEE0FFF1FED58FC4F918324
:102E100080832091450130914601F2013297CA0129
:102E20000196B9010E94B9199183808350E040E076
:102E300090E080E04217530794F4FA01EE0FFF1F71
:102E4000EE0DFF1D60817181860F971F4F5F5F4FF1
:102E5000F1CF90E080E0CBCF8FEF93E0C8CFB90106
:102E60000E94B919F101619371931F010F5F1F4F08
:102E7000F0E1EF0EF11C0031110509F080CF60E0A8
:102E80008FE00E94CF010BE410E0C8010197F1F739
:102E900061E08FE00E94CF01C8010197F1F70E9425
:102EA000BB05F82E0E94BB05F094F0924A01809574
:102EB0008093490160E08FE00E94CF01C801019733
:102EC000F1F761E08FE00E94CF01C8010197F1F7AF
:102ED00000E110E08FE0E82EF12C60E08EE00E942F
:102EE000CF01C7010197F1F761E08EE00E94CF01A9
:102EF000C7010197F1F70150110979F780914A0153
:102F000090914801891306C0209149019091470191
:102F1000291719F14091990450919A0460919B04EA
:102F200070919C0495018401041B150B260B370B33
:102F3000B901A801453051056105710570F0809215
:102F4000990490929A04A0929B04B0929C0480935E
:102F5000480180914901809347010E943E0A809177
:102F60004A01813429F580914901883009F5809121
:102F7000970490919804892BD9F481E090E0909384
:102F80009804809397048092930490929404A09262
:102F90009504B09296048EE393E00E94C006EE245E
:102FA000E39408EC28EC4FEF6FEF8FEF0E94A00541
:102FB0008091970490919804019721F58091930452
:102FC00090919404A0919504B0919604881A990A5E
:102FD000AA0ABB0A18E981161AE39106A104B104F2
:102FE00088F0109298041092970489E493E00E946C
:102FF000C006EE24E39400E020E040E060E080E0E2
:103000000E94A00580E090E0892B11F40C94E90F58
:103010000E9400000C94E90F6B857C8548E050E02D
:103020008EE291E00E94161C1092360182E593E038
:10303000D1CC86E395E00C9435088F929F92AF92A5
:10304000BF92CF92DF92EF92FF92CF93DF93EC018A
:10305000688179818A819B8161157105810591055E
:1030600021F464E279ED8BE597E02DE133EF41E067
:1030700050E00E941F1949015A019B01AC01A7EAC7
:10308000B1E40E943E196B017C01ACEEB4EFA501E6
:1030900094010E944C19C60ED71EE81EF91EF7FEB9
:1030A00006C081E0C81AD108E10880E8F80AC882A1
:1030B000D982EA82FB82C701B6019F77DF91CF9167
:1030C000FF90EF90DF90CF90BF90AF909F908F9048
:1030D00008958F929F92AF92BF92CF92DF92EF921C
:1030E000FF9260914B0170914C0180914D01909144
:1030F0004E01611571058105910521F464E279EDB8
:103100008BE597E02DE133EF41E050E00E941F197D
:1031100049015A019B01AC01A7EAB1E40E943E19A2
:103120006B017C01ACEEB4EFA50194010E944C1937
:10313000C60ED71EE81EF91EF7FE06C081E0C81AAB
:10314000D108E10880E8F80AC0924B01D0924C0106
:10315000E0924D01F0924E01C701B6019F77FF90BA
:10316000EF90DF90CF90BF90AF909F908F90089599
:1031700060934B0170934C0180934D0190934E01ED
:1031800008951F93FC0199278827BC01E8941191A9
:103190001032E9F3193010F01E30C8F31B3251F031
:1031A0001D3249F4689406C00E94E818610F711D31
:1031B000811D911D119110531A30B0F33EF490957A
:1031C0008095709561957F4F8F4F9F4F1F91089508
:1031D000592F482F372F262F660F771F881F991FCB
:1031E000660F771F881F991F620F731F841F951F1B
:1031F000660F771F881F991F089591110C94061967
:10320000803219F089508550C8F70895992788278A
:103210000895F999FECF92BD81BDF89A992780B59E
:103220000895262FF999FECF1FBA92BD81BD20BD0A
:103230000FB6F894FA9AF99A0FBE01960895052EE2
:1032400097FB1EF400940E94361957FD07D00E9488
:10325000881907FC03D04EF40C943619509540950C
:10326000309521953F4F4F4F5F4F08959095809532
:10327000709561957F4F8F4F9F4F08950E94AA19B7
:10328000A59F900DB49F900DA49F800D911D1124BA
:103290000895B7FF0C943E190E943E19821B930BB0
:1032A00008952F923F924F925F926F927F928F92EA
:1032B0009F92AF92BF92CF92DF92EF92FF920F93C5
:1032C0001F93CF93DF93CDB7DEB7CA1BDB0B0FB6CF
:1032D000F894DEBF0FBECDBF09942A88398848888C
:1032E0005F846E847D848C849B84AA84B984C88422
:1032F000DF80EE80FD800C811B81AA81B981CE0F19
:10330000D11D0FB6F894DEBF0FBECDBFED010895FD
:10331000A1E21A2EAA1BBB1BFD010DC0AA1FBB1FD9
:10332000EE1FFF1FA217B307E407F50720F0A21B4B
:10333000B30BE40BF50B661F771F881F991F1A94B8
:1033400069F760957095809590959B01AC01BD01E2
:10335000CF010895A29FB001B39FC001A39F700D3C
:10336000811D1124911DB29F700D811D1124911D8D
:10337000089597FB072E16F4009407D077FD09D027
:103380000E94D31907FC05D03EF4909581959F4F7C
:103390000895709561957F4F0895EE0FFF1F05907A
:1033A000F491E02D0994AA1BBB1B51E107C0AA1F91
:1033B000BB1FA617B70710F0A61BB70B881F991FD6
:1033C0005A95A9F780959095BC01CD0108950F936A
:1033D0001F93CF93DF938230910510F482E090E049
:1033E000E0913E05F0913F0530E020E0B0E0A0E044
:1033F000309799F42115310509F44AC0281B390B7F
:1034000024303105D8F58A819B816115710589F1D8
:10341000FB0193838283FE0111C0408151810281AF
:10342000138148175907E0F04817590799F4109786
:1034300061F012960C93129713961C933296CF015B
:10344000DF91CF911F910F91089500933E05109346
:103450003F05F4CF2115310551F04217530738F0DD
:10346000A901DB019A01BD01DF01F801C1CFEF0124
:10347000F9CF90933F0580933E05CDCFFE01E20F3B
:10348000F31F819391932250310939832883D7CF39
:1034900020913C0530913D05232B41F420915101B1
:1034A0003091520130933D0520933C0520914F010E
:1034B000309150012115310541F42DB73EB74091AF
:1034C000530150915401241B350BE0913C05F091C0
:1034D0003D05E217F307A0F42E1B3F0B2817390711
:1034E00078F0AC014E5F5F4F2417350748F04E0F60
:1034F0005F1F50933D0540933C05819391939FCF6F
:10350000F0E0E0E09CCFCF93DF930097E9F0FC017F
:10351000329713821282A0913E05B0913F05ED01D2
:1035200030E020E01097A1F420813181820F931FB9
:1035300020913C0530913D052817390709F061C0FD
:10354000F0933D05E0933C05DF91CF910895EA01AA
:10355000CE17DF07E8F54A815B819E0141155105D1
:10356000B1F7E901FB83EA8349915991C40FD51F53
:10357000EC17FD0761F4808191810296840F951FFD
:10358000E90199838883828193819B838A83F0E018
:10359000E0E012968D919C9113970097B9F52D91CB
:1035A0003C911197CD010296820F931F20913C050B
:1035B00030913D052817390739F6309751F51092AB
:1035C0003F0510923E05B0933D05A0933C05BCCF4E
:1035D000D383C28340815181840F951FC817D907B7
:1035E00061F44E5F5F4F88819981480F591F518365
:1035F00040838A819B81938382832115310509F061
:10360000B0CFF0933F05E0933E059ECFFD01DC0176
:10361000C0CF13821282D7CFB0E0A0E0E2E1FBE19D
:103620000C9453198C01009751F4CB010E94E719B7
:103630008C01C801CDB7DEB7E0E10C946F19FC0135
:10364000E60FF71F9C0122503109E217F30708F437
:103650009DC0D901CD91DC911197C617D70798F07D
:10366000C530D10530F3CE0104978617970708F3CC
:10367000C61BD70B2297C193D1936D937C93CF0137
:103680000E94831AD6CF5B01AC1ABD0A4C018C0E86
:103690009D1EA0913E05B0913F05512C412CF12C6F
:1036A000E12C109731F580913C0590913D058815EE
:1036B000990509F05CC04616570608F058C080917D
:1036C0004F0190915001009741F48DB79EB7409102
:1036D000530150915401841B950BE817F90708F02A
:1036E00055C0F0933D05E0933C05F901718360837B
:1036F000A0CF8D919C91119712966C901297139672
:103700007C901397A815B90559F56C0142E0C40ED9
:10371000D11CCA14DB0420F1AC014A195B09DA019F
:103720001296159780F06282738251834083D9018B
:103730006D937C93E114F10471F0D7011396FC931F
:10374000EE93129776CF22968C0F9D1FF9019183ED
:103750008083F301EFCFF0933F05E0933E0569CFFF
:103760004816590608F42C017D01D3019ACFCB01EC
:103770000E94E7197C01009749F0AE01B8010E9450
:10378000E41BC8010E94831A870153CF10E000E0B8
:1037900050CF85FD0C940619806291110C94061986
:1037A00081568A51D8F708959111089581548A510C
:1037B00008F4805E855A08959111089581568A51C2
:1037C00008F4805285580895FB01DC0102C0019085
:1037D0000D9241505040D8F70895FC018191861711
:1037E00021F08823D9F7992708953197CF010895BB
:1037F000FB01DC018D91019080190110D9F3990B27
:103800000895FB01DC0101900D920020E1F708957D
:10381000FB01DC014150504030F08D910190801946
:1038200019F40020B9F7881B990B0895FB01DC01FE
:103830004150504048F001900D920020C9F701C05E
:103840001D9241505040E0F70895AEE0B0E0EBE249
:10385000FCE10C945F190D891E898F89988D26E0F3
:103860002C831A83098397FF02C080E090E80197B8
:103870009E838D83AE01455E5F4F698D7A8DCE014B
:1038800001960E94781C4D815E8157FD0AC02F81F0
:103890003885421753070CF49A01020F131FF801E1
:1038A00010822E96E4E00C947B19AEE0B0E0EBE5DC
:1038B000FCE10C945F190D891E8986E08C831A83C4
:1038C00009838FEF9FE79E838D83AE01475E5F4F35
:1038D0006F89788DCE0101960E94781C2F813885E2
:1038E000020F131FF80110822E96E4E00C947B194E
:1038F000ABE0B0E0EEE7FCE10C9451197C013B0138
:103900008A01FC0117821682838181FFC8C1CE0122
:1039100001965C01F7019381F30193FD859193FF7B
:1039200081913F01882309F453C1853239F493FD15
:10393000859193FF81913F01853229F4B70190E091
:103940000E94681EE7CF912C212C312CFFE1F3154A
:1039500038F08B3211F190F4803209F1833229F181
:1039600037FC3CC020ED280F2A3050F536FE20C031
:103970008AE0989E200D1124922E06C08D3291F07F
:10398000803371F7689430F8F30193FD859193FFCC
:1039900081913F018111DACF21C0689431F8689498
:1039A00032F8F2CF689433F8EFCF689434F8ECCF64
:1039B000EAE02E9E200D1124222E689435F8E4CFE3
:1039C0008E3229F436FC04C1689436F8DDCF8C368B
:1039D00019F4689437F8D8CF8836B1F2982F9F7DC4
:1039E00095549330E0F08336A1F18337C1F18335EC
:1039F00009F063C02801F2E04F0E511CF801C080AD
:103A0000D180692D70E036FC02C06FEF7FEFC601F8
:103A10000E94521E4C01689437F882010AC00C5F64
:103A20001F4FFFE3F98388248394912C6501E89468
:103A300037F833FE2DC0522C8114910471F55520B6
:103A400009F468CFB70180E290E00E94681E5A94A2
:103A5000F6CFF801808189830E5F1F4FE4CF2801E4
:103A6000F2E04F0E511CF801C080D180692D70E04A
:103A700036FC02C06FEF7FEFC6010E945D1E4C0155
:103A80008201D5CFB70180E290E00E94681E2A949F
:103A90002814190409F0B0F7CECFF60137FC859150
:103AA00037FE81916F01B70190E00E94681E5110AE
:103AB0005A94F1E08F1A9108BFCF843619F08936F5
:103AC00009F077C0F80137FE6BC060817181828197
:103AD00093810C5F1F4FF32DFF763F2E97FF09C098
:103AE00090958095709561957F4F8F4F9F4F68940B
:103AF00037F82AE030E0A5010E94981EC82ECA18A7
:103B00008C2C432C36FE0CC0E89440F8C91440F4C9
:103B100034FE05C032FC03C0F32DFE7E4F2E892CEF
:103B200044FE95C0FE01EC0DF11D8081803309F04B
:103B300087C0242D297E422E842D8870582E43FC68
:103B400095C040FE8FC09C2C821418F42C0C922C33
:103B5000981844FE91C0B70180E390E00E94681E6F
:103B600042FE09C088E790E041FE02C088E590E08F
:103B7000B7010E94681EC91408F48AC0CA94D12CE7
:103B80009FEFC91AD90ACA0CDB1CF60182916F019A
:103B9000B70190E00E94681EAC14BD04B1F74FCF8E
:103BA00060817181072E000C880B990B0E5F1F4FEF
:103BB00092CFD32CE894D4F82AE030E0853739F15D
:103BC000232D297FD22E8F3601F148F48835A9F0B4
:103BD000F701868197812B96E2E10C946D1980376D
:103BE00049F08837A9F7D4FE02C06894D2F820E1E2
:103BF00030E00DC06894D4F8F6CF34FE03C0822FB5
:103C00008660D82E20E132E002C028E030E0F801E2
:103C1000D7FE0FC060817181828193810C5F1F4F3D
:103C2000A5010E94981EC82ECA183D2CE89437F8AA
:103C300067CF6081718190E080E00E5F1F4FF0CF11
:103C400042FC02C0839478CF8394839475CF842DF3
:103C5000867809F471CFF6CFB70180E290E00E9438
:103C6000681E83948214C0F3512C73CF522C5818C1
:103C7000821408F46ECFF8CF842D867809F47BCFB8
:103C80008BE241FE80E247FC8DE2B70190E071CF0C
:103C9000B70180E390E00E94681E9A946CCF8FEF8A
:103CA0009FEF99CFFC010590615070400110D8F74B
:103CB000809590958E0F9F1F0895FC016150704074
:103CC00001900110D8F7809590958E0F9F1F089551
:103CD0000F931F93CF93DF93182F092FEB018B8145
:103CE00081FD09C01FEF0FEF812F902FDF91CF9142
:103CF0001F910F91089582FF14C02E813F818C8106
:103D00009D81281739073CF4E881F981CF0101969C
:103D10009983888310838E819F8101969F838E83F0
:103D2000E3CFE885F985812F0995892BA1F3DACFB7
:103D3000FA01AA27283051F1203181F1E8946F93DC
:103D40006E7F6E5F7F4F8F4F9F4FAF4FB1E03ED082
:103D5000B4E03CD0670F781F891F9A1FA11D680F20
:103D6000791F8A1F911DA11D6A0F711D811D911D53
:103D7000A11D20D009F468943F912AE0269F1124C8
:103D80003019305D3193DEF6CF010895462F47702C
:103D9000405D4193B3E00FD0C9F7F6CF462F4F7087
:103DA000405D4A3318F0495D31FD4052419302D0E5
:103DB000A9F7EACFB4E0A69597958795779567958B
:103DC000BA95C9F700976105710508959B01AC018B
:103DD0000A2E06945795479537952795BA95C9F7B2
:103DE000620F731F841F951FA01D089510E0CAED78
:103DF000D0E004C0FE010E94CD192196CB3DD10731
:063E0000C9F7F894FFCFA2
:103E0600F1D8F1D8F1D8F1D8F1D8F1D8F1D8F1D864
:103E1600F1D8F1D8F1D8F1D8F1D8F1D8F1D8F1D854
:103E2600FFFFFFFFFFFF00E1000000000000442D40
:103E36004133323000000050434220312E30000022
:103E460008000178000200FFFFFFFF0100000000EC
:103E5600004005800000C180810000004143502DD4
:103E66000030383135001200130014001500000030
:103E76000000B1042304C7044A030D05CB04E9047A
:103E8600303132333435363738394142434445468A
:103E9600000D0A004944454E543A00414350203231
:103EA60020464F2C2076322E31204D4151002C20B9
:103EB600534E3A003B53544154453A52554E4E499F
:103EC6004E473B004D5558002530346400494E316D
:103ED6003A003B494E323A00564552005645525337
:103EE600494F4E00485752455600524551004C45E1
:103EF6004431004C454432004C45443300414E00A9
:103F0600444953505F424C00534D4F5F5448520052
:103F1600534D4F5F53414D00534D4F5F444C590035
:103F26004857524556534554004143502D48572D46
:103F36005345540048575245565345543A455252F4
:103F46003B0048575245565345543A4F4B3B48570A
:103F56005245563A005345542000454E41005345BC
:103F66005420454E413E203B0053455420454E418A
:103F76003A4641494C203B004657004143494400DC
:103F86005345542046573A464F524D4154203B0024
:103F96005043622025642E2564005345542046571D
:103FA6003A4F4B203B005345542046573A52414E18
:103FB6004745203B00534E00534554204143494456
:103FC6003A464F524D4154203B0045584954005300
:103FD600455420534E3A4F4B3A0053455420534EC6
:103FE6003A464F524D4154203B00534554204558C4
:103FF60049543A4F4B203B005752490057524954B7
:10400600450059455300534554205752493A4F4BA2
:10401600203B00534554205752493A464F524D4192
:1040260054203B0057524954453A4F4B203B0057CA
:10403600524954453A4C4F434B4544203B00444972
:104046004147205354415254004449414720454E6C
:10405600440053455420414349443A4F4B203B00CA
:00000001FF
