:100000000C9445010C946D010C946D010C946D01E0
:100010000C946D010C946D010C946D010C946D01A8
:100020000C946D010C946D010C942F100C949E1087
:100030000C946D010C946D010C946D010C946D0188
:100040000C946D010C946D010C946D010C946D0178
:100050000C946D010C946D010C946D010C94E50FE2
:100060000C946D010C946D010C946D010C946D0158
:100070000C946D010C946D010C946D010C946D0148
:100080000C946D010C946D010C946D010C946D0138
:100090000C946D010C946D010C946D010C946D0128
:1000A0000C946D010C946D010C946D01CDCCCC3D84
:1000B0000AD7233C17B7D13877CC2B329595E62455
:1000C0001FB14F0A000020410000C84200401C46FA
:1000D00020BCBE4CCA1B0E5AAEC59D747D00222C9E
:1000E000227374617465223A007B226465766963C9
:1000F00065223A22007D00222C2276616C756522F1
:100100003A007B22646576696365223A22007D00AD
:10011000222C22696E70757473223A00222C22669A
:1001200077223A22007B22737461747573223A221B
:100130007265616479222C2270616E656C223A22AC
:1001400000000000002300260029002C002F007D65
:100150007D002C2273797332223A002C227379733A
:1001600031223A002C22676373223A002C226D73ED
:10017000635F6175746F223A007B227778725F73D8
:10018000656C223A7B226D73635F6D616E223A006B
:10019000080B000202020000090400000102020034
:1001A00000052400100105240101010424020605B4
:1001B0002406000107058103100040090401000224
:1001C0000A00000007050202400000070583024004
:1001D00000000403090412010002EF0201404F1B5A
:1001E0000692000101020301537061726B46756E45
:1001F00000537061726B46756E2050726F204D69AE
:1002000063726F00070605040100080A0B0C0D0954
:1002100000000000240027002A002D00300000000C
:100220000000250028002B002E00310004040404E7
:10023000040304050202020204030202020206068B
:100240000606060604040202020404040802011061
:1002500040804010204080408008020401804020FF
:100260001002011080102040402000000002000910
:100270000F0000030401000C00000000000000005B
:100280000000000000000000D01211241FBECFEFBC
:10029000DAE0DEBFCDBF12E0A0E0B1E0E0E1F8E3DC
:1002A00002C005900D92AE31B107D9F724E0AEE15E
:1002B000B2E001C01D92A030B207E1F711E0C5E441
:1002C000D1E004C02197FE010E945C18C434D1071C
:1002D000C9F70E94EF120C94061C0C940000CF93F7
:1002E000DF93EC0188819981DC01ED91FC91019013
:1002F000F081E02D64E270E00995009741F02FE174
:10030000FC01238321E02283DF91CF91089521E036
:100310002A83FACFFC018091A703882311F13FB70C
:10032000F89482E08093E9002091F200822F90E01F
:100330001816190614F481E090E0882339F0289803
:1003400044E64093A6034091F1004083222339F014
:100350002091F200211103C02BE62093E8003FBF5B
:1003600008958FEF9FEF08952FB7F89483E080935F
:10037000E9009091E800892F807295FF04C0909168
:10038000F20080E4891B2FBF089580919E038111A4
:100390000DC082E080939A0384E080939B031092C7
:1003A0009D0310929C0381E080939E038AE993E071
:1003B000089581508F3008F047C0E82FF0E0ED51EC
:1003C000FE4F0C945C1800020402F201F801FC01DB
:1003D00024022402240207020D02110215021B024C
:1003E00024021F02809180008F77809380000895FF
:1003F000809180008F7DF9CF80918000877FF5CF3D
:1004000084B58F7784BD089584B58F7DFBCF8091AF
:1004100090008F77809390000895809190008F7D59
:10042000F9CF80919000877FF5CF8091C0008F77C2
:100430008093C00008958091C0008F7DF9CF809196
:10044000C200877F8093C20008951F93CF93DF93EC
:10045000282F30E0F901E659FD4F8491F901E55B61
:10046000FD4FD491F901E45DFD4FC491CC23A9F077
:10047000162F81110E94D901EC2FF0E0EE0FFF1F23
:10048000E25EFD4FA591B4918FB7F894EC911111F4
:1004900008C0D095DE23DC938FBFDF91CF911F91F1
:1004A0000895DE2BF8CFCF93DF9390E0FC01E55B5E
:1004B000FD4F2491845D9D4FFC0184918823D1F0F0
:1004C00090E0880F991FFC01E05FFD4FA591B4916A
:1004D000FC01E25EFD4FC591D491623071F49FB78B
:1004E000F8943C91822F809583238C93E8812E2B66
:1004F00028839FBFDF91CF9108958FB7F894EC9137
:100500002E2B2C938FBFF6CF823108F08251E82F2B
:10051000F0E0EC5FFD4FE49190917B008E2F880F0F
:10052000880F80729F7D892B80937B00E770E06449
:10053000E0937C0080917A00806480937A008091BF
:100540007A0086FDFCCF8091780090917900089523
:100550003FB7F8948091960390919703A0919803E8
:10056000B091990326B5A89B05C02F3F19F00196BD
:10057000A11DB11D3FBFBA2FA92F982F8827BC01FD
:10058000CD01620F711D811D911D42E0660F771F25
:10059000881F991F4A95D1F708958F929F92AF9225
:1005A000BF92CF92DF92EF92FF924B015C010E94CB
:1005B000A8026B017C010E94A8026C197D098E09BA
:1005C0009F09683E734081059105A8F321E0821AD6
:1005D0009108A108B10888EEC80E83E0D81EE11C7E
:1005E000F11C81149104A104B10429F7FF90EF904C
:1005F000DF90CF90BF90AF909F908F9008954091E3
:1006000026025091270220912402309125024217A0
:100610005307B4F49091E8009570E1F39091E800ED
:1006200092FD19C08093F1008091260290912702DB
:1006300001968F739927892B19F48EEF8093E80028
:100640008091260290912702019690932702809331
:10065000260281E0089580E00895EF92FF920F93C3
:100660001F93CF93DF93F82E192FE62E042F81E0EE
:10067000860F880F0E94FF0283E00E94FF02CF2DA9
:10068000D12FEC0EFD2EF11CCE15DF05B9F007FFC2
:1006900013C0FE0184910E94FF02182F80E00E9487
:1006A000FF02812321968111EFCFDF91CF911F911E
:1006B0000F91FF90EF9008958881EDCF81E0F5CF05
:1006C000DF92EF92FF920F931F93CF93DF93D82E79
:1006D0008A01EB017B01E40EF51ECE15DF0559F012
:1006E000D7FE12C0FE0184910E94FF022196811163
:1006F000F4CF0FEF1FEFC801DF91CF911F910F9142
:10070000FF90EF90DF9008958881EECF0F931F93B5
:10071000CF93DF931F92CDB7DEB782E0898342E4A7
:1007200050E060E971E080E80E9460030E94C5012A
:10073000DC0112960D911C910115110589F0D8016B
:10074000ED91FC910280F381E02DBE016F5F7F4F40
:10075000C801099597FD04C0F80100851185ECCF0B
:1007600089810F90DF91CF911F910F910895615072
:1007700030F02091F100FC0120830196F8CF2898F9
:1007800084E68093A60308958F929F92AF92BF92C2
:10079000CF92DF92EF92FF920F931F93CF93DF934D
:1007A0006C017B018A0180910B01882309F45CC0F4
:1007B0008091A703882309F457C080912A0280FF03
:1007C00005C08091E00082608093E000E801B12CD8
:1007D0008AEFA82E93E0892E2AE3922E209711F417
:1007E000BB20D9F10E94B40181110AC0AA94AA20A9
:1007F000D9F161E070E080E090E00E94CD02EECFA0
:100800008C171D0611F00CF08C2F9FB7F894809276
:10081000E9002091E80025FD02C09FBFDFCF282F0F
:1008200030E0C21BD30BF701815020F0419140937F
:10083000F100FACFE20EF31EBB2021F09092E80007
:10084000B12CEBCF8091E80085FDE7CF9092E800D6
:10085000BB24B394209709F3F3CF5D9884E680938B
:100860002902101611063CF081E090E0F601938316
:10087000828310E000E0C801DF91CF911F910F91BA
:10088000FF90EF90DF90CF90BF90AF909F908F90B0
:100890000895CF93DF931F92CDB7DEB76983DC0154
:1008A000ED91FC910280F381E02D41E050E0BE012A
:1008B0006F5F7F4F09950F90DF91CF9108950F9350
:1008C0001F93CF93DF938C01D0E0C0E0F801EC0FD1
:1008D000FD1F6491662341F088EA93E00E94490479
:1008E000892B11F02196F2CFCE01DF91CF911F918C
:1008F0000F91089583E08093E9008091F2008823AE
:1009000019F08AE38093E80008950E94B40190E012
:100910000895CF93DF931F92CDB7DEB7FC01848596
:10092000958597FD08C02FEF3FEF358724870F90FF
:10093000DF91CF910895CE0101960E948A0101971F
:1009400019F4898190E0F3CF8FEF9FEFF0CF0F93F1
:100950001F93CF93DF931F92CDB7DEB78C01FC01BD
:100960008485958597FF0BC0CE0101960E948A0170
:10097000019771F4898190E0F80195878487F801E7
:10098000848595850F90DF91CF911F910F910895E8
:100990008FEF9FEFF1CFFC018485958597FD0BC00C
:1009A0009FB7F89482E08093E9008091F2009FBFA6
:1009B00090E0019608959FB7F89482E08093E90053
:1009C0008091F2009FBF90E00895FC0184818A30FD
:1009D00021F08C3069F080E00AC081E040815181D3
:1009E000628173814115504861057105A0F7089532
:1009F000408151816281738150586F4F7F4F81E0F8
:100A0000411551056140710590F3E5CF6F3FA9F0A5
:100A1000E62FE295EF7044E0E49F90011124DC01A1
:100A2000ED91FC91E20FF31F6F7082819381B6E02C
:100A30006B9F800D911D1124089590E080E0089532
:100A4000982F80336CF08A3324F08F3524F08B3765
:100A500024F481E0089581341CF081E09B350CF092
:100A600080E00895FC01828581110AC0A781B085CC
:100A7000CD010196908787838C91818781E0828761
:100A8000818508951F93CF93DF93EC01162F0E9469
:100A90003205811306C01A8681E0DF91CF911F9144
:100AA000089580E0FACF0F931F93CF93DF938C01CB
:100AB000EB018991882369F0C8010E9432058823DF
:100AC00079F0FE013197908198130DC0F8011286DC
:100AD000F0CF90E080E0DF91CF911F910F910895CA
:100AE00082E090E0F8CF83E090E0F5CFCF93DF9302
:100AF000EC01CE010E9432058B304CF489305CF45D
:100B0000882359F081E08E8390E080E00BC08D3027
:100B100011F08032B9F71A86ECCF8E81811105C0B1
:100B200081E090E0DF91CF91089582E090E0FACFEC
:100B3000DC0152969C915297915084E0989F9001CD
:100B400011245096ED91FC91E20FF31F2281338125
:100B50002115310579F041818081481758F481E0F1
:100B6000840F818386E0489F200D311D11242115BB
:100B7000310521F460E070E08FEF0895B901892F0D
:100B80008295807F840F0895DF92EF92FF920F93FA
:100B90001F93CF93DF93EC017B01D12C6889798976
:100BA0008A89D816E0F484E0D89E80011124060FCB
:100BB000171FD80112966D917C916115710541F056
:100BC000D701ED91FC910280F381E02DC7010995D9
:100BD000F8011382128210821182D394DFCF1A8A15
:100BE0008FEF8C8BC617D70761F0D701ED91FC9181
:100BF0000280F381E02DC7010995D98BC88B84E071
:100C00008B8BDF91CF911F910F91FF90EF90DF9031
:100C100008950F931F93CF93DF93C82FD0E025E063
:100C2000829FF0011124EB5DFE4F208130E0F9013D
:100C3000E659FD4F8491F901E55BFD4F0491F901FF
:100C4000E45DFD4F1491112331F181110E94D9010E
:100C5000E12FF0E0EE0FFF1FEF5BFE4FA591B49187
:100C6000EC910E2331E020E009F430E0832F922F45
:100C700025E02C9FF0012D9FF00D1124EB5DFE4F20
:100C80002381222311F021E082278170DF91CF910F
:100C90001F910F91089590E080E0EACFCF93DF930A
:100CA000EC0180E00E940906888381E00E94090629
:100CB000898389E00E9409068A8386E00E940906EA
:100CC0008B8387E00E9409068C83DF91CF91089582
:100CD0004F925F926F927F928F929F92AF92BF924C
:100CE000CF92DF92EF92FF920F931F93CF93DF93F8
:100CF00000D000D01F92CDB7DEB7DC012C912B3293
:100D0000E1F12D32D9F50196EE24E394FC01208126
:100D100030ED320F3A3010F02E3291F58C0160E058
:100D200070E0CB01F801219130ED832E820E39E085
:100D3000381508F444C06A3949E97407840749E161
:100D4000940708F046C0AAE0B0E09B01AC010E9405
:100D50006218912CB12CA12C24013501409450949F
:100D600060947094461657066806790690F1680DEF
:100D7000791D8A1D9B1D8F01D5CF0196E12CC6CF11
:100D8000198229813A814B815C816D8170E080E01C
:100D900090E00F900F900F900F900F90DF91CF91F8
:100DA0001F910F91FF90EF90DF90CF90BF90AF9089
:100DB0009F908F907F906F905F904F90089521113A
:100DC00008C0EE2051F161307105810550E89507AA
:100DD000A0F0F12CBAE08B2E912CA12CB12C611536
:100DE000710530E883079105F8F0A50194010E9490
:100DF0003A18CA01B901F394F2CF22E029839B018A
:100E0000AC0188279927DC01821B930BA40BB50B3F
:100E10008A839B83AC83BD83B4CF23E029836A8319
:100E20007B838C839D83ADCFF801D8012D918D01FB
:100E300030ED320F3A3010F4F394F6CF2E3201F544
:100E40008F010F5F1F4FF8010F5F1F4F2081A0ED33
:100E5000DA2ED20EB9E0BD1598F06C3CECEC7E07B2
:100E6000ECE08E07910578F7AAE0B0E09B01AC01B9
:100E70000E9462186D0D711D811D911DFA94E3CFC2
:100E800020812F7D10E000E0253409F050C0218141
:100E90002D32B1F53296CC24C394DF0110E000E08E
:100EA0002F2D0F2C000C330BEAE0BE2EFD01DD9040
:100EB00040ED4D0D4A30B0F5B09EA001B19E500DF1
:100EC00011240D2DDD0C110B00531109040F151FFA
:100ED000A801420F531F4732510544F3CC20B9F00B
:100EE00080E090E0A0E0B0E8E11003C080E090E096
:100EF000DC0121E029838A839B83AC83BD8341CFBE
:100F00002B3219F03196C12CC8CF3296FCCF80E03D
:100F100090E0A0E8BFEFE110ECCF80E090E0A0E827
:100F2000BFE7E7CFCC2019F0119501951109208179
:100F3000211126CF0F0D111DF7FC1A950E94B7182D
:100F400044ECA42E40E0B42E101611063CF011958E
:100F5000019511095CEAA52E50E0B52ED12CC12CCB
:100F600001151105E9F0F6E0CF16D104A9F000FF54
:100F70000DC0F601EE0FFF1FEE0FFF1FEA0DFB1D68
:100F800025913591459154910E94461915950795E3
:100F90002FEFC21AD20AE4CF60E070E080EC9FE746
:100FA000E110905821E029836A837B838C839D83A1
:100FB000E8CECF92DF92EF92FF920F931F93CF93E1
:100FC000DF937C016B018A01FC01C081D1814F3F1D
:100FD000510509F0B0F4E881F9810480F581E02D34
:100FE0004B5F5F4FCE010995009759F0FC010383D9
:100FF000DF91CF911F910F91FF90EF90DF90CF90F5
:101000000895E881F9810280F381E02DB601CE01D7
:10101000099581E0F701828390E080E0E9CF1F939A
:10102000CF93DF93EC01162F6A817B8161157105E7
:1010300089F04C815D81FB0183818417150651F491
:10104000440F551F4F5F5F4F888199810E94D907D8
:101050009B838A838A819B81009759F02C813D81F3
:10106000A9014F5F5F4F5D834C83820F931FFC018B
:101070001483DF91CF911F9108959F92AF92BF92F9
:10108000CF92DF92EF92FF920F931F93CF93DF9354
:1010900000D000D01F92CDB7DEB78C010E94320580
:1010A000D82EF8011286F12CE12C60EFC62EC80173
:1010B0000E943205F8011286D81609F4B3C08111D6
:1010C00013C082E090E00F900F900F900F900F9060
:1010D000DF91CF911F910F91FF90EF90DF90CF9014
:1010E000BF90AF909F9008958C3509F099C0C801CA
:1010F0000E943205882329F3E9E6F1E0853709F0FB
:1011000083C0F801128654E0952EB12CA12CC801A1
:101110000E9432058823A9F2813434F4805380314F
:1011200030F083E090E0CFCF8F7D8753F8CF44E05D
:10113000AA0CBB1C4A95E1F7A82AF80112869A94DA
:101140009110E5CFC501985D8115944020F475019B
:10115000F3E0FF22ACCFC5019C5D81159440A8F45B
:1011600083E0B822B701762F6627770F770F6A29B9
:101170007B2990E080E0019660387105810591053A
:1011800040F4C8010E940F0892CFB50190E080E0C2
:10119000F3CF1982262F2F7320682A8326E0969595
:1011A0008795779567952A95D1F76032710580F418
:1011B000606C6B835E01E4E0AE0EB11CF5016291E0
:1011C0005F01662309F473CFC8010E940F08F6CFB0
:1011D000262F2F7320682B8386E0769567958A9556
:1011E000E1F76031710538F4606E6C835E01F5E003
:1011F000AF0EB11CE3CF60686C83CD825E0126E048
:10120000A20EB11CDBCF32969081992309F489CFCD
:101210008913F9CF8181882309F483CFF8011286DD
:10122000682FAFCF82819381892B19F484E090E0FD
:101230004ACF90E080E047CF6F927F928F929F924B
:10124000AF92BF92CF92DF92EF92FF920F931F93D4
:10125000CF93DF93EC012A813B812C5F3F4F4C8180
:101260005D814430510588F58901F90180E0942FB2
:10127000B22FAE2FA21BA91730F4F190A1E0F1100C
:10128000A0E08A2BF6CF811120C082E0EB018C8395
:10129000FB01802F8B1B891728F4E80189918E01AF
:1012A0008193F7CF640F751FFB011082DF91CF91FF
:1012B0001F910F91FF90EF90DF90CF90BF90AF9074
:1012C0009F908F907F906F9008958B01F901E40FAC
:1012D000F51F1082888199814C815D81DC01139614
:1012E000ED91FC913A01E89477F86901C60CD71C9E
:1012F0003097C1F0A381A615170481F449017F013D
:10130000B4E0EB0EF11C8C149D0429F1D401AD90D6
:101310004D01D701BD907D01AB14A9F30190F0817F
:10132000E02DE6CF6A817B810E94D907FC01A8816C
:10133000B98113968D919C91149791838083149613
:10134000FC93EE9313971B821A8285E0E8018C834D
:10135000F983E883ABCF82818F5F8283F6CFDB0195
:10136000ED91FC9111970280F381E02DBC01CD013C
:101370000994AF92BF92CF92DF92EF92FF920F93B8
:101380001F93CF93DF93EC018B018C8180FF24C0EE
:10139000A881B981FB018381948130E020E000972E
:1013A000D9F0A817B907D1F5F801608171811296BB
:1013B0008C911297815012968C93129781110CC0C8
:1013C0008D919C9111972115310529F1F901918396
:1013D0008083CD010E94AF098C81807631F1209706
:1013E00021F1F8805801F5E1AF0EB11C8FEFF8162E
:1013F000D1F06F2DC5010E9406056C01FC01E5804E
:10140000B8010E94B909F801818DF6018083F801C5
:10141000F18EFE2CEBCF94838383DBCF9C01FC0108
:1014200080819181BCCFF882F9821C82DF91CF91BB
:101430001F910F91FF90EF90DF90CF90BF90AF90F2
:1014400008950F931F93CF93DF93EC0108811981C7
:101450008B819C81009749F0FC01208131813C8384
:101460002B83B8010E94AF09F3CF68817981CE0147
:101470000596DF91CF911F910F910C94C4050F93A6
:101480001F93CF93DF93082F162FD42FC8E06D2F13
:10149000661F6627661F802F0E942502DD0F61E010
:1014A000812F0E94250260E0812F0E942502C150F9
:1014B00071F7DF91CF911F910F910895CF93C62FB0
:1014C00060E08091F8030E9425028091FB0389303F
:1014D00038F040E06091F9038091FA030E943F0ADE
:1014E0004C2F6091F9038091FA030E943F0A61E05A
:1014F0008091F803CF910C9425021F93CF93DF9333
:1015000060912D0270E090E080E00E945E0A1091F0
:101510002C02C12FD0E061E083E00E9453022097AB
:1015200039F460E083E0DF91CF911F910C942502A4
:10153000CF3FD10511F461E0F5CFEDE6F2E0E491A3
:10154000E150EF3008F07FC0F0E0E755F54F0C9424
:101550005C18B80AC00AC50ACF0AD90A230B230BA4
:10156000230BE30AED0AF70A010B0E0B230B160BF4
:1015700084B5806884BD17BDDF91CF911F91089518
:1015800084B5806284BD18BDF7CF809180008068EB
:1015900080938000D0938900C0938800EDCF809124
:1015A0008000806280938000D0938B00C0938A007B
:1015B000E3CF80918000886080938000D0938D007D
:1015C000C0938C00D9CF8091900080688093900068
:1015D000D0939900C0939800CFCF80919000806203
:1015E00080939000D0939B00C0939A00C5CF8091C8
:1015F0009000886080939000D0939D00C0939C00E1
:10160000BBCF8091C00080688093C0008091C000F3
:101610008F7B8093C0001093CF00AECF8091C0002D
:1016200080628093C0001093D000A6CF8091C2004A
:1016300088608093C2008091C2008B7F8093C2003B
:101640001093D20099CFC038D1050CF074CF69CF78
:10165000FC0101900020E9F73197AF01481B590BBD
:10166000BC0188EA93E00C94C403CF93DF930E94FB
:101670005F04EC018CE791E00E94280B8C0F9D1F0A
:10168000DF91CF9108958F929F92AF92BF92CF92A8
:10169000DF92EF92FF920F931F93CF93DF93CDB71B
:1016A000DEB7A1970FB6F894DEBF0FBECDBF6C01B9
:1016B000990FEE08FF08F7FE41C06DE288EA93E05B
:1016C0000E9449048C0122273327A9012C193D09C6
:1016D0004E095F0919A2CE0181967C019AE0892EFC
:1016E000912CA12CB12CCA01B901A50194010E9431
:1016F0003A18605DF70162937F01211531054105BC
:10170000510589F790E080E0309719F0CF010E94F1
:10171000280B800F911FA1960FB6F894DEBF0FBE65
:10172000CDBFDF91CF911F910F91FF90EF90DF9090
:10173000CF90BF90AF909F908F900895A701960192
:1017400019A28E010F5D1F4F8AE0C82ED12CE12C0B
:10175000F12CCA01B901A70196010E943A18605DF7
:10176000F80162938F01211531054105510589F773
:1017700090E080E0309779F2CF010E94280BCBCF28
:10178000CF93DF939C012B5F3F4F61110EC04091BF
:101790002302FC01AEE1B2E061915D91651305C0E9
:1017A000E217F307C9F741113AC0FC01AEE1B2E01C
:1017B00041914D93E217F307D9F7EC0181E0809353
:1017C000230289E791E00E945F04888190E00E94F3
:1017D000430B8CE691E00E945F04898190E00E94B7
:1017E000430B84E691E00E945F048A8190E00E94AE
:1017F000430B8BE591E00E945F048B8190E00E9497
:10180000430B82E591E00E945F048C8190E00E948E
:10181000430B8FE491E0DF91CF910C94350BDF9176
:10182000CF9108951F93CF93DF93EC01162F89EE8C
:1018300090E00E945F04209719F0CE010E94280BCF
:101840008EED90E00E945F04812F90E00E94430B98
:101850008CED90E0DF91CF911F910C94350B85E2D8
:1018600091E00E945F048FE791E00E94280B8CE1D9
:1018700091E00E945F0487E891E00E94280B80E1DC
:1018800091E00E945F048CE090E00E94430B8EE0A8
:1018900091E00C94350B0F931F93CF93DF93EC01E2
:1018A0008B0182E091E00E945F04209719F0CE0145
:1018B0000E94280B87EF90E00E945F04C8010E94FD
:1018C000430B85EF90E0DF91CF911F910F910C9426
:1018D000350BFC0184818430B1F0853049F18230D0
:1018E00079F530E020E0309749F0DF010D900020DD
:1018F000E9F79D01215031092E1B3F0BBF01C901A2
:101900009F779F7708950190F081E02D30E020E0EF
:10191000309749F0DF010D900020E9F79D0121503B
:1019200031092E1B3F0BBF01C9019F7790680895B5
:1019300080819181FC01238130E00496BC01DFCFDE
:1019400060E070E080E090E0F1CFBF92CF92DF9254
:10195000EF92FF920F931F93CF93DF93D62EC72E54
:101960008A01452B09F442C0E9016596FC016081BA
:10197000CE010E940605FF24FA94009711F0FC01A5
:10198000F580EE24E394BB24B394009779F1EE2024
:10199000B1F00E94690C2D2D3C2D3F77AC015F7793
:1019A0002417350761F4D801E62FF72F200F311FD8
:1019B0002A173B0771F09D9181919817C9F3EB2489
:1019C0006F2DCE010E9406050097F9F2FC01F5800B
:1019D000DCCF6F2DCE01DF91CF911F910F91FF9042
:1019E000EF90DF90CF90BF900C94060590E080E0E0
:1019F000DF91CF911F910F91FF90EF90DF90CF90EB
:101A0000BF900895FC0120813181C9014A9642812D
:101A1000538164817581009759F0D9015E96EC91EC
:101A2000E03211F090E080E0009711F00C94A50CEA
:101A300090E080E00895BF92CF92DF92EF92FF9204
:101A40000F931F93CF93DF93EC01198D1F3F81F00C
:101A5000612F45960E940605FC018081898F309791
:101A600009F477C014828FEF8583BF01812F76C080
:101A70006C0135E0C30ED11CE880F9808F89882382
:101A800041F0C6010E949805E62FF72F182F3097D6
:101A900049F71F89988D191324C0103109F459C0D2
:101AA000110F6D897E89D701ED91FC91B4E01B9FE8
:101AB000A0011124C616D70609F044C00190F08198
:101AC000E02DBA01C7010995009709F442C020E151
:101AD000F601DC0101900D922A95E1F79E8B8D8B2A
:101AE000188F0D891E898F8921E0280F2F8BE4E044
:101AF0008E9FC0011124080F191F90E1B92E2031CB
:101B000011F48FE0B82EF6E0BF9EB0011124D7018A
:101B1000ED91FC910190F081E02DC7010995F8014C
:101B200093838283892B09F4B12CD801BC9211963E
:101B30001C92012B71F0C6010E949805E62FF72F29
:101B4000182F8DCF0480F581E02DC70109950097EE
:101B500029F681E08A8360E070E08FEFDF91CF911A
:101B60001F910F91FF90EF90DF90CF90BF9008955D
:101B70004F925F926F927F928F929F92AF92BF929D
:101B8000CF92DF92EF92FF920F931F93CF93DF9349
:101B900000D000D01F92CDB7DEB78C017B01742E30
:101BA0000E9476056C01892B09F046C0C8010E948D
:101BB0003205863609F4A6C114F5873229F08B3533
:101BC00051F1823209F0A7C1F80115821482828195
:101BD0009381892B49F4808191810E946F01D80102
:101BE00013969C938E931297C8010E943D086C0136
:101BF000892B11F5B701C8010E941C091DC084374B
:101C000009F461C18B3709F47BC08E3609F083C1BA
:101C100066E971E05FC180E4D70114968C93149754
:101C2000E114F10421F08FEF8C9311968C937110D5
:101C30001AC025E0C22ED12CC6010F900F900F9034
:101C40000F900F90DF91CF911F910F91FF90EF9028
:101C5000DF90CF90BF90AF909F908F907F906F90CC
:101C60005F904F900895F8011286C8010E94760592
:101C7000009751F56DE5C8010E9442058111DCCF46
:101C80007A94D8011B968D909C90C4010E941B0DE4
:101C9000682E5B01672B21F494E0C92ED12CCCCFA8
:101CA000F70161816F3F91F0C40145960E940605DE
:101CB000DC0115966C92F7016182472DB501C801D0
:101CC0000E94B80D009739F06C01B6CFD7018C9304
:101CD00011968C93F2CFC8010E9476050097A1F768
:101CE0006DE5C8010E9442058111A6CF6CE2C801D2
:101CF0000E9442058111C5CF83E0C82ED12C9CCF14
:101D000080E2F7018483E114F10419F08FEF8083FE
:101D10008183772009F48DCFD8011A961C92C801CF
:101D20000E947605009781F66DE7C8010E94420582
:101D3000811182CF7A94F801158214828281938175
:101D4000892B49F4808191810E946F01D8011396FB
:101D50009C938E931297C8010E9432058732F9F046
:101D60008232E9F0C8010E943205D82E0E94200577
:101D7000882311F2F80112866D2DC8010E940F0808
:101D8000C8010E943205D82E0E9420058111F2CF91
:101D9000D80112968D919C91892B41F47DCFC80179
:101DA0000E943D086C01892B09F046CFC8010E94B2
:101DB00076056C01892B09F03FCF6AE3C8010E94C8
:101DC0004205882309F498CFD8011296ED91FC9131
:101DD000139714968D919C911597E80FF91F148213
:101DE00014966D917C9115977F771B962D913C9160
:101DF0001C9712968D919C910496472F4F77B62D84
:101E0000B0786B2E642AE89467F8AC01762DC70190
:101E10000E94A50C6C01F80183849484009759F505
:101E2000C4010E941B0D482E5B01672B09F434CFBF
:101E3000C4010E941B0D582E962FC92ED72EC114F7
:101E4000D10409F429CFD50115965C92F70161817F
:101E50006F3F71F0C40145960E940605DC0115969E
:101E60004C92F7015182B501C8010E941C0906C0BD
:101E700040825182F8CFB4010E94B909472DB601C2
:101E8000C8010E94B80D6C01892B09F0D5CEC8019C
:101E90000E9476056C01892B09F0CECE6DE7C80152
:101EA0000E9442058111C8CE6CE2C8010E94420521
:101EB000882309F421CFC8010E9476056C01892B83
:101EC00009F439CFB9CE86E0F701848381E08083BD
:101ED0006BE871E0C8010F900F900F900F900F907A
:101EE000DF91CF911F910F91FF90EF90DF90CF90F6
:101EF000BF90AF909F908F907F906F905F904F902A
:101F00000C94530586E0D70114968C9314971C9279
:101F100060E971E0DFCFC8010E9432054801BDE0F1
:101F20008B0E911CB12C782CA92C803384F08A3331
:101F300084F4EFE3BE16A9F0D8011A961C92B3946C
:101F4000F40181934F01C8010E943205EECF8B321C
:101F500081F393ED980F923060F3982F9F7D953425
:101F600041F30B0D111DD8011D961C92872D9A2D42
:101F70000E9468063A834B835C836D838A819B81D0
:101F8000AC81BD812230A9F0233059F0213009F015
:101F9000B3CE2EE0F701248380839183A283B383A1
:101FA0004BCE2AE0F701248380839183A283B383FD
:101FB00043CE2CE0F7CFCB01BA010C94001BCB0130
:101FC0000C94771ACB010C94DB191F920F920FB669
:101FD0000F9211242F933F938F939F93AF93BF93AF
:101FE0008091920390919303A0919403B0919503F3
:101FF0003091910323E0230F2D3758F50196A11D51
:10200000B11D209391038093920390939303A09327
:102010009403B09395038091960390919703A091B8
:102020009803B09199030196A11DB11D8093960369
:1020300090939703A0939803B0939903BF91AF91A6
:102040009F918F913F912F910F900FBE0F901F90F6
:10205000189526E8230F0296A11DB11DD2CF1F921D
:102060000F920FB60F9211248F939F938091E100EE
:102070009091E100937F9093E10083FF0FC0109255
:10208000E90091E09093EB001092EC0092E39093C2
:10209000ED001092A70398E09093F00082FF22C019
:1020A00093E09093E9009091F200992319F09AE35C
:1020B0009093E80090912902992341F09091290290
:1020C000915090932902911101C05D9A9091A603BD
:1020D000992341F09091A60391509093A6039111FA
:1020E00001C0289A84FF18C08091E2008E7E816032
:1020F0008093E2008091E1008F7E8093E1008091E7
:102100002A028E7E806180932A029F918F910F9088
:102110000FBE0F901F90189580FFF7CF8091E200BF
:102120008E7E80618093E2008091E1008E7E8093BC
:10213000E10080912A028E7E8160E5CF1F920F928E
:102140000FB60F921124CF92DF92EF92FF920F936E
:102150001F932F933F934F935F936F937F938F932F
:102160009F93AF93BF93EF93FF93CF93DF93CDB73D
:10217000DEB76C97DEBFCDBF1092E9008091E8001A
:1021800083FF25C068E0CE0145960E94B70382EF29
:102190008093E8008D8987FF39C09091E80090FF17
:1021A000FCCF982F907609F034C19E894F89588DC5
:1021B0002F89F88C911131C0803861F580912B0204
:1021C0008093F1001092F1008EEF8093E8006C96FE
:1021D0000FB6F894DEBF0FBECDBFDF91CF91FF9158
:1021E000EF91BF91AF919F918F917F916F915F918F
:1021F0004F913F912F911F910F91FF90EF90DF90A2
:10220000CF900F900FBE0F901F9018959EEF909358
:10221000E800C7CF1092F100D5CF913059F4811169
:10222000D3CF4130510581F680912B028D7F809371
:102230002B02CACF933049F48111C6CF41305105EA
:1022400019F680912B028260F2CF953041F4809193
:10225000E80080FFFCCF20682093E300B5CF9630E4
:1022600009F0A9C00B8D1C8D22E01092E90010929C
:10227000270210922602F2122EC01092250210920E
:1022800024020E9486031F8299E09983FA8291E0DA
:102290009E8390EA98879AEF998720912602309141
:1022A0002702275F3F4F3C832B838D831092E900E9
:1022B0001092270210922602109325020093240206
:1022C00049E050E0BE016F5F7F4F80E00E946003F5
:1022D0000E94860379CF10932502009324020E9466
:1022E000C501DC0112960D911C910115110509F42F
:1022F00051C1D801ED91FC910480F581E02DBE0122
:102300006B5E7F4FC8010995009709F03EC1F80147
:1023100000851185EACFF3E0FF120EC08F89882374
:1023200009F440C0823061F440E862E181EF91E05D
:102330000E942D03811148CF81E28093EB0047CFAB
:10234000813029F440E868E088EE91E0F1CF8330F5
:1023500099F70E94C501DC011296ED90FC908E0168
:102360000F5F1F4F6801E114F10479F0D701ED917F
:10237000FC910680F781E02DB801C7010995080F8F
:10238000111DF701E084F184EECFD8011C92F60113
:1023900001900020E9F73197BF016C197D0940E0F9
:1023A000C601C6CF62ED71E0FB01449150E080E8C8
:1023B0000E94600309CF973009F4BECF983021F412
:1023C00081E08093F10000CF993009F0FDCE837059
:1023D00009F0B2CFEFE1F1E081E031E096E3219145
:1023E000222371F08093E9003093EB00DF01119715
:1023F0002C912093EC009093ED008F5F873079F75C
:102400008EE78093EA001092EA008F898093A703F9
:10241000DBCE8B8D9C8D1092E900109227021092DA
:1024200026029093250280932402898D811192C007
:102430008E899D89913A49F4813209F07DCF47E038
:1024400050E064E071E080E0B3CF913209F074CFE6
:10245000833269F48F89988DB0E0A0E08093000109
:1024600090930101A0930201B0930301ADCE80329D
:1024700069F48091E80082FFFCCF67E084E091E09E
:102480000E94B7038BEF8093E8009ECE823209F062
:102490009BCE8F8980930B01EEEFFFE7859194919E
:1024A0008B3F9C4D51F1E0E0F8E080910401909168
:1024B0000501A0910601B0910701803B9440A10560
:1024C000B105F1F480910B0180FD1AC0EE3F8AE066
:1024D000F80789F587E797E791838083809160000B
:1024E0008093280288E19BE00FB6F894A89580932A
:1024F00060000FBE9093600067CEEEEFFAE0D5CF9C
:10250000808191818737974709F05ECEA8958091A9
:102510006000886180936000809128028093600051
:10252000EE3F2AE0F20789F08091FE0A9091FF0ABF
:102530009183808349CE808191818737980751F2BA
:102540009093FF0A8093FE0AC5CF1092FF0A109263
:10255000FE0A3ACE0E94C501DC0112960D911C9133
:102560000115110509F4E8CED801ED91FC91019017
:10257000F081E02DBE016B5E7F4FC801099581118E
:1025800023CEF80100851185EBCF181619060CF43F
:102590001BCED2CEF1E0FF12BECE66ED71E004CFCD
:1025A000E8EAF3E01382128288EE93E0A0E0B0E064
:1025B00084839583A683B7838BE591E091838083A1
:1025C0008FEF9FEF95878487E8EFF3E084E08083C7
:1025D00085E0818386E0828388E083830895CF93BA
:1025E000DF93CDB7DEB7CC57D1090FB6F894DEBF75
:1025F0000FBECDBF789484B5826084BD84B5816000
:1026000084BD85B5826085BD85B5816085BD8091BD
:102610006E00816080936E00109281008091810035
:10262000826080938100809181008160809381002D
:102630008091800081608093800080919100826011
:1026400080939100809191008160809391008091AE
:1026500090008160809390008091C100846080939D
:10266000C1008091C10082608093C1008091C1004F
:1026700081608093C1008091C30081608093C3001A
:102680008091C00082608093C0008091C200816010
:102690008093C20080917A00846080937A00809158
:1026A0007A00826080937A0080917A0081608093C2
:1026B0007A0080917A00806880937A001092A70354
:1026C00010922B0210922A028091D7008160809391
:1026D000D70080EA8093D80089B5806189BD89B52B
:1026E000826089BD09B400FEFDCF61E070E080E04A
:1026F00090E00E94CD028091D8008F7C8061809311
:10270000D8008091E000807F8093E0008091E1001C
:102710008E7E8093E1008DE08093E200559A209AAE
:102720008FEF9FEF9093B5038093B40362E370E063
:1027300080E090E00E94CD0261E083E00E945302BD
:1027400005E211E062E0F80180810E9453020B5F14
:102750001F4FF1E007351F07A9F761E08091F803EB
:102760000E94530261E08091F9030E94530261E0EC
:102770008091FA030E94530260E08091F8030E9466
:10278000250260E08091F9030E94250260E08091BB
:10279000FA030E94250260E070E0CB010E945E0A0D
:1027A00010922D0210922C020E947D0A89E00E9454
:1027B0008402909382038093810388E00E948402C4
:1027C000909384038093830362E370E080E090E061
:1027D0000E94CD0205E211E043E3E42E43E0F42E33
:1027E00057E4A52E53E0B52E6FE6C62E63E0D62E35
:1027F0007DE3872E73E0972E712C872D0E940906AA
:10280000F40181934F01F60181936F019FB7F89412
:1028100040919203509193036091940370919503BA
:102820009FBFF50141935193619371935F01F7014C
:1028300081937F01F8019481992309F49DC0682F49
:10284000818192810E94120C73940B5F1F4FFAE0FA
:102850007F12D3CF8E010F5F1F4F680185E0F80113
:1028600011928A95E9F7C8010E944E0661E0C801FD
:102870000E94C00B89E00E9484029093820380939F
:102880008103BC018BE991E00E944B0C88E00E941F
:1028900084029093840380938303BC0180EA91E0D7
:1028A0000E944B0C0E942F0C7E01FEE4EF0EF11CE7
:1028B0000E5A1F4FEB961FAF0EAFEB970B5E1F4FDD
:1028C000ED961FAF0EAFED978FB7F894409092033F
:1028D0005090930360909403709095038FBF38EAF3
:1028E000232E31E0332E88EA93E00E94CB041816A1
:1028F00019060CF032C288EA93E00E948904E09144
:102900002E038A3019F08D3009F01BC2EE2359F3E3
:10291000F0E0E25DFD4F10820CE011E0F701118361
:102920000083128214821382EB960EAD1FADEB97DB
:10293000168B058B178A14E0108F8FEF818F168E00
:10294000878F6CE071E0EB968EAD9FADEB970E94A8
:10295000C405F701128200811181F70183819481FE
:102960000097B9F0FC0120813181F7013483238382
:10297000B8010E94AF09F1CF882309F465CF61E067
:10298000818192810E94120C81E0F701319780834E
:102990005BCF168EFA82E9821C821B821E821D8208
:1029A0001F820EE212E0198708871B86FD86EC86DF
:1029B0004AE0ED966EAD7FADED97C6010E94B80D71
:1029C0008C01892B49F48A85882331F0F701868DA3
:1029D00083FF02C003E010E08B819C81009731F0FF
:1029E000E981FA81608171810E94AF09012B09F5AB
:1029F000FA82E98205EA11E01C830B8312E01D8351
:102A00008E81807880688E83C6010E94020D0097B7
:102A1000B1F4FA82E9823C822B8286E08D838E813A
:102A2000807880688E83C6010E94020D009709F0AD
:102A300099C0C7010E94210A10922E0354CF0E9410
:102A4000E504882331F3FA82E98225EA31E03C8308
:102A50002B831D838E81807880688E83C6010E94BF
:102A6000020DDC01009751F11496EC911497E2509D
:102A7000ED3020F5F0E0E15CFA4E0C945C18621544
:102A80005E15601580154C155E155E155E155215A8
:102A90005E1552155E1584156C9160932D020E948F
:102AA0007D0AC7CF8D919D910D90BC91A02D682F6F
:102AB0008F3F9105A105B10581F378F360E0EDCF7B
:102AC0008D919C910E946806AF962FAFAF97E096CC
:102AD0003FAFE097E1964FAFE197E2965FAFE297A5
:102AE000E3966FAFE397E3968CAC9DACAEACBFAC16
:102AF000E397223029F1233069F12130F9F608C03B
:102B00008D919C910496DECF8D909D90AD90BC9060
:102B100020E030E0A901C501B4010E94411987FD00
:102B2000CDCF20E030E04FE753E4C501B4010E946F
:102B30007C1818161CF2C501B4010E948818ADCF8C
:102B40003FEF83169104A104B10411F008F0B6CF51
:102B5000682DA3CF4FEF84169104A104B104C1F3F3
:102B6000B8F3ACCFFC0184819CEF980F923018F041
:102B7000823009F05ECFFA82E9823C822B8286E0C5
:102B80008D838E81807880688E83C6010E94020DBD
:102B90000097D1F00E94690CE5967FAF6EAFE59784
:102BA000FA82E9820FEA11E01C830B8385E08D83B2
:102BB0008E81807880688E83C6010E94020D009706
:102BC00041F410E000E029C0E5961FAE1EAEE59787
:102BD000E7CF0E94E5048823A1F3C6010E94020DFD
:102BE000DC01009771F31496EC911497E250ED30EC
:102BF00040F7F0E0E250FA4E0C945C184A16E115EA
:102C0000481669160B16E115E115E1152D16E115AB
:102C10003916E1156D160C9110E065EB71E0E59643
:102C20008EAD9FADE5970E94C61B892B59F063ECD2
:102C300071E0E5968EAD9FADE5970E94C61B892B8E
:102C400009F0F7CE17FD7BC00F3F110519F014F006
:102C50000FEF10E000932C0222CF0D911D912D91CA
:102C60003C91011540E814072105310508F0A9CF72
:102C7000D4CF0D911D912D913C91D901C80190584F
:102C8000AF4FBF4F0097A140B10508F09ACFC5CF15
:102C90008D919C910E946806AF962FAFAF97E096FA
:102CA0003FAFE097E1964FAFE197E2965FAFE297D3
:102CB000E3966FAFE397E3968CAC9DACAEACBFAC44
:102CC000E397223049F1233099F1213009F079CF8F
:102CD00008C08D919C910496DDCF8D909D90AD9014
:102CE000BC9020E030E040E057ECC501B4010E9408
:102CF000411987FD66CF20E03EEF4FEF56E4C50156
:102D0000B4010E947C1818160CF45BCFC501B40105
:102D10000E9481188B0181CFD501C4019058AF4F1B
:102D2000BF4F0097A140B10508F04BCF840175CF8C
:102D30008114F0E89F06A104B104C0F342CF00E083
:102D400089CFEF3F09F4CFCD91E09E0F90932E03F2
:102D5000F0E0E25DFD4F8083C6CD80918D039091C0
:102D60008E03A0918F03B091900393018201081B01
:102D7000190B2A0B3B0BD901C80180339547A105DC
:102D8000B10550F00E942F0C40928D0350928E039B
:102D900060928F03709290038091890390918A03CF
:102DA000A0918B03B0918C03A3019201281B390BD6
:102DB0004A0B5B0BDA01C9010897A105B10508F4BC
:102DC00040C14092890350928A0360928B037092B3
:102DD0008C0383E3282E83E0382E95E2A92E91E020
:102DE000B92E2DE3822E23E0922E07E413E0E7961E
:102DF0001FAF0EAFE7970FE613E0E9961FAEE99716
:102E0000E4961FAEE497E4968FADE4970E9409061E
:102E1000F8019081891749F08083E796EEADFFAD08
:102E2000E7974082518262827382E796EEADFFADF2
:102E3000E79781919191A191B191E796FFAFEEAFA4
:102E4000E797A3019201281B390B4A0B5B0BDA01B0
:102E5000C9014997A105B10540F1F8019081F4013C
:102E60008081981711F1F501F481E896FFAFE8979A
:102E7000F1018081992309F4ECC0811112C061E055
:102E8000F501818192810E94120C21E0F1012083E1
:102E9000E8963FADE897332321F041E0E9964FAF44
:102EA000E997F8018081F4018083E496FFADE4970F
:102EB000FF5FE496FFAFE4970F5F1F4F2FEF821A7B
:102EC000920A35E0A30EB11C4FEF241A340AFA30EF
:102ED00009F099CF85E0F60111928A95E9F7C601CC
:102EE0000E944E06E9960FADE997011115C0809139
:102EF0002F0390913003A0913103B0913203A301CD
:102F00009201281B390B4A0B5B0BDA01C9018C3289
:102F10009140A105B10560F060E0C6010E94C00BC0
:102F200040922F035092300360923103709232032B
:102F30008091850390918603A0918703B0918803C7
:102F400093018201081B190B2A0B3B0BD901C80105
:102F50004497A105B10508F474C0409285035092CE
:102F60008603609287037092880389E00E9484023E
:102F70002091810330918203AC01421B530B9A01D3
:102F80002C5F3F4F2930310530F14091790350914A
:102F90007A0360917B0370917C0393018201041B8F
:102FA000150B260B370BB901A801483251056105F5
:102FB000710588F090938203809381034092790396
:102FC00050927A0360927B0370927C03BC018BE980
:102FD00091E00E944B0C88E00E94840220918303C0
:102FE00030918403AC01421B530B9A012C5F3F4F7D
:102FF0002930310530F140917D0350917E0360917D
:103000007F037091800393018201041B150B260B33
:10301000370BB901A801483251056105710588F0E7
:10302000909384038093830340927D0350927E03A8
:1030300060927F0370928003BC0180EA91E00E945D
:103040004B0C80E090E0892B09F43ECC0E940000FC
:103050003BCC882309F425CF60E0F5018181928182
:103060000E94120CF1011082E896FFADE897F11171
:1030700014CF17CFA1E21A2EAA1BBB1BFD010DC056
:10308000AA1FBB1FEE1FFF1FA217B307E407F50718
:1030900020F0A21BB30BE40BF50B661F771F881FF4
:1030A000991F1A9469F760957095809590959B018A
:1030B000AC01BD01CF010895EE0FFF1F0590F49103
:1030C000E02D09940E946D18A59F900DB49F900D5E
:1030D000A49F800D911D11240895A29FB001B39F5C
:1030E000C001A39F700D811D1124911DB29F700D11
:1030F000811D1124911D08950E94F41808F481E0A7
:1031000008950E9488186894B1110C943B19089591
:103110000E94201988F09F5798F0B92F9927B7512E
:10312000B0F0E1F0660F771F881F991F1AF0BA956B
:10313000C9F714C0B13091F00E943A19B1E0089576
:103140000C943A19672F782F8827B85F39F0B93F68
:10315000CCF3869577956795B395D9F73EF490951E
:103160008095709561957F4F8F4F9F4F0895E8949C
:1031700009C097FB3EF490958095709561957F4FBF
:103180008F4F9F4F9923A9F0F92F96E9BB2793956D
:10319000F695879577956795B795F111F8CFFAF47D
:1031A000BB0F11F460FF1BC06F5F7F4F8F4F9F4FAE
:1031B00016C0882311F096E911C0772321F09EE80C
:1031C000872F762F05C0662371F096E8862F70E072
:1031D00060E02AF09A95660F771F881FDAF7880F4C
:1031E0009695879597F90895990F0008550FAA0BA2
:1031F000E0E8FEEF16161706E807F907C0F012160A
:103200001306E407F50798F0621B730B840B950B0C
:1032100039F40A2661F0232B242B252B21F4089561
:103220000A2609F4A140A6958FEF811D811D0895FE
:1032300057FD9058440F551F59F05F3F71F0479567
:10324000880F97FB991F61F09F3F79F0879508954C
:10325000121613061406551FF2CF4695F1DF08C06B
:10326000161617061806991FF1CF86957105610588
:1032700008940895E894BB2766277727CB0197F930
:1032800008950E94F41808F48FEF08950E945919C8
:103290000C94CA190E94BC1938F00E94C31920F07E
:1032A000952311F00C94B3190C94B91911240C94B2
:1032B0003B190E94181970F3959FC1F3950F50E0C8
:1032C000551F629FF001729FBB27F00DB11D639FD8
:1032D000AA27F00DB11DAA1F649F6627B00DA11D7E
:1032E000661F829F2227B00DA11D621F739FB00D24
:1032F000A11D621F839FA00D611D221F749F332794
:10330000A00D611D231F849F600D211D822F762F2C
:103310006A2F11249F5750409AF0F1F088234AF009
:10332000EE0FFF1FBB1F661F771F881F9150504075
:10333000A9F79E3F510580F00C94B3190C943B19EA
:103340005F3FE4F3983ED4F3869577956795B795FC
:10335000F795E7959F5FC1F7FE2B880F911D969516
:10336000879597F9089597F99F6780E870E060E086
:1033700008959FEF80EC089500240A94161617060E
:1033800018060906089500240A9412161306140656
:1033900005060895092E0394000C11F4882352F0B9
:1033A000BB0F40F4BF2B11F460FF04C06F5F7F4F71
:1033B0008F4F9F4F08950F931F93CF93DF938230CA
:1033C000910510F482E090E0E091FE03F091FF039C
:1033D00030E020E0B0E0A0E0309799F4211531050D
:1033E00009F44AC0281B390B24303105D8F58A81ED
:1033F0009B816115710589F1FB0193838283FE0135
:1034000011C0408151810281138148175907E0F0B2
:103410004817590799F4109761F012960C93129778
:1034200013961C933296CF01DF91CF911F910F918C
:1034300008950093FE031093FF03F4CF2115310587
:1034400051F04217530738F0A901DB019A01BD0181
:10345000DF01F801C1CFEF01F9CF9093FF03809313
:10346000FE03CDCFFE01E20FF31F81939193225013
:10347000310939832883D7CF2091FC033091FD0394
:10348000232B41F420911001309111013093FD0361
:103490002093FC0320910E0130910F01211531057D
:1034A00041F42DB73EB74091120150911301241BF6
:1034B000350BE091FC03F091FD03E217F307A0F454
:1034C0002E1B3F0B2817390778F0AC014E5F5F4F7A
:1034D0002417350748F04E0F5F1F5093FD034093AC
:1034E000FC03819391939FCFF0E0E0E09CCFCF93DA
:1034F000DF930097E9F0FC01329713821282A091CA
:10350000FE03B091FF03ED0130E020E01097A1F43D
:1035100020813181820F931F2091FC033091FD03A4
:103520002817390709F061C0F093FD03E093FC030D
:10353000DF91CF910895EA01CE17DF07E8F54A81C0
:103540005B819E0141155105B1F7E901FB83EA83D7
:1035500049915991C40FD51FEC17FD0761F4808183
:1035600091810296840F951FE90199838883828156
:1035700093819B838A83F0E0E0E012968D919C9189
:1035800013970097B9F52D913C911197CD010296B3
:10359000820F931F2091FC033091FD0328173907F8
:1035A00039F6309751F51092FF031092FE03B09355
:1035B000FD03A093FC03BCCFD383C2834081518120
:1035C000840F951FC817D90761F44E5F5F4F88813C
:1035D0009981480F591F518340838A819B8193832E
:1035E00082832115310509F0B0CFF093FF03E093FA
:1035F000FE039ECFFD01DC01C0CF13821282D7CF24
:10360000B0E0A0E0E6E0FBE10C94D11B8C01009758
:1036100051F4CB010E94DB198C01C801CDB7DEB794
:10362000E0E10C94ED1BFC01E60FF71F9C0122501A
:103630003109E217F30708F49DC0D901CD91DC915F
:103640001197C617D70798F0C530D10530F3CE01D2
:1036500004978617970708F3C61BD70B2297C193C9
:10366000D1936D937C93CF010E94771AD6CF5B01E3
:10367000AC1ABD0A4C018C0E9D1EA091FE03B091A8
:10368000FF03512C412CF12CE12C109731F5809146
:10369000FC039091FD038815990509F05CC046165E
:1036A000570608F058C080910E0190910F010097C5
:1036B00041F48DB79EB74091120150911301841BC4
:1036C000950BE817F90708F055C0F093FD03E09358
:1036D000FC03F90171836083A0CF8D919C911197B8
:1036E00012966C90129713967C901397A815B905B3
:1036F00059F56C0142E0C40ED11CCA14DB0420F160
:10370000AC014A195B09DA011296159780F06282C2
:10371000738251834083D9016D937C93E114F1044A
:1037200071F0D7011396FC93EE93129776CF229601
:103730008C0F9D1FF90191838083F301EFCFF093EC
:10374000FF03E093FE0369CF4816590608F42C01E5
:103750007D01D3019ACFCB010E94DB197C01009738
:1037600049F0AE01B8010E94BD1BC8010E94771A42
:10377000870153CF10E000E050CFFB01DC0102C015
:1037800001900D9241505040D8F70895FB01DC01A3
:103790008D91019080190110D9F3990B08952F9202
:1037A0003F924F925F926F927F928F929F92AF92D1
:1037B000BF92CF92DF92EF92FF920F931F93CF931E
:1037C000DF93CDB7DEB7CA1BDB0B0FB6F894DEBFB5
:1037D0000FBECDBF09942A88398848885F846E84DB
:1037E0007D848C849B84AA84B984C884DF80EE8025
:1037F000FD800C811B81AA81B981CE0FD11D0FB62E
:10380000F894DEBF0FBECDBFED010895F894FFCF51
:10381000FFFFFFFF00E100000000000018010000B2
:103820000004800000000000E20FDF0FDB0F00C18A
:10383000808100000002D101010107DF0101010ABE
:10384000EE0101000EF20101000FF701010010FA74
:1038500001010013FF0101011205020101140B0215
:1038600001001514020101000000004904C4038591
:10387000047A04CB048904A7042F2F272722225C73
:103880005C6208660C6E0A720D7409000D0A005025
:1038900045442D57585200312E3900747275650019
:1038A00066616C7365006E756C6C004761696E00D3
:1038B00054696C74007372006465766963650073A3
:1038C00074617465004261636B6C696768745F4220
:1038D0007274004261636B6C696768745F42525432
:1038E000004D756C74695363616E2D4D414E004DF2
:1038F000756C74695363616E2D4155544F004D4191
:10390000500057582B5400575800545552420053FA
:1039100059532D31005359532D32005057532D41D7
:0E39200075746F004743532D4175746F00009E
:00000001FF
