:100000000C94DA000C9402010C9402010C9402018D
:100010000C9402010C9402010C9402010C94020154
:100020000C9402010C9402010C94E7080C945609FC
:100030000C9402010C9402010C9402010C94020134
:100040000C9402010C9402010C9402010C94020124
:100050000C9402010C9402010C9402010C949D0872
:100060000C9402010C9402010C9402010C94020104
:100070000C9402010C9402010C9402010C940201F4
:100080000C9402010C9402010C9402010C940201E4
:100090000C9402010C9402010C9402010C940201D4
:1000A0000C9402010C9402010C940201080B000252
:1000B0000202000009040000010202000005240001
:1000C0001001052401010104240206052406000193
:1000D0000705810310004009040100020A00000026
:1000E00007050202400000070583024000000403E8
:1000F000090412010002EF0201404F1B06920001A9
:1001000001020301537061726B46756E005370619A
:10011000726B46756E2050726F204D6963726F006E
:10012000070605040100080A0B0C0D090000000079
:10013000240027002A002D003000000000002500C8
:1001400028002B002E0031000000000023002600B4
:1001500029002C002F0004040404040304050202F7
:100160000202040302020202060606060606040450
:1001700002020204040408020110408040102040E2
:10018000804080080204018040201002011080108D
:10019000204040200000000200090F00000304017D
:1001A000000C000000000000000000000000000043
:1001B0000000181111241FBECFEFDAE0DEBFCDBF63
:1001C00024E0A4ECB3E001C01D92A43FB207E1F724
:1001D00013E0A0E0B1E0E6ECFDE202C005900D9274
:1001E000A43CB107D9F710E0CAEDD0E004C02197D4
:1001F000FE010E94F511C93DD107C9F70E94880B85
:100200000C94E1160C940000FC0180919F0488235B
:1002100011F13FB7F89482E08093E9002091F20059
:10022000822F90E01816190614F481E090E08823DC
:1002300039F0289844E640939E044091F1004083B1
:10024000222339F02091F200211103C02BE62093E4
:10025000E8003FBF08958FEF9FEF08952FB7F89400
:1002600083E08093E9009091E800892F807295FFE8
:1002700004C09091F20080E4891B2FBF0895809103
:10028000960481110DC082E08093920484E08093F3
:100290009304109295041092940481E08093960444
:1002A00082E994E0089581508F3008F047C0E82F2C
:1002B000F0E0E35AFE4F0C94F5117A017E016C01D7
:1002C000720176019E019E019E01810187018B01D1
:1002D0008F0195019E019901809180008F77809315
:1002E00080000895809180008F7DF9CF80918000FB
:1002F000877FF5CF84B58F7784BD089584B58F7DD2
:10030000FBCF809190008F7780939000089580912B
:1003100090008F7DF9CF80919000877FF5CF8091FD
:10032000C0008F778093C00008958091C0008F7DBA
:10033000F9CF8091C200877F8093C20008951F93F8
:10034000CF93DF93282F30E0F901EC56FE4F8491D4
:10035000F901EB58FE4FD491F901EA5AFE4FC491CE
:10036000CC23A9F0162F81110E945301EC2FF0E04D
:10037000EE0FFF1FE65CFE4FA591B4918FB7F89486
:10038000EC91111108C0D095DE23DC938FBFDF9173
:10039000CF911F910895DE2BF8CFCF93DF9390E09C
:1003A000FC01EB58FE4F24918A5A9E4FFC01849128
:1003B0008823D1F090E0880F991FFC01E45DFE4F87
:1003C000A591B491FC01E65CFE4FC591D4916111F9
:1003D0000EC09FB7F8948C91E22FE0958E238C93FA
:1003E0002881E223E8839FBFDF91CF9108958FB7E3
:1003F000F894EC91E22BEC938FBFF6CFCF93DF9381
:10040000D82FC62FC09561E00E94CD01C11106C052
:1004100060E08D2FDF91CF910C949F01CE3F10F0C3
:1004200061E0F7CF61E08D2F0E94CD01ED2FF0E06C
:10043000EC56FE4FE491E150EF3008F084C0F0E05C
:10044000EC5DFD4F0C94F51133023A023F024A0273
:100450005502A302A302A30260026B02760281028C
:100460008E02A302960284B5806884BDC7BDDF9169
:10047000CF91089584B5806284BDC8BDF8CF8091C6
:100480008000806880938000D0E0D0938900C09382
:100490008800EDCF80918000806280938000D0E062
:1004A000D0938B00C0938A00E2CF80918000886057
:1004B00080938000D0E0D0938D00C0938C00D7CF84
:1004C00080919000806880939000D0E0D093990054
:1004D000C0939800CCCF8091900080628093900070
:1004E000D0E0D0939B00C0939A00C1CF8091900040
:1004F000886080939000D0E0D0939D00C0939C00D2
:10050000B6CF8091C00080688093C0008091C00009
:100510008F7B8093C000C093CF00A9CF8091C00093
:1005200080628093C000C093D000A1CF8091C200B0
:1005300088608093C2008091C2008B7F8093C2004C
:10054000C093D20094CFC7FD6BCF62CF8251E82F0A
:10055000F0E0E05EFE4FE49190917B008E2F880FDB
:10056000880F80729F7D892B80937B00E770E06409
:10057000E0937C0080917A00806480937A0080917F
:100580007A0086FDFCCF80917800909179000895E3
:100590003FB7F89480918E0490918F04A0919004BD
:1005A000B091910426B5A89B05C02F3F19F0019684
:1005B000A11DB11D3FBFBA2FA92F982F8827BC01BD
:1005C000CD01620F711D811D911D42E0660F771FE5
:1005D000881F991F4A95D1F708958F929F92AF92E5
:1005E000BF92CF92DF92EF92FF924B015C010E948B
:1005F000C8026B017C010E94C8026C197D098E093A
:100600009F09683E734081059105A8F321E0821A95
:100610009108A108B10888EEC80E83E0D81EE11C3D
:10062000F11C81149104A104B10429F7FF90EF900B
:10063000DF90CF90BF90AF909F908F9008954091A2
:10064000CA035091CB032091C8033091C9034217CC
:100650005307B4F49091E8009570E1F39091E800AD
:1006600092FD19C08093F1008091CA039091CB0351
:1006700001968F739927892B19F48EEF8093E800E8
:100680008091CA039091CB0301969093CB03809302
:10069000CA0381E0089580E00895EF92FF920F93DE
:1006A0001F93CF93DF93F82E192FE62E042F81E0AE
:1006B000860F880F0E941F0383E00E941F03CF2D27
:1006C000D12FEC0EFD2EF11CCE15DF05B9F007FF82
:1006D00013C0FE0184910E941F03182F80E00E9426
:1006E0001F03812321968111EFCFDF91CF911F91BD
:1006F0000F91FF90EF9008958881EDCF81E0F5CFC5
:10070000DF92EF92FF920F931F93CF93DF93D82E38
:100710008A01EB017B01E40EF51ECE15DF0559F0D1
:10072000D7FE12C0FE0184910E941F032196811101
:10073000F4CF0FEF1FEFC801DF91CF911F910F9101
:10074000FF90EF90DF9008958881EECF0F931F9375
:10075000CF93DF931F92CDB7DEB782E0898342E467
:1007600050E06CEA70E080E80E9480030E943F0144
:10077000DC0112960D911C910115110589F0D8012B
:10078000ED91FC910280F381E02DBE016F5F7F4F00
:10079000C801099597FD04C0F80100851185ECCFCB
:1007A00089810F90DF91CF911F910F910895615032
:1007B00030F02091F100FC0120830196F8CF2898B9
:1007C00084E680939E0408958F929F92AF92BF9289
:1007D000CF92DF92EF92FF920F931F93CF93DF930D
:1007E0006C017B018A0180910B01882309F45CC0B4
:1007F00080919F04882309F457C08091CE0380FF25
:1008000005C08091E00082608093E000E801B12C97
:100810008AEFA82E93E0892E2AE3922E209711F4D6
:10082000BB20D9F10E942E0181110AC0AA94AA20EE
:10083000D9F161E070E080E090E00E94ED02EECF3F
:100840008C171D0611F00CF08C2F9FB7F894809236
:10085000E9002091E80025FD02C09FBFDFCF282FCF
:1008600030E0C21BD30BF701815020F0419140933F
:10087000F100FACFE20EF31EBB2021F09092E800C7
:10088000B12CEBCF8091E80085FDE7CF9092E80096
:10089000BB24B394209709F3F3CF5D9884E680934B
:1008A000CD03101611063CF081E090E0F601938331
:1008B000828310E000E0C801DF91CF911F910F917A
:1008C000FF90EF90DF90CF90BF90AF909F908F9070
:1008D0000895FC01448155816081718180EA94E032
:1008E0000C94E403CF93DF931F92CDB7DEB76983F7
:1008F000DC01ED91FC910280F381E02D41E050E0BC
:10090000BE016F5F7F4F09950F90DF91CF910895E2
:1009100083E08093E9008091F200882319F08AE354
:100920008093E80008950E942E0190E00895CF93EF
:10093000DF931F92CDB7DEB7FC018485958597FDC7
:1009400008C02FEF3FEF358724870F90DF91CF91BD
:100950000895CE0101960E940401019719F489813E
:1009600090E0F3CF8FEF9FEFF0CF0F931F93CF93D4
:10097000DF931F92CDB7DEB78C01FC01848595858E
:1009800097FF0BC0CE0101960E940401019771F4FC
:10099000898190E0F80195878487F80184859585A1
:1009A0000F90DF91CF911F910F9108958FEF9FEFDF
:1009B000F1CFFC018485958597FD0BC09FB7F89416
:1009C00082E08093E9008091F2009FBF90E0019661
:1009D00008959FB7F89482E08093E9008091F20037
:1009E0009FBF90E0089561E085E00E94CD0161E045
:1009F00086E00E94CD0160E085E00E949F0160E0FA
:100A000086E00C949F016091D00385E00E94FE0176
:100A10006091D10386E00C94FE01FC0180E04191DD
:100A2000442371F090ED940F9230C8F7282F30E0F6
:100A3000220F331F81E0413309F080E0822BEFCF9A
:100A40000895CF93DF93D82FC8E06D2F661F6627D8
:100A5000661F84E00E949F01DD0F61E083E00E9439
:100A60009F0160E083E00E949F01C15071F7DF9118
:100A7000CF9108950F931F93CF93DF93C82FD62F55
:100A8000142F022F60E082E00E949F01802F0E94BD
:100A90002105812F0E9421058D2F0E9421058C2F79
:100AA0000E94210561E082E0DF91CF911F910F91BB
:100AB0000C949F018091D1032091D2034091D303E4
:100AC000882311F02FE04FEF6091D4038091D5037C
:100AD0000E943A058FE090E00197F1F70C9403052E
:100AE0009F92AF92BF92CF92DF92EF92FF920F93BD
:100AF0001F93CF93DF93C7E0D0E0B12C04EA11E05D
:100B000095E8E92E91E0F92E26E6C22E21E0D22EBC
:100B100061E08FE00E949F01F8018491F701A490A9
:100B2000F6019490992051F181110E945301E92D11
:100B3000F0E0EE0FFF1FE85BFE4FA591B4918C91A2
:100B4000A82231E009F430E0832F0C2E01C0880F79
:100B50000A94EAF7B82A60E08FE00E949F0121978B
:100B6000B8F68B2DDF91CF911F910F91FF90EF90F1
:100B7000DF90CF90BF90AF909F90089580E0E5CF39
:100B8000FC0101900020E9F73197AF01481B590B98
:100B9000BC0180EA94E00C94E4038F929F92AF92A0
:100BA000BF920F931F93CF93DF93CDB7DEB7A1977B
:100BB0000FB6F894DEBF0FBECDBF19A2423008F4C5
:100BC0004AE08E010F5D1F4F842E912CB12CA12C79
:100BD000A50194010E94B411E62FB901CA01EA30BF
:100BE000F4F4E05DD801EE938D01232B242B252B0B
:100BF00079F790E080E0109719F0CD010E94C005D0
:100C0000A1960FB6F894DEBF0FBECDBFDF91CF9196
:100C10001F910F91BF90AF909F908F900895E95CC6
:100C2000E1CF009711F00C94C00590E080E00895AA
:100C300086E491E00E9411068DE491E00E94110685
:100C400083E691E00E94110683E791E00E9411067D
:100C500060910C0170E090E080E04AE00E94CD05D8
:100C600081E791E00E9411068AE791E00C94C005AB
:100C7000CF93DF93D0E0C0E0009719F00E94C00549
:100C8000EC018AE791E00E94C0058C0F9D1FDF9167
:100C9000CF9108950F931F93CF93DF938DE791E04A
:100CA0000E943806D0E0C0E011E008EC30E0C83027
:100CB000D10534F4312F0C2E01C0330F0A94EAF71A
:100CC000CE01089720E08830910528F4212F01C03B
:100CD000220F8A95EAF7CE0140978830910508F0F7
:100CE0004FC0912F01C0990F8A95EAF7AE01485184
:100CF000510980E04430510528F4812F01C0880F4C
:100D00004A95EAF73093D5032093D4039093D30305
:100D10008093D2030093D1030093D0030E945A051D
:100D200062E370E080E090E00E94ED022196CC3119
:100D3000D10509F0BBCF8FEF8093D5039FE390934C
:100D4000D4038093D3039FE09093D2038093D10385
:100D50008093D0030E945A056CE271E080E090E03D
:100D60000E94ED021092D5031092D4030E945A05FE
:100D700088E891E0DF91CF911F910F910C94380694
:100D800090E0B4CF0F931F93CF93DF93EC01888152
:100D90009981009759F02A813B812617370730F057
:100DA00081E0DF91CF911F910F9108958B016F5FCB
:100DB0007F4F0E943413009759F0998388831B83D7
:100DC0000A832C813D81232B59F7FC011082E8CF47
:100DD00080E0E7CFFC0180819181009711F00C94B5
:100DE000AB120895AF92BF92CF92DF92EF92FF9233
:100DF0000F931F93CF93DF9300D0CDB7DEB78C0155
:100E0000A62EFC0111821082138212821582148296
:100E100070E060E00E94C206F801208131818111FA
:100E20004AC02115310519F0C9010E94AB12F80121
:100E300011821082158214821382128287E0E82EBA
:100E4000F12CB12CC5010E2C02C0959587950A9402
:100E5000E2F780FD38C080E389831A82F801C480FC
:100E6000D580FFEFCF1ADF0AB601C8010E94C20683
:100E7000882379F0F8012081318184819581BE0138
:100E80006F5F7F4F820F931F0E942A14F801D58253
:100E9000C482F1E0EF1AF108A8F6C8010F900F9094
:100EA000DF91CF911F910F91FF90EF90DF90CF9046
:100EB000BF90AF900895158214826CE771E0C9016C
:100EC0000E942A14BBCF81E3C7CFCF92DF92EF926B
:100ED000FF920F931F93CF93DF93CDB7DEB7289781
:100EE0000FB6F894DEBF0FBECDBF8C01611584E054
:100EF000780714F06FEF73E077FF02C070E060E0F6
:100F00007F936F9381E991E09F938F93FE013196D8
:100F10006F01FF93EF930E944014F8011182108239
:100F20001382128215821482F60101900020E9F7E3
:100F300031977F01EC18FD08B701C8010E94C20675
:100F40000F900F900F900F900F900F90F80120814D
:100F5000318181111DC02115310519F0C9010E948F
:100F6000AB12F80111821082158214821382128250
:100F7000C80128960FB6F894DEBF0FBECDBFDF9133
:100F8000CF911F910F91FF90EF90DF90CF90089538
:100F9000F582E482B601C9010E942A14E9CFCF92FA
:100FA000DF92EF92FF92CF93DF9300D000D000D07A
:100FB000CDB7DEB78FB7F894C0908A04D0908B0479
:100FC000E0908C04F0908D048FBF809158048111C3
:100FD00015C08091C4039091C503A091C603B09140
:100FE000C703A7019601281B390B4A0B5B0BDA01DB
:100FF000C9010A97A105B10508F492C086E991E0FC
:101000000E9411066091710470917204CE010196E4
:101010000E946507CE0101960E946904CE010196E7
:101020000E94EA0681E791E00E9411068CE991E0B6
:101030000E94110660915D0470915E04CE010196DC
:101040000E946507CE0101960E946904CE010196B7
:101050000E94EA0681E791E00E94110682EA91E08F
:101060000E94110660911C01CE0101960E94F206B9
:10107000CE0101960E946904CE0101960E94EA0603
:1010800081E791E00E94110687EA91E00E94110633
:1010900060911B01CE0101960E94F206CE010196DD
:1010A0000E946904CE0101960E94EA0681E791E060
:1010B0000E9411068CEA91E00E94110660911A01CB
:1010C000CE0101960E94F206CE0101960E946904AB
:1010D000CE0101960E94EA0681E791E00E94110686
:1010E00081EB91E00E94110660911901CE010196F9
:1010F0000E94F206CE0101960E9469048AE791E0FF
:101100000E94C005CE0101960E94EA06C092C40367
:10111000D092C503E092C603F092C7031092580420
:1011200026960FB6F894DEBF0FBECDBFDF91CF91EC
:10113000FF90EF90DF90CF9008951F920F920FB61F
:101140000F9211242F933F938F939F93AF93BF934D
:1011500080918A0490918B04A0918C04B0918D04AD
:101160003091890423E0230F2D3758F50196A11DF6
:10117000B11D2093890480938A0490938B04A093DB
:101180008C04B0938D0480918E0490918F04A09173
:101190009004B09191040196A11DB11D80938E041D
:1011A00090938F04A0939004B0939104BF91AF915A
:1011B0009F918F913F912F910F900FBE0F901F9095
:1011C000189526E8230F0296A11DB11DD2CF1F92BC
:1011D0000F920FB60F9211248F939F938091E1008D
:1011E0009091E100937F9093E10083FF0FC01092F4
:1011F000E90091E09093EB001092EC0092E3909361
:10120000ED0010929F0498E09093F00082FF22C0BE
:1012100093E09093E9009091F200992319F09AE3FA
:101220009093E8009091CD03992341F09091CD03E4
:1012300091509093CD03911101C05D9A90919E04BD
:10124000992341F090919E04915090939E049111A6
:1012500001C0289A84FF18C08091E2008E7E8160D0
:101260008093E2008091E1008F7E8093E100809185
:10127000CE038E7E80618093CE039F918F910F90DD
:101280000FBE0F901F90189580FFF7CF8091E2005E
:101290008E7E80618093E2008091E1008E7E80935B
:1012A000E1008091CE038E7E8160E5CF1F920F9288
:1012B0000FB60F921124CF92DF92EF92FF920F930D
:1012C0001F932F933F934F935F936F937F938F93CE
:1012D0009F93AF93BF93EF93FF93CF93DF93CDB7DC
:1012E000DEB76C97DEBFCDBF1092E9008091E800B9
:1012F00083FF25C068E0CE0145960E94D70382EFA8
:101300008093E8008D8987FF39C09091E80090FFB5
:10131000FCCF982F907609F034C19E894F89588D63
:101320002F89F88C911131C0803861F58091CF03FD
:101330008093F1001092F1008EEF8093E8006C969C
:101340000FB6F894DEBF0FBECDBFDF91CF91FF91F6
:10135000EF91BF91AF919F918F917F916F915F912D
:101360004F913F912F911F910F91FF90EF90DF9040
:10137000CF900F900FBE0F901F9018959EEF9093F7
:10138000E800C7CF1092F100D5CF913059F4811108
:10139000D3CF4130510581F68091CF038D7F80936B
:1013A000CF03CACF933049F48111C6CF41305105E4
:1013B00019F68091CF038260F2CF953041F480918D
:1013C000E80080FFFCCF20682093E300B5CF963083
:1013D00009F0A9C00B8D1C8D22E01092E90010923B
:1013E000CB031092CA03F2122EC01092C9031092BE
:1013F000C8030E94A6031F8299E09983FA8291E0B4
:101400009E8390EA98879AEF99872091CA0330913A
:10141000CB03275F3F4F3C832B838D831092E900E2
:101420001092CB031092CA031093C9030093C80310
:1014300049E050E0BE016F5F7F4F80E00E94800373
:101440000E94A60379CF1093C9030093C8030E949A
:101450003F01DC0112960D911C910115110509F453
:1014600051C1D801ED91FC910480F581E02DBE01C0
:101470006B5E7F4FC8010995009709F03EC1F801E6
:1014800000851185EACFF3E0FF120EC08F89882313
:1014900009F440C0823061F440E862E18DE091E0FF
:1014A0000E944D03811148CF81E28093EB0047CF2A
:1014B000813029F440E868E084E091E0F1CF8330A6
:1014C00099F70E943F01DC011296ED90FC908E018D
:1014D0000F5F1F4F6801E114F10479F0D701ED911E
:1014E000FC910680F781E02DB801C7010995080F2E
:1014F000111DF701E084F184EECFD8011C92F601B2
:1015000001900020E9F73197BF016C197D0940E097
:10151000C601C6CF6EEE70E0FB01449150E080E85A
:101520000E94800309CF973009F4BECF983021F490
:1015300081E08093F10000CF993009F0FDCE8370F7
:1015400009F0B2CFE0E4F1E081E031E096E32191EF
:10155000222371F08093E9003093EB00DF011197B3
:101560002C912093EC009093ED008F5F873079F7FA
:101570008EE78093EA001092EA008F8980939F049F
:10158000DBCE8B8D9C8D1092E9001092CB031092D4
:10159000CA039093C9038093C803898D811192C0B7
:1015A0008E899D89913A49F4813209F07DCF47E0D7
:1015B00050E064E071E080E0B3CF913209F074CF85
:1015C000833269F48F89988DB0E0A0E080930001A8
:1015D00090930101A0930201B0930301ADCE80323C
:1015E00069F48091E80082FFFCCF67E084E091E03D
:1015F0000E94D7038BEF8093E8009ECE823209F0E1
:101600009BCE8F8980930B01EEEFFFE7859194913C
:101610008B3F9C4D51F1E0E0F8E080910401909106
:101620000501A0910601B0910701803B9440A105FE
:10163000B105F1F480910B0180FD1AC0EE3F8AE004
:10164000F80789F587E797E79183808380916000A9
:101650008093CC0388E19BE00FB6F894A895809323
:1016600060000FBE9093600067CEEEEFFAE0D5CF3A
:10167000808191818737974709F05ECEA895809148
:1016800060008861809360008091CC03809360004B
:10169000EE3F2AE0F20789F08091FE0A9091FF0A5E
:1016A0009183808349CE808191818737980751F259
:1016B0009093FF0A8093FE0AC5CF1092FF0A109202
:1016C000FE0A3ACE0E943F01DC0112960D911C9158
:1016D0000115110509F4E8CED801ED91FC910190B6
:1016E000F081E02DBE016B5E7F4FC801099581112D
:1016F00023CEF80100851185EBCF181619060CF4DE
:101700001BCED2CEF1E0FF12BECE62EF70E004CF6E
:10171000CF93DF93CDB7DEB7C858D1090FB6F89491
:10172000DEBF0FBECDBF789484B5826084BD84B522
:10173000816084BD85B5826085BD85B5816085BDCC
:1017400080916E00816080936E0010928100809184
:10175000810082608093810080918100816080930C
:101760008100809180008160809380008091910051
:1017700082608093910080919100816080939100BC
:10178000809190008160809390008091C10084607E
:101790008093C1008091C10082608093C1008091DC
:1017A000C10081608093C1008091C30081608093FB
:1017B000C3008091C00082608093C0008091C2000D
:1017C00081608093C20080917A00846080937A0067
:1017D00080917A00826080937A0080917A008160A3
:1017E00080937A0080917A00806880937A001092CA
:1017F0009F041092CF031092CE038091D700816096
:101800008093D70080EA8093D80089B5806189BD34
:1018100089B5826089BD09B400FEFDCF61E070E04A
:1018200080E090E00E94ED028091D8008F7C806182
:101830008093D8008091E000807F8093E0008091C9
:10184000E1008E7E8093E1008DE08093E200559A66
:10185000209A8FEF9FEF9093AD048093AC0490E0BB
:1018600080E00E945311082F0150110B0230110526
:1018700008F0E3C080930C0161E082E00E94CD019A
:1018800061E083E00E94CD0161E084E00E94CD012F
:1018900061E086E00E94CD0161E085E00E94CD011B
:1018A00060E080E10E94CD0161E08FE00E94CD0107
:1018B00061E08EE00E94CD018FEF8093D103809391
:1018C000D0030E940305A1E6B4E0E5E7F4E011923D
:1018D00011921D921D9214E0E538F107C1F71092A4
:1018E000D5031092D4031FEF1093D3038FE080939E
:1018F000D2031092D0030E945A0568EB7BE080E08F
:1019000090E00E94ED021093D5038FE38093D403FF
:101910001093D0030E945A050E94180681E080931C
:10192000580410925704109256041092D6038FB7A1
:10193000F89480908A0490908B04A0908C04B090CE
:101940008D048FBFCC24C39480EA94E00E94D90414
:101950007C01892B09F4DBC280EA94E00E949704A1
:101960008D3091F38A3009F48BE320915604309145
:1019700057042F3731057CF4A9014F5F5F4F509317
:101980005704409356042A523C4FF90180834A522F
:101990005C4FFA011082DD24DA946BE370E086ED8F
:1019A00093E00E941F147C01009771F2FC011082E9
:1019B0004FE750E066ED73E0CE0101960E943114CE
:1019C000C058DF4F1882C058D040C701865D934091
:1019D0000091560410915704081B190B015011096E
:1019E000B7016F5F7F4FA80186ED93E00E94FA1365
:1019F000F801EA52FC4F10821093570400935604EA
:101A000089818E010F5F1F4F882339F2F801819180
:101A1000803219F1893009F1F80101900020E9F7CD
:101A200031970E171F0709F4B8CF8291803219F051
:101A3000893009F0D3C31082F4CF81E080930C0188
:101A400090E080E00E945311813009F415CF61E0ED
:101A500090E080E00E945B110FCF8F01D7CF62EC46
:101A600071E0C8010E940C14892B21F481E080935D
:101A7000580493CF66EC71E0C8010E940C14892BC6
:101A800019F40E944A0689CF6BEC71E0C8010E94EC
:101A90000C14892B09F051C083ED91E00E943806A7
:101AA00081EE91E00E9438068CEF91E00E943806AA
:101AB0001092D5031092D403D092D3031FE0109359
:101AC000D203D092D1031092D0030E945A0560EA4B
:101AD0007FE080E090E00E94ED0285E192E00E94CC
:101AE0003806D092D5038FE38093D4031092D303AA
:101AF0001092D2031092D103D092D0030E945A05C3
:101B000060EA7FE080E090E00E94ED0289E292E0EE
:101B10000E943806D092D3031093D203D092D103FF
:101B20000E945A0560EA7FE080E090E00E94ED02AA
:101B300082E392E00E94380630CF6EE372E0C80183
:101B40000E940C14892B09F0B6C085E492E00E9433
:101B5000380661E085E00E94CD0161E086E00E94E8
:101B6000CD0182E592E00E9438061092D5031092D2
:101B7000D403D092D3031092D203D092D103109207
:101B8000D0030E945A0560E086E00E949F0161E058
:101B900085E00E949F0160E777E180E090E00E948D
:101BA000ED0285E792E00E94380620E04FEF60E00A
:101BB00080E00E943A0560E085E00E949F0161E0BC
:101BC00086E00E949F0160E777E180E090E00E945C
:101BD000ED0281EA92E00E94380660E1462E512C27
:101BE000612C712C8CEB92E00E9411064AE0C3013B
:101BF000B2010E94CD058AE791E00E94C0051092D3
:101C0000D5031092D403C2014097FC2D01C0FF0FF1
:101C10008A95EAF7F093D3031092D203D092D103BE
:101C20001092D0030E945A0560E086E00E949F0156
:101C300061E085E00E949F0160ED77E080E090E048
:101C40000E94ED020FEF401A500A600A700A18E174
:101C5000411651046104710429F683EC92E00E945C
:101C600038061092D3038FE08093D2030E945A0566
:101C700060E086E00E949F0160E777E180E090E00D
:101C80000E94ED028BED92E00E943806D092D403C0
:101C90001092D2030E945A0560E086E00E949F01E4
:101CA00060E777E180E090E00E94ED020E9403058A
:101CB0008CEF92E03FCF67E073E0C8010E940C1404
:101CC0008C01892B09F069CE8EE093E00E943806E2
:101CD0000E94F30488E0E5E2F1E0DE01AF57BF4F78
:101CE00001900D928A95E1F79E012F573F4F7901A0
:101CF00080E493E00E941106F701819191917F01A8
:101D00000E9438060115110569F001301105E9F14D
:101D10004FEF60E002301105D1F140E060E080E07B
:101D20002FE004C040E060E08FEF20E00E943A0521
:101D30000E94F30468E873E180E090E00E94ED0205
:101D40000F5F1F4F0430110599F686E493E00E945F
:101D5000380660E082E00E949F018FEF0E9421051B
:101D600080E00E94210580E00E94210561E082E080
:101D70000E949F010E94F30468E873E180E090E014
:101D80000E94ED0286E693E0D5CE40E06FEF80E062
:101D9000CCCFFC0111927F0161E773E0C8010E9482
:101DA0000C14892B41F4C7010E940D058093D503C3
:101DB0000E945A05F2CD66E773E0C8010E940C1438
:101DC000892B31F4C7010E940D058093D403F0CF15
:101DD0006BE773E0C8010E940C14892B31F4C70132
:101DE0000E940D058093D303E3CF60E873E0C80140
:101DF0000E940C14892B31F4C7010E940D058093B9
:101E0000D203D6CF68ED72E0C8010E940C14892B72
:101E100071F4C7010E942D118F3F910519F014F044
:101E20008FEF90E097FD80E08093D103C1CF62E413
:101E300072E0C8010E940C14892B71F4C7010E9442
:101E40002D118F3F910519F014F08FEF90E097FD61
:101E500080E08093D003ACCF65E873E0C8010E94B6
:101E60000C14892B91F4C7010E942D118536910520
:101E700014F084E690E01816190614F081E090E062
:101E800090930E0180930D0188CD6DE873E0C80139
:101E90000E940C14892B91F4C7010E942D118930E6
:101EA000910514F088E090E01816190614F081E00E
:101EB00090E090931E0180931D016FCD65E973E062
:101EC000C8010E940C14892B09F467CD6DE973E0F9
:101ED000C8010E940C14892B89F4C7010E942D119E
:101EE000893C910514F088EC90E097FF02C090E0E7
:101EF00080E09093100180930F014FCD66EC71E06C
:101F0000C8010E940C14892B09F047CDBACD8091ED
:101F1000850490918604A0918704B091880495016E
:101F20008401081B190B2A0B3B0BD901C8010A9726
:101F3000A105B10508F44AC18092850490928604F7
:101F4000A0928704B09288048BE10E94A6020091BF
:101F50001D0110911E012091730430917404F90148
:101F6000EE0FFF1FEB58FB4F91838083C901019651
:101F7000B8010E94A0119093740480937304E5E764
:101F8000F4E030E020E060E070E0CB0120173107A2
:101F90006CF441905190052C000C66087708640D94
:101FA000751D861D971D2F5F3F4FF0CF2801012E15
:101FB000000C66087708A30192010E94D6113093A5
:101FC0007204209371048CE10E94A60220915F04A8
:101FD00030916004F901EE0FFF1FEF59FB4F918321
:101FE0008083C9010196B8010E94A01190936004FA
:101FF00080935F04E1E6F4E060E070E0CB01E0167E
:10200000F10674F421913191032E000C440B550B11
:10201000620F731F841F951F2FEFE21AF20AEFCF92
:10202000A30192010E94D61130935E0420935D04B7
:1020300060E08EE00E949F010BE410E0C801019770
:10204000F1F761E08EE00E949F01C8010197F1F76E
:102050000E947005809580931C010E9470058095F8
:1020600080931B010E947005809580931A010E9445
:10207000700580958093190160E08EE00E949F01B9
:10208000C8010197F1F761E08EE00E949F01C8014D
:102090000197F1F700E210E08FE0E82EF12C60E00C
:1020A0008FE00E949F01C7010197F1F761E08FE087
:1020B0000E949F01C7010197F1F70150110979F7BB
:1020C00080911C0190911801891312C020911B016D
:1020D0009091170129130CC020911A0190911601BB
:1020E000291306C02091190190911501291769F152
:1020F0004091590450915A0460915B0470915C04C2
:1021000095018401041B150B260B370BB901A8019F
:102110004C30510561057105C0F0809259049092D0
:102120005A04A0925B04B0925C04809318018091E1
:102130001B018093170180911A01809316018091F1
:102140001901809315010E94CF07E0917104F0916D
:10215000720480911301909114019F01281B390B87
:1021600037FF03C031952195310960915D0470916D
:102170005E048091110190911201AB01481B590B33
:10218000CA0157FF03C091958195910940910F01B4
:102190005091100124173507DCF1A0910D01B09189
:1021A0000E012A173B07A4F1F0931401E0931301E9
:1021B00021E08417950784F50E94CF0702C0211102
:1021C000FBCF8091580481110E94CF0780E090E0FE
:1021D000892B09F4ACCB0E940000A9CB6AE370E024
:1021E000C8010E941F14009709F0D3CD66EB71E07F
:1021F000C8010E940C14892B41F06AEB71E0C80100
:102200000E940C14892B09F02ACC0E941806C5CB19
:1022100020E084179507ACF240910D0150910E011A
:102220008417950764F27093120160931101C4CF73
:10223000E0EAF4E01382128288EE93E0A0E0B0E0DE
:1022400084839583A683B78381E391E09183808320
:102250008FEF9FEF958784870895FC018827992742
:10226000E89421912032E9F3293010F02E30C8F3A0
:102270002B3241F02D3239F4689404C00E944B1186
:10228000820F911D219120532A30C0F31EF49095A6
:1022900081959F4F08957AE0979F902D879F802D7D
:1022A000910D11240895F999FECF92BD81BDF89A40
:1022B000992780B50895262FF999FECF1FBA92BDB0
:1022C00081BD20BD0FB6F894FA9AF99A0FBE019617
:1022D00008952F923F924F925F926F927F928F92CA
:1022E0009F92AF92BF92CF92DF92EF92FF920F93A5
:1022F0001F93CF93DF93CDB7DEB7CA1BDB0B0FB6AF
:10230000F894DEBF0FBECDBF09942A88398848886B
:102310005F846E847D848C849B84AA84B984C88401
:10232000DF80EE80FD800C811B81AA81B981CE0FF8
:10233000D11D0FB6F894DEBF0FBECDBFED010895DD
:1023400097FB072E16F4009407D077FD09D00E9462
:10235000FB1107FC05D03EF4909581959F4F0895A1
:10236000709561957F4F0895A1E21A2EAA1BBB1BA1
:10237000FD010DC0AA1FBB1FEE1FFF1FA217B30751
:10238000E407F50720F0A21BB30BE40BF50B661F67
:10239000771F881F991F1A9469F76095709580952B
:1023A00090959B01AC01BD01CF010895052E97FBCF
:1023B0001EF400940E94ED1157FD07D00E94B41145
:1023C00007FC03D04EF40C94ED11509540953095D8
:1023D00021953F4F4F4F5F4F089590958095709591
:1023E00061957F4F8F4F9F4F0895EE0FFF1F059010
:1023F000F491E02D0994AA1BBB1B51E107C0AA1F51
:10240000BB1FA617B70710F0A61BB70B881F991F95
:102410005A95A9F780959095BC01CD0108950F9329
:102420001F93CF93DF938230910510F482E090E008
:10243000E091F204F091F30430E020E0B0E0A0E09D
:10244000309799F42115310509F44AC0281B390B3E
:1024500024303105D8F58A819B816115710589F198
:10246000FB0193838283FE0111C04081518102816F
:10247000138148175907E0F04817590799F4109746
:1024800061F012960C93129713961C933296CF011B
:10249000DF91CF911F910F9108950093F204109353
:1024A000F304F4CF2115310551F04217530738F0EA
:1024B000A901DB019A01BD01DF01F801C1CFEF01E4
:1024C000F9CF9093F3048093F204CDCFFE01E20F95
:1024D000F31F819391932250310939832883D7CFF9
:1024E0002091F0043091F104232B41F4209121013B
:1024F000309122013093F1042093F00420911F01C8
:10250000309120012115310541F42DB73EB740919E
:10251000230150912401241B350BE091F004F0912C
:10252000F104E217F307A0F42E1B3F0B281739071D
:1025300078F0AC014E5F5F4F2417350748F04E0F1F
:102540005F1F5093F1044093F004819391939FCFC8
:10255000F0E0E0E09CCFCF93DF930097E9F0FC013F
:10256000329713821282A091F204B091F304ED012C
:1025700030E020E01097A1F420813181820F931F79
:102580002091F0043091F1042817390709F061C057
:10259000F093F104E093F004DF91CF910895EA0104
:1025A000CE17DF07E8F54A815B819E014115510591
:1025B000B1F7E901FB83EA8349915991C40FD51F13
:1025C000EC17FD0761F4808191810296840F951FBD
:1025D000E90199838883828193819B838A83F0E0D8
:1025E000E0E012968D919C9113970097B9F52D918B
:1025F0003C911197CD010296820F931F2091F00418
:102600003091F1042817390739F6309751F51092B7
:10261000F3041092F204B093F104A093F004BCCF41
:10262000D383C28340815181840F951FC817D90776
:1026300061F44E5F5F4F88819981480F591F518324
:1026400040838A819B81938382832115310509F020
:10265000B0CFF093F304E093F2049ECFFD01DC01D0
:10266000C0CF13821282D7CFB0E0A0E0EAE3F3E15B
:102670000C946B118C01009751F4CB010E940F1246
:102680008C01C801CDB7DEB7E0E10C948711FC01E5
:10269000E60FF71F9C0122503109E217F30708F4F7
:1026A0009DC0D901CD91DC911197C617D70798F03D
:1026B000C530D10530F3CE0104978617970708F38C
:1026C000C61BD70B2297C193D1936D937C93CF01F7
:1026D0000E94AB12D6CF5B01AC1ABD0A4C018C0E26
:1026E0009D1EA091F204B091F304512C412CF12CC9
:1026F000E12C109731F58091F0049091F104881548
:10270000990509F05CC04616570608F058C080913C
:102710001F0190912001009741F48DB79EB7409121
:10272000230150912401841B950BE817F90708F049
:1027300055C0F093F104E093F004F90171836083D4
:10274000A0CF8D919C91119712966C901297139631
:102750007C901397A815B90559F56C0142E0C40E99
:10276000D11CCA14DB0420F1AC014A195B09DA015F
:102770001296159780F06282738251834083D9014B
:102780006D937C93E114F10471F0D7011396FC93DF
:10279000EE93129776CF22968C0F9D1FF9019183AD
:1027A0008083F301EFCFF093F304E093F20469CF59
:1027B0004816590608F42C017D01D3019ACFCB01AC
:1027C0000E940F127C01009749F0AE01B8010E94EF
:1027D000F113C8010E94AB12870153CF10E000E053
:1027E00050CFFB01DC0102C001900D9241505040DE
:1027F000D8F708956817790768F4FB01DC01E40F46
:10280000F51FA40FB51F02C002900E924150504018
:10281000D8F708950C94F113FB01DC018D918134FC
:102820001CF08B350CF4805E619161341CF06B35CB
:102830000CF4605E861B611189F3990B0895FC010D
:102840008191861721F08823D9F799270895319728
:10285000CF010895FB01DC0101900D920020E1F70A
:102860000895FB01DC014150504048F001900D9269
:102870000020C9F701C01D9241505040E0F7089573
:10288000AEE0B0E0E6E4F4E10C9477110D891E8926
:1028900086E08C831A8309838FEF9FE79E838D8365
:1028A000AE01475E5F4F6F89788DCE0101960E9421
:1028B00063142F813885020F131FF80110822E96A2
:1028C000E4E00C949311ABE0B0E0E9E6F4E10C94A1
:1028D00069117C013B018A01FC0117821682838108
:1028E00081FFC8C1CE0101965C01F7019381F3011C
:1028F00093FD859193FF81913F01882309F453C192
:10290000853239F493FD859193FF81913F018532A2
:1029100029F4B70190E00E945316E7CF912C212CA7
:10292000312CFFE1F31538F08B3211F190F4803245
:1029300009F1833229F137FC3CC020ED280F2A3001
:1029400050F536FE20C08AE0989E200D1124922E6C
:1029500006C08D3291F0803371F7689430F8F3013E
:1029600093FD859193FF81913F018111DACF21C0C1
:10297000689431F8689432F8F2CF689433F8EFCF66
:10298000689434F8ECCFEAE02E9E200D1124222E1C
:10299000689435F8E4CF8E3229F436FC04C168948B
:1029A00036F8DDCF8C3619F4689437F8D8CF8836EE
:1029B000B1F2982F9F7D95549330E0F08336A1F1CA
:1029C0008337C1F1833509F063C02801F2E04F0E6F
:1029D000511CF801C080D180692D70E036FC02C026
:1029E0006FEF7FEFC6010E943D164C01689437F8E7
:1029F00082010AC00C5F1F4FFFE3F9838824839490
:102A0000912C6501E89437F833FE2DC0522C8114C7
:102A1000910471F5552009F468CFB70180E290E088
:102A20000E9453165A94F6CFF801808189830E5F75
:102A30001F4FE4CF2801F2E04F0E511CF801C08077
:102A4000D180692D70E036FC02C06FEF7FEFC601C8
:102A50000E9448164C018201D5CFB70180E290E078
:102A60000E9453162A942814190409F0B0F7CECF07
:102A7000F60137FC859137FE81916F01B70190E037
:102A80000E94531651105A94F1E08F1A9108BFCF4B
:102A9000843619F0893609F077C0F80137FE6BC02B
:102AA00060817181828193810C5F1F4FF32DFF76CE
:102AB0003F2E97FF09C090958095709561957F4F47
:102AC0008F4F9F4F689437F82AE030E0A5010E94AD
:102AD0008316C82ECA188C2C432C36FE0CC0E894E2
:102AE00040F8C91440F434FE05C032FC03C0F32D95
:102AF000FE7E4F2E892C44FE95C0FE01EC0DF11D8B
:102B00008081803309F087C0242D297E422E842DB8
:102B10008870582E43FC95C040FE8FC09C2C8214B8
:102B200018F42C0C922C981844FE91C0B70180E345
:102B300090E00E94531642FE09C088E790E041FEF3
:102B400002C088E590E0B7010E945316C91408F44A
:102B50008AC0CA94D12C9FEFC91AD90ACA0CDB1CAF
:102B6000F60182916F01B70190E00E945316AC14F8
:102B7000BD04B1F74FCF60817181072E000C880B27
:102B8000990B0E5F1F4F92CFD32CE894D4F82AE014
:102B900030E0853739F1232D297FD22E8F3601F190
:102BA00048F48835A9F0F701868197812B96E2E1F8
:102BB0000C948511803749F08837A9F7D4FE02C0FC
:102BC0006894D2F820E130E00DC06894D4F8F6CFD4
:102BD00034FE03C0822F8660D82E20E132E002C08E
:102BE00028E030E0F801D7FE0FC06081718182815A
:102BF00093810C5F1F4FA5010E948316C82ECA182F
:102C00003D2CE89437F867CF6081718190E080E0D7
:102C10000E5F1F4FF0CF42FC02C0839478CF8394A5
:102C2000839475CF842D867809F471CFF6CFB701E0
:102C300080E290E00E94531683948214C0F3512CDA
:102C400073CF522C5818821408F46ECFF8CF842D0D
:102C5000867809F47BCF8BE241FE80E247FC8DE26F
:102C6000B70190E071CFB70180E390E00E94531666
:102C70009A946CCF8FEF9FEF99CFFC010590615034
:102C800070400110D8F7809590958E0F9F1F089582
:102C9000FC016150704001900110D8F7809590952B
:102CA0008E0F9F1F08950F931F93CF93DF93182FBD
:102CB000092FEB018B8181FD09C01FEF0FEF812FE1
:102CC000902FDF91CF911F910F91089582FF14C033
:102CD0002E813F818C819D81281739073CF4E88142
:102CE000F981CF0101969983888310838E819F811A
:102CF00001969F838E83E3CFE885F985812F09951F
:102D0000892BA1F3DACFFA01AA27283051F120311B
:102D100081F1E8946F936E7F6E5F7F4F8F4F9F4F6F
:102D2000AF4FB1E03ED0B4E03CD0670F781F891FB1
:102D30009A1FA11D680F791F8A1F911DA11D6A0F7F
:102D4000711D811D911DA11D20D009F468943F9132
:102D50002AE0269F11243019305D3193DEF6CF0131
:102D60000895462F4770405D4193B3E00FD0C9F7F7
:102D7000F6CF462F4F70405D4A3318F0495D31FD64
:102D80004052419302D0A9F7EACFB4E0A6959795B7
:102D9000879577956795BA95C9F70097610571058D
:102DA00008959B01AC010A2E0694579547953795D7
:102DB0002795BA95C9F7620F731F841F951FA01D31
:062DC0000895F894FFCF16
:102DC600FFFFFFFF00E1000000000000010A000A0B
:102DD60000F1D8F1D8FFFFFFFFFFFFFFFF0400005F
:102DE60000F4048000A403AC03B403BC0300000099
:102DF600007204E40393048804D9049704B504001C
:102E0600C180810000004944454E543A0045434183
:102E16004D2C2076312E302046656C7479706165B4
:102E26006465003B53544154453A52554E4E494E03
:102E3600473B0048575245563A000D0A004449415F
:102E460047205354415254004449414720454E447B
:102E5600002530346400504F54313A00504F5432FC
:102E66003A00494E313A00494E323A00494E333A19
:102E760000494E343A005645520056455253494F82
:102E86004E0052455100444941470050574D544564
:102E960053540050574D54455354205354415254A3
:102EA60000414E3A35202F20424C3A362028616B9D
:102EB6007469762D6C6F77204F4529004E75722008
:102EC6004261636B6C69676874205352202B204201
:102ED6004C20616E004E757220416E6E7520535205
:102EE600202B20414E20616E00416C6C6573206181
:102EF6006E0050574D5445535420454E4400424CA5
:102F06005343414E00424C5343414E205354415289
:102F1600540054312050696E36204C4F57202B20D8
:102F26004C4544333D464620284D61696E2D424C42
:102F3600205352290054322050696E35204C4F5789
:102F4600206F6E6C79202B204C4544333D4646203D
:102F56002867656D65696E73616D65204F453F290C
:102F6600005433204C454433204269747320313673
:102F76002D32332065696E7A656C6E002020626999
:102F86007420005434204C4544343D304620537759
:102F960069746368696E672D424C00543520307839
:102FA600464620696E204C45443220286E757220B4
:102FB6003220536869667465723F2900424C534358
:102FC600414E20454E440048575343414E00485712
:102FD6005343414E20535441525420E28094205092
:102FE600696E352B36204C4F572C203078464620BC
:102FF60070726F20427974652C206A6520357300E3
:10300600425954452000332D534849465445523AB7
:10301600206E7572206C332C6C322C6C31206F68EC
:103026006E652055370048575343414E20454E4460
:10303600004C454431004C454432004C4544330075
:103046004C45443400534D4F5F54485200534D4F46
:103056005F53414D00534D4F5F444C5900504F5400
:103066005F4442004C4544312F5532004C454432B2
:103076002F5533004C4544332F5534004C454434CA
:043086002F5537008B
:00000001FF
