:100000000C94DA000C9402010C9402010C9402018D
:100010000C9402010C9402010C9402010C94020154
:100020000C9402010C9402010C945C170C94D917E7
:100030000C9402010C9402010C9402010C94020134
:100040000C9402010C9402010C9402010C94020124
:100050000C9402010C9402010C9402010C941217EE
:100060000C9402010C9402010C9402010C94020104
:100070000C9402010C9402010C9402010C940201F4
:100080000C9402010C9402010C9402010C940201E4
:100090000C9402010C9402010C9402010C940201D4
:1000A0000C9402010C9402010C940201080B000252
:1000B0000202000009040000010202000005240001
:1000C0001001052401010104240206052406000193
:1000D0000705810310004009040100020A00000026
:1000E00007050202400000070583024000000403E8
:1000F000090412010002EF0201404F1B06920001A9
:1001000001020301537061726B46756E005370619A
:10011000726B46756E2050726F204D6963726F006E
:10012000070605040100080A0B0C0D090000000079
:10013000240027002A002D003000000000002500C8
:1001400028002B002E0031000000000023002600B4
:1001500029002C002F0004040404040304050202F7
:100160000202040302020202060606060606040450
:1001700002020204040408020110408040102040E2
:10018000804080080204018040201002011080108D
:10019000204040200000000200090F00000304017D
:1001A000000C000000000000000000000000000043
:1001B0000000221A11241FBECFEFDAE0DEBFCDBF50
:1001C00017E0A0E0B1E0EEE3FDE502C005900D927E
:1001D000A639B107D9F729E0A6E9B7E001C01D9219
:1001E000AF35B207E1F710E0CAEDD0E004C02197C7
:1001F000FE010E94432BC93DD107C9F70E94BC1ADA
:100200000C949D2E0C94000083E08093E900809173
:10021000F200882319F08AE38093E8000895FC0136
:100220008091AA08882311F13FB7F89482E0809367
:10023000E9002091F200822F90E01816190614F4BC
:1002400081E090E0882339F0289844E64093A9089B
:100250004091F1004083222339F02091F2002111D6
:1002600003C02BE62093E8003FBF08958FEF9FEF78
:1002700008952FB7F89483E08093E9009091E80007
:10028000892F807295FF04C09091F20080E4891B51
:100290002FBF08958091A10881110DC082E0809345
:1002A0009D0884E080939E081092A00810929F08F9
:1002B00081E08093A1088DE998E0089581508F3006
:1002C00008F047C0E82FF0E0E859FE4F0C94432BAC
:1002D0008501890177017D018101A901A901A90198
:1002E0008C01920196019A01A001A901A4018091BB
:1002F00080008F77809380000895809180008F7DAB
:10030000F9CF80918000877FF5CF84B58F7784BD4A
:10031000089584B58F7DFBCF809190008F77809377
:1003200090000895809190008F7DF9CF809190008A
:10033000877FF5CF8091C0008F778093C0000895AC
:100340008091C0008F7DF9CF8091C200877F80931C
:10035000C2000895CF93DF93282F30E0F901EC56C7
:10036000FE4F8491F901EB58FE4FD491F901EA5AFE
:10037000FE4FC491CC23A1F081110E945E01EC2FAD
:10038000F0E0EE0FFF1FE85BFE4FA591B491EC91FA
:10039000ED2381E090E009F480E0DF91CF910895B2
:1003A00080E090E0FACF1F93CF93DF93282F30E0C7
:1003B000F901EC56FE4F8491F901EB58FE4FD491B0
:1003C000F901EA5AFE4FC491CC23A9F0162F8111EE
:1003D0000E945E01EC2FF0E0EE0FFF1FE65CFE4F87
:1003E000A591B4918FB7F894EC91111108C0D095F4
:1003F000DE23DC938FBFDF91CF911F910895DE2B19
:10040000F8CFCF93DF9390E0FC01EB58FE4F24919F
:100410008A5A9E4FFC0184918823C9F090E0880F8E
:10042000991FFC01E45DFE4FA591B491FC01E65CCF
:10043000FE4FC591D49161110DC09FB7F8948C9176
:10044000209582238C938881282328839FBFDF9166
:10045000CF910895623051F49FB7F8943C91822F68
:10046000809583238C93E8812E2BEFCF8FB7F89460
:10047000EC912E2B2C938FBFEACFCF93DF93EC011F
:1004800061E083E00E940102209731F460E083E0A4
:10049000DF91CF910C94D301CF3FD10511F461E0EE
:1004A000F6CFE7E9F1E0E491E150EF3008F07EC0EB
:1004B000F0E0E35AFD4F0C94432B6C027302780278
:1004C00082028C02D602D602D6029602A002AA02AC
:1004D000B402C102D602C90284B5806884BDC7BD1A
:1004E000DF91CF91089584B5806284BDC8BDF8CFF7
:1004F00080918000806880938000D0938900C093B1
:100500008800EECF80918000806280938000D0933D
:100510008B00C0938A00E4CF809180008860809334
:100520008000D0938D00C0938C00DACF8091900032
:10053000806880939000D0939900C0939800D0CFAA
:1005400080919000806280939000D0939B00C09334
:100550009A00C6CF80919000886080939000D093DD
:100560009D00C0939C00BCCF8091C00080688093A8
:10057000C0008091C0008F7B8093C000C093CF00EB
:10058000AFCF8091C00080628093C000C093D00044
:10059000A7CF8091C20088608093C2008091C20082
:1005A0008B7F8093C200C093D2009ACFC038D10510
:1005B0000CF075CF6BCF8251E82FF0E0E05EFE4F7C
:1005C000E49190917B008E2F880F880F80729F7D21
:1005D000892B80937B00E770E064E0937C0080913E
:1005E0007A00806480937A0080917A0086FDFCCF47
:1005F000809178009091790008953FB7F8948091A8
:10060000990890919A08A0919B08B0919C0826B5F2
:10061000A89B05C02F3F19F00196A11DB11D3FBF3A
:10062000BA2FA92F982F8827BC01CD01620F711D09
:10063000811D911D42E0660F771F881F991F4A9503
:10064000D1F708958F929F92AF92BF92CF92DF928F
:10065000EF92FF924B015C010E94FD026B017C0155
:100660000E94FD026C197D098E099F09683E734046
:1006700081059105A8F321E0821A9108A108B1082B
:1006800088EEC80E83E0D81EE11CF11C8114910491
:10069000A104B10429F7FF90EF90DF90CF90BF90B5
:1006A000AF909F908F9008952FB7F8946091950820
:1006B0007091960880919708909198082FBF08959F
:1006C00040910C0850910D0820910A0830910B08B8
:1006D00042175307B4F49091E8009570E1F39091BC
:1006E000E80092FD19C08093F10080910C08909170
:1006F0000D0801968F739927892B19F48EEF80933B
:10070000E80080910C0890910D08019690930D08D7
:1007100080930C0881E0089580E00895EF92FF92A5
:100720000F931F93CF93DF93F82E192FE62E042FEC
:1007300081E0860F880F0E94600383E00E946003BF
:10074000CF2DD12FEC0EFD2EF11CCE15DF05B9F00B
:1007500007FF13C0FE0184910E946003182F80E000
:100760000E946003812321968111EFCFDF91CF9109
:100770001F910F91FF90EF9008958881EDCF81E058
:10078000F5CFDF92EF92FF920F931F93CF93DF93FA
:10079000D82E8A01EB017B01E40EF51ECE15DF0594
:1007A00059F0D7FE12C0FE0184910E946003219689
:1007B0008111F4CF0FEF1FEFC801DF91CF911F918F
:1007C0000F91FF90EF90DF9008958881EECF0F9307
:1007D0001F93CF93DF931F92CDB7DEB782E089835B
:1007E00042E450E06CEA70E080E80E94C1030E949D
:1007F0004A01DC0112960D911C910115110589F039
:10080000D801ED91FC910280F381E02DBE016F5F74
:100810007F4FC801099597FD04C0F8010085118537
:10082000ECCF89810F90DF91CF911F910F910895A7
:10083000615030F02091F100FC0120830196F8CF47
:10084000289884E68093A90808958F929F92AF928A
:10085000BF92CF92DF92EF92FF920F931F93CF93AD
:10086000DF936C017B018A0180910C01882309F4DC
:100870005CC08091AA08882309F457C080911008B1
:1008800080FF05C08091E00082608093E000E80175
:10089000B12C8AEFA82E93E0892E2AE3922E20977E
:1008A00011F4BB20D9F10E94390181110AC0AA9428
:1008B000AA20D9F161E070E080E090E00E9422037C
:1008C000EECF8C171D0611F00CF08C2F9FB7F8940B
:1008D0008092E9002091E80025FD02C09FBFDFCF94
:1008E000282F30E0C21BD30BF701815020F041913B
:1008F0004093F100FACFE20EF31EBB2021F090925C
:10090000E800B12CEBCF8091E80085FDE7CF909215
:10091000E800BB24B394209709F3F3CF5D9884E6F5
:1009200080930F08101611063CF081E090E0F6016C
:100930009383828310E000E0C801DF91CF911F9183
:100940000F91FF90EF90DF90CF90BF90AF909F906E
:100950008F900895CF93DF931F92CDB7DEB7698351
:10096000DC01ED91FC910280F381E02D41E050E04B
:10097000BE016F5F7F4F09950F90DF91CF91089572
:100980000C9404010E94390190E00895CF93DF9305
:100990001F92CDB7DEB7FC018485958597FD08C011
:1009A0002FEF3FEF358724870F90DF91CF91089588
:1009B000CE0101960E940F01019719F4898190E000
:1009C000F3CF8FEF9FEFF0CF0F931F93CF93DF9372
:1009D0001F92CDB7DEB78C01FC018485958597FF0A
:1009E0000BC0CE0101960E940F01019771F489811D
:1009F00090E0F80195878487F801848595850F90AC
:100A0000DF91CF911F910F9108958FEF9FEFF1CF5D
:100A1000FC018485958597FD0BC09FB7F89482E013
:100A20008093E9008091F2009FBF90E001960895C5
:100A30009FB7F89482E08093E9008091F2009FBF15
:100A400090E0089590E0FB01685F7F4FA1918A0FCD
:100A5000911D6E177F07D1F7FA01485F5F4F6191D3
:100A6000860F911D4E175F07D1F7F901275F3F4FA2
:100A70004191840F911D2E173F07D1F70895FC0176
:100A8000208101962032D9F341E050E02D3219F453
:100A9000FC014FEF5FEF30E020E0AAE0819190EDA4
:100AA000980F9A3068F4A29FB001A39F700D112493
:100AB000082E000C990BC0979C01260F371FEECF14
:100AC000249FC001259F900D349F900D11240895FF
:100AD000DC01FB012D919191222381F0992371F08A
:100AE0008FE9820F8A3108F420528FE9890F8A3109
:100AF00008F49052291771F380E003C081E02913B4
:100B0000FBCF0895EF92FF920F931F93CF93DF9344
:100B100089E00E94AA01D82F8AE00E94AA01DD0F75
:100B2000D82B2091A60704E0209F90011124CD2FFF
:100B3000C22B0E945403AB01BC0180910509813096
:100B4000A9F170F08230D9F1833009F44CC0D09310
:100B5000A607DF91CF911F910F91FF90EF9008951D
:100B6000C130F1F189EF8C0F8230D0F1CE30C1F17C
:100B7000C23031F0C43021F0CB3011F0CD3039F734
:100B800021E030E08091A4079091A5078217930798
:100B900031F01092A3073093A5072093A40780910A
:100BA000A307882351F11092A307D1CFC130C1F020
:100BB000C830B1F0C23021F3C43049F6E1CFCD30B6
:100BC000F9F2C430E9F2C230D9F2CB30C9F2CE30FA
:100BD00039F089EF8C0F823018F0C13009F0B7CFAF
:100BE0002FEF3FEFCFCFCD3059F2CB3049F2CE309F
:100BF000B9F3C83009F0ABCFF3CF80919F07909144
:100C0000A007A091A107B091A2077A018B01E81A71
:100C1000F90A0A0B1B0BD801C7010297A105B10500
:100C200068F480919F079091A007A091A107B091CF
:100C3000A207892B8A2B8B2B09F089CF81E0809327
:100C4000A3078091600890916108280F391F3093A5
:100C500061082093600840939F075093A00760931A
:100C6000A1077093A20773CF8F929F92AF92BF920A
:100C7000CF92DF92EF92FF92CF93DF9387E00E94B3
:100C8000AA01D82F88E00E94AA01DD0FD82B20915D
:100C90009E0744E0249F90011124CD2FC22B0E9477
:100CA0005403209106092130D1F198F0223009F443
:100CB0003FC0233009F450C0D0939E07DF91CF91FD
:100CC000FF90EF90DF90CF90BF90AF909F908F906C
:100CD0000895C130F1F129EF2C0F2230D0F1CE3040
:100CE000C1F1C23031F0C43021F0CB3011F0CD3041
:100CF00019F721E030E040919C0750919D07421781
:100D0000530731F010929B0730939D0720939C0767
:100D100040919B07442351F110929B07CDCFC130E6
:100D2000C1F0C830B1F0C23021F3C43029F6E1CFB0
:100D3000CD30F9F2C430E9F2C230D9F2CB30C9F289
:100D4000CE3039F029EF2C0F223018F0C13009F0E5
:100D5000B3CF2FEF3FEFCFCFCD3059F2CB3049F2A9
:100D6000CE30B9F3C83009F0A7CFF3CFC0909707C2
:100D7000D0909807E0909907F0909A074B015C019A
:100D80008C189D08AE08BF087501640142E0C416C6
:100D9000D104E104F10468F4C0909707D09098075B
:100DA000E0909907F0909A07CD28CE28CF2809F037
:100DB00083CF41E040939B07409192085091930864
:100DC0004230510591F5C090AC07D090AD07E0904E
:100DD000AE07F090AF074B015C018C189D08AE0880
:100DE000BF087501640144EBC416D104E104F104A9
:100DF00008F462CF4091640850916508240F351FB4
:100E00003093650820936408609397077093980760
:100E10008093990790939A076093AC077093AD07FE
:100E20008093AE079093AF0747CF409164085091ED
:100E30006508240F351F309365082093640860937C
:100E40009707709398078093990790939A0734CFE8
:100E5000CF93DF93DA01FB0170E060E030E020E047
:100E6000519151110DC0FC01281B390B40E2CF01FB
:100E7000B9016E0F7F1F663071059CF44193F7CF67
:100E80002630310574F45E3241F06A177B071CF49A
:100E90006F5F7F4FE5CF2F5F3F4FEC015883019687
:100EA000DFCFFC011082DF91CF910895FC0190E02B
:100EB00080E02191222321F02E32D9F30196F9CF3F
:100EC0000895CF93DF93CDB7DEB729970FB6F89487
:100ED000DEBF0FBECDBF90E0E0E0A92FB0E0A55E81
:100EE000BE4F8C91882399F0E83088F4803269F005
:100EF0002FE9280F2A3108F48052A1E0B0E0AC0FAE
:100F0000BD1FAE0FB11D8C93EF5F9F5FE6CFEC0F5F
:100F1000FD2FF11D11828981803591F48A818334FE
:100F200079F48B81823461F48C81813349F48D8131
:100F30008E3231F48E81823319F481E09F819111D8
:100F400080E08093960729960FB6F894DEBF0FBE17
:100F5000CDBFDF91CF910895FC0180E04191442302
:100F600071F090ED940F9230C8F7282F30E0220FE7
:100F7000331F81E0413309F080E0822BEFCF0895E9
:100F8000FC0127E030E070E0AB01022E02C0559575
:100F900047950A94E2F740FD08C040E34193215091
:100FA000310990F7FC011086089541E3F7CF0F93C4
:100FB0001F93CF93DF93082F162FD42FC8E06D2FE8
:100FC000661F6627661F802F0E94D301DD0F61E038
:100FD000812F0E94D30160E0812F0E94D301C15074
:100FE00071F7DF91CF911F910F9108950F931F9388
:100FF000CF93DF9300D0CDB7DEB769834A83880FE4
:10100000991F00915D0910915E09000F111FE7E023
:10101000F9E09F01275039402017310714F411924D
:10102000F8CF2981FC01E95FF64F21838A81808313
:1010300060E080915B090E94D301101611066CF4E8
:1010400001501109F801E95FF64F4081609159099B
:10105000809157090E94D707F0CF61E080915B092A
:101060000F900F90DF91CF911F910F910C94D301AE
:10107000EF92FF920F931F93CF937C018C0183E03B
:10108000000F111F8A95E1F7095E164FC1E0F801C4
:1010900011928F0140E06C2FC7010E94F607CF5FCD
:1010A000C930A9F7CF911F910F91FF90EF9008954C
:1010B00097FD18C020915D0930915E098217930752
:1010C0008CF46830710570F4FC0123E0EE0FFF1F13
:1010D0002A95E1F7E95FF64FE60FF71F408B6F5F48
:1010E0000C94F60708950F931F93CF93683E23E067
:1010F00072078105910558F1685E73408109910975
:101100002CE231E040E050E00E94FE2A27703327B5
:10111000C1E001C0CC0F2A95EAF710E000E04C2FA7
:10112000B80190E080E00E9458080F5F1F4F063022
:101130001105A9F710E000E04C2FB80181E090E024
:101140000E9458080F5F1F4F06301105A9F7CF9175
:101150001F910F91089520915D0930915E098217CA
:1011600093073CF46031710524F4462F6AE00C9437
:10117000F6070895CF93DF9320ED37E040E050E08D
:101180000E94FE2A683E23E07207CCF4EB01D5955D
:10119000C795D595C795CE010E943D02CE0161E16C
:1011A00070E00E942F2BEB0190E080E00E94AB08E2
:1011B000BE0181E090E0DF91CF910C94AB08685EB6
:1011C000734077FF02C06D5F7F4F7595679575958A
:1011D0006795719561957109EB01C150DF4FDBCFC8
:1011E000CF93DF93803108F08FE080930D01C82FFB
:1011F000D0E0BE0190E080E00E94AB08BE0181E03B
:1012000090E0DF91CF910C94AB08CF93DF93C09126
:101210008B08D0918C0860E084E00E94D3014D2FB0
:1012200065E086E00E94D7074C2F65E086E00E94CB
:10123000D70761E084E00E94D30160911508C09156
:10124000140880919607882319F081E06827C82741
:101250008EE00E94D3016C2F80E10E94D301809127
:10126000130890E0DF91CF910C943D0228EC30E020
:1012700040E050E00E94FE2A2F70332781E090E08A
:10128000022E02C0880F991F0A94E2F790938C08EF
:1012900080938B0881E02115310509F080E080936F
:1012A000150881E02130310509F080E080931408B1
:1012B00088EC809313080C94050994E0899FF00151
:1012C0001124613061F4EF53FE4F328123813111DB
:1012D0000EC0223039F4409315080C940509EF55DF
:1012E000FE4FF3CF233019F540931408F6CF822F29
:1012F00090E0313019F49C01285F3F4F81E090E08D
:1013000002C0880F991F2A95E2F720918B0830912F
:101310008C08442339F0822B932B90938C08809374
:101320008B08DBCF8095909582239323F6CF089589
:101330001F93CF93DF93C7E0D0E010E061E084E13A
:101340000E94D30183E10E94AA010C2E01C0880FE4
:101350000A94EAF7182B60E084E10E94D3012197F8
:1013600068F7812FDF91CF911F910895CF92DF927F
:10137000EF92FF920F931F93CF93DF936C017B014A
:1013800060E085E10E94D301CBE4D0E0CE0101977B
:10139000F1F761E085E10E94D301CE010197F1F7F9
:1013A0000E949809182F0E9498091095F601108341
:1013B0009FED8927F701808360E085E10E94D301DA
:1013C000CE010197F1F761E085E10E94D3012197F9
:1013D000F1F7C0E1D0E00FE010E060E084E10E94AE
:1013E000D301C8010197F1F761E084E10E94D301C4
:1013F000C8010197F1F7219781F7DF91CF911F91F4
:101400000F91FF90EF90DF90CF900895FC01019035
:101410000020E9F73197AF01481B590BBC0185EB60
:1014200098E00C9425048F929F92AF92BF920F93F5
:101430001F93CF93DF93CDB7DEB7A1970FB6F89484
:10144000DEBF0FBECDBF19A2423008F44AE08E01C4
:101450000F5D1F4F842E912CB12CA12CA50194015E
:101460000E94FE2AE62FB901CA01EA30F4F4E05DD9
:10147000D801EE938D01232B242B252B79F790E0B7
:1014800080E0109719F0CD010E94060AA1960FB6D0
:10149000F894DEBF0FBECDBFDF91CF911F910F91AA
:1014A000BF90AF909F908F900895E95CE1CFCF926D
:1014B000DF92EF92FF92CF93DF936C01990FEE08CA
:1014C000FF08F7FE19C06DE285EB98E00E94AA04C0
:1014D000EC0166277727CB016C197D098E099F09DE
:1014E0004AE00E94130A8C0F9D1FDF91CF91FF905D
:1014F000EF90DF90CF9008954AE0C701B601DF91E9
:10150000CF91FF90EF90DF90CF900C94130ACF9380
:10151000DF930E94060AEC0186E192E00E94060A2F
:101520008C0F9D1FDF91CF910895009711F00C94BF
:10153000060A90E080E00895EF92FF920F931F93C8
:10154000CF93DF93CDB7DEB729970FB6F894DEBF00
:101550000FBECDBF60918508CE0101960E94C007E5
:1015600089E192E00E94950ACE0101960E94950AB7
:1015700085E696E00E94950A60918408CE01019666
:101580000E94C0078EE192E00E94950ACE0101966A
:101590000E94950A85E696E00E94950AE09064080C
:1015A000F09065088091620890916308E81AF90A42
:1015B000009160081091610880915E0890915F0829
:1015C000081B190B83E292E00E94950AC7010E9452
:1015D000570A85E696E00E94950A88E292E00E940A
:1015E000950AC8010E94570A85E696E00E94950A6E
:1015F00086E192E00E94060A809164089091650855
:1016000090936308809362088091600890916108CC
:1016100090935F0880935E080E94540329960FB64A
:10162000F894DEBF0FBECDBFDF91CF911F910F9118
:10163000FF90EF9008958DE292E00E94950A84E376
:1016400092E00E94950A8091AB08882361F086E4BD
:1016500092E00E94950A88EE91E00E94950A8BEA3A
:1016600098E00E94950A8CE492E00E94950A8CE52D
:1016700092E00E94950A8DE991E00E94950A85E624
:1016800096E00E94950A82E692E00E94950A8DE714
:1016900091E00E94950A85E696E00E94950A8EE602
:1016A00092E00E94950A8EE091E00E94950A85E6FC
:1016B00096E00E94950A86E192E00C94060ACF9289
:1016C000DF92EF92FF920F931F93CF93DF93CDB7EB
:1016D000DEB761970FB6F894DEBF0FBECDBF82E1D3
:1016E0000E94DB028C0183E10E94DB02080F191FBC
:1016F00084E10E94DB02080F191F85E10E94DB02D2
:101700007C010E94FD0298012E0D3F1D8901330FBF
:10171000220B330B600F711F821F931F6115710520
:101720008105910511F00E94AD2A81E1E3E7F2E025
:10173000DE01119601900D928A95E1F70BEA18E00F
:1017400080E1C82ED12CE12CF12C0E945E2AA70149
:1017500096010E94CC2A21E030E02C0F3D1F620F41
:10176000731FFB018081F80181938F01F8E0033B37
:101770001F0759F71092B30861960FB6F894DEBFB1
:101780000FBECDBFDF91CF911F910F91FF90EF90D2
:10179000DF90CF9008950C94B62A8F929F92AF92CB
:1017A000BF92CF92DF92EF92FF920F931F93CF934E
:1017B000DF935C016B01FB0101900020E9F7319799
:1017C0008F01061B170B85E0E82EF12CD0E0C0E05E
:1017D000C017D107B4F040E0B701C5010E94580816
:1017E00081E0E81AF108A0F7DF91CF911F910F91E6
:1017F000FF90EF90DF90CF90BF90AF909F908F9031
:101800000895F601EC0FFD1F80818E3241F4219680
:10181000C017D10704F7F601EC0FFD1F808144E0EB
:101820008432D1F04DE18F36B9F040E18936A1F034
:1018300045E18D3689F04BE3893771F0082E000CB5
:10184000990B0E94682B805240E08A3328F4E82FDD
:10185000F0E0ED5BFE4F40814E018FEF881A980A51
:101860008016910634F4CC0DDD1D89818E3209F489
:101870004068B701C5010E945808E401B1CFCF9379
:10188000DF93EB0144E150E0BC0187ED97E00E945B
:101890009D2B1092EB0744E150E0BE018FEB97E0E7
:1018A0000E949D2B1092D30787ED97E00E94560768
:1018B00021E007970CF420E02093EC078FEB97E0F2
:1018C0000E94560721E007970CF420E02093D407EC
:1018D0001092D6071092D5071092BE071092BD073E
:1018E0000E9454036093ED077093EE078093EF0717
:1018F0009093F00750E040E067ED77E081E391E0FE
:101900000E94280750E040E06FEB77E085E291E02D
:101910000E94280761E371E090E080E00E94CD0B17
:1019200065E271E081E090E0DF91CF910C94CD0B06
:10193000AF92BF92CF92DF92EF92FF920F931F93DD
:10194000CF93DF93CDB7DEB76A970FB6F894DEBFBB
:101950000FBECDBF24EF31E040E050E00E94FE2AF0
:1019600069017A01CA01B9012AE030E040E050E0A3
:101970000E94FE2A162FC701B60126E030E040E0A3
:1019800050E00E94FE2A6B019DE09E012F5F3F4FB9
:101990005901D901E92F1D92EA95E9F7DE011E965A
:1019A000FD0111929A95E9F7F12CE12C30E020E04D
:1019B00090E3910F7EE2A9014F5F5F4F8501020F17
:1019C000131FF80190838D01020F131FF8019083FC
:1019D000CE14DF0439F52E5F3F4F8501040F151F2C
:1019E000F80170834A0F5B1FFA017083FFEFEF1A53
:1019F000FF0A86E0E816F104F1F6BD01C5010E9478
:101A00003F0C6A960FB6F894DEBF0FBECDBFDF91D4
:101A1000CF911F910F91FF90EF90DF90CF90BF90EB
:101A2000AF9008959A01E2CF2F923F924F925F922A
:101A30006F927F928F929F92AF92BF92CF92DF92DE
:101A4000EF92FF920F931F93CF93DF93CDB7DEB743
:101A500061970FB6F894DEBF0FBECDBF0E9454034E
:101A60006B017C0164E878E085E898E00E94B609A3
:101A70000E9434060E948205209185088091830887
:101A8000281306C09091840880916A08981731F154
:101A90008091660890916708A0916808B0916908E4
:101AA000B701A601481B590B6A0B7B0B80912401DF
:101AB00090E0B0E0A0E0481759076A077B0770F094
:101AC000C0926608D0926708E0926808F0926908B0
:101AD000209383088091840880936A088091160877
:101AE000811144C081E08093160810920908109279
:101AF00008081092070810920608809164089091D7
:101B0000650890930508809304081092030862E921
:101B100072E089E992E00E943F0CC092FF07D092E8
:101B20000008E0920108F0920208C092FB07D092F0
:101B3000FC07E092FD07F092FE0761960FB6F8945D
:101B4000DEBF0FBECDBFDF91CF911F910F91FF90F0
:101B5000EF90DF90CF90BF90AF909F908F907F904D
:101B60006F905F904F903F902F900895809159080B
:101B700090915A08A0915B08B0915C08160127016A
:101B8000281A390A4A0A5B0AD201C101803D9740EE
:101B9000A105B10590F28091FF0790910008A091F6
:101BA0000108B0910208A7019601281B390B4A0BC6
:101BB0005B0BDA01C90180319742A105B10530F113
:101BC00010928C0810928B0810921508109214082D
:101BD000109213080E94050961EF73E0CB010E9487
:101BE0003F0C61EF73E090E080E00E94CD0B61EF6D
:101BF00073E081E090E00E94CD0B81E090E0909353
:101C00009308809392081092160897CF8091060847
:101C100090910708009709F037C12091640830912E
:101C200065088091040890910508281B390B09F478
:101C300075C08091FB079091FC07A091FD07B091C2
:101C4000FE07B701A601481B590B6A0B7B0BDB0192
:101C5000CA018C329140A105B10508F45FC08091A2
:101C6000F7079091F807A091F907B091FA07C81605
:101C7000D906EA06FB0648F480916408909165084D
:101C8000909305088093040850CF809108089091A4
:101C90000908121613060CF0A9C0019690930908C2
:101CA00080930808809108089091090897FF04C064
:101CB000109209081092080880910808909109086C
:101CC000049734F083E090E090930908809308082B
:101CD00080916408909165089093050880930408AA
:101CE000C092FB07D092FC07E092FD07F092FE073E
:101CF000D701C6018C549F4FAF4FBF4F8093F7075A
:101D00009093F807A093F907B093FA07C092FF07E2
:101D1000D0920008E0920108F092020800910808B1
:101D2000109109080130110509F470C00CF060C071
:101D300060EA72E087EA92E00115110509F463C0D8
:101D40008091830880FFA4C4809103088111F5CE9F
:101D50008091F3079091F407A091F507B091F607F1
:101D600016012701281A390A4A0A5B0AD201C10161
:101D70008A3F9105A105B10508F4DFCE81E080938B
:101D80000308C092F307D092F407E092F507F092AF
:101D9000F607C092FF07D0920008E0920108F09287
:101DA000020801151105E1F521E030E03093070844
:101DB000209306081092F2071092F10780931608FC
:101DC00080916408909165089093050880930408B9
:101DD0000AEFC00ED11CE11CF11CC092F707D09293
:101DE000F807E092F907F092FA07A7CE019756CFCD
:101DF0000230110581F06FEB72E087EC92E0033066
:101E0000110509F09DCF0E943F0C9ACF60EA72E065
:101E10008FEA92E0F8CF61EF73E087EB92E0F3CFC7
:101E200001301105D1F424E030E03093070820930D
:101E300006081092F2071092F1078093160880911D
:101E400064089091650890930508809304081AEF40
:101E5000C10ED11CE11CF11CC0CF0230110579F478
:101E600085E090E09093070880930608C092590897
:101E7000D0925A08E0925B08F0925C085ECE033084
:101E8000110509F05ACE9CCE8230910509F09AC115
:101E90008091B207811111C06FEC72E086ED92E083
:101EA0000E943F0C0E94540381E08093B2076AE6CF
:101EB00078E083E898E00E94B6090E9454032B0161
:101EC0003C017BEC272E77E0372E0E9454036B01F8
:101ED0007C01BE016F5F7F4FCE0109960E94B6095B
:101EE0008984809183088816A1F1882661ECA62E4A
:101EF00061E0B62E10E000E0912CC401002E02C07B
:101F0000959587950A94E2F780FF18C0F5018081C6
:101F10009181298530E0002E02C0359527950A94DD
:101F2000E2F720FF35C16DED72E00E943F0C41E009
:101F300061E0802F0E945D09260137010F5F1F4F6E
:101F4000F4E0AF0EB11C08301105B9F68985809315
:101F50008308898080916A088816A1F1882651EA51
:101F6000A52E51E0B52E10E000E0912CC401002E0A
:101F700002C0959587950A94E2F780FF18C0F50195
:101F800080819181298130E0002E02C0359527950E
:101F90000A94E2F720FF02C16DED72E00E943F0C4F
:101FA00041E062E0802F0E945D09260137010F5F4A
:101FB0001F4FF4E0AF0EB11C08301105B9F689814E
:101FC00080936A08898581111CC08981811119C09B
:101FD000D701C60184199509A609B709883E93401F
:101FE000A105B10570F06FEC72E086ED92E00E9401
:101FF0003F0C2601370110E1410E17E2511E611C12
:10200000711C0E9434060E948205809164089091A0
:1020100065082091040830910508821B930B0091FC
:102020006008109161082091B0073091B107021B40
:10203000130B009709F444C04091AC075091AD07D1
:102040006091AE077091AF0746015701841A950A57
:10205000A60AB70AB501A401443B51056105710503
:1020600078F164E872E01816190614F06BE872E073
:102070008BEE92E00E943F0C68EE73E080E090E00F
:102080000E9422036FEC72E086ED92E00E943F0C0A
:1020900080916408909165089093050880930408E6
:1020A000C092AC07D092AD07E092AE07F092AF07B6
:1020B0002601370120E1420E27E2521E611C711CED
:1020C0000115110539F164E872E01016110614F0DB
:1020D0006BE872E082EF92E00E943F0C68EE73E0E2
:1020E00080E090E00E9422036FEC72E086ED92E0C7
:1020F0000E943F0C80916008909161089093B10715
:102100008093B0072601370130E1430E37E2531EBA
:10211000611C711C8985982F917080FF4DC0809142
:10212000AB07811149C04091A7075091A807609162
:10213000A9077091AA0746015701841A950AA60AB1
:10214000B70AB501A401443F51406105710560F52E
:1021500068EC70E080E090E00E94220310928C080E
:1021600010928B0810921508109214081092130800
:102170000E94050961EF73E0CB010E943F0C1092B1
:10218000070810920608109216081092B207D5CCD4
:1021900064EE72E00E943F0C40E0CACE64EE72E052
:1021A0000E943F0C40E0FDCEC092A707D092A80746
:1021B000E092A907F092AA079093AB07C10101979B
:1021C000F1F783CE8330910509F0F0C08091BC0710
:1021D000811119C069EF72E080E093E00E943F0C2A
:1021E00068EE73E080E090E00E94220381E080933B
:1021F000BC070E9454036093B8077093B90780939B
:10220000BA079093BB070E9454039924939499E4CE
:10221000B92E2EE6A22E32E3832E41E3742E0BEC70
:1022200017E00E9454036B017C01BE01605F7F4F89
:10223000CE0141960E94B6098091B8079091B907E6
:10224000A091BA07B091BB07A7019601281B390BD3
:102250004A0B5B0BDA01C901883E9340A105B10529
:1022600068F080910001892580930001C092B80731
:10227000D092B907E092BA07F092BB0780910001B3
:10228000B986AA868823B9F17B8680E28C87898902
:10229000482F50E091E386FF90E39D8787FF27C09A
:1022A00081E38E871F86FE01319685E090E09A01DA
:1022B000082E02C0359527950A94E2F720FF19C031
:1022C00021E32193019798F71F82BE016F5F7F4F33
:1022D000CE0109960E943F0C8989982F917080FD4C
:1022E0002FC09093B707C8010197F1F79ACF80E309
:1022F000D8CF20E3E6CF8B8680E28C878889482F71
:1023000050E091E386FF90E39D8787FF15C081E34E
:102310008E871F86FE01319685E090E09A01082E97
:1023200002C0359527950A94E2F720FF07C021E304
:102330002193019798F7C8CF80E3EACF20E3F8CF45
:102340008091B7078111CDCF4091B3075091B40769
:102350006091B5077091B60716012701241A350A56
:10236000460A570AB201A101443F51406105710577
:10237000A0F468EC70E080E090E00E94220361EF3E
:1023800073E0CB010E943F0C1092070810920608E0
:10239000109216081092BC07D0CBC092B307D0920F
:1023A000B407E092B507F092B6079BCF8430910551
:1023B00009F0EFC02091640830916508809104080D
:1023C00090910508281B390B09F46DC08091FB071B
:1023D0009091FC07A091FD07B091FE07B701A601FF
:1023E000481B590B6A0B7B0BDB01CA018C329140F5
:1023F000A105B10508F457C08091F7079091F8073F
:10240000A091F907B091FA07C816D906EA06FB06AB
:1024100008F432CC8091F1079091F207121613065E
:102420000CF096C001969093F2078093F10780918B
:10243000F1079091F20797FF04C01092F2071092F3
:10244000F1078091F1079091F207039734F082E051
:1024500090E09093F2078093F10780916408909147
:1024600065089093050880930408C092FB07D092FA
:10247000FC07E092FD07F092FE07D701C6018C54DD
:102480009F4FAF4FBF4F8093F7079093F807A093EC
:10249000F907B093FA07C092FF07D0920008E092C4
:1024A0000108F09202080091F1071091F207013043
:1024B000110509F44FC00230110509F452C060EA59
:1024C00072E087E093E00115110509F447C080919F
:1024D000830880FFDDC08091030881112ECB80919D
:1024E000F3079091F407A091F507B091F607160154
:1024F0002701281A390A4A0A5B0AD201C1018A3F18
:102500009105A105B10508F418CB81E0809303087B
:10251000C092F307D092F407E092F507F092F60725
:10252000C092FF07D0920008E0920108F0920208E2
:1025300001151105D9F482E090E09093070880938B
:1025400006086AE678E083E898E00E94B6098ECC37
:10255000019769CF69EF72E08FE093E00E943F0C32
:10256000B6CF61EF73E087E193E0F8CF013011055A
:1025700039F483E090E09093070880930608DDCA61
:102580000230110509F0D9CA109207081092060806
:102590003ACB8530910509F07EC0EBE1F1E090E0A7
:1025A00080E0219121110FC09E012F5F3F4FF90163
:1025B000E80FF91F80E2AF01421B530B4730510572
:1025C0009CF48193F8CF8730910574F4203219F48C
:1025D0008430910534F7A1E0B0E0AC0FBD1FA80F27
:1025E000B91F2C930196DDCF1886AEE0B1E0FE0155
:1025F000399690E080E02D91211112C0E9E0F0E0E1
:10260000EC0FFD1FE80FF91F29E030E02C0F3D1FF4
:102610002A5F3F4F80E2E217F30741F08193FBCF3F
:102620008630910519F001962193E5CF1F86BE01F2
:10263000675F7F4FCE0101960E943F0C8091830817
:1026400080FF26C080910308811177CA8091F3072B
:102650009091F407A091F507B091F6074601570154
:10266000881A990AAA0ABB0AD501C4018A3F9105B2
:10267000A105B10508F461CA81E080930308C09206
:10268000F307D092F407E092F507F092F6077CCFBB
:102690001092030852CA019709F004C220916408FD
:1026A000309165088091040890910508281B390B2A
:1026B00009F46DC08091FB079091FC07A091FD0784
:1026C000B091FE07B701A601481B590B6A0B7B0BA3
:1026D000DB01CA018C329140A105B10508F457C055
:1026E0008091F7079091F807A091F907B091FA0748
:1026F000C816D906EA06FB0608F4BECA8091F1079F
:102700009091F207121613060CF0A3C00196909355
:10271000F2078093F1078091F1079091F20797FFFC
:1027200004C01092F2071092F1078091F107909186
:10273000F207069734F085E090E09093F2078093DB
:10274000F107809164089091650890930508809343
:102750000408C092FB07D092FC07E092FD07F092BC
:10276000FE07D701C6018C549F4FAF4FBF4F8093D8
:10277000F7079093F807A093F907B093FA07C09270
:10278000FF07D0920008E0920108F0920208009141
:10279000F1071091F2070230110509F470C00CF036
:1027A0005AC00115110509F465C06CE273E083E3BA
:1027B00093E00130110509F45AC08091830880FF2D
:1027C00067CF809103088111B8C98091F307909178
:1027D000F407A091F507B091F60716012701281A12
:1027E000390A4A0A5B0AD201C1018A3F9105A10553
:1027F000B10508F4A2C9BB24B394B0920308C092F7
:10280000F307D092F407E092F507F092F607C09232
:10281000FF07D0920008E0920108F092020801152B
:102820001105E1F5B092120883E090E090939308CF
:10283000809392080E9454036093590870935A0839
:1028400080935B0890935C088DE593E00E94870A73
:1028500074C901975CCF04301105D9F0ACF061EF79
:1028600073E087E193E00530110509F0A6CF0E94DF
:102870003F0CA3CF6EE173E085E293E0F8CF6AE30B
:1028800073E081E493E0F3CF60EA72E088E493E0E0
:10289000EECF6FE473E086E593E0E9CF01301105F8
:1028A00081F50E9454036B017C0110928C081092F8
:1028B0008B081092150810921408109213080E94A9
:1028C00005090E9454036C197D098E099F09683817
:1028D00073418105910578F40E9454036C197D09B8
:1028E0008E099F090E94980C60E570E080E090E0FE
:1028F0000E942203E6CF61EF73E0CB010E943F0C00
:1029000043CE0230110509F042C00E9454034B012E
:102910005C016AE373E08EE693E00E943F0C68EE90
:1029200073E080E090E00E94220388E1C82E8CEFE3
:10293000D82EEE24EA94FE2CC818D908EA08FB0821
:102940000E945403681979098A099B096838734100
:102950008105910578F40E9454036C0D7D1D8E1D38
:102960009F1D0E94360964E670E080E090E00E94BE
:102970002203E6CF10928C0810928B081092150853
:1029800010921408109213080E940509FDCD03301F
:102990001105C1F50E9454036B017C0160EA72E0ED
:1029A00088E493E00E943F0C68EE73E080E090E0E2
:1029B0000E94220310928C0810928B081092150826
:1029C0001092140880E8809313080E9405090E9461
:1029D00054036C197D098E099F096838734181057C
:1029E000910508F088CF0E9454036C197D098E0967
:1029F0009F090E94730862E370E080E090E00E940B
:102A00002203E5CF0430110509F047C00E945403AA
:102A10006B017C0160EA72E085E793E00E943F0C65
:102A20008FEF9FEF90938C0880938B08B0921508DE
:102A3000B0921408809313080E9405090E94540361
:102A40006C197D098E099F096838734181059105CC
:102A500078F40E9454036C197D098E099F090E9425
:102A6000BA0868E270E080E090E00E942203E6CFBE
:102A700010928C0810928B0810921508109214086E
:102A8000109213080E9405098CE793E00E94870AC0
:102A900080910D010E94F00877CD0530110509F0F5
:102AA0004CC872CD8091ED079091EE07A091EF0791
:102AB000B091F007B701A601481B590B6A0B7B0BBD
:102AC000DB01CA018C329140A105B10508F435C87B
:102AD000C092ED07D092EE07E092EF07F092F00778
:102AE0008091EC07882341F187ED97E00E9456071B
:102AF0002091D5073091D6072F5F3F4F8630910543
:102B000014F486E090E00697821793070CF443C014
:102B10003093D6072093D5074091D5075091D6071B
:102B200067ED77E081E391E00E94280761E371E0BF
:102B300090E080E00E94CD0B8091D407882311F4AF
:102B40000C949D0D8FEB97E00E9456072091BD07D6
:102B50003091BE072F5F3F4F8630910514F486E019
:102B600090E0069782179307DCF03093BE0720931E
:102B7000BD074091BD075091BE076FEB77E085E23E
:102B800091E00E94280765E271E081E090E00E94F8
:102B9000CD0B0C949D0D1092D6071092D507BCCF8B
:102BA0001092BE071092BD07E4CF882361F061EA5E
:102BB00073E088EA93E00E943F0C68EE73E080E0E7
:102BC00090E00E9422030E94040162E370E080E032
:102BD00090E00E94220388E198E00FB6F894A8954F
:102BE000809360000FBE90936000FFCFFF920F9321
:102BF0001F93CF93DF93EC01F62E08811981C80152
:102C00000E94B62AF81621F06F2DC8010E94BE2A34
:102C1000CE01DF91CF911F910F91FF9008954F92B8
:102C20005F926F927F928F929F92AF92BF92CF925C
:102C3000DF92EF92FF920F931F93CF93DF93CDB765
:102C4000DEB76B970FB6F894DEBF0FBECDBF2EE098
:102C500031E0F90101900020E9F79F012F50314048
:102C60005E01FAE0AF0EB11CF50190E080E0450195
:102C700040E2821793070CF0CFC0DC01A25FBE4F89
:102C80005C915083019631968830910591F72BE144
:102C900031E0F90101900020E9F79F012C5131400A
:102CA0006E01F2E1CF0ED11CF60190E080E036011A
:102CB00040E2821793070CF0B1C0DC01A55EBE4F65
:102CC0005C915083019631968830910591F72BEAFB
:102CD00038E0F90101900020E9F79F012C5A3840B3
:102CE000CE0101967C01FC0190E080E0270140E2EA
:102CF000821793070CF094C0DC01A555B74F5C9187
:102D00005083019631968830910591F719861B8E74
:102D10001A8E6AE5CE014A960E94F61581E090E08F
:102D20009B8F8A8F65EACE014A960E94F61582E053
:102D300090E09B8F8A8F63E0CE014A960E94F61541
:102D400003E010E0F50161915F011B8F0A8FCE0156
:102D50004A960E94F6150F5F1F4F0B30110591F731
:102D6000F60161916F011B8F0A8FCE014A960E9476
:102D7000F6150F5F1F4F0331110591F7F7016191B0
:102D80007F011B8F0A8FCE014A960E94F6150F5FB6
:102D90001F4F0C31110591F79201A301B40183E09B
:102DA0000E9422051B8F0A8F682FCE014A960E942F
:102DB000F6158EEA93E00E94950A8EE091E00E945B
:102DC000950A8DEB93E00E94950A8BE191E00E94B9
:102DD000950A83EC93E00E94950A88EE91E00E94A8
:102DE000950A8BEA98E00E94870A6B960FB6F894D2
:102DF000DEBF0FBECDBFDF91CF911F910F91FF902E
:102E0000EF90DF90CF90BF90AF909F908F907F908A
:102E10006F905F904F900895408334CF408352CF9E
:102E200040836FCF1F920F920FB60F9211242F93F2
:102E30003F938F939F93AF93BF9380919508909109
:102E40009608A0919708B09198083091940823E0D3
:102E5000230F2D3758F50196A11DB11D209394081D
:102E60008093950890939608A0939708B09398083C
:102E70008091990890919A08A0919B08B0919C0824
:102E80000196A11DB11D8093990890939A08A09373
:102E90009B08B0939C08BF91AF919F918F913F91F8
:102EA0002F910F900FBE0F901F90189526E8230FBB
:102EB0000296A11DB11DD2CF1F920F920FB60F9295
:102EC00011242F933F934F935F936F937F938F932F
:102ED0009F93AF93BF93CF93EF93FF93C091E10084
:102EE0008091E100837F8093E100C3FF0FC01092C7
:102EF000E90081E08093EB001092EC0082E3809384
:102F0000ED001092AA0888E08093F000C2FF1AC07A
:102F10000E94040180910F08882341F080910F08DE
:102F2000815080930F08811101C05D9A8091A9089A
:102F3000882341F08091A90881508093A9088111CC
:102F400001C0289AC4FF23C08091E2008E7E816078
:102F50008093E2008091E1008F7E8093E100809178
:102F600010088E7E806180931008FF91EF91CF91C1
:102F7000BF91AF919F918F917F916F915F914F9191
:102F80003F912F910F900FBE0F901F901895C0FF8B
:102F9000ECCF8091E2008E7E80618093E200809190
:102FA000E1008E7E8093E100809110088E7E81602A
:102FB000DACF1F920F920FB60F921124CF92DF92A9
:102FC000EF92FF920F931F932F933F934F935F9333
:102FD0006F937F938F939F93AF93BF93EF93FF93E1
:102FE000CF93DF93CDB7DEB76C97DEBFCDBF109226
:102FF000E9008091E80083FF25C068E0CE01459696
:103000000E94180482EF8093E8008D8987FF39C001
:103010009091E80090FFFCCF982F907609F034C192
:103020009E894F89588D2F89F88C911131C0803835
:1030300061F5809111088093F1001092F1008EEFFC
:103040008093E8006C960FB6F894DEBF0FBECDBF3C
:10305000DF91CF91FF91EF91BF91AF919F918F91B0
:103060007F916F915F914F913F912F911F910F91A0
:10307000FF90EF90DF90CF900F900FBE0F901F90BA
:1030800018959EEF9093E800C7CF1092F100D5CF2E
:10309000913059F48111D3CF4130510581F680919F
:1030A00011088D7F80931108CACF933049F48111A4
:1030B000C6CF4130510519F6809111088260F2CFD8
:1030C000953041F48091E80080FFFCCF2068209388
:1030D000E300B5CF963009F0A9C00B8D1C8D22E01E
:1030E0001092E90010920D0810920C08F2122EC0F6
:1030F00010920B0810920A080E94E7031F8299E0C1
:103100009983FA8291E09E8390EA98879AEF998753
:1031100020910C0830910D08275F3F4F3C832B8393
:103120008D831092E90010920D0810920C081093F4
:103130000B0800930A0849E050E0BE016F5F7F4F23
:1031400080E00E94C1030E94E70379CF10930B082F
:1031500000930A080E944A01DC0112960D911C910D
:103160000115110509F451C1D801ED91FC910480BC
:10317000F581E02DBE016B5E7F4FC8010995009778
:1031800009F03EC1F80100851185EACFF3E0FF1296
:103190000EC08F89882309F440C0823061F440E872
:1031A00062E18DE091E00E948E03811148CF81E2BF
:1031B0008093EB0047CF813029F440E868E084E059
:1031C00091E0F1CF833099F70E944A01DC01129619
:1031D000ED90FC908E010F5F1F4F6801E114F10428
:1031E00079F0D701ED91FC910680F781E02DB801CF
:1031F000C7010995080F111DF701E084F184EECF96
:10320000D8011C92F60101900020E9F73197BF0127
:103210006C197D0940E0C601C6CF6EEE70E0FB017F
:10322000449150E080E80E94C10309CF973009F42F
:10323000BECF983021F481E08093F10000CF993027
:1032400009F0FDCE837009F0B2CFE2EEF1E081E04B
:1032500031E096E32191222371F08093E9003093CD
:10326000EB00DF0111972C912093EC009093ED007F
:103270008F5F873079F78EE78093EA001092EA003B
:103280008F898093AA08DBCE8B8D9C8D1092E900EC
:1032900010920D0810920C0890930B0880930A0866
:1032A000898D811192C08E899D89913A49F481322C
:1032B00009F07DCF47E050E065E071E080E0B3CFFA
:1032C000913209F074CF833269F48F89988DB0E020
:1032D000A0E08093010190930201A0930301B093B9
:1032E0000401ADCE803269F48091E80082FFFCCF0A
:1032F00067E085E091E00E9418048BEF8093E8007E
:103300009ECE823209F09BCE8F8980930C01EEEF26
:10331000FFE7859194918B3F9C4D51F1E0E0F8E0FF
:103320008091050190910601A0910701B0910801DB
:10333000803B9440A105B105F1F480910C0180FD22
:103340001AC0EE3F8AE0F80789F587E797E791838F
:1033500080838091600080930E0888E19BE00FB627
:10336000F894A895809360000FBE9093600067CE9C
:10337000EEEFFAE0D5CF808191818737974709F04A
:103380005ECEA895809160008861809360008091F6
:103390000E0880936000EE3F2AE0F20789F08091EA
:1033A000FE0A9091FF0A9183808349CE80819181AA
:1033B0008737980751F29093FF0A8093FE0AC5CF92
:1033C0001092FF0A1092FE0A3ACE0E944A01DC01D6
:1033D00012960D911C910115110509F4E8CED80142
:1033E000ED91FC910190F081E02DBE016B5E7F4F6D
:1033F000C8010995811123CEF80100851185EBCF15
:10340000181619060CF41BCED2CEF1E0FF12BECE78
:1034100062EF70E004CFFC01DB019D91BD019923B7
:1034200079F021918FE9820F8A3108F420528FE9D7
:10343000890F8A3108F49052291771F380E00895BA
:1034400081E00895CF93DF931092B8081092B708E7
:1034500088EE93E0A0E0B0E08093B9089093BA08BA
:10346000A093BB08B093BC0888E092E09093B608A4
:103470008093B5088FEF9FEF9093C2088093C108A7
:10348000C2E1D0E0D0935809C093570982E090E0A0
:1034900090935A09809359092FE030E030935C09EA
:1034A00020935B0990935E0980935D0961E082E15E
:1034B0000E94010261E0809159090E94010261E0CD
:1034C00080915B090E94010261E080915B090E948A
:1034D000D301D0935809C0935709E7E1F9E011925D
:1034E00089E0E735F807D9F7D0E0C0E080915D09C1
:1034F00090915E09C817D90774F540E06FE0CE01DE
:103500000E94F60780915D0990915E09C817D9075E
:103510002CF447E06BE0CE010E94F60740E069E042
:10352000CE010E94F60780915D0990915E09C8174F
:10353000D9071CF4CE010E94380880915D09909152
:103540005E09C817D9072CF440E06CE0CE010E9458
:10355000F6072196CBCF80913E01982F93709093E0
:10356000060990E09595879595958795837080934A
:103570000509DF91CF910895CF93DF93CDB7DEB7E3
:10358000C05BD1090FB6F894DEBF0FBECDBF7894F3
:1035900084B5826084BD84B5816084BD85B5826058
:1035A00085BD85B5816085BD80916E008160809309
:1035B0006E00109281008091810082608093810072
:1035C0008091810081608093810080918000816082
:1035D000809380008091910082608093910080911F
:1035E0009100816080939100809190008160809330
:1035F00090008091C10084608093C1008091C100DF
:1036000082608093C1008091C10081608093C1007D
:103610008091C30081608093C3008091C00082606C
:103620008093C0008091C20081608093C20080912D
:103630007A00846080937A0080917A00826080931F
:103640007A0080917A00816080937A0080917A007C
:10365000806880937A001092AA0810921108109244
:1036600010088091D70081608093D70080EA809312
:10367000D80089B5806189BD89B5826089BD09B4EA
:1036800000FEFDCF61E070E080E090E00E94220348
:103690008091D8008F7C80618093D8008091E00079
:1036A000807F8093E0008091E1008E7E8093E10036
:1036B0008DE08093E200559A209A0FB6F894A89571
:1036C00080916000886180936000109260000FBE5E
:1036D0008FEF9FEF9093C2088093C10861E084E070
:1036E0000E94010261E085E00E94010261E086E043
:1036F0000E94010261E08EE00E94010261E080E12F
:103700000E94010261E083E00E94010260E083E127
:103710000E94010261E084E10E94010261E085E112
:103720000E94010262E087E00E94010262E088E0FC
:103730000E94010262E089E00E94010262E08AE0E8
:103740000E94010280915D0990915E091816190688
:1037500034F441E06CE090E080E00E94F6070091D4
:103760000D0110E0B80190E080E00E94AB0880916C
:103770005D0990915E091816190624F490E080E026
:103780000E94380880915D0990915E09029734F09B
:1037900041E06CE081E090E00E94F607B80181E032
:1037A00090E00E94AB0880915D0990915E090297BC
:1037B00024F081E090E00E94380890E080E00E94D0
:1037C000CB0B182F81E090E00E94CB0B982F812F1C
:1037D0008A35954A09F40CC188EC93E00E94870A67
:1037E0000E945F0B0E940F1682EE93E00E94950AE2
:1037F00088EE91E00E94950A8BEA98E00E94870A81
:103800000E94610710928C0810928B081092150884
:1038100010921408109213080E94050987EB94E097
:103820000E94950A60913E0170E090E080E042E0E5
:103830000E94130A8CED94E00E94950A609106099B
:1038400070E090E080E042E00E94130A83EE94E092
:103850000E94950A6091050970E090E080E042E0E6
:103860000E94130A8AEE94E00E94870A8DEE94E08B
:103870000E94950A6091240170E090E080E04AE0A7
:103880000E94130A8DEF94E00E94950A609119013D
:1038900070911A0190E080E04AE00E94130A86E0ED
:1038A00095E00E94950A609117017091180190E0CF
:1038B00080E04AE00E94130A8FE095E00E94950A9A
:1038C0008EE091E00E94950A88E195E00E94950AB9
:1038D00088EE91E00E94950A8BEA98E00E94870AA0
:1038E00080E092E09F938F938EE195E09F938F937A
:1038F0001F9288E08F93FE01EF5BFF4FC655DF4FAD
:10390000F983E883CA5AD040FF93EF930E94AC2B0F
:1039100060E270E08BE191E00E94892B0FB6F89491
:10392000DEBF0FBECDBF009709F4ABC101969F93D8
:103930008F9385E295E09F938F931F9288E08F93FA
:1039400041E050E04C0F5D1F5F934F930E94AC2B02
:10395000BE016F5F7F4FCE018F5B9F4F0E943F0C78
:1039600011E0109391080E94540360938D087093A6
:103970008E0880938F089093900881E090E0909358
:103980009308809392080FB6F894DEBF0FBECDBFA8
:103990008091180881110AC066E970E080E090E02B
:1039A0000E9422030E941B0B10931808DE01AF5BDC
:1039B000BF4FC455DF4FB983A883CC5AD0401E01F6
:1039C000B1EA2B0E311C0E9454032B013C01809163
:1039D0009208909193088230910509F055C10E9498
:1039E000140D80E090E0892B71F30E940000EBCF72
:1039F00082E090E00E94CB0BD82E8E010F591F4F12
:103A0000580183E0E82EF12CC7010E94CB0BD501B1
:103A10008D935D01BFEFEB1AFB0AEBE0EE16F104AC
:103A200099F75E01F1E4AF0EB11C4501C7010E9498
:103A3000CB0BD4018D934D01BFEFEB1AFB0AE3E1F1
:103A4000EE16F10499F7D80118961C92F50110862C
:103A5000F2E0FD1508F47CC083E190E00E94CB0BFE
:103A6000F82E2EEE33E0A501B8018D2D0E9422051F
:103A7000F81639F188EF93E00E94870A0E945F0BE5
:103A80000E940F1682E194E00E94950A88EE91E070
:103A90000E94950A8BEA98E00E94870A87E294E0E8
:103AA0000E94950A8EE091E00E94950A8DEB93E0CA
:103AB0000E94950A8BE191E00E94950A83EC93E0C5
:103AC00095CEA801485F5F4F90E080E0D8012D912E
:103AD0008D01322F3F7D29F0FC01E25FFE4F2083F4
:103AE00001964017510791F7009721F0825F9E4F92
:103AF000FC011082ABE1B1E0A50190E080E0FA01A9
:103B00003191AF01232F2F7DE9F4FC01EA0DFB1D5C
:103B100021912F7DB9F4BF016A197B0968307105C5
:103B2000BCF3009711F40C94AB299C01215031098E
:103B3000F901E55EFE4F4081403211F00C94A72957
:103B4000C901EFCF01963D9388309105C1F6E9CFC9
:103B5000F3E0DF1609F185E394E00E94950A6D2DEC
:103B600070E090E080E04AE00E94130A82E594E071
:103B70000E94950A4AE063E070E080E090E00E94D5
:103B8000130A86E192E00E94060A0E945F0B0E94DF
:103B90000F1685E594E02ACE9E012F5F3F4F690105
:103BA0004901C7010E94CB0BD4018D934D01BFEF9A
:103BB000EB1AFB0AECE1EE16F10499F71A868CE198
:103BC00090E00E94CB0BF82E9601A501B80183E08E
:103BD0000E942205F81659F08EE694E00E94870AAA
:103BE0000E945F0B0E940F1686E894E0FFCDA801AB
:103BF000485F5F4F90E080E0D8012D918D01322F1A
:103C00003F7D29F0FC01E25FFE4F208301960417FF
:103C1000150791F7009721F0825F9E4FFC011082FB
:103C2000ABE1B1E0A50190E080E0FA013191AF0194
:103C3000232F2F7DE9F4FC01EA0DFB1D21912F7D3F
:103C4000B9F4BF016A197B0968307105BCF30097AC
:103C500011F40C94B3299C0121503109F901E55E5E
:103C6000FE4F4081403211F00C94AF29C901EFCFD3
:103C700001963D9388309105C1F6E9CF88EA94E03A
:103C800003CF8BE191E053CE039709F09EC10E94D0
:103C900054030091590810915A0820915B08309103
:103CA0005C086B017C01C01AD10AE20AF30AE0ED5C
:103CB000CE16E7E0DE06E104F10488F410928C08E9
:103CC00010928B0810921508109214081092130885
:103CD0000E9405096CE275E089E992E037C0F8E5D9
:103CE000CF16FBE1DF06E104F104A8F410928C0882
:103CF00010928B0810921508109214081092130855
:103D00000E940509C701B601605D774081099109EC
:103D10000E94980C66CE20E1C21627E2D206E1048A
:103D2000F104B8F48FEF9FEF90938C0880938B0889
:103D300081E080931508809314088FEF8093130817
:103D40000E94050963E375E08AE395E00E943F0C59
:103D500048CE38E9C3163AE3D306E104F10408F08B
:103D600076C010928C0810928B0810921508109251
:103D7000140880E8809313080E940509B101CE0160
:103D800087559F4F0E94B609C755DF4F4881C95AD2
:103D9000D04050E0FE01EF57FF4F27E030E0CF0169
:103DA000BA01022E02C0759567950A94E2F760FF8A
:103DB0004AC061E36193215031092130310581F717
:103DC000DC0116961C92F101408150E0FE01EF5992
:103DD000FF4F27E030E0BF01DA01022E02C0B595A7
:103DE000A7950A94E2F7A0FF30C0A1E3A193215068
:103DF00031092130310581F7DB0116961C920E94B2
:103E00003F0CC755DF4F6881C95AD040CE018F5B48
:103E10009F4F0E94C007F1016081CE0101960E9470
:103E2000C00781E495E00E94950ACE018F5B9F4F09
:103E30000E94950A8BE495E00E94950ACE010196B6
:103E40000E94870ACECD60E3B5CFA0E3CFCFF0E2EA
:103E5000CF16FEE4DF06E104F10478F460EA72E0D4
:103E60008EE693E00E943F0CC701B60168597A4381
:103E7000810991090E943609B4CD28EAC21621E6CB
:103E8000D206E104F10410F510928C0810928B0810
:103E9000109215081092140880E8809313080E946D
:103EA000050960EA72E088E493E030EFC31635E577
:103EB000D306E104F10408F449CFC701B601685004
:103EC0007245810991090E9473088BCD40E3C416A5
:103ED00045E7D406E104F104F8F460EA72E085E70E
:103EE00093E00E943F0C8FEF9FEF90938C0880939C
:103EF0008B0881E080931508809314088FEF8093DE
:103F000013080E940509C701B601685A7146810964
:103F100091090E94BA0865CD58EEC51650E8D5063D
:103F2000E104F10480F410928C0810928B08109236
:103F300015081092140880E8809313080E94050960
:103F400061E575E0C9CE80910D010E94F0081092E4
:103F50008C0810928B081092150810921408109279
:103F600013080E94050961EF73E0CB010E943F0C2A
:103F700080911208882311F10E94050961EF73E016
:103F8000CB010E943F0C61EF73E090E080E00E9463
:103F9000CD0B61EF73E081E090E00E94CD0B82E0F9
:103FA00090E09093930880939208109216081092D4
:103FB000120810925D0888E595E042CF81E090E01C
:103FC0009093930880939208F4CF8091910888236E
:103FD000E1F080918D0890918E08A0918F08B091AA
:103FE0009008A3019201281B390B4A0B5B0BDA01E5
:103FF000C90188389341A105B10538F010929108A4
:1040000061EF73E0CB010E943F0C85EB98E00E94CA
:1040100008058C01892B11F40C94342885EB98E069
:104020000E94C6048D3089F38A3009F48BE3E9E1FC
:10403000F8E001900020E9F7EA51F840EF33F1058C
:1040400020F4E75EF74F808311826BE370E089E133
:1040500098E00E94892B0097C1F2DC011C92A9E133
:10406000B8E0AD014F5F5F4F2C912032A9F07E0187
:10407000E1E8EE0EF11C970170E060E0DE2CCF2C41
:104080004D91442359F06F31710541F0F90141938D
:104090009F016F5F7F4FF4CFDA01E3CFFB01EE0D9D
:1040A000FF1D1082EE16FF0619F022912032C9F38F
:1040B000BC016F5F7F4FDB010D900020E9F7AD0180
:1040C000461B570B89E198E00E94702BF701808115
:1040D000882309F4BACFFE01EF59FF4F90E080E04A
:1040E0008F01D7012D917D01222359F08F31910548
:1040F00041F03FE9320F3A3108F420522193019602
:10410000F0CF800F911FFC01108267E675E0C801B7
:104110000E94942B892B79F06BE675E0C8010E9410
:10412000942B892B41F063E775E0C8010E94942B22
:10413000892B09F05BC00E941B0B81E0809318085B
:1041400080E092E09F938F938EE195E09F938F9311
:104150001F9288E08F93C555DF4FF881CB5AD0402E
:10416000FF93C655DF4F2881CA5AD0402F930E9433
:10417000AC2B60E270E08BE191E00E94892B0FB6DE
:10418000F894DEBF0FBECDBF009769F101969F93F3
:104190008F9385E295E09F938F931F9288E08F9392
:1041A00081E090E08C0F9D1F9F938F930E94AC2B1A
:1041B000BE016F5F7F4FCE018F5B9F4F0E943F0C10
:1041C00081E0809391080E94540360938D0870935E
:1041D0008E0880938F08909390080FB6F894DEBFF6
:1041E0000FBECDBF32CF8BE191E0D1CF69E775E053
:1041F000C8010E94942B892B39F4109217088DEC7A
:1042000095E00E94870A21CF6EE775E0C8010E9401
:10421000942B892BF9F482E895E00E94950A60E2DC
:1042200070E08BE191E00E94892B8C01009779F07E
:10423000FC018181882359F087E895E00E94950A66
:10424000C80101960E94950A84E696E0DACF8BE1D8
:1042500091E0F8CF69E875E0C8010E94942B892BA2
:1042600039F48FE895E00E94870A81E00E94D51515
:104270006AE975E0C8010E94942B892B19F40E9409
:104280009C0AE3CE6EE975E0C8010E94942B892B4D
:10429000E1F48091920890919308019709F0D5CEAE
:1042A00082E090E090939308809392080E945403D8
:1042B0006093590870935A0880935B0890935C0848
:1042C0001092160883EA95E09CCF6AE370E08D2D8A
:1042D0009C2D0E94892B892B09F4B7CECF92DF92B7
:1042E00084EB95E09F938F931F9280E48F9321E05E
:1042F00030E02C0F3D1F3F932F930E94AC2BAE015B
:104300004F5F5F4FC155DF4F59834883CF5AD0402D
:104310000FB6F894DEBF0FBECDBF90E080E0C15570
:10432000DF4FA881B981CF5AD040ED91C155DF4F01
:10433000B983A883CF5AD040C255DF4FE883CE5A05
:10434000D040EB3311F40C94E129EE2311F40C94DA
:104350000D2A8F3191051CF7E1E4F0E0EC0FFD1F11
:10436000E80FF91FC255DF4F2881CE5AD040208375
:104370000196D5CF6F015601F60181918032D1F3BC
:10438000811109C0C255DF4F5881CE5AD040552304
:1043900009F45BCEC2CF6AE370E0C6010E94892BAC
:1043A000009709F08EC067E675E0C6010E946805B7
:1043B00081110EC06BE675E0C6010E94680581118F
:1043C00007C063E775E0C6010E946805882359F0BD
:1043D0000E941B0BC255DF4FB881CE5AD040BB2381
:1043E00009F433CE9ACF6AE975E0C6010E946805E8
:1043F000882319F00E949C0AEDCF6EE975E0C60192
:104400000E9468058823D9F08091920890919308C2
:10441000019701F782E090E09093930880939208CF
:104420000E9454036093590870935A0880935B0864
:1044300090935C0888EB95E00E94870ACBCF64ECF0
:1044400075E0C6010E940B1A882321F284E0C80E91
:10445000D11C86019FEFC91AD90AD8018C918032EC
:10446000C1F369E775E0C8010E940B1A882329F09F
:104470001092170889EC95E0DFCF67ED75E0C80171
:104480000E940B1A882309F4A5CF8091170888236E
:10449000A9F00E940F16109217086DED75E0CB0180
:1044A0000E943F0C68EE73E080E090E00E942203DF
:1044B00083EE95E00E94870A80E0D8CE8EEE95E0EC
:1044C000BBCFDC011D92F60101900020E9F7319786
:1044D000EC15FD0529F08291803211F41082F8CF9D
:1044E0007601EFEFCE1ADE0AF70180818032C1F348
:1044F0008D01480198012F5F3F4FD8018C91803288
:1045000069F0F80101900020E9F731970E171F07B5
:1045100039F08291803221F41082F8CF8901E9CFFD
:104520006DEF75E0C7010E9468058823B1F0C801EE
:104530000E94AC0790918B08892798278927909330
:104540008C0880938B080E940509C255DF4FF881C3
:10455000CE5AD040F111E1CE78CD62E076E0C701CD
:104560000E946805882379F1C8010E94AC07209158
:104570008B0830918C082227282B30938C082093AD
:104580008B0890918A0822FF19C09111DCCFB1E00D
:10459000B0938A08B0933D0186E0E7E0F6E0A1E33E
:1045A000B1E001900D928A95E1F71092370161E335
:1045B00071E090E080E00E94CD0BC5CF992319F205
:1045C00010928A08C0CF6EE076E0C7010E946805AD
:1045D000882361F0C8010E94AC07982F91709093D6
:1045E00015088695817080931408ADCF68E176E058
:1045F000C7010E946805882381F0C8010E943F0519
:1046000097FD07C08F3F910509F02CF480931308A4
:104610009ACF80E0FBCF8FEFF9CF63E176E0C7015F
:104620000E946805882331F0C8010E943F050E945E
:10463000F0088BCF6BE176E0C7010E946805882304
:1046400009F41AC1C8010E943F057C014BE050E00B
:10465000B8018BE698E00E949D2B1092760880911D
:104660008A08882321F080913D0181116ECFF7FCEB
:1046700004C0F80180818D3281F410E000E040E058
:10468000B80190E080E00E9458080F5F1F4F06308D
:104690001105A9F71092310158CF80918B089091A4
:1046A0008C0896FF5BC0F8EEEF16F3E0FF061CF1F6
:1046B000C70164E670E00E942F2B7B01FF92EF920E
:1046C00080E296E09F938F931F9288E08F933F92B2
:1046D0002F920E94AC2BF1010FB6F894DEBF0FBEF3
:1046E000CDBF10E000E08191882389F08E32D9F3AC
:1046F0000F5F1F4FF8CF24E6E216F104FCF68AE0C4
:10470000A701849F7001859FF00C1124D7CF86E00C
:1047100090E07C01E01AF10A1E141F047CF4A7014A
:1047200060E270E081E391E00E94822BA8014A5F81
:104730005F4FB101C7018F5C9E4F05C04CE050E058
:10474000B10181E391E00E949D2B10923C0161E355
:1047500071E090E080E00E94CD0BF7CE86FF5AC05A
:104760006EE270E0C8010E94892B6C01892B19F15F
:10477000D6011D927D01C8010E943F055C01C70161
:104780000E943F057C018EE2F6018083AB2829F46C
:10479000F8E6EF16F1E0FF0698F0F12CE12CD801D5
:1047A0008D918D01882309F453C08E32C1F3BFEF80
:1047B000EB1AFB0AF4CF28E6E21621E0F2066CF7CA
:1047C00080E28093310183E4809332018DE2809313
:1047D0003301FF92EF9285E296E09F938F931F92B1
:1047E00084E08F9384E391E09F938F930E94AC2B9E
:1047F0001092370161E371E090E080E00E94CD0B00
:104800000FB6F894DEBF0FBECDBF9FCE4CE050E098
:10481000B40197CFE114F10471F440E0B70190E0E6
:1048200080E00E945808EFEFEE1AFE0AF6E0EF165D
:10483000F10499F72FCFF12CE12CD8018D918D0146
:10484000882331F08E32C9F3BFEFEB1AFB0AF5CFA4
:1048500006E010E00E191F0910161106BCF6A8019B
:1048600060E270E081E391E00E94822BA7014A5F41
:104870005F4FB401C8015FCF6AE276E0C7010E94D2
:104880006805882309F411C1C8010E943F057C0115
:104890004BE050E0B80187E798E00E949D2B109212
:1048A000820880918A08882329F080913D0188231D
:1048B00009F44BCEF7FC04C0F80180818D3281F4FD
:1048C00010E000E040E0B80181E090E00E9458086C
:1048D0000F5F1F4F06301105A9F71092250135CE45
:1048E00080918B0890918C0896FF59C0F8EEEF16D6
:1048F000F3E0FF061CF1C70164E670E00E942F2B75
:104900007B01FF92EF9280E296E09F938F931F923C
:1049100088E08F933F922F920E94AC2BF1010FB64B
:10492000F894DEBF0FBECDBF10E000E08191882378
:1049300089F08E32D9F30F5F1F4FF8CF24E6E216CD
:10494000F104FCF68AE0A701849F7001859FF00CBA
:104950001124D7CF86E090E07C01E01AF10A1E1402
:104960001F047CF4A70160E270E085E291E00E9400
:10497000822BA8014A5F5F4FB101C7018B5D9E4F3B
:1049800005C04CE050E0B10185E291E00E949D2B12
:104990001092300165E271E081E090E0DCCE86FFAC
:1049A00066C06EE270E0C8010E94892B6C01892B01
:1049B00011F1D6011D927D01C8010E943F055C01E5
:1049C000C7010E943F057C018EE2F6018083AB287F
:1049D00029F4F8E6EF16F1E0FF0690F0F12CE12C57
:1049E000D8018D918D01882351F18E32C9F3BFEF2B
:1049F000EB1AFB0AF5CF28E6E21621E0F20674F77F
:104A000080E28093250183E4809326018DE28093E8
:104A10002701FF92EF9285E296E09F938F931F927A
:104A200084E08F9388E291E09F938F930E94AC2B58
:104A300010922B0165E271E081E090E0DFCE06E0AC
:104A400010E00E191F09101611066CF4A80160E29F
:104A500070E085E291E00E94822BA7014A5F5F4FE0
:104A6000B401C8018BCF4CE050E0B4018DCFE1140C
:104A7000F10471F440E0B70181E090E00E94580831
:104A8000EFEFEE1AFE0AF6E0EF16F10499F725CFE4
:104A9000F12CE12CD8018D918D01882381F28E3289
:104AA000C9F3BFEFEB1AFB0AF5CF6FE276E0C7015F
:104AB0000E946805882339F165E376E0C8010E9409
:104AC000942B892B41F066E376E0C8010E94942B79
:104AD000892B09F03ACD69EF71E081E391E00E9402
:104AE000942B892B09F031CD62EF71E085E291E0E2
:104AF0000E94942B892B09F028CD61EF73E0CB0144
:104B00000E943F0C22CD6AE975E0C7010E9468054A
:104B100081111BCD67E675E0C7010E9468058823F7
:104B200019F00E941B0B11CD68E376E0C7010E94CB
:104B30006805882309F4DCC0F4018081882309F426
:104B400004CD8401D4018C91BFEF8B1A9B0A803273
:104B5000C1F38B33B1F3882309F4F7CC6BE370E036
:104B6000C8010E94892B4C01009711F0FC011082B2
:104B70006CE376E0C8010E940B1A882349F0F80123
:104B800001900020E9F73197E01BF10B379718F5FA
:104B900060E476E0C8010E940B1A81114DC064E404
:104BA00076E0C8010E940B1A882309F45BC0C80193
:104BB00003960E943F05843691050CF44DC0813167
:104BC00027E292070CF04BC0282F892F2093190160
:104BD00080931A0126C0D80115968C91813351F526
:104BE00082E091E0F8012681213309F090E0982BD2
:104BF000D80113968C9122E0813309F020E081E006
:104C0000F8013481313309F080E0822BF4E08F9F8A
:104C100090011124292B20933E0190930609809343
:104C200005098114910409F4C3C3D401EBE3ED93A6
:104C30004D0182CF80E0D5CFC80103960E943F0589
:104C400097FD06C0843691052CF480932401E9CFAA
:104C500080E0FBCF83E6F9CF24E680E0B7CF20E108
:104C600087E2B4CF68E476E0C8010E940B1A88237B
:104C7000C1F0C80103960E943F05843691055CF09F
:104C8000813137E2930754F4282F892F209317019D
:104C900080931801C6CF24E680E0F8CF20E187E2B8
:104CA000F5CF6EE672E0C8010E940B1A882361F00E
:104CB00048E050E0B8016C5F7F4F8EE091E00E94C9
:104CC0009D2B10921601ADCF68E472E0C8010E94DE
:104CD0000B1A882309F4A5CF48E050E0B8016D5FB6
:104CE0007F4F8BEA98E00E949D2B1092B30899CFDA
:104CF00064EC75E0C5010E940B1A882309F425CCE9
:104D0000F4E0AF0EB11C75012FEFA21AB20AD70161
:104D10008C918032C1F36CE476E0C7010E940B1ADB
:104D20008823F1F06DEE71E0C8010E94942B892B6D
:104D300071F4B1E0B093170860E576E086E596E09F
:104D40000E943F0C8CE596E00E94870AFECB67E646
:104D500076E086E596E00E943F0C8DE696E0F4CF83
:104D60006CE776E0C7010E940B1A882321F080913E
:104D70001708811159C06FE776E0C7010E940B1A2E
:104D80008111B6C069E775E0C7010E940B1A811155
:104D900004C160EE76E0C7010E940B1A882321F05F
:104DA000809117088111FEC067ED75E0C7010E9470
:104DB0000B1A811119C166E077E0C7010E940B1A36
:104DC000882309F4C2CB80911708882309F4BDCB4E
:104DD00098012F5F3F4FD8018C91803209F40BC1AD
:104DE000F80101900020E9F7CF010197801B910B9A
:104DF00031E08830910509F030E0F801AF01401B47
:104E0000510B481759070CF0F8C0332309F429C196
:104E1000219140ED420F4A3088F32F7D215431E03B
:104E2000263060F330E0EACF78010F5F1F4FF701C3
:104E300080818032C9F36EE270E0C7010E94892B45
:104E40008C01009709F451C0E816F90608F04DC02E
:104E5000D7010D900020E9F7CD0102970817190737
:104E600008F043C0F80111925F01C7010E943F059D
:104E70006C01C5010E943F052EE2D8012C939601DA
:104E8000215031092930310568F58A30910550F5F6
:104E90009F938F93DF92CF9284E896E09F938F93B6
:104EA0001F9289E08F938BE191E09F938F930E94F3
:104EB000AC2B0E946107FF92EF9285E295E09F93F1
:104EC0008F931F9288E08F933F922F920E94AC2B7A
:104ED0006EE876E0C1010E943F0C85E996E00E94F1
:104EE000870A8ECC81EA96E02FCF80EB96E02CCF1C
:104EF00080911708882309F445CFD801BD906D0132
:104F0000B0E2BB16B9F1F80101900020E9F7319742
:104F10007F01E01AF10AC70103970697D8F56DE201
:104F200070E0C8010E94892B0097A1F18C159D05A6
:104F300089F58B2DBB0C990B0E94602B21E0892BEE
:104F400009F420E06801E2E0CE0ED11CE00EF11E73
:104F5000EC14FD0489F02223E9F0D6018D916D0156
:104F6000082E000C990B0E94602B21E0892B81F701
:104F700020E0EECF8601C1CF222361F048E050E06F
:104F8000B8018EE091E00E949D2B1092160180ECFA
:104F900096E0DACE8EEC96E0D7CE1092170889EC28
:104FA00095E0D2CEC8010F5F1F4FFC012081203257
:104FB000C9F364EE76E00E946805882391F00E94B0
:104FC0000F16109217086DED75E0CB010E943F0C93
:104FD00068EE73E080E090E00E94220388EE96E0A5
:104FE00069CA85EF96E0B0CE80911708811151CA49
:104FF0008EEE95E0A9CE8901EBCE332391F1EBEA59
:10500000F8E09801285F3F4FD8018D918D019FE90D
:10501000980F963008F48052819320173107A1F73A
:105020008BEA98E01092B3089F938F9382E295E009
:105030009F938F931F9287E08F933F922F920E94AE
:10504000AC2BB10189E097E00E943F0C80E197E032
:105050000E94950A88EE91E00E94950A8BEA98E0FA
:105060003ECF8BE197E070CE80918A0890918B08BB
:1050700092FF71C0811116C081E080938A088093ED
:105080003D0186E0E7E0F6E0A1E3B1E001900D929A
:105090008A95E1F71092370161E371E090E080E0DA
:1050A0000E94CD0B8091860890918708A091880876
:1050B000B0918908A3019201281B390B4A0B5B0BA5
:1050C000DA01C9010A97A105B10510F40C94F11C8D
:1050D00040928608509287086092880870928908EA
:1050E00064E878E085E898E00E94B60980918A0833
:1050F000882309F45DC08091850880FF59C08091A4
:10510000830880FD55C080913D0191E089278093FF
:105110003D01882309F4D0C086E0E7E0F6E0A1E392
:10512000B1E001900D928A95E1F71092370161E3A9
:1051300071E090E080E00E94CD0B80917708882399
:10514000B9F1E7E7F8E08191882359F08E32D9F37D
:105150000F5F1F4FF8CF882309F4A4CF10928A085D
:10516000A1CF86E090E07C01E01AF10A4CE050E02B
:1051700067E778E085E291E01E141F047CF4A70144
:1051800060E270E085E291E00E94822BA8014A5F14
:105190005F4F67E778E0C7018B5D9E4F0E949D2BB4
:1051A0001092300165E271E081E090E00E94CD0B49
:1051B0002091850880918308281306C09091840867
:1051C00080916A08981741F180916608909167086C
:1051D000A0916808B0916908B301A201481B590B5E
:1051E0006A0B7B0B8091240190E0B0E0A0E04817AF
:1051F00059076A077B0780F040926608509267085B
:1052000060926808709269082093830880918408EE
:1052100080936A080E949C0A80918508823029F454
:1052200081E090918408913109F080E0209192080A
:10523000309193082130310509F084C0882309F4A6
:1052400083C080915D08811117C082E090E0909347
:105250009308809392080E945403609359087093B6
:105260005A0880935B0890935C0888EB95E00E9455
:10527000870A81E080935D080E9434060E948205BF
:1052800020916408309165088091620890916308CC
:105290002817390769F420916008309161088091DE
:1052A0005E0890915F082817390711F40C94F11CDF
:1052B0000E949C0A0C94F11C86E0E7E0F6E0A5E26F
:1052C000B1E001900D928A95E1F710922B0165E211
:1052D00071E081E090E00E94CD0B80916B08882303
:1052E00009F466CFEBE6F8E08191882329F08E324D
:1052F000D9F30F5F1F4FF8CF86E090E07C01E01AF2
:10530000F10A4CE050E06BE678E081E391E01E1496
:105310001F047CF4A70160E270E081E391E00E9449
:10532000822BA8014A5F5F4F6BE678E0C7018F5C74
:105330009E4F0E949D2B10923C0161E371E090E032
:1053400080E034CF811198CF10925D0895CF855EB3
:105350009E4FDC011C920E9461070C943E1D855EED
:105360009E4FFC0110820E946107A601485F5F4FBB
:1053700090E080E0D6012D916D01322F3F7D29F024
:10538000FC01E555F74F208301964C155D0591F71B
:10539000FC01E555F74F1082892B11F00C943E1E4D
:1053A0000E945F0B0E940F1686E994E00C94441D46
:1053B000F80101900020E9F79F01215031094901CE
:1053C000BBCB009711F40C948D2121E430E02C0F1D
:1053D0003D1F820F931FDC011C92C455DF4FE881F3
:1053E000F981CC5AD04001900020E9F731979E0115
:1053F0002F5B3F4F6901C455DF4F48815981CC5A1B
:10540000D0404E175F0711F40C94BB21829180327B
:1054100011F00C94BB211082EECF009711F40C9484
:105420002520D3CF8F929F92AF92BF92CF92DF92DF
:10543000EF92FF92CF93DF93EC01688179818A81AB
:105440009B81611571058105910521F464E279ED77
:105450008BE597E02DE133EF41E050E00E94CC2A4C
:1054600049015A019B01AC01A7EAB1E40E94EB2A71
:105470006B017C01ACEEB4EFA50194010E94F92A06
:10548000C60ED71EE81EF91EF7FE06C081E0C81A38
:10549000D108E10880E8F80AC882D982EA82FB8252
:1054A000C701B6019F77DF91CF91FF90EF90DF901A
:1054B000CF90BF90AF909F908F9008958F929F92C2
:1054C000AF92BF92CF92DF92EF92FF9260913F0135
:1054D00070914001809141019091420161157105E7
:1054E0008105910521F464E279ED8BE597E02DE1EA
:1054F00033EF41E050E00E94CC2A49015A019B0160
:10550000AC01A7EAB1E40E94EB2A6B017C01ACEE8E
:10551000B4EFA50194010E94F92AC60ED71EE81E19
:10552000F91EF7FE06C081E0C81AD108E10880E83C
:10553000F80AC0923F01D0924001E0924101F092FE
:105540004201C701B6019F77FF90EF90DF90CF90A7
:10555000BF90AF909F908F90089560933F0170939C
:10556000400180934101909342010895F999FECF43
:1055700092BD81BDF89A992780B50895262FF99993
:10558000FECF1FBA92BD81BD20BD0FB6F894FA9A26
:10559000F99A0FBE01960895052E97FB1EF400940C
:1055A0000E94E32A57FD07D00E94FE2A07FC03D081
:1055B0004EF40C94E32A50954095309521953F4F39
:1055C0004F4F5F4F089590958095709561957F4FEF
:1055D0008F4F9F4F08950E94202BA59F900DB49F41
:1055E000900DA49F800D911D11240895B7FF0C9478
:1055F000EB2A0E94EB2A821B930B0895A1E21A2E3C
:10560000AA1BBB1BFD010DC0AA1FBB1FEE1FFF1F66
:10561000A217B307E407F50720F0A21BB30BE40BB6
:10562000F50B661F771F881F991F1A9469F76095FD
:105630007095809590959B01AC01BD01CF010895B7
:10564000A29FB001B39FC001A39F700D811D1124C3
:10565000911DB29F700D811D1124911D089597FB1E
:10566000072E16F4009407D077FD09D00E94492B2D
:1056700007FC05D03EF4909581959F4F0895709555
:1056800061957F4F0895EE0FFF1F0590F491E02D77
:105690000994AA1BBB1B51E107C0AA1FBB1FA61779
:1056A000B70710F0A61BB70B881F991F5A95A9F7CB
:1056B00080959095BC01CD01089585FD0C94B62D83
:1056C000806291110C94B62D81568A51D8F70895B5
:1056D0009111089581568A5108F480528558089591
:1056E0006817790768F4FB01DC01E40FF51FA40FCC
:1056F000B51F02C002900E9241505040D8F7089555
:105700000C94C42DDC0101C06D9341505040E0F772
:105710000895FC018191861721F08823D9F79927F4
:1057200008953197CF010895FB01DC018D9101901F
:1057300080190110D9F3990B0895FB01DC01415048
:10574000504048F001900D920020C9F701C01D9211
:1057500041505040E0F70895AEE0B0E0E2EBFBE2EC
:105760000C94742E0D891E898F89988D26E02C83C8
:105770001A83098397FF02C080E090E801979E8317
:105780008D83AE01455E5F4F698D7A8DCE010196A6
:105790000E94DC2B4D815E8157FD0AC02F81388528
:1057A000421753070CF49A01020F131FF8011082DD
:1057B0002E96E4E00C94902EABE0B0E0E2EEFBE23B
:1057C0000C94662E7C013B018A01FC011782168233
:1057D000838181FFC8C1CE0101965C01F7019381ED
:1057E000F30193FD859193FF81913F01882309F493
:1057F00053C1853239F493FD859193FF81913F0127
:10580000853229F4B70190E00E94D82DE7CF912C82
:10581000212C312CFFE1F31538F08B3211F190F48B
:10582000803209F1833229F137FC3CC020ED280F8A
:105830002A3050F536FE20C08AE0989E200D1124B3
:10584000922E06C08D3291F0803371F7689430F853
:10585000F30193FD859193FF81913F018111DACF8F
:1058600021C0689431F8689432F8F2CF689433F824
:10587000EFCF689434F8ECCFEAE02E9E200D11248F
:10588000222E689435F8E4CF8E3229F436FC04C118
:10589000689436F8DDCF8C3619F4689437F8D8CF91
:1058A0008836B1F2982F9F7D95549330E0F083367F
:1058B000A1F18337C1F1833509F063C02801F2E01B
:1058C0004F0E511CF801C080D180692D70E036FC6C
:1058D00002C06FEF7FEFC6010E94B92D4C016894A2
:1058E00037F882010AC00C5F1F4FFFE3F983882459
:1058F0008394912C6501E89437F833FE2DC0522C27
:105900008114910471F5552009F468CFB70180E244
:1059100090E00E94D82D5A94F6CFF80180818983B7
:105920000E5F1F4FE4CF2801F2E04F0E511CF8012B
:10593000C080D180692D70E036FC02C06FEF7FEF30
:10594000C6010E94CD2D4C018201D5CFB70180E266
:1059500090E00E94D82D2A942814190409F0B0F779
:10596000CECFF60137FC859137FE81916F01B701EB
:1059700090E00E94D82D51105A94F1E08F1A9108AE
:10598000BFCF843619F0893609F077C0F80137FEA9
:105990006BC060817181828193810C5F1F4FF32DF9
:1059A000FF763F2E97FF09C0909580957095619581
:1059B0007F4F8F4F9F4F689437F82AE030E0A50162
:1059C0000E94082EC82ECA188C2C432C36FE0CC000
:1059D000E89440F8C91440F434FE05C032FC03C01A
:1059E000F32DFE7E4F2E892C44FE95C0FE01EC0D5A
:1059F000F11D8081803309F087C0242D297E422E3D
:105A0000842D8870582E43FC95C040FE8FC09C2C7E
:105A1000821418F42C0C922C981844FE91C0B701F3
:105A200080E390E00E94D82D42FE09C088E790E014
:105A300041FE02C088E590E0B7010E94D82DC9144C
:105A400008F48AC0CA94D12C9FEFC91AD90ACA0C8B
:105A5000DB1CF60182916F01B70190E00E94D82D06
:105A6000AC14BD04B1F74FCF60817181072E000CDB
:105A7000880B990B0E5F1F4F92CFD32CE894D4F86C
:105A80002AE030E0853739F1232D297FD22E8F3659
:105A900001F148F48835A9F0F701868197812B96AA
:105AA000E2E10C94822E803749F08837A9F7D4FEC2
:105AB00002C06894D2F820E130E00DC06894D4F8B8
:105AC000F6CF34FE03C0822F8660D82E20E132E06C
:105AD00002C028E030E0F801D7FE0FC0608171817C
