:100000000C943C010C9464010C9464010C94640104
:100010000C9464010C9464010C9464010C946401CC
:100020000C9464010C9464010C9469150C94D8151B
:100030000C9464010C9464010C9464010C946401AC
:100040000C9464010C9464010C9464010C9464019C
:100050000C9464010C9464010C9464010C941F15BD
:100060000C9464010C9464010C9464010C9464017C
:100070000C9464010C9464010C9464010C9464016C
:100080000C9464010C9464010C9464010C9464015C
:100090000C9464010C9464010C9464010C9464014C
:1000A0000C9464010C9464010C946401CDCCCC3D9F
:1000B0000AD7233C17B7D13877CC2B329595E62455
:1000C0001FB14F0A000020410000C84200401C46FA
:1000D00020BCBE4CCA1B0E5AAEC59D74227D007B4F
:1000E00022646973705F61636B223A22007D002293
:1000F0002C227374617465223A007B2264657669F0
:100100006365223A22007D00222C2273746174659B
:10011000223A007B22646576696365223A22496E41
:10012000707574536869667465723A007D00222C9C
:1001300022696E70757473223A00222C226677222F
:100140003A22007B22737461747573223A227265BD
:10015000616479222C2270616E656C223A22007DE6
:10016000002C22646973705F627274223A007B22F1
:1001700073657474696E6773223A00080B0002029B
:100180000200000904000001020200000524001022
:1001900001052401010104240206052406000107CB
:1001A00005810310004009040100020A0000000755
:1001B0000502024000000705830240000004030915
:1001C0000412010002EF0201404F1B0692000101E0
:1001D000020301537061726B46756E005370617259
:1001E0006B46756E2050726F204D6963726F000010
:1001F000000000240027002A002D0030000000002D
:1002000000250028002B002E0031000000000023F4
:1002100000260029002C002F000404040404030419
:100220000502020202040302020202060606060694
:100230000604040202020404040802011040804083
:1002400010204080408008020401804020100201FC
:10025000108010204040200000000200090F000024
:10026000030401000C00000000000000000000007A
:100270000000000000009D1811241FBECFEFDAE03F
:10028000DEBFCDBF12E0A0E0B1E0ECEEFCE402C0C6
:1002900005900D92A237B107D9F724E0A2E7B2E0AA
:1002A00001C01D92A03BB207E1F711E0CCE3D1E021
:1002B00004C02197FE010E94EC1FCB33D107C9F780
:1002C0000E9449190C9474260C940000CF93DF937C
:1002D000EC0188819981DC01ED91FC910190F08124
:1002E000E02D64E270E00995009741F02FE1FC01F8
:1002F000238321E02283DF91CF91089521E02A8397
:10030000FACFFC018091F703882311F13FB7F894ED
:1003100082E08093E9002091F200822F90E018168D
:10032000190614F481E090E0882339F0289844E617
:100330004093F6034091F1004083222339F020914D
:10034000F200211103C02BE62093E8003FBF08957F
:100350008FEF9FEF08952FB7F89483E08093E90023
:100360009091E800892F807295FF04C09091F2006F
:1003700080E4891B2FBF08958091EE0381110DC089
:1003800082E08093EA0384E08093EB031092ED0314
:100390001092EC0381E08093EE038AEE93E00895DF
:1003A00081508F3008F047C0E82FF0E0E652FE4F52
:1003B0000C94EC1FF701FB01E901EF01F3011B02B3
:1003C0001B021B02FE01040208020C0212021B02A5
:1003D0001602809180008F7780938000089580912D
:1003E00080008F7DF9CF80918000877FF5CF84B525
:1003F0008F7784BD089584B58F7DFBCF8091900069
:100400008F77809390000895809190008F7DF9CF31
:1004100080919000877FF5CF8091C0008F77809387
:10042000C00008958091C0008F7DF9CF8091C200F7
:10043000877F8093C2000895CF93DF93282F30E009
:10044000F901E95AFD4F8491F901E85CFD4FD4911F
:10045000F901E75EFD4FC491CC23A1F081110E9408
:10046000D001EC2FF0E0EE0FFF1FE55FFD4FA591EF
:10047000B491EC91ED2381E090E009F480E0DF910C
:10048000CF91089580E090E0FACF1F93CF93DF9350
:10049000282F30E0F901E95AFD4F8491F901E85C19
:1004A000FD4FD491F901E75EFD4FC491CC23A9F033
:1004B000162F81110E94D001EC2FF0E0EE0FFF1FEC
:1004C000E350FE4FA591B4918FB7F894EC911111C0
:1004D00008C0D095DE23DC938FBFDF91CF911F91B1
:1004E0000895DE2BF8CFCF93DF9390E0FC01E85C1A
:1004F000FD4F2491875E9D4FFC0184918823D1F0AC
:1005000090E0880F991FFC01E151FE4FA591B49135
:10051000FC01E350FE4FC591D491623071F49FB756
:10052000F8943C91822F809583238C93E8812E2B25
:1005300028839FBFDF91CF9108958FB7F894EC91F6
:100540002E2B2C938FBFF6CF3FB7F8948091E60304
:100550009091E703A091E803B091E90326B5A89B29
:1005600005C02F3F19F00196A11DB11D3FBFBA2F45
:10057000A92F982F8827BC01CD01620F711D811D05
:10058000911D42E0660F771F881F991F4A95D1F78A
:1005900008958F929F92AF92BF92CF92DF92EF9287
:1005A000FF924B015C010E94A4026B017C010E943E
:1005B000A4026C197D098E099F09683E734081056C
:1005C0009105A8F321E0821A9108A108B10888EEEC
:1005D000C80E83E0D81EE11CF11C81149104A10413
:1005E000B10429F7FF90EF90DF90CF90BF90AF90CC
:1005F0009F908F9008952FB7F8946091E2037091C7
:10060000E3038091E4039091E5032FBF08954091A7
:10061000A0025091A10220919E0230919F024217A8
:100620005307B4F49091E8009570E1F39091E800DD
:1006300092FD19C08093F1008091A0029091A102D7
:1006400001968F739927892B19F48EEF8093E80018
:100650008091A0029091A10201969093A1028093B3
:10066000A00281E0089580E00895EF92FF920F9339
:100670001F93CF93DF93F82E192FE62E042F81E0DE
:10068000860F880F0E94070383E00E940703CF2D87
:10069000D12FEC0EFD2EF11CCE15DF05B9F007FFB2
:1006A00013C0FE0184910E940703182F80E00E946E
:1006B0000703812321968111EFCFDF91CF911F9105
:1006C0000F91FF90EF9008958881EDCF81E0F5CFF5
:1006D000DF92EF92FF920F931F93CF93DF93D82E69
:1006E0008A01EB017B01E40EF51ECE15DF0559F002
:1006F000D7FE12C0FE0184910E940703219681114A
:10070000F4CF0FEF1FEFC801DF91CF911F910F9131
:10071000FF90EF90DF9008958881EECF0F931F93A5
:10072000CF93DF931F92CDB7DEB782E0898342E497
:1007300050E06BE771E080E80E9468030E94BC0112
:10074000DC0112960D911C910115110589F0D8015B
:10075000ED91FC910280F381E02DBE016F5F7F4F30
:10076000C801099597FD04C0F80100851185ECCFFB
:1007700089810F90DF91CF911F910F910895615062
:1007800030F02091F100FC0120830196F8CF2898E9
:1007900084E68093F60308958F929F92AF92BF9262
:1007A000CF92DF92EF92FF920F931F93CF93DF933D
:1007B0006C017B018A0180910B01882309F45CC0E4
:1007C0008091F703882309F457C08091A40280FF29
:1007D00005C08091E00082608093E000E801B12CC8
:1007E0008AEFA82E93E0892E2AE3922E209711F407
:1007F000BB20D9F10E94AB0181110AC0AA94AA20A2
:10080000D9F161E070E080E090E00E94C902EECF93
:100810008C171D0611F00CF08C2F9FB7F894809266
:10082000E9002091E80025FD02C09FBFDFCF282FFF
:1008300030E0C21BD30BF701815020F0419140936F
:10084000F100FACFE20EF31EBB2021F09092E800F7
:10085000B12CEBCF8091E80085FDE7CF9092E800C6
:10086000BB24B394209709F3F3CF5D9884E680937B
:10087000A302101611063CF081E090E0F60193838C
:10088000828310E000E0C801DF91CF911F910F91AA
:10089000FF90EF90DF90CF90BF90AF909F908F90A0
:1008A0000895CF93DF931F92CDB7DEB76983DC0144
:1008B000ED91FC910280F381E02D41E050E0BE011A
:1008C0006F5F7F4F09950F90DF91CF9108950F9340
:1008D0001F93CF93DF938C01D0E0C0E0F801EC0FC1
:1008E000FD1F6491662341F088EF93E00E9451045C
:1008F000892B11F02196F2CFCE01DF91CF911F917C
:100900000F91089583E08093E9008091F20088239D
:1009100019F08AE38093E80008950E94AB0190E00B
:100920000895CF93DF931F92CDB7DEB7FC01848586
:10093000958597FD08C02FEF3FEF358724870F90EF
:10094000DF91CF910895CE0101960E948101019718
:1009500019F4898190E0F3CF8FEF9FEFF0CF0F93E1
:100960001F93CF93DF931F92CDB7DEB78C01FC01AD
:100970008485958597FF0BC0CE0101960E94810169
:10098000019771F4898190E0F80195878487F801D7
:10099000848595850F90DF91CF911F910F910895D8
:1009A0008FEF9FEFF1CFFC018485958597FD0BC0FC
:1009B0009FB7F89482E08093E9008091F2009FBF96
:1009C00090E0019608959FB7F89482E08093E90043
:1009D0008091F2009FBF90E00895FC01892B29F0DF
:1009E00084818A3021F08C3069F080E00AC081E097
:1009F00040815181628173814115504861057105C3
:100A0000A0F70895408151816281738150586F4FE2
:100A10007F4F81E0411551056140710590F3E5CFAD
:100A20006F3FA9F0E62FE295EF7044E0E49F90015C
:100A30001124DC01ED91FC91E20FF31F6F708281B4
:100A40009381B6E06B9F800D911D1124089590E075
:100A500080E00895982F80336CF08A3324F08F352E
:100A600024F08B3724F481E0089581341CF081E078
:100A70009B350CF080E00895FC01828581110AC04D
:100A8000A781B085CD010196908787838C9181875E
:100A900081E08287818508951F93CF93DF93EC01D6
:100AA000162F0E943C05811306C01A8681E0DF9153
:100AB000CF911F91089580E0FACF0F931F93CF93AA
:100AC000DF938C01EB018991882369F0C8010E94B2
:100AD0003C05882379F0FE013197908198130DC071
:100AE000F8011286F0CF90E080E0DF91CF911F9166
:100AF0000F91089582E090E0F8CF83E090E0F5CF89
:100B0000CF93DF93EC01CE010E943C058B304CF477
:100B100089305CF4882359F081E08E8390E080E096
:100B20000BC08D3011F08032B9F71A86ECCF8E8170
:100B3000811105C081E090E0DF91CF91089582E0BE
:100B400090E0FACFDC0152969C915297915084E04C
:100B5000989F900111245096ED91FC91E20FF31FA4
:100B6000228133812115310579F041818081481737
:100B700058F481E0840F818386E0489F200D311D69
:100B800011242115310521F460E070E08FEF089504
:100B9000B901892F8295807F840F0895DF92EF92AB
:100BA000FF920F931F93CF93DF93EC017B01D12C26
:100BB000688979898A89D816E0F484E0D89E800112
:100BC0001124060F171FD80112966D917C916115A3
:100BD000710541F0D701ED91FC910280F381E02D88
:100BE000C7010995F8011382128210821182D394F1
:100BF000DFCF1A8A8FEF8C8BC617D70761F0D7012A
:100C0000ED91FC910280F381E02DC7010995D98B0C
:100C1000C88B84E08B8BDF91CF911F910F91FF9058
:100C2000EF90DF9008954F925F926F927F928F9234
:100C30009F92AF92BF92CF92DF92EF92FF920F936B
:100C40001F93CF93DF9300D000D01F92CDB7DEB7B4
:100C5000DC012C912B32E1F12D32D9F50196EE24F5
:100C6000E394FC01208130ED320F3A3010F02E3247
:100C700091F58C0160E070E0CB01F801219130ED3D
:100C8000832E820E39E0381508F444C06A3949E9E8
:100C90007407840749E1940708F046C0AAE0B0E071
:100CA0009B01AC010E940C20912CB12CA12C2401A1
:100CB0003501409450946094709446165706680627
:100CC000790690F1680D791D8A1D9B1D8F01D5CF86
:100CD0000196E12CC6CF198229813A814B815C8132
:100CE0006D8170E080E090E00F900F900F900F907A
:100CF0000F90DF91CF911F910F91FF90EF90DF90B8
:100D0000CF90BF90AF909F908F907F906F905F90AB
:100D10004F900895211108C0EE2051F16130710506
:100D2000810550E89507A0F0F12CBAE08B2E912CAC
:100D3000A12CB12C6115710530E883079105F8F0FD
:100D4000A50194010E94CA1FCA01B901F394F2CF10
:100D500022E029839B01AC0188279927DC01821BB3
:100D6000930BA40BB50B8A839B83AC83BD83B4CF59
:100D700023E029836A837B838C839D83ADCFF80135
:100D8000D8012D918D0130ED320F3A3010F4F394EB
:100D9000F6CF2E3201F58F010F5F1F4FF8010F5F65
:100DA0001F4F2081A0EDDA2ED20EB9E0BD1598F0CC
:100DB0006C3CECEC7E07ECE08E07910578F7AAE03E
:100DC000B0E09B01AC010E940C206D0D711D811DD6
:100DD000911DFA94E3CF20812F7D10E000E02534AF
:100DE00009F050C021812D32B1F53296CC24C39444
:100DF000DF0110E000E02F2D0F2C000C330BEAE098
:100E0000BE2EFD01DD9040ED4D0D4A30B0F5B09E97
:100E1000A001B19E500D11240D2DDD0C110B0053BE
:100E20001109040F151FA801420F531F4732510526
:100E300044F3CC20B9F080E090E0A0E0B0E8E1100D
:100E400003C080E090E0DC0121E029838A839B835A
:100E5000AC83BD8341CF2B3219F03196C12CC8CF62
:100E60003296FCCF80E090E0A0E8BFEFE110ECCF3D
:100E700080E090E0A0E8BFE7E7CFCC2019F0119523
:100E8000019511092081211126CF0F0D111DF7FCAD
:100E90001A950E94612044ECA42E40E0B42E101656
:100EA00011063CF01195019511095CEAA52E50E060
:100EB000B52ED12CC12C01151105E9F0F6E0CF16A5
:100EC000D104A9F000FF0DC0F601EE0FFF1FEE0FD9
:100ED000FF1FEA0DFB1D25913591459154910E940C
:100EE000F020159507952FEFC21AD20AE4CF60E0E3
:100EF00070E080EC9FE7E110905821E029836A833D
:100F00007B838C839D83E8CECF92DF92EF92FF921A
:100F10000F931F93CF93DF937C016B018A01FC0138
:100F2000C081D1814F3F510509F0B0F4E881F981CA
:100F30000480F581E02D4B5F5F4FCE01099500974E
:100F400059F0FC010383DF91CF911F910F91FF9026
:100F5000EF90DF90CF900895E881F9810280F381CE
:100F6000E02DB601CE01099581E0F701828390E082
:100F700080E0E9CF1F93CF93DF93EC01162F6A81B6
:100F80007B816115710589F04C815D81FB01838155
:100F90008417150651F4440F551F4F5F5F4F88812A
:100FA00099810E9484079B838A838A819B81009711
:100FB00059F02C813D81A9014F5F5F4F5D834C83C8
:100FC000820F931FFC011483DF91CF911F9108952D
:100FD0009F92AF92BF92CF92DF92EF92FF920F93C8
:100FE0001F93CF93DF9300D000D01F92CDB7DEB711
:100FF0008C010E943C05D82EF8011286F12CE12CC0
:1010000060EFC62EC8010E943C05F8011286D81672
:1010100009F4B3C0811113C082E090E00F900F90EB
:101020000F900F900F90DF91CF911F910F91FF9034
:10103000EF90DF90CF90BF90AF909F9008958C3548
:1010400009F099C0C8010E943C05882329F3EAE809
:10105000F1E0853709F083C0F801128654E0952E3F
:10106000B12CA12CC8010E943C058823A9F281342F
:1010700034F48053803130F083E090E0CFCF8F7D27
:101080008753F8CF44E0AA0CBB1C4A95E1F7A82A85
:10109000F80112869A949110E5CFC501985D8115EB
:1010A000944020F47501F3E0FF22ACCFC5019C5DB4
:1010B00081159440A8F483E0B822B701762F662703
:1010C000770F770F6A297B2990E080E001966038DE
:1010D00071058105910540F4C8010E94BA0792CFBD
:1010E000B50190E080E0F3CF1982262F2F7320689E
:1010F0002A8326E096958795779567952A95D1F767
:101100006032710580F4606C6B835E01E4E0AE0ECA
:10111000B11CF50162915F01662309F473CFC80128
:101120000E94BA07F6CF262F2F7320682B8386E004
:10113000769567958A95E1F76031710538F4606EB0
:101140006C835E01F5E0AF0EB11CE3CF60686C8389
:10115000CD825E0126E0A20EB11CDBCF32969081DB
:10116000992309F489CF8913F9CF8181882309F460
:1011700083CFF8011286682FAFCF82819381892BAC
:1011800019F484E090E04ACF90E080E047CF6F927E
:101190007F928F929F92AF92BF92CF92DF92EF9207
:1011A000FF920F931F93CF93DF93EC012A813B8132
:1011B0002C5F3F4F4C815D814430510588F589019A
:1011C000F90180E0942FB22FAE2FA21BA91730F4A3
:1011D000F190A1E0F110A0E08A2BF6CF811120C0A0
:1011E00082E0EB018C83FB01802F8B1B891728F495
:1011F000E80189918E018193F7CF640F751FFB0180
:101200001082DF91CF911F910F91FF90EF90DF90AF
:10121000CF90BF90AF909F908F907F906F900895E8
:101220008B01F901E40FF51F1082888199814C81AF
:101230005D81DC011396ED91FC913A01E89477F819
:101240006901C60CD71C3097C1F0A381A6151704FD
:1012500081F449017F01B4E0EB0EF11C8C149D0474
:1012600029F1D401AD904D01D701BD907D01AB14A2
:10127000A9F30190F081E02DE6CF6A817B810E9485
:101280008407FC01A881B98113968D919C911497D4
:10129000918380831496FC93EE9313971B821A829A
:1012A00085E0E8018C83F983E883ABCF82818F5F8F
:1012B0008283F6CFDB01ED91FC9111970280F381DF
:1012C000E02DBC01CD010994AF92BF92CF92DF9285
:1012D000EF92FF920F931F93CF93DF93EC018B015B
:1012E0008C8180FF24C0A881B981FB018381948116
:1012F00030E020E00097D9F0A817B907D1F5F80140
:101300006081718112968C911297815012968C9304
:10131000129781110CC08D919C9111972115310567
:1013200029F1F90191838083CD010E945A098C81B2
:10133000807631F1209721F1F8805801F5E1AF0E68
:10134000B11C8FEFF816D1F06F2DC5010E9410056A
:101350006C01FC01E580B8010E946409F801818DEF
:10136000F6018083F801F18EFE2CEBCF948383830A
:10137000DBCF9C01FC0180819181BCCFF882F98296
:101380001C82DF91CF911F910F91FF90EF90DF9022
:10139000CF90BF90AF9008950F931F93CF93DF939B
:1013A000EC01088119818B819C81009749F0FC0137
:1013B000208131813C832B83B8010E945A09F3CFED
:1013C00068817981CE010596DF91CF911F910F91B0
:1013D0000C94CE050F931F93CF93DF93082F162FF6
:1013E000D42FC8E06D2F661F6627661F802F0E94CE
:1013F0004502DD0F61E0812F0E94450260E0812FF0
:101400000E944502C15071F7DF91CF911F910F915A
:1014100008950F931F93CF93DF9300D0CDB7DEB71E
:1014200069834A83880F991F00919E0410919F043D
:10143000000F111FE8E4F4E09F0128543440201706
:10144000310714F41192F8CF2981FC01E85BFB4FBE
:1014500021838A81808360E080919C040E94450200
:10146000101611066CF401501109F801E85BFB4FEE
:10147000408160919A04809198040E94EA09F0CF1B
:1014800061E080919C040F900F90DF91CF911F91AC
:101490000F910C94450220919E0430919F04821775
:1014A00093073CF46031710524F4462F6AE00C94F4
:1014B000090A08950F931F93CF938F70809316019D
:1014C000C0E0082F10E08091AB04C81738F4B801D1
:1014D0008C2F90E00E944B0ACF5FF5CFCF911F91E8
:1014E0000F910895EF92FF920F931F93CF937C017A
:1014F0008C0183E0000F111F8A95E1F7085A1B4FFA
:10150000C1E0F80111928F0140E06C2FC7010E94E9
:10151000090ACF5FC930A9F7CF911F910F91FF90B2
:10152000EF900895CF93C62F60E08091A4040E94AD
:1015300045028091A704893038F040E06091A5040D
:101540008091A6040E94EA094C2F6091A504809125
:10155000A6040E94EA0961E08091A404CF910C9452
:101560004502CF93DF936091C80370E090E080E084
:101570000E94920AC091C002CC23A1F0C09561E004
:1015800083E00E947302C1110FC060E083E00E94FB
:1015900045026091C70381E0682787E0DF91CF9122
:1015A0000C944502CFEFEBCFCF3F11F461E0EECFCB
:1015B000EAE5F2E0E491E150EF3008F082C0F0E0BB
:1015C000EC51F54F0C94EC1FF30AF80AFD0A080BD6
:1015D000130B610B610B610B1E0B290B340B3F0BC3
:1015E0004C0B610B540B84B5806884BDC7BDD1CF53
:1015F00084B5806284BDC8BDCCCF809180008068F6
:1016000080938000D0E0D0938900C0938800C1CF40
:1016100080918000806280938000D0E0D0938B0026
:10162000C0938A00B6CF809180008860809380004C
:10163000D0E0D0938D00C0938C00ABCF8091900010
:10164000806880939000D0E0D0939900C093980078
:10165000A0CF80919000806280939000D0E0D093E2
:101660009B00C0939A0095CF8091900088608093F2
:101670009000D0E0D0939D00C0939C008ACF8091D1
:10168000C00080688093C0008091C0008F7B8093F1
:10169000C000C093CF007DCF8091C0008062809356
:1016A000C000C093D00075CF8091C2008860809345
:1016B000C2008091C2008B7F8093C200C093D20091
:1016C00068CFC7FD73CF61CFCF9361E08091A8044D
:1016D0000E94730261E08091A9040E94730261E09C
:1016E0008091AA040E94730260E08091AA040E9483
:1016F0004502C0E08091AB04C81780F44FE06091D0
:10170000A9048091A8040E94EA0940E06091A9041C
:101710008091A8040E94EA09CF5FECCF61E080913C
:10172000AA04CF910C944502FF920F931F93CF937D
:10173000DF93F82E062FC7E0D0E010E061E0802FA5
:101740000E9445028F2D0E941C020C2E01C0880FA2
:101750000A94EAF7182B60E0802F0E944502219737
:1017600068F7812FDF91CF911F910F91FF9008951E
:10177000EF92FF920F931F93CF93DF9360E08091DE
:10178000A0040E9445020BE410E0C8010197F1F7A4
:1017900061E08091A0040E944502C8010197F1F721
:1017A0006091A1048091A2040E94940BC82F6091C3
:1017B000A1048091A2040E94940BD82FC09560E0F0
:1017C0008091A0040E944502C8010197F1F761E0F1
:1017D0008091A0040E944502C8010197F1F710E131
:1017E0008FE0E82EF12C60E08091A1040E94450278
:1017F000C7010197F1F761E08091A1040E944502C1
:10180000C7010197F1F7115071F76C2F70E090E06C
:1018100080E02091A304293010F0D0957D2BDF913A
:10182000CF911F910F91FF90EF900895FC010190CF
:101830000020E9F73197AF01481B590BBC0188EF35
:1018400093E00C94CC03CF93DF930E946704EC01E8
:101850008DE991E00E94160C8C0F9D1FDF91CF91B6
:1018600008958F929F92AF92BF920F931F93CF9341
:10187000DF93CDB7DEB7A1970FB6F894DEBF0FBEEA
:10188000CDBF19A2423008F44AE08E010F5D1F4F10
:10189000842E912CB12CA12CA50194010E94CA1F69
:1018A000E62FB901CA01EA30F4F4E05DD801EE9305
:1018B0008D01232B242B252B79F790E080E01097C6
:1018C00019F0CD010E94160CA1960FB6F894DEBF58
:1018D0000FBECDBFDF91CF911F910F91BF90AF9001
:1018E0009F908F900895E95CE1CFCF92DF92EF92C5
:1018F000FF92CF93DF9397FF1BC06B017C016DE2DA
:1019000088EF93E00E945104EC0166277727CB0112
:101910006C197D098E099F094AE00E94310C8C0FD9
:101920009D1FDF91CF91FF90EF90DF90CF900895B2
:101930004AE0DF91CF91FF90EF90DF90CF900C9431
:10194000310CCF93C82F8EE691E00E9467046C2F74
:1019500070E090E080E00E94750C81E691E00E94CA
:1019600067046091130170E090E080E04AE00E941B
:10197000310C8FE591E0CF910C94230CCF93DF9342
:10198000D82FC62F83E191E00E9467046D2F70E08D
:1019900090E080E04AE00E94310C88E091E00E94F3
:1019A00067046C2F70E090E080E00E94750C86E088
:1019B00091E0DF91CF910C94230C0F931F93CF9361
:1019C0008C01C62F8AEF90E00E9467040115110573
:1019D00019F0C8010E94160C8FEE90E00E94670477
:1019E0006C2F70E090E080E00E94750C8DEE90E02E
:1019F000CF911F910F910C94230C83E491E00E94EE
:101A0000670480EA91E00E94160C8AE391E00E944C
:101A1000670489EA91E00E94160C8EE291E00E9430
:101A2000670460E170E080E090E00E94750C8CE259
:101A300091E00C94230CFC0184818430B1F085305A
:101A400049F1823079F530E020E0309749F0DF014C
:101A50000D900020E9F79D01215031092E1B3F0B0D
:101A6000BF01C9019F779F7708950190F081E02D14
:101A700030E020E0309749F0DF010D900020E9F7D9
:101A80009D01215031092E1B3F0BBF01C9019F77DA
:101A90009068089580819181FC01238130E0049653
:101AA000BC01DFCF60E070E080E090E0F1CFBF925A
:101AB000CF92DF92EF92FF920F931F93CF93DF931A
:101AC000D62EC72E8A01452B09F442C0E90165963E
:101AD000FC016081CE010E941005FF24FA9400975A
:101AE00011F0FC01F580EE24E394BB24B39400973D
:101AF00079F1EE20B1F00E941B0D2D2D3C2D3F778A
:101B0000AC015F772417350761F4D801E62FF72F72
:101B1000200F311F2A173B0771F09D918191981773
:101B2000C9F3EB246F2DCE010E9410050097F9F246
:101B3000FC01F580DCCF6F2DCE01DF91CF911F919D
:101B40000F91FF90EF90DF90CF90BF900C94100515
:101B500090E080E0DF91CF911F910F91FF90EF9087
:101B6000DF90CF90BF900895FC0120813181C901A1
:101B70004A964281538164817581009759F0D90159
:101B80005E96EC91E03211F090E080E0009711F069
:101B90000C94570D90E080E00895CF92DF92EF9281
:101BA000FF92CF93DF9300D000D01F92CDB7DEB766
:101BB0000E94B40DDC01009709F446C01496EC9124
:101BC0001497E250ED3008F03FC0F0E0E651F24FDC
:101BD0000C94EC1F290E240E270E3A0EF70D240E3E
:101BE000240E240E060E240E130E240E3E0E6C91AF
:101BF00070E0CB010F900F900F900F900F90DF913E
:101C0000CF91FF90EF90DF90CF9008958D919D91AF
:101C10000D90BC91A02D811520E89207A105B1057A
:101C200098F4BC01E6CF8D919D910D90BC91A02DB3
:101C30006C017D0120E8D20EE11CF11CC114D1041D
:101C400021E0E206F10468F370E060E0D2CF8D910C
:101C50009C910E9413063A834B835C836D83CA80F8
:101C6000DB80EC80FD80223031F1233081F12130A6
:101C700059F708C08D919C910496EBCFCD90DD90E3
:101C8000ED90FC9020E030E040E057ECC701B60159
:101C90000E94EB2087FDD8CF20E03EEF4FEF56E4C7
:101CA000C701B6010E942620181674F2C701B601BA
:101CB0000E942B209ECFD701C6019058AF4FBF4F37
:101CC0000097A140B10508F0BFCFB60192CFC11473
:101CD00080E8D806E104F104C0F3B6CF4F925F92DA
:101CE0006F927F928F929F92AF92BF92CF92DF922C
:101CF000EF92FF920F931F93CF93DF939091AB04DA
:101D0000891708F044C06115710509F440C06B01E2
:101D1000C82FD0E080919E0490919F04C817D907E6
:101D20002CF441E06CE0CE010E94090A609116019A
:101D30006F7070E0CE010E944B0AF6010190002006
:101D4000E9F731972F014C185D083E0183E0660CDE
:101D5000771C8A95E1F704E010E0F12CE12C8090EB
:101D60009E0490909F04E414F50414F1C815D9055D
:101D70005CF4F801E60DF71DE85BFB4F178640E0C9
:101D8000602FCE010E94090A0150110941F7DF912D
:101D9000CF911F910F91FF90EF90DF90CF90BF9068
:101DA000AF909F908F907F906F905F904F9008952D
:101DB00057018FEFA81AB80AF601EE0DFF1D8081BA
:101DC00090E00E946723805240E0803328F4E82F9F
:101DD000F0E0E85BFE4F4081C815D90554F4F801E6
:101DE000E60DF71DE85BFB4F4787602FCE010E9491
:101DF000090A7501C9CF8091DA03811104C080916D
:101E0000E003882301F11092DA031092E0031092AC
:101E1000C9031092C8031092C7030E94B10A80E060
:101E20000E94A10C8091DB036EE071E0811108C07B
:101E3000809114016EE271E0811102C06EEA71E0DE
:101E400080E00C946E0E08958091DA03811115C024
:101E50008091E003811111C00E94640B6EE071E07B
:101E600080E00E946E0E0E94FB026093CE0370938E
:101E7000CF038093D0039093D103089581E08093A2
:101E80001501809113010E945A0A8091DB03882377
:101E900029F06EE071E080E00E946E0E0C94B10AB1
:101EA0000F931F93CF93DF9300D000D01F92CDB735
:101EB000DEB78FED90E00E9467048091DA038823FB
:101EC00041F1809113011F928F9383EB91E09F93D7
:101ED0008F931F9285E08F938E010F5F1F4F1F938B
:101EE0000F930E948F23C8010E94160C0FB6F8941E
:101EF000DEBF0FBECDBF8CED90E00E94230C0F9093
:101F00000F900F900F900F90DF91CF911F910F9135
:101F100008958EE091E00E94160CEDCF0F931F9371
:101F2000CF93DF9300D000D01F92CDB7DEB7809162
:101F300013011F928F9383EB91E09F938F931F92D6
:101F400085E08F938E010F5F1F4F1F930F930E94A9
:101F50008F23B80180E00E946E0E0E94500F0FB6D2
:101F6000F894DEBF0FBECDBF0F900F900F900F9073
:101F70000F90DF91CF911F910F910895CF932091F2
:101F80001301820F911D8F3F980721F18031910538
:101F900014F08FE090E0809313010E945A0A90E0C1
:101FA00080E00E94B41F873A29F067EA90E080E061
:101FB0000E94BC1FC091130181E090E00E94B41FF9
:101FC000C81729F06C2F81E090E00E94BC1FCF91D0
:101FD0000C948E0F80E0DFCF8091E003882369F0BE
:101FE0001092E0031092C9038FEF8093C803109200
:101FF000C7030E94B10A0C948E0F08953F924F922E
:102000005F926F927F928F929F92AF92BF92CF9288
:10201000DF92EF92FF920F931F93CF93DF934B01C9
:102020005C01C3E3D1E002EB12E089EBC82E82E051
:10203000D82E92E8692E92E0792E2BE7E22E22E04C
:10204000F22E3324339488810E941C0221E0892BD4
:1020500009F020E0F8018081821731F02083F3013C
:1020600080829182A282B382F30181919191A191A8
:10207000B1913F01A5019401281B390B4A0B5B0B61
:10208000DA01C901C797A105B10568F1F80190818E
:10209000F6018081981739F1F7018081992309F4BD
:1020A00045C081111CC049805A8069EB71E0C201B2
:1020B0000E947823892B41F48091E0039091DA0308
:1020C000911107C0811107C061E0C2010E94DD0CBF
:1020D00004C0882341F10E94EC0FF7013082F8011F
:1020E0008081F601808323960F5F1F4FFFEFCF1A89
:1020F000DF0A2FEFE21AF20A31E0C834D30709F001
:10210000A2CFDF91CF911F910F91FF90EF90DF90C1
:10211000CF90BF90AF909F908F907F906F905F9087
:102120004F903F9008950E94FB0ED7CF8823B9F2BD
:1021300060E089819A810E94DD0CF7011082CFCF87
:102140002F923F924F925F926F927F928F929F92C7
:10215000AF92BF92CF92DF92EF92FF920F931F93B5
:10216000CF93DF934B015C010E94B80B0091AA0250
:102170001091AB022091AC023091AD020617170707
:102180002807390781F06093AA027093AB0280930D
:10219000AC029093AD028092770290927802A09266
:1021A0007902B0927A028091770290917802A091A0
:1021B0007902B0917A0295018401081B190B2A0B50
:1021C0003B0BD901C801C797A105B10560F1C090CB
:1021D000AA02D090AB02E090AC02F090AD02409029
:1021E000AE025090AF026090B0027090B102C41481
:1021F000D504E604F704B9F00E94B80BC616D7065A
:10220000E806F90619F16093AA027093AB02809375
:10221000AC029093AD028092770290927802A092E5
:102220007902B0927A02DF91CF911F910F91FF90C6
:10223000EF90DF90CF90BF90AF909F908F907F9066
:102240006F905F904F903F902F9008954C245D24A5
:102250006E247F24C2010E94F21F02974CF0C092AC
:10226000AE02D092AF02E092B002F092B102DBCFA8
:10227000D0E0C0E033243A9428EC222E8C2FC12CDD
:10228000D12C7601C3940C2E04C0CC0CDD1CEE1CAA
:10229000FF1C0A94D2F7B301A2014C215D216E21EB
:1022A0007F21452B462B472BD9F14091A602509117
:1022B000A7026091A8027091A9024C215D216E21B4
:1022C0007F210091AA021091AB022091AC023091C3
:1022D000AD020C211D212E213F21012B022B032BAE
:1022E00009F4CAC0452B462B472BD1F49091E0034B
:1022F000992361F10E94EC0F8091A6029091A702B0
:10230000A091A802B091A9028C299D29AE29BF29CC
:102310008093A6029093A702A093A802B093A9026B
:102320002196C031D10509F0A9CF8091AA029091E0
:10233000AB02A091AC02B091AD028093AE0290933B
:10234000AF02A093B002B093B1026DCF9091DA03C7
:10235000992319F1CA3029F481E090E00E94BE0F60
:10236000CBCFC83019F48FEF9FEFF8CFC93021F6EB
:1023700081E08093E0031092C9030E94FB02609306
:10238000CA037093CB038093CC039093CD036DEB82
:1023900071E080E00E946E0EAFCFC83031F49091B2
:1023A000C203992331F01092760261E00E94BE0CC4
:1023B000A3CF909176029923B9F040917202509187
:1023C0007302609174027091750295018401041B7F
:1023D000150B260B370BB901A801453C5940610587
:1023E000710510F010927602909176029923B9F05F
:1023F0004091720250917302609174027091750263
:1024000095018401041B150B260B370BB901A8019C
:10241000493552406105710510F0109276028092A4
:10242000720290927302A0927402B092750290911F
:1024300076029F5F943018F490937602B6CF109294
:10244000760281E08093DA031092E0031092DB03BE
:10245000109214013092C8032092C0021092C70358
:102460000E94B10A809113010E945A0A0E948E0FA5
:1024700081E00E94A10C40CF452B462B472B09F44D
:102480004FCF60E00E94BE0CC094D094E094F094D2
:102490008091A6029091A702A091A802B091A902F2
:1024A0008C219D21AE21BF2133CFBF92CF92DF92ED
:1024B000EF92FF920F931F93CF93DF93EC01198D4F
:1024C0001F3F81F0612F45960E941005FC0180811D
:1024D000898F309709F477C014828FEF8583BF010D
:1024E000812F76C06C0135E0C30ED11CE880F980E5
:1024F0008F89882341F0C6010E94A205E62FF72F9D
:10250000182F309749F71F89988D191324C010315F
:1025100009F459C0110F6D897E89D701ED91FC91A5
:10252000B4E01B9FA0011124C616D70609F044C0D1
:102530000190F081E02DBA01C7010995009709F4D7
:1025400042C020E1F601DC0101900D922A95E1F7ED
:102550009E8B8D8B188F0D891E898F8921E0280F06
:102560002F8BE4E08E9FC0011124080F191F90E10A
:10257000B92E203111F48FE0B82EF6E0BF9EB001E5
:102580001124D701ED91FC910190F081E02DC7015C
:102590000995F80193838283892B09F4B12CD80122
:1025A000BC9211961C92012B71F0C6010E94A205EB
:1025B000E62FF72F182F8DCF0480F581E02DC7016E
:1025C0000995009729F681E08A8360E070E08FEF3B
:1025D000DF91CF911F910F91FF90EF90DF90CF90FF
:1025E000BF9008954F925F926F927F928F929F92C9
:1025F000AF92BF92CF92DF92EF92FF920F931F9311
:10260000CF93DF9300D000D01F92CDB7DEB78C01FF
:102610007B01742E0E9480056C01892B09F046C055
:10262000C8010E943C05863609F4A6C114F587321C
:1026300029F08B3551F1823209F0A7C1F8011582DA
:10264000148282819381892B49F4808191810E9437
:102650006601D80113969C938E931297C8010E942D
:10266000E8076C01892B11F5B701C8010E94C70862
:102670001DC0843709F461C18B3709F47BC08E36E5
:1026800009F083C16DEC71E05FC180E4D70114965D
:102690008C931497E114F10421F08FEF8C93119631
:1026A0008C9371101AC025E0C22ED12CC6010F9058
:1026B0000F900F900F900F90DF91CF911F910F917E
:1026C000FF90EF90DF90CF90BF90AF909F908F9052
:1026D0007F906F905F904F900895F8011286C80127
:1026E0000E948005009751F56DE5C8010E944C05D8
:1026F0008111DCCF7A94D8011B968D909C90C401F7
:102700000E945512682E5B01672B21F494E0C92EBC
:10271000D12CCCCFF70161816F3F91F0C401459678
:102720000E941005DC0115966C92F7016182472D1D
:10273000B501C8010E94F212009739F06C01B6CFC2
:10274000D7018C9311968C93F2CFC8010E9480051B
:102750000097A1F76DE5C8010E944C058111A6CF35
:102760006CE2C8010E944C058111C5CF83E0C82EE0
:10277000D12C9CCF80E2F7018483E114F10419F09D
:102780008FEF80838183772009F48DCFD8011A964B
:102790001C92C8010E948005009781F66DE7C80170
:1027A0000E944C05811182CF7A94F801158214821F
:1027B00082819381892B49F4808191810E946601F5
:1027C000D80113969C938E931297C8010E943C05E2
:1027D0008732F9F08232E9F0C8010E943C05D82E18
:1027E0000E942A05882311F2F80112866D2DC80176
:1027F0000E94BA07C8010E943C05D82E0E942A05F3
:102800008111F2CFD80112968D919C91892B41F4C0
:102810007DCFC8010E94E8076C01892B09F046CFE3
:10282000C8010E9480056C01892B09F03FCF6AE343
:10283000C8010E944C05882309F498CFD80112964C
:10284000ED91FC91139714968D919C911597E80F3B
:10285000F91F148214966D917C9115977F771B96C2
:102860002D913C911C9712968D919C910496472F27
:102870004F77B62DB0786B2E642AE89467F8AC01D8
:10288000762DC7010E94570D6C01F8018384948452
:10289000009759F5C4010E945512482E5B01672B21
:1028A00009F434CFC4010E945512582E962FC92E18
:1028B000D72EC114D10409F429CFD50115965C9205
:1028C000F70161816F3F71F0C40145960E941005C8
:1028D000DC0115964C92F7015182B501C8010E94A6
:1028E000C70806C040825182F8CFB4010E94640933
:1028F000472DB601C8010E94F2126C01892B09F024
:10290000D5CEC8010E9480056C01892B09F0CECE7E
:102910006DE7C8010E944C058111C8CE6CE2C80168
:102920000E944C05882309F421CFC8010E9480052C
:102930006C01892B09F439CFB9CE86E0F701848385
:1029400081E0808362EC71E0C8010F900F900F90DE
:102950000F900F90DF91CF911F910F91FF90EF900B
:10296000DF90CF90BF90AF909F908F907F906F90AF
:102970005F904F900C945D0586E0D70114968C9380
:1029800014971C9267EC71E0DFCFC8010E943C05F0
:102990004801BDE08B0E911CB12C782CA92C803302
:1029A00084F08A3384F4EFE3BE16A9F0D8011A96B6
:1029B0001C92B394F40181934F01C8010E943C051D
:1029C000EECF8B3281F393ED980F923060F3982F16
:1029D0009F7D953441F30B0D111DD8011D961C925E
:1029E000872D9A2D0E9413063A834B835C836D8357
:1029F0008A819B81AC81BD812230A9F0233059F0BE
:102A0000213009F0B3CE2EE0F70124838083918337
:102A1000A283B3834BCE2AE0F70124838083918382
:102A2000A283B38343CE2CE0F7CFCB01BA010C9441
:102A3000AA22CB010C942122CB010C9485211F9258
:102A40000F920FB60F9211242F933F938F939F9362
:102A5000AF93BF938091E2039091E303A091E403CD
:102A6000B091E5033091E10323E0230F2D3758F5B2
:102A70000196A11DB11D2093E1038093E203909381
:102A8000E303A093E403B093E5038091E603909100
:102A9000E703A091E803B091E9030196A11DB11DE0
:102AA0008093E6039093E703A093E803B093E903D0
:102AB000BF91AF919F918F913F912F910F900FBE3A
:102AC0000F901F90189526E8230F0296A11DB11DA7
:102AD000D2CF1F920F920FB60F9211248F939F9314
:102AE0008091E1009091E100937F9093E10083FF5A
:102AF0000FC01092E90091E09093EB001092EC006F
:102B000092E39093ED001092F70398E09093F00019
:102B100082FF22C093E09093E9009091F200992304
:102B200019F09AE39093E8009091A302992341F061
:102B30009091A30291509093A302911101C05D9ACC
:102B40009091F603992341F09091F6039150909360
:102B5000F603911101C0289A84FF18C08091E20009
:102B60008E7E81608093E2008091E1008F7E809371
:102B7000E1008091A4028E7E80618093A4029F91E7
:102B80008F910F900FBE0F901F90189580FFF7CF79
:102B90008091E2008E7E80618093E2008091E1006E
:102BA0008E7E8093E1008091A4028E7E8160E5CFCD
:102BB0001F920F920FB60F921124CF92DF92EF92D5
:102BC000FF920F931F932F933F934F935F936F93B6
:102BD0007F938F939F93AF93BF93EF93FF93CF9385
:102BE000DF93CDB7DEB76C97DEBFCDBF1092E900A3
:102BF0008091E80083FF25C068E0CE0145960E94E1
:102C0000BF0382EF8093E8008D8987FF39C09091E0
:102C1000E80090FFFCCF982F907609F034C19E8990
:102C20004F89588D2F89F88C911131C0803861F50A
:102C30008091A5028093F1001092F1008EEF8093B5
:102C4000E8006C960FB6F894DEBF0FBECDBFDF91E3
:102C5000CF91FF91EF91BF91AF919F918F917F9114
:102C60006F915F914F913F912F911F910F91FF9025
:102C7000EF90DF90CF900F900FBE0F901F901895A0
:102C80009EEF9093E800C7CF1092F100D5CF91301E
:102C900059F48111D3CF4130510581F68091A502BD
:102CA0008D7F8093A502CACF933049F48111C6CF9E
:102CB0004130510519F68091A5028260F2CF95301E
:102CC00041F48091E80080FFFCCF20682093E3006E
:102CD000B5CF963009F0A9C00B8D1C8D22E0109263
:102CE000E9001092A1021092A002F2122EC01092DE
:102CF0009F0210929E020E948E031F8299E0998388
:102D0000FA8291E09E8390EA98879AEF99872091C2
:102D1000A0023091A102275F3F4F3C832B838D831C
:102D20001092E9001092A1021092A00210939F024B
:102D300000939E0249E050E0BE016F5F7F4F80E04C
:102D40000E9468030E948E0379CF10939F02009324
:102D50009E020E94BC01DC0112960D911C9101158E
:102D6000110509F451C1D801ED91FC910480F58160
:102D7000E02DBE016B5E7F4FC8010995009709F0F9
:102D80003EC1F80100851185EACFF3E0FF120EC0C5
:102D90008F89882309F440C0823061F440E862E101
:102DA0008CED91E00E943503811148CF81E2809340
:102DB000EB0047CF813029F440E868E083ED91E0F3
:102DC000F1CF833099F70E94BC01DC011296ED909F
:102DD000FC908E010F5F1F4F6801E114F10479F040
:102DE000D701ED91FC910680F781E02DB801C70174
:102DF0000995080F111DF701E084F184EECFD80189
:102E00001C92F60101900020E9F73197BF016C197F
:102E10007D0940E0C601C6CF6DEB71E0FB01449136
:102E200050E080E80E94680309CF973009F4BECFD4
:102E3000983021F481E08093F10000CF993009F0BF
:102E4000FDCE837009F0B2CFE8E2F1E081E031E03D
:102E500096E32191222371F08093E9003093EB00F7
:102E6000DF0111972C912093EC009093ED008F5F80
:102E7000873079F78EE78093EA001092EA008F8915
:102E80008093F703DBCE8B8D9C8D1092E90010921E
:102E9000A1021092A00290939F0280939E02898DBE
:102EA000811192C08E899D89913A49F4813209F04D
:102EB0007DCF47E050E064E071E080E0B3CF913235
:102EC00009F074CF833269F48F89988DB0E0A0E067
:102ED0008093000190930101A0930201B09303013C
:102EE000ADCE803269F48091E80082FFFCCF67E0CC
:102EF00084E091E00E94BF038BEF8093E8009ECEB8
:102F0000823209F09BCE8F8980930B01EEEFFFE7B1
:102F1000859194918B3F9C4D51F1E0E0F8E08091D8
:102F2000040190910501A0910601B0910701803B39
:102F30009440A105B105F1F480910B0180FD1AC008
:102F4000EE3F8AE0F80789F587E797E7918380836A
:102F5000809160008093A20288E19BE00FB6F89414
:102F6000A895809360000FBE9093600067CEEEEF4F
:102F7000FAE0D5CF808191818737974709F05ECEFF
:102F8000A895809160008861809360008091A20282
:102F900080936000EE3F2AE0F20789F08091FE0AFC
:102FA0009091FF0A9183808349CE808191818737F8
:102FB000980751F29093FF0A8093FE0AC5CF1092B2
:102FC000FF0A1092FE0A3ACE0E94BC01DC01129662
:102FD0000D911C910115110509F4E8CED801ED9170
:102FE000FC910190F081E02DBE016B5E7F4FC80126
:102FF0000995811123CEF80100851185EBCF1816B4
:1030000019060CF41BCED2CEF1E0FF12BECE61EC5D
:1030100071E004CF009749F0FC0194818CEF890F97
:10302000823028F081E0923019F080E0089581E04C
:103030000895CF92DF92EF92FF92CF93DF9300D06B
:1030400000D01F92CDB7DEB70E94B40DDC0100970F
:1030500009F445C01496EC911497E250ED3008F055
:103060003EC0F0E0EA5CF74E0C94EC1F5F186F185E
:103070005D18711843186F186F186F1851186F1872
:1030800051186F187518CC908C2D0F900F900F90D1
:103090000F900F90DF91CF91FF90EF90DF90CF9046
:1030A0000895CD90DD90ED90FC908FEFC816D1047F
:1030B000E104F10449F340F312C08D919C910E9408
:1030C00013063A834B835C836D83CA80DB80EC807C
:1030D000FD80223051F3233041F3213051F0C12CD7
:1030E000D3CF8D919C910496EACFCD90DD90ED9059
:1030F000FC9020E030E0A901C701B6010E94EB205E
:1031000087FDEDCF20E030E04FE753E4C701B60183
:103110000E94262018161CF3C701B6010E94322017
:10312000C62EB2CF0E94B40D009721F00E941B0D55
:10313000CB01089590E080E00895CF93DF93109243
:10314000FB031092FA0388EE93E0A0E0B0E08093D6
:10315000FC039093FD03A093FE03B093FF038CE761
:1031600091E09093F9038093F8038FEF9FEF909392
:10317000050480930404C1E0D0E0D0939904C09387
:10318000980482E090E090939B0480939A041092BC
:103190009D0410929C04D0939F04C0939E0461E010
:1031A00081E00E94730261E080919A040E947302A0
:1031B00061E080919C040E94730261E080919C0414
:1031C0000E944502D0939904C0939804E8E5F4E086
:1031D000119284E0E839F807D9F7D0E0C0E0809197
:1031E0009E0490919F04C817D90774F540E06FE0E2
:1031F000CE010E94090A80919E0490919F04C817F5
:10320000D9072CF447E06BE0CE010E94090A40E0A8
:1032100069E0CE010E94090A80919E0490919F046A
:10322000C817D9071CF4CE010E94720A80919E042F
:1032300090919F04C817D9072CF440E06CE0CE01B0
:103240000E94090A2196CBCF81E08093A80492E0E6
:103250009093A9041092AA048093AB0484E0809315
:10326000A40485E08093A50486E08093A60488E00A
:103270008093A70485E18093A00484E18093A10456
:1032800083E18093A20480E18093A304DF91CF9136
:103290000895CF93DF93CDB7DEB7CF57D1090FB6DF
:1032A000F894DEBF0FBECDBF789484B5826084BD34
:1032B00084B5816084BD85B5826085BD85B581603A
:1032C00085BD80916E00816080936E0010928100B8
:1032D0008091810082608093810080918100816073
:1032E0008093810080918000816080938000809134
:1032F0009100826080939100809191008160809321
:103300009100809190008160809390008091C10035
:1033100084608093C1008091C10082608093C1006D
:103320008091C10081608093C1008091C300816061
:103330008093C3008091C00082608093C000809120
:10334000C20081608093C20080917A008460809383
:103350007A0080917A00826080937A0080917A006E
:10336000816080937A0080917A00806880937A00EF
:103370001092F7031092A5021092A4028091D70038
:1033800081608093D70080EA8093D80089B58061FE
:1033900089BD89B5826089BD09B400FEFDCF61E0B9
:1033A00070E080E090E00E94C9028091D8008F7C9C
:1033B00080618093D8008091E000807F8093E0005E
:1033C0008091E1008E7E8093E1008DE08093E200A9
:1033D000559A209A8FEF9FEF9093050480930404F1
:1033E00062E370E080E090E00E94C90290E080E03B
:1033F0000E94B41F873A09F45BC08CE080931301EC
:1034000061E083E00E94730261E087E00E94730242
:1034100093E3C92E91E0D92E29EBE22E22E0F22E81
:1034200002EB12E0F601B08062E08B2D0E94730285
:103430008B2D0E941C0221E0892B09F020E0F7016E
:1034400021937F01F80121938F01F3E0CF0ED11C6E
:1034500028E4C21621E0D20629F7009113010F706B
:10346000009316010E94640BD12C10E08091AB04F4
:10347000D81630F5ED2CF12C80919E0490919F048C
:10348000E816F9062CF441E06CE0C7010E94090A35
:10349000B801C7010E944B0A80919E0490919F043D
:1034A000E816F9061CF4C7010E94720AD394DECF15
:1034B00081E090E00E94B41F803108F49FCF9DCF3F
:1034C0000E94640B61E08091A4040E94730261E099
:1034D0008091A5040E94730261E08091A6040E947D
:1034E000730260E08091A4040E94450260E0809134
:1034F000A5040E94450260E08091A6040E94450256
:1035000060E070E0CB010E94920A61E08091A0042B
:103510000E94730261E08091A1040E94730262E044
:103520008091A2040E94730261E08091A0040E9435
:10353000450260E08091A1040E9445021092C803F8
:103540001092C0021092C7030E94B10A0E94FB02AF
:103550006093D2037093D3038093D4039093D503E5
:1035600081E0809314016EE271E080E00E946E0EB3
:103570006EE670E080E090E00E94C9020E94B80B05
:1035800067E370E080E090E00E94C9020E94B80BFF
:103590004B015C018092AE029092AF02A092B00209
:1035A000B092B1028092AA029092AB02A092AC02B9
:1035B000B092AD021092A6021092A7021092A80239
:1035C0001092A90210E000E0C12CD12C7601C39426
:1035D000D501C401002E04C0B695A795979587958F
:1035E0000A94D2F780FF22C061E0802F0E94BE0CB7
:1035F000B701A601002E04C0440F551F661F771F98
:103600000A94D2F78091A6029091A702A091A802F5
:10361000B091A902842B952BA62BB72B8093A602E1
:103620009093A702A093A802B093A9020F5F1F4F27
:103630000031110569F60E94FD0C8E01025B1F4FDF
:10364000180135E0230E311CA801465E5F4FC258B9
:10365000DF4F59834883CE57D0400E94FB022B0195
:103660003C01B1EFCB2EB1E0DB2E88EF93E00E945E
:10367000D304181619060CF03EC388EF93E00E949D
:103680009104E091C1038A3019F08D3009F027C30D
:10369000EE2359F38090C3039090C403A090C50318
:1036A000B090C603F0E0EF53FD4F10820E94FB0282
:1036B0006093C3037093C4038093C5039093C603C0
:1036C00089288A288B2831F480911501811102C044
:1036D0000E943E0F43E050E062ED71E081EC92E029
:1036E0000E948123892B51F043E050E066ED71E0A8
:1036F00081EC92E00E948123892B29F40E94FD0C29
:103700001092C103B2CF2CE031E0F8013183208365
:10371000128214821382368A258A178A84E0808F67
:103720008FEF818F168E878FB901C1010E94CE0560
:10373000F8011282E080F180F80183819481009782
:1037400051F0FC0120813181F80134832383B701DA
:103750000E945A09F1CF168E1A8309831C821B829C
:103760001E821D821F8281EC92E0998788871B86CA
:103770001D870C874AE0C258DF4F68817981CE5798
:10378000D040CE0101960E94F2127C01892B51F4A7
:103790008A85882339F0F801868D83FF03C0A3E072
:1037A000EA2EF12C8B819C81009731F0E981FA811E
:1037B000608171810E945A09EF28B1F41A8309834C
:1037C0002AED31E03C832B8385E08D838E818078E8
:1037D00080688E83CE0101960E94B40D0E94ED0494
:1037E000882331F00E94FD0CC8010E94CC0988CFCB
:1037F000F801868D803209F45BC090E080E02AED0C
:1038000031E0EC963FAF2EAFEC9735E0ED963FAF51
:10381000ED97EE964FADEE974078542F5F77EE968A
:103820005FAFEE97009759F09801EE964CAD5DAD05
:103830006EAD7FADEE970E94570D892B99F61A83D6
:10384000098380EE91E09C838B83F4E0FF2EFD8260
:103850008E81807880688E83CE0101960E94B40D9F
:103860000E94ED041A830983882349F1E0EEF1E018
:10387000FC83EB83FD828E81807880688E83CE010D
:1038800001960E94CD0D21E0009709F420E02093DD
:10389000C203892B09F4A8CF8091DA03811105C0F6
:1038A0008091E003882309F49FCF0E94FB0E9CCFF8
:1038B000C258DF4F88819981CE57D040A0CF25EEE6
:1038C00031E03C832B83EBE0FE2EFD828E818078FD
:1038D00080688E83CE0101960E94B40D0E94ED0493
:1038E0001A830983882349F145EE51E05C834B83B9
:1038F000FD828E81807880688E83CE0101960E9441
:10390000CD0D892B19F00E943E0F6ECF109215013C
:103910001092DB03109214011092C8031092C0029F
:103920001092C70380E00E945A0A6EEA71E080E0BC
:103930000E946E0E0E94B10A57CFDC82CB8278E0E3
:10394000F72EFD828E81807880688E83CE0101966D
:103950000E94B40D0E94ED04882309F459C0E69634
:103960001FAF0EAFE697E896DFAECEAEE897E996CA
:10397000FFAEE997EA968FADEA9780788068EA967D
:103980008FAFEA97CE018C589F4F0E94CD0D97FDC7
:103990003BC0E0961FAF0EAFE097E296DFAECEAE33
:1039A000E297E396FFAEE397E4968FADE4978078D5
:1039B0008068E4968FAFE497CE0182599F4F0E94B2
:1039C000CD0D40971CF51A830983DC82CB82FD82E2
:1039D0008E81807880688E83CE0101960E94CD0D05
:1039E000809313010E945A0A8091DB03882309F413
:1039F000FBCE809115016EE071E0882309F4F4CECE
:103A000080E00E946E0EF0CE80E0EACF8FE0E8CF3B
:103A1000F090DA0380911501811107C0F11005C003
:103A20008091E003882309F4DFCEE0961FAF0EAF4C
:103A3000E0978AEF91E0E2969FAF8EAFE29766E063
:103A4000E62EE396EFAEE397E4968FADE4978078A9
:103A50008068E4968FAFE497CE0182599F4F0E9411
:103A6000B40D0E94ED0481112EC0F110BDCE8091E5
:103A7000E0038111B9CE1A83098341E0E42E42E0CC
:103A8000F42EFC82EB8252E0B52EBD828E818078CE
:103A900080688E83CE0101960E94B40D0E94ED04D1
:103AA0001A830983882309F43FC0FC82EB82BD821C
:103AB0008E81807880688E83CE0101960E941918CD
:103AC0008093C80337CF1A830983EAEFF1E0FC83C0
:103AD000EB83ED828E81807880688E83CE010196A3
:103AE0000E94CD0D892B09F0C0CFF1107DCE8091C1
:103AF000E003811179CE109214018091DB038823B9
:103B000081F06EE071E080E00E946E0E0E94FB0288
:103B10006093CE037093CF038093D0039093D1032F
:103B200063CE6EEA71E06CCF24E0E22E22E0F22E4A
:103B3000FC82EB8234E0B32EBD828E818078806877
:103B40008E83CE0101960E94B40D009709F45EC0E9
:103B5000FC018481882309F459C01A830983FC82FB
:103B6000EB82BD828E81807880688E83CE01019643
:103B70000E941918F82E1A83098389E092E09C8329
:103B80008B83BD828E81807880688E83CE01019682
:103B90000E94B40D0E940A18882391F1CE0101966B
:103BA0000E949218F1102FC0AEE0B1E0FC019C0120
:103BB0002C5F3F4F009719F04081411101C040E256
:103BC0004D9331962E173F07A9F71092120181E00D
:103BD0008093DB03109214010E94640B6EE071E08D
:103BE00080E00E946E0E0E94FB026093CE037093F1
:103BF000CF038093D0039093D1030E94500FF4CD54
:103C00008EEA91E0CFCFBC018F2DFBCE1A830983C2
:103C10008EE0E82E82E0F82EFC82EB8296E0B92E50
:103C2000BD828E81807880688E83CE0101960E944D
:103C3000B40D0E940A18882309F4D6CD1A8309838B
:103C4000FC82EB82BD828E81807880688E83CE017B
:103C500001960E9492185C011A83098385E192E023
:103C60009C838B8385E08D838E81807880688E83B2
:103C7000CE0101960E94B40D0E94ED04F12CE12CBE
:103C8000882329F0CE0101960E94CD0D7C016BE1C5
:103C900072E0C5010E947823892B91F48E2DFFEFED
:103CA000EF16F1040CF08EEF1E141F042CF010928E
:103CB000C0021092C8033ECE8093C0028FEF00CFA7
:103CC00069E272E0C5010E947823892B09F08CCD4E
:103CD00081E0EF2809F480E08093C7032BCEEF3F0B
:103CE00009F4C3CC91E09E0F9093C103F0E0EF5331
:103CF000FD4F8083BACC8091C3039091C403A091FF
:103D0000C503B091C6030097A105B105B9F0A301A1
:103D10009201281B390B4A0B5B0BDA01C901803A6F
:103D20009F40A105B10550F01092C2031092C30349
:103D30001092C4031092C5031092C6038091E00351
:103D4000882309F460C08091CA039091CB03A091AD
:103D5000CC03B091CD03A3019201281B390B4A0B70
:103D60005B0BDA01C9018C329140A105B10508F461
:103D70004AC04092CA035092CB036092CC03709227
:103D8000CD03F090C903F11010C06DEB71E080E03D
:103D90000E946E0E8FEF8093C8031092C7030E949B
:103DA000B10AF394F092C9032EC048E04F1570F0A9
:103DB00066E372E080E00E946E0E81E0EF2DE1503C
:103DC000FF0B01C0880FEA95EAF7E5CFF9E0FF1293
:103DD0000BC061E372E080E00E946E0E1092C80397
:103DE00081E08093C703DBCF6DEB71E080E00E9440
:103DF0006E0E8FEF8093C80381E08093C70310920B
:103E0000C9030E94B10A8091DC039091DD03A09167
:103E1000DE03B091DF03A3019201281B390B4A0B8B
:103E20005B0BDA01C901883B9B40A105B105D0F0CD
:103E30000E94FD0C0E94640B8091DB03882351F0EB
:103E400080911501882331F080911401811102C005
:103E50000E94240F4092DC035092DD036092DE0347
:103E60007092DF038091DA03811104C08091E00336
:103E7000882361F18091D6039091D703A091D80354
:103E8000B091D903A3019201281B390B4A0B5B0B9C
:103E9000DA01C9010897A105B10580F04092D60367
:103EA0005092D7036092D8037092D903C301B20134
:103EB0000E94A010C301B2010E94FE0F80E090E0BA
:103EC000892B09F4CACB0E940000C7CB8091140152
:103ED000882321F18091D2039091D303A091D40340
:103EE000B091D503A3019201281B390B4A0B5B0B40
:103EF000DA01C901803B9440A105B10508F4BACFAD
:103F0000109214018091DB03811105C06EEA71E00B
:103F10000E946E0EAFCF0E94240FACCF8091DB03C6
:103F2000882309F4A7CF8091CE039091CF03A0916D
:103F3000D003B091D103A3019201281B390B4A0B86
:103F40005B0BDA01C90184369105A105B10508F4BE
:103F500091CF0E94240F4092CE035092CF036092E3
:103F6000D0037092D10386CFF999FECF92BD81BD67
:103F7000F89A992780B50895262FF999FECF1FBA90
:103F800092BD81BD20BD0FB6F894FA9AF99A0FBE82
:103F900001960895A1E21A2EAA1BBB1BFD010DC0BC
:103FA000AA1FBB1FEE1FFF1FA217B307E407F507E9
:103FB00020F0A21BB30BE40BF50B661F771F881FC5
:103FC000991F1A9469F760957095809590959B015B
:103FD000AC01BD01CF010895EE0FFF1F0590F491D4
:103FE000E02D09940E94FC1F8F93892F0E94FC1FD3
:103FF00099270F90800D0895082E817006940694DD
:10400000811D0694811D0694811D0694811D0694D0
:10401000811D0694801D08950E941720A59F900D74
:10402000B49F900DA49F800D911D11240895A29F0F
:10403000B001B39FC001A39F700D811D1124911D7C
:10404000B29F700D811D1124911D08950E949E2024
:1040500008F481E008950E9432206894B1110C9414
:10406000E52008950E94CA2088F09F5798F0B92F44
:104070009927B751B0F0E1F0660F771F881F991F9D
:104080001AF0BA95C9F714C0B13091F00E94E4203B
:10409000B1E008950C94E420672F782F8827B85F4B
:1040A00039F0B93FCCF3869577956795B395D9F7F5
:1040B0003EF490958095709561957F4F8F4F9F4FFF
:1040C0000895E89409C097FB3EF49095809570950B
:1040D00061957F4F8F4F9F4F9923A9F0F92F96E954
:1040E000BB279395F695879577956795B795F111C9
:1040F000F8CFFAF4BB0F11F460FF1BC06F5F7F4F66
:104100008F4F9F4F16C0882311F096E911C0772377
:1041100021F09EE8872F762F05C0662371F096E880
:10412000862F70E060E02AF09A95660F771F881F4F
:10413000DAF7880F9695879597F90895990F0008F3
:10414000550FAA0BE0E8FEEF16161706E807F90769
:10415000C0F012161306E407F50798F0621B730B04
:10416000840B950B39F40A2661F0232B242B252B85
:1041700021F408950A2609F4A140A6958FEF811D28
:10418000811D089557FD9058440F551F59F05F3F0A
:1041900071F04795880F97FB991F61F09F3F79F069
:1041A00087950895121613061406551FF2CF4695EB
:1041B000F1DF08C0161617061806991FF1CF86956D
:1041C0007105610508940895E894BB276627772751
:1041D000CB0197F908950E949E2008F48FEF08956F
:1041E0000E9403210C9474210E94662138F00E94E1
:1041F0006D2120F0952311F00C945D210C94632126
:1042000011240C94E5200E94C22070F3959FC1F305
:10421000950F50E0551F629FF001729FBB27F00D74
:10422000B11D639FAA27F00DB11DAA1F649F6627C9
:10423000B00DA11D661F829F2227B00DA11D621F18
:10424000739FB00DA11D621F839FA00D611D221FD2
:10425000749F3327A00D611D231F849F600D211DB6
:10426000822F762F6A2F11249F5750409AF0F1F039
:1042700088234AF0EE0FFF1FBB1F661F771F881FA2
:1042800091505040A9F79E3F510580F00C945D215C
:104290000C94E5205F3FE4F3983ED4F38695779540
:1042A0006795B795F795E7959F5FC1F7FE2B880F48
:1042B000911D9695879597F9089597F99F6780E8DE
:1042C00070E060E008959FEF80EC089500240A9468
:1042D0001616170618060906089500240A941216E1
:1042E0001306140605060895092E0394000C11F414
:1042F000882352F0BB0F40F4BF2B11F460FF04C0C1
:104300006F5F7F4F8F4F9F4F08950F931F93CF93F2
:10431000DF938230910510F482E090E0E091AE04EA
:10432000F091AF0430E020E0B0E0A0E0309799F4E5
:104330002115310509F44AC0281B390B24303105F9
:10434000D8F58A819B816115710589F1FB01938301
:104350008283FE0111C0408151810281138148177F
:104360005907E0F04817590799F4109761F0129631
:104370000C93129713961C933296CF01DF91CF9135
:104380001F910F9108950093AE041093AF04F4CFE2
:104390002115310551F04217530738F0A901DB010F
:1043A0009A01BD01DF01F801C1CFEF01F9CF909370
:1043B000AF048093AE04CDCFFE01E20FF31F8193D3
:1043C00091932250310939832883D7CF2091AC04AF
:1043D0003091AD04232B41F42091190130911A0141
:1043E0003093AD042093AC04209117013091180153
:1043F0002115310541F42DB73EB740911B01509175
:104400001C01241B350BE091AC04F091AD04E217C4
:10441000F307A0F42E1B3F0B2817390778F0AC01E7
:104420004E5F5F4F2417350748F04E0F5F1F5093C4
:10443000AD044093AC04819391939FCFF0E0E0E012
:104440009CCFCF93DF930097E9F0FC013297138262
:104450001282A091AE04B091AF04ED0130E020E0F3
:104460001097A1F420813181820F931F2091AC0419
:104470003091AD042817390709F061C0F093AD04FD
:10448000E093AC04DF91CF910895EA01CE17DF07E6
:10449000E8F54A815B819E0141155105B1F7E901BB
:1044A000FB83EA8349915991C40FD51FEC17FD078F
:1044B00061F4808191810296840F951FE9019983AF
:1044C0008883828193819B838A83F0E0E0E0129667
:1044D0008D919C9113970097B9F52D913C9111976F
:1044E000CD010296820F931F2091AC043091AD0450
:1044F0002817390739F6309751F51092AF0410920A
:10450000AE04B093AD04A093AC04BCCFD383C283FC
:1045100040815181840F951FC817D90761F44E5F00
:104520005F4F88819981480F591F518340838A8149
:104530009B81938382832115310509F0B0CFF093DD
:10454000AF04E093AE049ECFFD01DC01C0CF138227
:104550001282D7CFB0E0A0E0E0EBF2E20C943F266D
:104560008C01009751F4CB010E9485218C01C80178
:10457000CDB7DEB7E0E10C945B26FC01E60FF71F38
:104580009C0122503109E217F30708F49DC0D901BC
:10459000CD91DC911197C617D70798F0C530D1059A
:1045A00030F3CE0104978617970708F3C61BD70B85
:1045B0002297C193D1936D937C93CF010E942122C6
:1045C000D6CF5B01AC1ABD0A4C018C0E9D1EA0918A
:1045D000AE04B091AF04512C412CF12CE12C10977A
:1045E00031F58091AC049091AD048815990509F0DE
:1045F0005CC04616570608F058C08091170190918C
:104600001801009741F48DB79EB740911B0150915E
:104610001C01841B950BE817F90708F055C0F093AF
:10462000AD04E093AC04F90171836083A0CF8D9158
:104630009C91119712966C90129713967C901397F9
:10464000A815B90559F56C0142E0C40ED11CCA1475
:10465000DB0420F1AC014A195B09DA0112961597C7
:1046600080F06282738251834083D9016D937C9381
:10467000E114F10471F0D7011396FC93EE931297B5
:1046800076CF22968C0F9D1FF90191838083F301D1
:10469000EFCFF093AF04E093AE0469CF481659060C
:1046A00008F42C017D01D3019ACFCB010E94852112
:1046B0007C01009749F0AE01B8010E946F23C80148
:1046C0000E942122870153CF10E000E050CF9111CA
:1046D000089581568A5108F4805285580895FB0147
:1046E000DC0102C001900D9241505040D8F708956E
:1046F000FB01DC018D91019080190110D9F3990B18
:104700000895FB01DC014150504030F08D91019043
:10471000801919F40020B9F7881B990B0895AEE0B1
:10472000B0E0E5E9F3E20C944B260D891E898F89F0
:10473000988D26E02C831A83098397FF02C080E0BE
:1047400090E801979E838D83AE01455E5F4F698D32
:104750007A8DCE0101960E94BF234D815E8157FD67
:104760000AC02F813885421753070CF49A01020FB3
:10477000131FF80110822E96E4E00C946726ABE03C
:10478000B0E0E5ECF3E20C943D267C013B018A01AC
:10479000FC0117821682838181FFC8C1CE01019678
:1047A0005C01F7019381F30193FD859193FF819162
:1047B0003F01882309F453C1853239F493FD859173
:1047C00093FF81913F01853229F4B70190E00E9467
:1047D000AF25E7CF912C212C312CFFE1F31538F0D8
:1047E0008B3211F190F4803209F1833229F137FCD8
:1047F0003CC020ED280F2A3050F536FE20C08AE05C
:10480000989E200D1124922E06C08D3291F0803397
:1048100071F7689430F8F30193FD859193FF8191CE
:104820003F018111DACF21C0689431F8689432F8E1
:10483000F2CF689433F8EFCF689434F8ECCFEAE025
:104840002E9E200D1124222E689435F8E4CF8E324E
:1048500029F436FC04C1689436F8DDCF8C3619F49F
:10486000689437F8D8CF8836B1F2982F9F7D955449
:104870009330E0F08336A1F18337C1F1833509F03D
:1048800063C02801F2E04F0E511CF801C080D180B6
:10489000692D70E036FC02C06FEF7FEFC6010E9409
:1048A00099254C01689437F882010AC00C5F1F4FAC
:1048B000FFE3F98388248394912C6501E89437F809
:1048C00033FE2DC0522C8114910471F5552009F44A
:1048D00068CFB70180E290E00E94AF255A94F6CFEE
:1048E000F801808189830E5F1F4FE4CF2801F2E039
:1048F0004F0E511CF801C080D180692D70E036FC4C
:1049000002C06FEF7FEFC6010E94A4254C01820117
:10491000D5CFB70180E290E00E94AF252A942814F9
:10492000190409F0B0F7CECFF60137FC859137FEB8
:1049300081916F01B70190E00E94AF2551105A9408
:10494000F1E08F1A9108BFCF843619F0893609F04B
:1049500077C0F80137FE6BC06081718182819381DD
:104960000C5F1F4FF32DFF763F2E97FF09C09095E8
:104970008095709561957F4F8F4F9F4F689437F862
:104980002AE030E0A5010E94DF25C82ECA188C2C31
:10499000432C36FE0CC0E89440F8C91440F434FEB1
:1049A00005C032FC03C0F32DFE7E4F2E892C44FE41
:1049B00095C0FE01EC0DF11D8081803309F087C0A8
:1049C000242D297E422E842D8870582E43FC95C0BC
:1049D00040FE8FC09C2C821418F42C0C922C98183A
:1049E00044FE91C0B70180E390E00E94AF2542FEF3
:1049F00009C088E790E041FE02C088E590E0B70179
:104A00000E94AF25C91408F48AC0CA94D12C9FEF24
:104A1000C91AD90ACA0CDB1CF60182916F01B701D1
:104A200090E00E94AF25AC14BD04B1F74FCF608178
:104A30007181072E000C880B990B0E5F1F4F92CFD0
:104A4000D32CE894D4F82AE030E0853739F1232DCF
:104A5000297FD22E8F3601F148F48835A9F0F7016D
:104A6000868197812B96E2E10C945926803749F094
:104A70008837A9F7D4FE02C06894D2F820E130E06C
:104A80000DC06894D4F8F6CF34FE03C0822F866040
:104A9000D82E20E132E002C028E030E0F801D7FE55
:104AA0000FC060817181828193810C5F1F4FA501CE
:104AB0000E94DF25C82ECA183D2CE89437F867CF2E
:104AC0006081718190E080E00E5F1F4FF0CF42FC6B
:104AD00002C0839478CF8394839475CF842D867895
:104AE00009F471CFF6CFB70180E290E00E94AF25C4
:104AF00083948214C0F3512C73CF522C5818821413
:104B000008F46ECFF8CF842D867809F47BCF8BE242
:104B100041FE80E247FC8DE2B70190E071CFB70122
:104B200080E390E00E94AF259A946CCF8FEF9FEFC7
:104B300099CFFC010590615070400110D8F7809525
:104B400090958E0F9F1F0895FC0161507040019059
:104B50000110D8F7809590958E0F9F1F08950F93A1
:104B60001F93CF93DF93182F092FEB018B8181FDCA
:104B700009C01FEF0FEF812F902FDF91CF911F9171
:104B80000F91089582FF14C02E813F818C819D81F9
:104B9000281739073CF4E881F981CF010196998300
:104BA000888310838E819F8101969F838E83E3CFBC
:104BB000E885F985812F0995892BA1F3DACFFA01D0
:104BC000AA27283051F1203181F1E8946F936E7F4C
:104BD0006E5F7F4F8F4F9F4FAF4FB1E03ED0B4E03D
:104BE0003CD0670F781F891F9A1FA11D680F791F7E
:104BF0008A1F911DA11D6A0F711D811D911DA11D8F
:104C000020D009F468943F912AE0269F112430199E
:104C1000305D3193DEF6CF010895462F4770405D39
:104C20004193B3E00FD0C9F7F6CF462F4F70405DE8
:104C30004A3318F0495D31FD4052419302D0A9F743
:104C4000EACFB4E0A6959795879577956795BA953D
:104C5000C9F700976105710508959B01AC010A2E03
:104C600006945795479537952795BA95C9F7620FDA
:104C7000731F841F951FA01D08952F923F924F927E
:104C80005F926F927F928F929F92AF92BF92CF92DC
:104C9000DF92EF92FF920F931F93CF93DF93CDB7E5
:104CA000DEB7CA1BDB0B0FB6F894DEBF0FBECDBF5D
:104CB00009942A88398848885F846E847D848C842E
:104CC0009B84AA84B984C884DF80EE80FD800C8137
:104CD0001B81AA81B981CE0FD11D0FB6F894DEBF1A
:0C4CE0000FBECDBFED010895F894FFCF8A
:104CEC00FFFFFFFF00E10000000000002101202079
:104CFC002020000C01010F0000B004800000000017
:104D0C00001C151915151500C180810000004F4EAF
:104D1C004C4900083B020948020A54020E5B020F80
:104D2C00610210B9011269020000000000000000CD
:104D3C0000000000000100007E306D79335B5F7075
:104D4C007F7B0000000000006F00000000000000EE
:104D5C00003000000E00547E000000005104CC0313
:104D6C008D048204D3049104AF042F2F2727222211
:104D7C005C5C6208660C6E0A720D7409000D0A0008
:104D8C004154432D5443415300322E3138002020DE
:104D9C00202000622530326400434C5200383838F1
:104DAC003800747275650066616C7365006E756CA5
:104DBC006C00524551005645520070726F6265008E
:104DCC006D7366730070616E656C5F706F77657282
:104DDC0000646973705F6272740073706C617368E5
:104DEC000073720064697370007465787400646594
:104DFC0076696365007374617465004261636B6C02
:104E0C00696768745F427274004C45445F41544357
:104E1C005F4641494C002D2D2D2D00414C545F52C5
:104E2C005054475F4F464600414C545F52505447D4
:104E3C005F4F4E00585044525F31004944454E5428
:104E4C00004D535F4155544F004D535F53544259DD
:024E5C00000054
:00000001FF
